{
  "abi": [
    {
      "inputs": [],
      "stateMutability": "nonpayable",
      "type": "constructor"
    },
    {
      "inputs": [
        {
          "internalType": "Keycode",
          "name": "keycode_",
          "type": "bytes5"
        }
      ],
      "name": "InvalidKeycode",
      "type": "error"
    },
    {
      "inputs": [
        {
          "internalType": "Role",
          "name": "role_",
          "type": "bytes32"
        }
      ],
      "name": "InvalidRole",
      "type": "error"
    },
    {
      "inputs": [
        {
          "internalType": "address",
          "name": "addr_",
          "type": "address"
        },
        {
          "internalType": "Role",
          "name": "role_",
          "type": "bytes32"
        }
      ],
      "name": "Kernel_AddressAlreadyHasRole",
      "type": "error"
    },
    {
      "inputs": [
        {
          "internalType": "address",
          "name": "addr_",
          "type": "address"
        },
        {
          "internalType": "Role",
          "name": "role_",
          "type": "bytes32"
        }
      ],
      "name": "Kernel_AddressDoesNotHaveRole",
      "type": "error"
    },
    {
      "inputs": [
        {
          "internalType": "Keycode",
          "name": "module_",
          "type": "bytes5"
        }
      ],
      "name": "Kernel_InvalidModuleUpgrade",
      "type": "error"
    },
    {
      "inputs": [
        {
          "internalType": "Keycode",
          "name": "module_",
          "type": "bytes5"
        }
      ],
      "name": "Kernel_ModuleAlreadyInstalled",
      "type": "error"
    },
    {
      "inputs": [
        {
          "internalType": "address",
          "name": "caller_",
          "type": "address"
        }
      ],
      "name": "Kernel_OnlyAdmin",
      "type": "error"
    },
    {
      "inputs": [
        {
          "internalType": "address",
          "name": "caller_",
          "type": "address"
        }
      ],
      "name": "Kernel_OnlyExecutor",
      "type": "error"
    },
    {
      "inputs": [
        {
          "internalType": "address",
          "name": "policy_",
          "type": "address"
        }
      ],
      "name": "Kernel_PolicyAlreadyActivated",
      "type": "error"
    },
    {
      "inputs": [
        {
          "internalType": "address",
          "name": "policy_",
          "type": "address"
        }
      ],
      "name": "Kernel_PolicyNotActivated",
      "type": "error"
    },
    {
      "inputs": [
        {
          "internalType": "Role",
          "name": "role_",
          "type": "bytes32"
        }
      ],
      "name": "Kernel_RoleDoesNotExist",
      "type": "error"
    },
    {
      "inputs": [
        {
          "internalType": "address",
          "name": "target_",
          "type": "address"
        }
      ],
      "name": "TargetNotAContract",
      "type": "error"
    },
    {
      "anonymous": false,
      "inputs": [
        {
          "indexed": true,
          "internalType": "enum Actions",
          "name": "action_",
          "type": "uint8"
        },
        {
          "indexed": true,
          "internalType": "address",
          "name": "target_",
          "type": "address"
        }
      ],
      "name": "ActionExecuted",
      "type": "event"
    },
    {
      "anonymous": false,
      "inputs": [
        {
          "indexed": true,
          "internalType": "Keycode",
          "name": "keycode_",
          "type": "bytes5"
        },
        {
          "indexed": true,
          "internalType": "contract Policy",
          "name": "policy_",
          "type": "address"
        },
        {
          "indexed": false,
          "internalType": "bytes4",
          "name": "funcSelector_",
          "type": "bytes4"
        },
        {
          "indexed": false,
          "internalType": "bool",
          "name": "granted_",
          "type": "bool"
        }
      ],
      "name": "PermissionsUpdated",
      "type": "event"
    },
    {
      "anonymous": false,
      "inputs": [
        {
          "indexed": true,
          "internalType": "Role",
          "name": "role_",
          "type": "bytes32"
        },
        {
          "indexed": true,
          "internalType": "address",
          "name": "addr_",
          "type": "address"
        }
      ],
      "name": "RoleGranted",
      "type": "event"
    },
    {
      "anonymous": false,
      "inputs": [
        {
          "indexed": true,
          "internalType": "Role",
          "name": "role_",
          "type": "bytes32"
        },
        {
          "indexed": true,
          "internalType": "address",
          "name": "addr_",
          "type": "address"
        }
      ],
      "name": "RoleRevoked",
      "type": "event"
    },
    {
      "inputs": [
        {
          "internalType": "uint256",
          "name": "",
          "type": "uint256"
        }
      ],
      "name": "activePolicies",
      "outputs": [
        {
          "internalType": "contract Policy",
          "name": "",
          "type": "address"
        }
      ],
      "stateMutability": "view",
      "type": "function"
    },
    {
      "inputs": [],
      "name": "admin",
      "outputs": [
        {
          "internalType": "address",
          "name": "",
          "type": "address"
        }
      ],
      "stateMutability": "view",
      "type": "function"
    },
    {
      "inputs": [
        {
          "internalType": "uint256",
          "name": "",
          "type": "uint256"
        }
      ],
      "name": "allKeycodes",
      "outputs": [
        {
          "internalType": "Keycode",
          "name": "",
          "type": "bytes5"
        }
      ],
      "stateMutability": "view",
      "type": "function"
    },
    {
      "inputs": [
        {
          "internalType": "enum Actions",
          "name": "action_",
          "type": "uint8"
        },
        {
          "internalType": "address",
          "name": "target_",
          "type": "address"
        }
      ],
      "name": "executeAction",
      "outputs": [],
      "stateMutability": "nonpayable",
      "type": "function"
    },
    {
      "inputs": [],
      "name": "executor",
      "outputs": [
        {
          "internalType": "address",
          "name": "",
          "type": "address"
        }
      ],
      "stateMutability": "view",
      "type": "function"
    },
    {
      "inputs": [
        {
          "internalType": "Keycode",
          "name": "",
          "type": "bytes5"
        },
        {
          "internalType": "contract Policy",
          "name": "",
          "type": "address"
        }
      ],
      "name": "getDependentIndex",
      "outputs": [
        {
          "internalType": "uint256",
          "name": "",
          "type": "uint256"
        }
      ],
      "stateMutability": "view",
      "type": "function"
    },
    {
      "inputs": [
        {
          "internalType": "contract Module",
          "name": "",
          "type": "address"
        }
      ],
      "name": "getKeycodeForModule",
      "outputs": [
        {
          "internalType": "Keycode",
          "name": "",
          "type": "bytes5"
        }
      ],
      "stateMutability": "view",
      "type": "function"
    },
    {
      "inputs": [
        {
          "internalType": "Keycode",
          "name": "",
          "type": "bytes5"
        }
      ],
      "name": "getModuleForKeycode",
      "outputs": [
        {
          "internalType": "contract Module",
          "name": "",
          "type": "address"
        }
      ],
      "stateMutability": "view",
      "type": "function"
    },
    {
      "inputs": [
        {
          "internalType": "contract Policy",
          "name": "",
          "type": "address"
        }
      ],
      "name": "getPolicyIndex",
      "outputs": [
        {
          "internalType": "uint256",
          "name": "",
          "type": "uint256"
        }
      ],
      "stateMutability": "view",
      "type": "function"
    },
    {
      "inputs": [
        {
          "internalType": "Role",
          "name": "role_",
          "type": "bytes32"
        },
        {
          "internalType": "address",
          "name": "addr_",
          "type": "address"
        }
      ],
      "name": "grantRole",
      "outputs": [],
      "stateMutability": "nonpayable",
      "type": "function"
    },
    {
      "inputs": [
        {
          "internalType": "address",
          "name": "",
          "type": "address"
        },
        {
          "internalType": "Role",
          "name": "",
          "type": "bytes32"
        }
      ],
      "name": "hasRole",
      "outputs": [
        {
          "internalType": "bool",
          "name": "",
          "type": "bool"
        }
      ],
      "stateMutability": "view",
      "type": "function"
    },
    {
      "inputs": [
        {
          "internalType": "Role",
          "name": "",
          "type": "bytes32"
        }
      ],
      "name": "isRole",
      "outputs": [
        {
          "internalType": "bool",
          "name": "",
          "type": "bool"
        }
      ],
      "stateMutability": "view",
      "type": "function"
    },
    {
      "inputs": [
        {
          "internalType": "Keycode",
          "name": "",
          "type": "bytes5"
        },
        {
          "internalType": "uint256",
          "name": "",
          "type": "uint256"
        }
      ],
      "name": "moduleDependents",
      "outputs": [
        {
          "internalType": "contract Policy",
          "name": "",
          "type": "address"
        }
      ],
      "stateMutability": "view",
      "type": "function"
    },
    {
      "inputs": [
        {
          "internalType": "Keycode",
          "name": "",
          "type": "bytes5"
        },
        {
          "internalType": "contract Policy",
          "name": "",
          "type": "address"
        },
        {
          "internalType": "bytes4",
          "name": "",
          "type": "bytes4"
        }
      ],
      "name": "modulePermissions",
      "outputs": [
        {
          "internalType": "bool",
          "name": "",
          "type": "bool"
        }
      ],
      "stateMutability": "view",
      "type": "function"
    },
    {
      "inputs": [
        {
          "internalType": "Role",
          "name": "role_",
          "type": "bytes32"
        },
        {
          "internalType": "address",
          "name": "addr_",
          "type": "address"
        }
      ],
      "name": "revokeRole",
      "outputs": [],
      "stateMutability": "nonpayable",
      "type": "function"
    }
  ],
  "bytecode": {
    "object": "0x608060405234801561001057600080fd5b5060008054336001600160a01b03199182168117835560018054909216179055611be290819061004090396000f3fe608060405234801561001057600080fd5b50600436106100f45760003560e01c8063ae5f76fa11610097578063d547741f11610066578063d547741f14610296578063dbb61ee7146102a9578063f166d9eb146102bc578063f851a440146102f057600080fd5b8063ae5f76fa1461020b578063b4dc00b414610247578063c34c08e514610270578063c4d1f8f11461028357600080fd5b80632f2ff15d116100d35780632f2ff15d146101955780635af099c9146101aa57806363a6e3b5146101bd578063ac4ab3fb146101dd57600080fd5b80620dd95d146100f957806303c02f421461012957806311f944e114610162575b600080fd5b61010c61010736600461177b565b610303565b6040516001600160a01b0390911681526020015b60405180910390f35b6101546101373660046117bc565b600660209081526000928352604080842090915290825290205481565b604051908152602001610120565b6101856101703660046117f5565b600b6020526000908152604090205460ff1681565b6040519015158152602001610120565b6101a86101a336600461180e565b61033b565b005b61010c6101b83660046117f5565b610456565b6101546101cb366004611833565b60096020526000908152604090205481565b6101856101eb366004611857565b600a60209081526000928352604080842090915290825290205460ff1681565b61022e610219366004611833565b60046020526000908152604090205460d81b81565b6040516001600160d81b03199091168152602001610120565b61010c610255366004611875565b6003602052600090815260409020546001600160a01b031681565b60005461010c906001600160a01b031681565b6101a8610291366004611892565b610480565b6101a86102a436600461180e565b6106ee565b61022e6102b73660046117f5565b6107f9565b6101856102ca3660046118ca565b600760209081526000938452604080852082529284528284209052825290205460ff1681565b60015461010c906001600160a01b031681565b6005602052816000526040600020818154811061031f57600080fd5b6000918252602090912001546001600160a01b03169150829050565b6001546001600160a01b0316331461036d576040516307dda43b60e01b81523360048201526024015b60405180910390fd5b6001600160a01b0381166000908152600a6020908152604080832085845290915290205460ff16156103c457604051631ad5d88160e01b81526001600160a01b038216600482015260248101839052604401610364565b6103cd82610830565b6000828152600b602052604090205460ff166103fd576000828152600b60205260409020805460ff191660011790555b6001600160a01b0381166000818152600a60209081526040808320868452909152808220805460ff191660011790555184917f2ae6a113c0ed5b78a53413ffbb7679881f11145ccfba4fb92e863dfcd5a1d2f391a35050565b6008818154811061046657600080fd5b6000918252602090912001546001600160a01b0316905081565b6000546001600160a01b031633146104ac576040516237c7b360e01b8152336004820152602401610364565b60008260068111156104c0576104c0611915565b03610546576104ce816108de565b610538816001600160a01b0316631ae7ec2e6040518163ffffffff1660e01b8152600401602060405180830381865afa15801561050f573d6000803e3d6000fd5b505050506040513d601f19601f82011682018060405250810190610533919061192b565b610911565b61054181610994565b6106a5565b600182600681111561055a5761055a611915565b036105b257610568816108de565b6105a9816001600160a01b0316631ae7ec2e6040518163ffffffff1660e01b8152600401602060405180830381865afa15801561050f573d6000803e3d6000fd5b61054181610b48565b60028260068111156105c6576105c6611915565b036105dd576105d4816108de565b61054181610cd1565b60038260068111156105f1576105f1611915565b03610608576105ff816108de565b61054181610fc5565b600482600681111561061c5761061c611915565b0361064157600080546001600160a01b0319166001600160a01b0383161790556106a5565b600582600681111561065557610655611915565b0361067a57600180546001600160a01b0319166001600160a01b0383161790556106a5565b600682600681111561068e5761068e611915565b036106a55761069c816108de565b6106a5816111ed565b806001600160a01b03168260068111156106c1576106c1611915565b6040517f6560dd86d70bf03c0005b3533cc115fa8b8a12b4ee11c7342ae7b32d82267c9090600090a35050565b6001546001600160a01b0316331461071b576040516307dda43b60e01b8152336004820152602401610364565b6000828152600b602052604090205460ff1661074d57604051630c2d328960e11b815260048101839052602401610364565b6001600160a01b0381166000908152600a6020908152604080832085845290915290205460ff166107a3576040516344d7183f60e11b81526001600160a01b038216600482015260248101839052604401610364565b6001600160a01b0381166000818152600a60209081526040808320868452909152808220805460ff191690555184917f155aaafb6329a2098580462df33ec4b7441b19729b9601c5fc17ae1cf99a8a5291a35050565b6002818154811061080957600080fd5b9060005260206000209060069182820401919006600502915054906101000a900460d81b81565b8060005b60208110156108d957600082826020811061085157610851611948565b1a60f81b9050606160f81b6001600160f81b0319821610806108805750603d60f91b6001600160f81b03198216115b801561089a5750605f60f81b6001600160f81b0319821614155b80156108af57506001600160f81b0319811615155b156108d05760405163125a2bb760e01b815260048101859052602401610364565b50600101610834565b505050565b803b600081900361090d57604051631bd1ba9d60e21b81526001600160a01b0383166004820152602401610364565b5050565b8060005b60058110156108d957600082826005811061093257610932611948565b1a60f81b9050604160f81b6001600160f81b0319821610806109615750602d60f91b6001600160f81b03198216115b1561098b5760405163075f770560e31b81526001600160d81b031985166004820152602401610364565b50600101610915565b6000816001600160a01b0316631ae7ec2e6040518163ffffffff1660e01b8152600401602060405180830381865afa1580156109d4573d6000803e3d6000fd5b505050506040513d601f19601f820116820180604052508101906109f8919061192b565b6001600160d81b031981166000908152600360205260409020549091506001600160a01b031615610a4857604051634403633360e11b81526001600160d81b031982166004820152602401610364565b6001600160d81b03198116600090815260036020908152604080832080546001600160a01b0319166001600160a01b038716908117909155808452600492839052818420805464ffffffffff191660d887901c908117909155600280546001810182559086527f405787fa12a823e0f2b7631cc41b3ba8828b3321ca811111fa75cd3aa3bb5ace600680830491909101805464ffffffffff929093066005026101000a9182021990921692029190911790558151633a990e4560e21b81529151909363ea643914938381019391929182900301818387803b158015610b2c57600080fd5b505af1158015610b40573d6000803e3d6000fd5b505050505050565b6000816001600160a01b0316631ae7ec2e6040518163ffffffff1660e01b8152600401602060405180830381865afa158015610b88573d6000803e3d6000fd5b505050506040513d601f19601f82011682018060405250810190610bac919061192b565b6001600160d81b031981166000908152600360205260409020549091506001600160a01b0316801580610bf05750826001600160a01b0316816001600160a01b0316145b15610c1a5760405163073e073160e01b81526001600160d81b031983166004820152602401610364565b6001600160a01b038181166000908152600460208181526040808420805464ffffffffff19908116909155948816808552818520805490961660d889901c179095556001600160d81b031987168452600390915280832080546001600160a01b031916851790558051633a990e4560e21b8152905163ea6439149382840193909282900301818387803b158015610cb057600080fd5b505af1158015610cc4573d6000803e3d6000fd5b505050506108d9826113b4565b806001600160a01b03166322f3e2d46040518163ffffffff1660e01b8152600401602060405180830381865afa158015610d0f573d6000803e3d6000fd5b505050506040513d601f19601f82011682018060405250810190610d33919061195e565b15610d5c5760405163224b187760e01b81526001600160a01b0382166004820152602401610364565b600880546001808201835560008390527ff3f7a9fe364faab93b216da50a3214154f22a0a2b415b23a84c8169e8b636ee390910180546001600160a01b0319166001600160a01b0385161790559054610db59190611980565b6001600160a01b038216600081815260096020526040808220939093558251639459b87560e01b815292519092639459b8759160048083019286929190829003018183875af1158015610e0c573d6000803e3d6000fd5b505050506040513d6000823e601f3d908101601f19168201604052610e349190810190611a39565b805190915060005b81811015610eed576000838281518110610e5857610e58611948565b6020908102919091018101516001600160d81b03198116600081815260058452604081208054600180820183558284529583200180546001600160a01b0319166001600160a01b038c1617905591905254909250610eb69190611980565b6001600160d81b031990911660009081526006602090815260408083206001600160a01b0389168452909152902055600101610e3c565b506000836001600160a01b0316635924be706040518163ffffffff1660e01b8152600401600060405180830381865afa158015610f2e573d6000803e3d6000fd5b505050506040513d6000823e601f3d908101601f19168201604052610f569190810190611ad8565b9050610f64848260016114bf565b60405163ec7404b160e01b8152600160048201526001600160a01b0385169063ec7404b1906024015b600060405180830381600087803b158015610fa757600080fd5b505af1158015610fbb573d6000803e3d6000fd5b5050505050505050565b806001600160a01b03166322f3e2d46040518163ffffffff1660e01b8152600401602060405180830381865afa158015611003573d6000803e3d6000fd5b505050506040513d601f19601f82011682018060405250810190611027919061195e565b61104f576040516322cd55c560e01b81526001600160a01b0382166004820152602401610364565b6000816001600160a01b0316635924be706040518163ffffffff1660e01b8152600401600060405180830381865afa15801561108f573d6000803e3d6000fd5b505050506040513d6000823e601f3d908101601f191682016040526110b79190810190611ad8565b90506110c5828260006114bf565b6001600160a01b038216600090815260096020526040812054600880549192916110f190600190611980565b8154811061110157611101611948565b600091825260209091200154600880546001600160a01b03909216925082918490811061113057611130611948565b9060005260206000200160006101000a8154816001600160a01b0302191690836001600160a01b03160217905550600880548061116f5761116f611b96565b60008281526020808220830160001990810180546001600160a01b03191690559092019092556001600160a01b0383811683526009909152604080832085905590861682528120556111c084611598565b60405163ec7404b160e01b8152600060048201526001600160a01b0385169063ec7404b190602401610f8d565b60025460005b818110156112bb576000600360006002848154811061121457611214611948565b6000918252602080832060068084049091015492066005026101000a90910460d81b6001600160d81b03191683528201929092526040908101909120549051631195ecdb60e21b81526001600160a01b03868116600483015290911691508190634657b36c90602401600060405180830381600087803b15801561129757600080fd5b505af11580156112ab573d6000803e3d6000fd5b50505050816001019150506111f3565b5060085460005b818110156113ae576000600882815481106112df576112df611948565b600091825260208220015460405163ec7404b160e01b815260048101929092526001600160a01b03169150819063ec7404b190602401600060405180830381600087803b15801561132f57600080fd5b505af1158015611343573d6000803e3d6000fd5b5050604051631195ecdb60e21b81526001600160a01b03888116600483015284169250634657b36c9150602401600060405180830381600087803b15801561138a57600080fd5b505af115801561139e573d6000803e3d6000fd5b50505050816001019150506112c2565b50505050565b6001600160d81b0319811660009081526005602090815260408083208054825181850281018501909352808352919290919083018282801561141f57602002820191906000526020600020905b81546001600160a01b03168152600190910190602001808311611401575b505083519394506000925050505b818110156113ae5782818151811061144757611447611948565b60200260200101516001600160a01b0316639459b8756040518163ffffffff1660e01b81526004016000604051808303816000875af115801561148e573d6000803e3d6000fd5b505050506040513d6000823e601f3d908101601f191682016040526114b69190810190611a39565b5060010161142d565b815160005b818110156115915760008482815181106114e0576114e0611948565b60209081029190910181015180516001600160d81b031990811660009081526007845260408082206001600160a01b038c1680845290865281832085870180516001600160e01b0319908116865291885293839020805460ff19168c1515908117909155865194518451921682529681019690965293955092939116917ff3cdd20c5574ce87c347ea71e37b8fa7a095894be4b7f2bb1533e8d2342965f1910160405180910390a3506001016114c4565b5050505050565b6000816001600160a01b0316639459b8756040518163ffffffff1660e01b81526004016000604051808303816000875af11580156115da573d6000803e3d6000fd5b505050506040513d6000823e601f3d908101601f191682016040526116029190810190611a39565b805190915060005b818110156113ae57600083828151811061162657611626611948565b6020908102919091018101516001600160d81b031981166000908152600583526040808220600685528183206001600160a01b038b168452909452812054835492945091839061167890600190611980565b8154811061168857611688611948565b9060005260206000200160009054906101000a90046001600160a01b03169050808383815481106116bb576116bb611948565b9060005260206000200160006101000a8154816001600160a01b0302191690836001600160a01b03160217905550828054806116f9576116f9611b96565b60008281526020808220600019908401810180546001600160a01b03191690559092019092556001600160d81b03199590951681526006855260408082206001600160a01b0393841683529095528481209290925587168152918220919091555060010161160a565b6001600160d81b03198116811461177857600080fd5b50565b6000806040838503121561178e57600080fd5b823561179981611762565b946020939093013593505050565b6001600160a01b038116811461177857600080fd5b600080604083850312156117cf57600080fd5b82356117da81611762565b915060208301356117ea816117a7565b809150509250929050565b60006020828403121561180757600080fd5b5035919050565b6000806040838503121561182157600080fd5b8235915060208301356117ea816117a7565b60006020828403121561184557600080fd5b8135611850816117a7565b9392505050565b6000806040838503121561186a57600080fd5b8235611799816117a7565b60006020828403121561188757600080fd5b813561185081611762565b600080604083850312156118a557600080fd5b8235600781106117da57600080fd5b6001600160e01b03198116811461177857600080fd5b6000806000606084860312156118df57600080fd5b83356118ea81611762565b925060208401356118fa816117a7565b9150604084013561190a816118b4565b809150509250925092565b634e487b7160e01b600052602160045260246000fd5b60006020828403121561193d57600080fd5b815161185081611762565b634e487b7160e01b600052603260045260246000fd5b60006020828403121561197057600080fd5b8151801515811461185057600080fd5b6000828210156119a057634e487b7160e01b600052601160045260246000fd5b500390565b634e487b7160e01b600052604160045260246000fd5b6040805190810167ffffffffffffffff811182821017156119de576119de6119a5565b60405290565b604051601f8201601f1916810167ffffffffffffffff81118282101715611a0d57611a0d6119a5565b604052919050565b600067ffffffffffffffff821115611a2f57611a2f6119a5565b5060051b60200190565b60006020808385031215611a4c57600080fd5b825167ffffffffffffffff811115611a6357600080fd5b8301601f81018513611a7457600080fd5b8051611a87611a8282611a15565b6119e4565b81815260059190911b82018301908381019087831115611aa657600080fd5b928401925b82841015611acd578351611abe81611762565b82529284019290840190611aab565b979650505050505050565b60006020808385031215611aeb57600080fd5b825167ffffffffffffffff811115611b0257600080fd5b8301601f81018513611b1357600080fd5b8051611b21611a8282611a15565b81815260069190911b82018301908381019087831115611b4057600080fd5b928401925b82841015611acd5760408489031215611b5e5760008081fd5b611b666119bb565b8451611b7181611762565b815284860151611b80816118b4565b8187015282526040939093019290840190611b45565b634e487b7160e01b600052603160045260246000fdfea2646970667358221220a0dbc6959fc38fc953e6944154a6ccd0307f2a78e85be44c4166e601819f703664736f6c634300080f0033",
    "linkReferences": {}
  },
  "methodIdentifiers": {
    "activePolicies(uint256)": "5af099c9",
    "admin()": "f851a440",
    "allKeycodes(uint256)": "dbb61ee7",
    "executeAction(uint8,address)": "c4d1f8f1",
    "executor()": "c34c08e5",
    "getDependentIndex(bytes5,address)": "03c02f42",
    "getKeycodeForModule(address)": "ae5f76fa",
    "getModuleForKeycode(bytes5)": "b4dc00b4",
    "getPolicyIndex(address)": "63a6e3b5",
    "grantRole(bytes32,address)": "2f2ff15d",
    "hasRole(address,bytes32)": "ac4ab3fb",
    "isRole(bytes32)": "11f944e1",
    "moduleDependents(bytes5,uint256)": "000dd95d",
    "modulePermissions(bytes5,address,bytes4)": "f166d9eb",
    "revokeRole(bytes32,address)": "d547741f"
  },
  "id": 11
}