{
  "abi": [
    {
      "inputs": [
        {
          "internalType": "contract Kernel",
          "name": "kernel_",
          "type": "address"
        }
      ],
      "stateMutability": "nonpayable",
      "type": "constructor"
    },
    {
      "inputs": [
        {
          "internalType": "address",
          "name": "caller_",
          "type": "address"
        }
      ],
      "name": "KernelAdapter_OnlyKernel",
      "type": "error"
    },
    {
      "inputs": [
        {
          "internalType": "address",
          "name": "policy_",
          "type": "address"
        }
      ],
      "name": "Module_PolicyNotPermitted",
      "type": "error"
    },
    {
      "inputs": [],
      "name": "INIT",
      "outputs": [],
      "stateMutability": "nonpayable",
      "type": "function"
    },
    {
      "inputs": [],
      "name": "KEYCODE",
      "outputs": [
        {
          "internalType": "Keycode",
          "name": "",
          "type": "bytes5"
        }
      ],
      "stateMutability": "pure",
      "type": "function"
    },
    {
      "inputs": [],
      "name": "VERSION",
      "outputs": [
        {
          "internalType": "uint8",
          "name": "major",
          "type": "uint8"
        },
        {
          "internalType": "uint8",
          "name": "minor",
          "type": "uint8"
        }
      ],
      "stateMutability": "pure",
      "type": "function"
    },
    {
      "inputs": [
        {
          "internalType": "contract Kernel",
          "name": "newKernel_",
          "type": "address"
        }
      ],
      "name": "changeKernel",
      "outputs": [],
      "stateMutability": "nonpayable",
      "type": "function"
    },
    {
      "inputs": [],
      "name": "kernel",
      "outputs": [
        {
          "internalType": "contract Kernel",
          "name": "",
          "type": "address"
        }
      ],
      "stateMutability": "view",
      "type": "function"
    },
    {
      "inputs": [],
      "name": "permissionedCall",
      "outputs": [],
      "stateMutability": "nonpayable",
      "type": "function"
    },
    {
      "inputs": [],
      "name": "permissionedState",
      "outputs": [
        {
          "internalType": "uint256",
          "name": "",
          "type": "uint256"
        }
      ],
      "stateMutability": "view",
      "type": "function"
    },
    {
      "inputs": [],
      "name": "publicCall",
      "outputs": [],
      "stateMutability": "nonpayable",
      "type": "function"
    },
    {
      "inputs": [],
      "name": "publicState",
      "outputs": [
        {
          "internalType": "uint256",
          "name": "",
          "type": "uint256"
        }
      ],
      "stateMutability": "view",
      "type": "function"
    }
  ],
  "bytecode": {
    "object": "0x608060405234801561001057600080fd5b506040516103e03803806103e083398101604081905261002f91610054565b600080546001600160a01b0319166001600160a01b0392909216919091179055610084565b60006020828403121561006657600080fd5b81516001600160a01b038116811461007d57600080fd5b9392505050565b61034d806100936000396000f3fe608060405234801561001057600080fd5b50600436106100935760003560e01c8063abfe761411610066578063abfe7614146100d8578063c69ab056146100ef578063d4aae0c4146100f8578063ea64391414610123578063ffa1ad741461012b57600080fd5b80631ae7ec2e14610098578063382b325f146100b35780634657b36c146100bd578063a7167caf146100d0575b600080fd5b604051644d4f434b5960d81b81526020015b60405180910390f35b6100bb61013f565b005b6100bb6100cb36600461029e565b610156565b6100bb6101aa565b6100e160015481565b6040519081526020016100aa565b6100e160025481565b60005461010b906001600160a01b031681565b6040516001600160a01b0390911681526020016100aa565b6100bb61026f565b6040805160008082526020820152016100aa565b6001805490600061014f836102ce565b9190505550565b6000546001600160a01b031633146101885760405163053e900f60e21b81523360048201526024015b60405180910390fd5b600080546001600160a01b0319166001600160a01b0392909216919091179055565b6000546001600160a01b031663f166d9eb644d4f434b5960d81b6040516001600160e01b031960e084901b811682526001600160d81b03199290921660048201523360248201526000359091166044820152606401602060405180830381865afa15801561021c573d6000803e3d6000fd5b505050506040513d601f19601f8201168201806040525081019061024091906102f5565b61025f576040516311bf00c960e01b815233600482015260240161017f565b6002805490600061014f836102ce565b6000546001600160a01b0316331461029c5760405163053e900f60e21b815233600482015260240161017f565b565b6000602082840312156102b057600080fd5b81356001600160a01b03811681146102c757600080fd5b9392505050565b6000600182016102ee57634e487b7160e01b600052601160045260246000fd5b5060010190565b60006020828403121561030757600080fd5b815180151581146102c757600080fdfea2646970667358221220dcdf60bebfeb5f65c08238bdd5c52c8c663330c17fd2677e7702b0dba5e0ee3a64736f6c634300080f0033",
    "linkReferences": {}
  },
  "methodIdentifiers": {
    "INIT()": "ea643914",
    "KEYCODE()": "1ae7ec2e",
    "VERSION()": "ffa1ad74",
    "changeKernel(address)": "4657b36c",
    "kernel()": "d4aae0c4",
    "permissionedCall()": "a7167caf",
    "permissionedState()": "c69ab056",
    "publicCall()": "382b325f",
    "publicState()": "abfe7614"
  },
  "id": 55
}