{
  "abi": [
    {
      "inputs": [
        {
          "internalType": "contract Kernel",
          "name": "kernel_",
          "type": "address"
        }
      ],
      "stateMutability": "nonpayable",
      "type": "constructor"
    },
    {
      "inputs": [
        {
          "internalType": "address",
          "name": "caller_",
          "type": "address"
        }
      ],
      "name": "KernelAdapter_OnlyKernel",
      "type": "error"
    },
    {
      "inputs": [
        {
          "internalType": "Keycode",
          "name": "keycode_",
          "type": "bytes5"
        }
      ],
      "name": "Policy_ModuleDoesNotExist",
      "type": "error"
    },
    {
      "inputs": [
        {
          "internalType": "Role",
          "name": "role_",
          "type": "bytes32"
        }
      ],
      "name": "Policy_OnlyRole",
      "type": "error"
    },
    {
      "inputs": [],
      "name": "MOCKY",
      "outputs": [
        {
          "internalType": "contract MockModule",
          "name": "",
          "type": "address"
        }
      ],
      "stateMutability": "view",
      "type": "function"
    },
    {
      "inputs": [],
      "name": "callPermissionedFunction",
      "outputs": [],
      "stateMutability": "nonpayable",
      "type": "function"
    },
    {
      "inputs": [],
      "name": "callPublicFunction",
      "outputs": [],
      "stateMutability": "nonpayable",
      "type": "function"
    },
    {
      "inputs": [
        {
          "internalType": "contract Kernel",
          "name": "newKernel_",
          "type": "address"
        }
      ],
      "name": "changeKernel",
      "outputs": [],
      "stateMutability": "nonpayable",
      "type": "function"
    },
    {
      "inputs": [],
      "name": "configureDependencies",
      "outputs": [
        {
          "internalType": "Keycode[]",
          "name": "dependencies",
          "type": "bytes5[]"
        }
      ],
      "stateMutability": "nonpayable",
      "type": "function"
    },
    {
      "inputs": [],
      "name": "isActive",
      "outputs": [
        {
          "internalType": "bool",
          "name": "",
          "type": "bool"
        }
      ],
      "stateMutability": "view",
      "type": "function"
    },
    {
      "inputs": [],
      "name": "kernel",
      "outputs": [
        {
          "internalType": "contract Kernel",
          "name": "",
          "type": "address"
        }
      ],
      "stateMutability": "view",
      "type": "function"
    },
    {
      "inputs": [],
      "name": "requestPermissions",
      "outputs": [
        {
          "components": [
            {
              "internalType": "Keycode",
              "name": "keycode",
              "type": "bytes5"
            },
            {
              "internalType": "bytes4",
              "name": "funcSelector",
              "type": "bytes4"
            }
          ],
          "internalType": "struct Permissions[]",
          "name": "requests",
          "type": "tuple[]"
        }
      ],
      "stateMutability": "view",
      "type": "function"
    },
    {
      "inputs": [
        {
          "internalType": "bool",
          "name": "activate_",
          "type": "bool"
        }
      ],
      "name": "setActiveStatus",
      "outputs": [],
      "stateMutability": "nonpayable",
      "type": "function"
    }
  ],
  "bytecode": {
    "object": "0x608060405234801561001057600080fd5b5060405161081838038061081883398101604081905261002f91610054565b600080546001600160a01b0319166001600160a01b0392909216919091179055610084565b60006020828403121561006657600080fd5b81516001600160a01b038116811461007d57600080fd5b9392505050565b610785806100936000396000f3fe608060405234801561001057600080fd5b50600436106100935760003560e01c80635924be70116100665780635924be70146100e65780639459b875146100fb578063d4aae0c414610110578063ec7404b11461013b578063fd37d9631461014e57600080fd5b8063098da0731461009857806322f3e2d4146100a2578063340bd7fd146100cb5780634657b36c146100d3575b600080fd5b6100a0610161565b005b6000546100b690600160a01b900460ff1681565b60405190151581526020015b60405180910390f35b6100a0610273565b6100a06100e13660046105d5565b6102dd565b6100ee61032c565b6040516100c291906105f9565b61010361041a565b6040516100c2919061065c565b600054610123906001600160a01b031681565b6040516001600160a01b0390911681526020016100c2565b6100a06101493660046106b8565b6104c0565b600154610123906001600160a01b031681565b653a32b9ba32b960d11b60008160005460405163ac4ab3fb60e01b8152336004820152602481018390529192506001600160a01b03169063ac4ab3fb90604401602060405180830381865afa1580156101be573d6000803e3d6000fd5b505050506040513d601f19601f820116820180604052508101906101e291906106d5565b610207576040516371324ef360e11b8152600481018290526024015b60405180910390fd5b600160009054906101000a90046001600160a01b03166001600160a01b031663a7167caf6040518163ffffffff1660e01b8152600401600060405180830381600087803b15801561025757600080fd5b505af115801561026b573d6000803e3d6000fd5b505050505050565b600160009054906101000a90046001600160a01b03166001600160a01b031663382b325f6040518163ffffffff1660e01b8152600401600060405180830381600087803b1580156102c357600080fd5b505af11580156102d7573d6000803e3d6000fd5b50505050565b6000546001600160a01b0316331461030a5760405163053e900f60e21b81523360048201526024016101fe565b600080546001600160a01b0319166001600160a01b0392909216919091179055565b604080516001808252818301909252606091816020015b604080518082019091526000808252602082015281526020019060019003908161034357505060408051808201808352600154630d73f61760e11b90915291519293509182916001600160a01b031690631ae7ec2e906044808501916020918187030181865afa1580156103bb573d6000803e3d6000fd5b505050506040513d601f19601f820116820180604052508101906103df91906106f2565b6001600160d81b031916815263a7167caf60e01b6020909101528151829060009061040c5761040c61071c565b602002602001018190525090565b60408051600180825281830190925260609160208083019080368337019050509050644d4f434b5960d81b816000815181106104585761045861071c565b60200260200101906001600160d81b03191690816001600160d81b0319168152505061049d816000815181106104905761049061071c565b602002602001015161050b565b600180546001600160a01b0319166001600160a01b039290921691909117905590565b6000546001600160a01b031633146104ed5760405163053e900f60e21b81523360048201526024016101fe565b60008054911515600160a01b0260ff60a01b19909216919091179055565b60008054604051632d37002d60e21b81526001600160d81b03198416600482015282916001600160a01b03169063b4dc00b490602401602060405180830381865afa15801561055e573d6000803e3d6000fd5b505050506040513d601f19601f820116820180604052508101906105829190610732565b90506001600160a01b0381166105b757604051635c3fa9cd60e01b81526001600160d81b0319841660048201526024016101fe565b92915050565b6001600160a01b03811681146105d257600080fd5b50565b6000602082840312156105e757600080fd5b81356105f2816105bd565b9392505050565b602080825282518282018190526000919060409081850190868401855b8281101561064f57815180516001600160d81b03191685528601516001600160e01b031916868501529284019290850190600101610616565b5091979650505050505050565b6020808252825182820181905260009190848201906040850190845b8181101561069e5783516001600160d81b03191683529284019291840191600101610678565b50909695505050505050565b80151581146105d257600080fd5b6000602082840312156106ca57600080fd5b81356105f2816106aa565b6000602082840312156106e757600080fd5b81516105f2816106aa565b60006020828403121561070457600080fd5b81516001600160d81b0319811681146105f257600080fd5b634e487b7160e01b600052603260045260246000fd5b60006020828403121561074457600080fd5b81516105f2816105bd56fea264697066735822122079a1accd21ef522cdc89826bef4ac897f73e946cbca28dc2a966668c8c567e4f64736f6c634300080f0033",
    "linkReferences": {}
  },
  "methodIdentifiers": {
    "MOCKY()": "fd37d963",
    "callPermissionedFunction()": "098da073",
    "callPublicFunction()": "340bd7fd",
    "changeKernel(address)": "4657b36c",
    "configureDependencies()": "9459b875",
    "isActive()": "22f3e2d4",
    "kernel()": "d4aae0c4",
    "requestPermissions()": "5924be70",
    "setActiveStatus(bool)": "ec7404b1"
  },
  "id": 55
}