{
  "abi": [
    {
      "inputs": [
        {
          "internalType": "contract Kernel",
          "name": "kernel_",
          "type": "address"
        },
        {
          "internalType": "contract ERC20",
          "name": "ohm_",
          "type": "address"
        },
        {
          "internalType": "contract ERC20",
          "name": "reserve_",
          "type": "address"
        },
        {
          "internalType": "uint256",
          "name": "ethDrip_",
          "type": "uint256"
        },
        {
          "internalType": "uint256",
          "name": "ohmDrip_",
          "type": "uint256"
        },
        {
          "internalType": "uint256",
          "name": "reserveDrip_",
          "type": "uint256"
        },
        {
          "internalType": "uint256",
          "name": "dripInterval_",
          "type": "uint256"
        }
      ],
      "stateMutability": "nonpayable",
      "type": "constructor"
    },
    {
      "inputs": [
        {
          "internalType": "enum Faucet.Asset",
          "name": "asset",
          "type": "uint8"
        }
      ],
      "name": "Faucet_DripFailed",
      "type": "error"
    },
    {
      "inputs": [
        {
          "internalType": "enum Faucet.Asset",
          "name": "asset",
          "type": "uint8"
        }
      ],
      "name": "Faucet_DripOnCooldown",
      "type": "error"
    },
    {
      "inputs": [
        {
          "internalType": "enum Faucet.Asset",
          "name": "asset",
          "type": "uint8"
        }
      ],
      "name": "Faucet_InsufficientFunds",
      "type": "error"
    },
    {
      "inputs": [
        {
          "internalType": "address",
          "name": "caller_",
          "type": "address"
        }
      ],
      "name": "KernelAdapter_OnlyKernel",
      "type": "error"
    },
    {
      "inputs": [
        {
          "internalType": "Role",
          "name": "role_",
          "type": "bytes32"
        }
      ],
      "name": "Policy_OnlyRole",
      "type": "error"
    },
    {
      "anonymous": false,
      "inputs": [
        {
          "indexed": false,
          "internalType": "address",
          "name": "receiver",
          "type": "address"
        },
        {
          "indexed": false,
          "internalType": "enum Faucet.Asset",
          "name": "asset",
          "type": "uint8"
        },
        {
          "indexed": false,
          "internalType": "uint256",
          "name": "amount",
          "type": "uint256"
        }
      ],
      "name": "Drip",
      "type": "event"
    },
    {
      "inputs": [
        {
          "internalType": "contract Kernel",
          "name": "newKernel_",
          "type": "address"
        }
      ],
      "name": "changeKernel",
      "outputs": [],
      "stateMutability": "nonpayable",
      "type": "function"
    },
    {
      "inputs": [],
      "name": "configureDependencies",
      "outputs": [
        {
          "internalType": "Keycode[]",
          "name": "dependencies",
          "type": "bytes5[]"
        }
      ],
      "stateMutability": "nonpayable",
      "type": "function"
    },
    {
      "inputs": [
        {
          "internalType": "enum Faucet.Asset",
          "name": "asset_",
          "type": "uint8"
        }
      ],
      "name": "drip",
      "outputs": [],
      "stateMutability": "nonpayable",
      "type": "function"
    },
    {
      "inputs": [
        {
          "internalType": "enum Faucet.Asset",
          "name": "",
          "type": "uint8"
        }
      ],
      "name": "dripAmount",
      "outputs": [
        {
          "internalType": "uint256",
          "name": "",
          "type": "uint256"
        }
      ],
      "stateMutability": "view",
      "type": "function"
    },
    {
      "inputs": [],
      "name": "dripInterval",
      "outputs": [
        {
          "internalType": "uint256",
          "name": "",
          "type": "uint256"
        }
      ],
      "stateMutability": "view",
      "type": "function"
    },
    {
      "inputs": [],
      "name": "dripTestAmounts",
      "outputs": [],
      "stateMutability": "nonpayable",
      "type": "function"
    },
    {
      "inputs": [],
      "name": "isActive",
      "outputs": [
        {
          "internalType": "bool",
          "name": "",
          "type": "bool"
        }
      ],
      "stateMutability": "view",
      "type": "function"
    },
    {
      "inputs": [],
      "name": "kernel",
      "outputs": [
        {
          "internalType": "contract Kernel",
          "name": "",
          "type": "address"
        }
      ],
      "stateMutability": "view",
      "type": "function"
    },
    {
      "inputs": [
        {
          "internalType": "address",
          "name": "",
          "type": "address"
        },
        {
          "internalType": "enum Faucet.Asset",
          "name": "",
          "type": "uint8"
        }
      ],
      "name": "lastDrip",
      "outputs": [
        {
          "internalType": "uint256",
          "name": "",
          "type": "uint256"
        }
      ],
      "stateMutability": "view",
      "type": "function"
    },
    {
      "inputs": [],
      "name": "requestPermissions",
      "outputs": [
        {
          "components": [
            {
              "internalType": "Keycode",
              "name": "keycode",
              "type": "bytes5"
            },
            {
              "internalType": "bytes4",
              "name": "funcSelector",
              "type": "bytes4"
            }
          ],
          "internalType": "struct Permissions[]",
          "name": "requests",
          "type": "tuple[]"
        }
      ],
      "stateMutability": "view",
      "type": "function"
    },
    {
      "inputs": [
        {
          "internalType": "bool",
          "name": "activate_",
          "type": "bool"
        }
      ],
      "name": "setActiveStatus",
      "outputs": [],
      "stateMutability": "nonpayable",
      "type": "function"
    },
    {
      "inputs": [
        {
          "internalType": "enum Faucet.Asset",
          "name": "asset_",
          "type": "uint8"
        },
        {
          "internalType": "uint256",
          "name": "amount_",
          "type": "uint256"
        }
      ],
      "name": "setDripAmount",
      "outputs": [],
      "stateMutability": "nonpayable",
      "type": "function"
    },
    {
      "inputs": [
        {
          "internalType": "uint256",
          "name": "interval_",
          "type": "uint256"
        }
      ],
      "name": "setDripInterval",
      "outputs": [],
      "stateMutability": "nonpayable",
      "type": "function"
    },
    {
      "inputs": [
        {
          "internalType": "enum Faucet.Asset",
          "name": "",
          "type": "uint8"
        }
      ],
      "name": "token",
      "outputs": [
        {
          "internalType": "contract ERC20",
          "name": "",
          "type": "address"
        }
      ],
      "stateMutability": "view",
      "type": "function"
    },
    {
      "inputs": [
        {
          "internalType": "address",
          "name": "to_",
          "type": "address"
        },
        {
          "internalType": "enum Faucet.Asset",
          "name": "asset_",
          "type": "uint8"
        }
      ],
      "name": "withdrawAll",
      "outputs": [],
      "stateMutability": "nonpayable",
      "type": "function"
    },
    {
      "stateMutability": "payable",
      "type": "receive"
    }
  ],
  "bytecode": {
    "object": "0x60806040526001805534801561001457600080fd5b5060405161109338038061109383398101604081905261003391610145565b600080546001600160a01b039889166001600160a01b03199182161782557fa15bc60c955c405d20d9149c709e2460f1c2d9a497496a7f46004d1772c3054c8054988a16988216989098179097557fc3a24b0501bd2c13a7e57f2db4369ec4c223447539fc0724a9d55ac4a06ebd4d80549097169590971694909417909455600260208190527fac33ff75c19e70fe83507db0d683fd3465c996598dc972688b7ace676c89077b929092557fe90b7bceb6e7df5418fb78d8ee546e97c83a08bbccc01a0644d599ccd2a7c2e0559092527f679795a0195a1b76cdebb7c51d74e058aee92919b8c3389af86ef24535e8a28c556005556101b9565b6001600160a01b038116811461014257600080fd5b50565b600080600080600080600060e0888a03121561016057600080fd5b875161016b8161012d565b602089015190975061017c8161012d565b604089015190965061018d8161012d565b80955050606088015193506080880151925060a0880151915060c0880151905092959891949750929550565b610ecb806101c86000396000f3fe6080604052600436106100ec5760003560e01c806370fef9f61161008a578063cd3a886111610059578063cd3a886114610279578063d4aae0c4146102a6578063ec7404b1146102de578063fd00ea1c146102fe57600080fd5b806370fef9f6146101fd57806392c667281461021d5780639459b8751461023d578063a9a89db91461025957600080fd5b80634657b36c116100c65780634657b36c14610165578063558d0423146101855780635924be70146101cb5780636a214811146101e757600080fd5b80631a624b17146100f857806322f3e2d41461010f5780632c35c40b1461014557600080fd5b366100f357005b600080fd5b34801561010457600080fd5b5061010d610334565b005b34801561011b57600080fd5b5060005461013090600160a01b900460ff1681565b60405190151581526020015b60405180910390f35b34801561015157600080fd5b5061010d610160366004610c2d565b610354565b34801561017157600080fd5b5061010d610180366004610c62565b6105a8565b34801561019157600080fd5b506101bd6101a0366004610c2d565b600460209081526000928352604080842090915290825290205481565b60405190815260200161013c565b3480156101d757600080fd5b50606060405161013c9190610c86565b3480156101f357600080fd5b506101bd60055481565b34801561020957600080fd5b5061010d610218366004610ce9565b6105f7565b34801561022957600080fd5b5061010d610238366004610d04565b610915565b34801561024957600080fd5b50606060405161013c9190610d2e565b34801561026557600080fd5b5061010d610274366004610d7c565b6109fb565b34801561028557600080fd5b506101bd610294366004610ce9565b60026020526000908152604090205481565b3480156102b257600080fd5b506000546102c6906001600160a01b031681565b6040516001600160a01b03909116815260200161013c565b3480156102ea57600080fd5b5061010d6102f9366004610da3565b610aa9565b34801561030a57600080fd5b506102c6610319366004610ce9565b6003602052600090815260409020546001600160a01b031681565b61033e60006105f7565b61034860016105f7565b61035260026105f7565b565b6b3330bab1b2ba2fb0b236b4b760a11b60008160005460405163ac4ab3fb60e01b8152336004820152602481018390529192506001600160a01b03169063ac4ab3fb90604401602060405180830381865afa1580156103b7573d6000803e3d6000fd5b505050506040513d601f19601f820116820180604052508101906103db9190610dc0565b610400576040516371324ef360e11b8152600481018290526024015b60405180910390fd5b600083600281111561041457610414610ddd565b036104b4576000846001600160a01b03164760405160006040518083038185875af1925050503d8060008114610466576040519150601f19603f3d011682016040523d82523d6000602084013e61046b565b606091505b50509050806104ae5760405162461bcd60e51b815260206004820152600f60248201526e15da5d1a191c985dc811985a5b1959608a1b60448201526064016103f7565b506105a2565b6105a284600360008660028111156104ce576104ce610ddd565b60028111156104df576104df610ddd565b8152602081019190915260409081016000205490516370a0823160e01b81523060048201526001600160a01b03909116906370a0823190602401602060405180830381865afa158015610536573d6000803e3d6000fd5b505050506040513d601f19601f8201168201806040525081019061055a9190610df3565b6003600087600281111561057057610570610ddd565b600281111561058157610581610ddd565b81526020810191909152604001600020546001600160a01b03169190610af4565b50505050565b6000546001600160a01b031633146105d55760405163053e900f60e21b81523360048201526024016103f7565b600080546001600160a01b0319166001600160a01b0392909216919091179055565b6001546001146106365760405162461bcd60e51b815260206004820152600a6024820152695245454e5452414e435960b01b60448201526064016103f7565b600260018190556005543360009081526004602052604081209192849081111561066257610662610ddd565b600281111561067357610673610ddd565b81526020019081526020016000205461068c9190610e0c565b4210156106ae57806040516368a886b760e11b81526004016103f79190610e32565b60008160028111156106c2576106c2610ddd565b036107c557600260008260028111156106dd576106dd610ddd565b60028111156106ee576106ee610ddd565b81526020019081526020016000205447101561071f57806040516363dbac9160e01b81526004016103f79190610e32565b600033600282848281111561073657610736610ddd565b600281111561074757610747610ddd565b81526020019081526020016000205460405160006040518083038185875af1925050503d8060008114610796576040519150601f19603f3d011682016040523d82523d6000602084013e61079b565b606091505b50509050806107bf5781604051639e73bbe760e01b81526004016103f79190610e32565b5061090e565b600260008260028111156107db576107db610ddd565b60028111156107ec576107ec610ddd565b8152602001908152602001600020546003600083600281111561081157610811610ddd565b600281111561082257610822610ddd565b8152602081019190915260409081016000205490516370a0823160e01b81523060048201526001600160a01b03909116906370a0823190602401602060405180830381865afa158015610879573d6000803e3d6000fd5b505050506040513d601f19601f8201168201806040525081019061089d9190610df3565b10156108be57806040516363dbac9160e01b81526004016103f79190610e32565b61090e33600260008460028111156108d8576108d8610ddd565b60028111156108e9576108e9610ddd565b8152602001908152602001600020546003600085600281111561057057610570610ddd565b5060018055565b6b3330bab1b2ba2fb0b236b4b760a11b60008160005460405163ac4ab3fb60e01b8152336004820152602481018390529192506001600160a01b03169063ac4ab3fb90604401602060405180830381865afa158015610978573d6000803e3d6000fd5b505050506040513d601f19601f8201168201806040525081019061099c9190610dc0565b6109bc576040516371324ef360e11b8152600481018290526024016103f7565b82600260008660028111156109d3576109d3610ddd565b60028111156109e4576109e4610ddd565b815260208101919091526040016000205550505050565b6b3330bab1b2ba2fb0b236b4b760a11b60008160005460405163ac4ab3fb60e01b8152336004820152602481018390529192506001600160a01b03169063ac4ab3fb90604401602060405180830381865afa158015610a5e573d6000803e3d6000fd5b505050506040513d601f19601f82011682018060405250810190610a829190610dc0565b610aa2576040516371324ef360e11b8152600481018290526024016103f7565b5050600555565b6000546001600160a01b03163314610ad65760405163053e900f60e21b81523360048201526024016103f7565b60008054911515600160a01b0260ff60a01b19909216919091179055565b604080516001600160a01b038481166024830152604480830185905283518084039091018152606490920183526020820180516001600160e01b031663a9059cbb60e01b1790529151600092839290871691610b509190610e5a565b6000604051808303816000865af19150503d8060008114610b8d576040519150601f19603f3d011682016040523d82523d6000602084013e610b92565b606091505b5091509150818015610bbc575080511580610bbc575080806020019051810190610bbc9190610dc0565b610bfa5760405162461bcd60e51b815260206004820152600f60248201526e1514905394d1915497d19052531151608a1b60448201526064016103f7565b5050505050565b6001600160a01b0381168114610c1657600080fd5b50565b803560038110610c2857600080fd5b919050565b60008060408385031215610c4057600080fd5b8235610c4b81610c01565b9150610c5960208401610c19565b90509250929050565b600060208284031215610c7457600080fd5b8135610c7f81610c01565b9392505050565b602080825282518282018190526000919060409081850190868401855b82811015610cdc57815180516001600160d81b03191685528601516001600160e01b031916868501529284019290850190600101610ca3565b5091979650505050505050565b600060208284031215610cfb57600080fd5b610c7f82610c19565b60008060408385031215610d1757600080fd5b610d2083610c19565b946020939093013593505050565b6020808252825182820181905260009190848201906040850190845b81811015610d705783516001600160d81b03191683529284019291840191600101610d4a565b50909695505050505050565b600060208284031215610d8e57600080fd5b5035919050565b8015158114610c1657600080fd5b600060208284031215610db557600080fd5b8135610c7f81610d95565b600060208284031215610dd257600080fd5b8151610c7f81610d95565b634e487b7160e01b600052602160045260246000fd5b600060208284031215610e0557600080fd5b5051919050565b60008219821115610e2d57634e487b7160e01b600052601160045260246000fd5b500190565b6020810160038310610e5457634e487b7160e01b600052602160045260246000fd5b91905290565b6000825160005b81811015610e7b5760208186018101518583015201610e61565b81811115610e8a576000828501525b50919091019291505056fea2646970667358221220afc2f6dac2f5056cc0fc2b0b16496209b9e5223513ee9aa8f14c6fec4948490064736f6c634300080f0033",
    "linkReferences": {}
  },
  "methodIdentifiers": {
    "changeKernel(address)": "4657b36c",
    "configureDependencies()": "9459b875",
    "drip(uint8)": "70fef9f6",
    "dripAmount(uint8)": "cd3a8861",
    "dripInterval()": "6a214811",
    "dripTestAmounts()": "1a624b17",
    "isActive()": "22f3e2d4",
    "kernel()": "d4aae0c4",
    "lastDrip(address,uint8)": "558d0423",
    "requestPermissions()": "5924be70",
    "setActiveStatus(bool)": "ec7404b1",
    "setDripAmount(uint8,uint256)": "92c66728",
    "setDripInterval(uint256)": "a9a89db9",
    "token(uint8)": "fd00ea1c",
    "withdrawAll(address,uint8)": "2c35c40b"
  },
  "id": 54
}