{
  "abi": [
    {
      "inputs": [
        {
          "internalType": "contract Kernel",
          "name": "kernel_",
          "type": "address"
        },
        {
          "internalType": "contract Module",
          "name": "module_",
          "type": "address"
        },
        {
          "components": [
            {
              "internalType": "Keycode",
              "name": "keycode",
              "type": "bytes5"
            },
            {
              "internalType": "bytes4",
              "name": "funcSelector",
              "type": "bytes4"
            }
          ],
          "internalType": "struct Permissions[]",
          "name": "requests_",
          "type": "tuple[]"
        }
      ],
      "stateMutability": "nonpayable",
      "type": "constructor"
    },
    {
      "inputs": [
        {
          "internalType": "address",
          "name": "caller_",
          "type": "address"
        }
      ],
      "name": "KernelAdapter_OnlyKernel",
      "type": "error"
    },
    {
      "stateMutability": "nonpayable",
      "type": "fallback"
    },
    {
      "inputs": [
        {
          "internalType": "contract Kernel",
          "name": "newKernel_",
          "type": "address"
        }
      ],
      "name": "changeKernel",
      "outputs": [],
      "stateMutability": "nonpayable",
      "type": "function"
    },
    {
      "inputs": [],
      "name": "configureDependencies",
      "outputs": [
        {
          "internalType": "Keycode[]",
          "name": "dependencies",
          "type": "bytes5[]"
        }
      ],
      "stateMutability": "nonpayable",
      "type": "function"
    },
    {
      "inputs": [],
      "name": "isActive",
      "outputs": [
        {
          "internalType": "bool",
          "name": "",
          "type": "bool"
        }
      ],
      "stateMutability": "view",
      "type": "function"
    },
    {
      "inputs": [],
      "name": "kernel",
      "outputs": [
        {
          "internalType": "contract Kernel",
          "name": "",
          "type": "address"
        }
      ],
      "stateMutability": "view",
      "type": "function"
    },
    {
      "inputs": [],
      "name": "requestPermissions",
      "outputs": [
        {
          "components": [
            {
              "internalType": "Keycode",
              "name": "keycode",
              "type": "bytes5"
            },
            {
              "internalType": "bytes4",
              "name": "funcSelector",
              "type": "bytes4"
            }
          ],
          "internalType": "struct Permissions[]",
          "name": "requests",
          "type": "tuple[]"
        }
      ],
      "stateMutability": "view",
      "type": "function"
    },
    {
      "inputs": [
        {
          "internalType": "bool",
          "name": "activate_",
          "type": "bool"
        }
      ],
      "name": "setActiveStatus",
      "outputs": [],
      "stateMutability": "nonpayable",
      "type": "function"
    }
  ],
  "bytecode": {
    "object": "0x608060405234801561001057600080fd5b506040516107b33803806107b383398101604081905261002f9161016c565b600080546001600160a01b038086166001600160a01b031992831617835560018054918616919092161790558151905b818110156100dc57600283828151811061007b5761007b610290565b6020908102919091018101518254600181018455600093845292829020815193018054919092015160e01c65010000000000026001600160481b031990911660d89390931c92909217919091179055806100d4816102a6565b91505061005f565b50505050506102cd565b6001600160a01b03811681146100fb57600080fd5b50565b634e487b7160e01b600052604160045260246000fd5b604080519081016001600160401b0381118282101715610136576101366100fe565b60405290565b604051601f8201601f191681016001600160401b0381118282101715610164576101646100fe565b604052919050565b60008060006060848603121561018157600080fd5b835161018c816100e6565b8093505060208085015161019f816100e6565b604086810151919450906001600160401b03808211156101be57600080fd5b818801915088601f8301126101d257600080fd5b8151818111156101e4576101e46100fe565b6101f2858260051b0161013c565b818152858101925060069190911b83018501908a82111561021257600080fd5b928501925b818410156102805784848c03121561022f5760008081fd5b610237610114565b84516001600160d81b0319811681146102505760008081fd5b8152848701516001600160e01b03198116811461026d5760008081fd5b8188015283529284019291850191610217565b8096505050505050509250925092565b634e487b7160e01b600052603260045260246000fd5b6000600182016102c657634e487b7160e01b600052601160045260246000fd5b5060010190565b6104d7806102dc6000396000f3fe608060405234801561001057600080fd5b50600436106100625760003560e01c806322f3e2d4146100fa5780634657b36c146101235780635924be70146101385780639459b8751461014d578063d4aae0c41461015c578063ec7404b114610187575b6001546040516000913691606091849182916001600160a01b03169061008b908390879061033b565b6000604051808303816000865af19150503d80600081146100c8576040519150601f19603f3d011682016040523d82523d6000602084013e6100cd565b606091505b5091509150816100ed5780516000036100e557600080fd5b805181602001fd5b8051945060200192505050f35b60005461010e90600160a01b900460ff1681565b60405190151581526020015b60405180910390f35b61013661013136600461034b565b61019a565b005b6101406101ee565b60405161011a919061037b565b606060405161011a91906103de565b60005461016f906001600160a01b031681565b6040516001600160a01b03909116815260200161011a565b61013661019536600461042c565b6102f0565b6000546001600160a01b031633146101cc5760405163053e900f60e21b81523360048201526024015b60405180910390fd5b600080546001600160a01b0319166001600160a01b0392909216919091179055565b6002546060908067ffffffffffffffff81111561020d5761020d61044e565b60405190808252806020026020018201604052801561025257816020015b604080518082019091526000808252602082015281526020019060019003908161022b5790505b50915060005b818110156102eb576002818154811061027357610273610464565b60009182526020918290206040805180820190915291015460d881901b6001600160d81b031916825265010000000000900460e01b6001600160e01b0319169181019190915283518490839081106102cd576102cd610464565b602002602001018190525080806102e39061047a565b915050610258565b505090565b6000546001600160a01b0316331461031d5760405163053e900f60e21b81523360048201526024016101c3565b60008054911515600160a01b0260ff60a01b19909216919091179055565b8183823760009101908152919050565b60006020828403121561035d57600080fd5b81356001600160a01b038116811461037457600080fd5b9392505050565b602080825282518282018190526000919060409081850190868401855b828110156103d157815180516001600160d81b03191685528601516001600160e01b031916868501529284019290850190600101610398565b5091979650505050505050565b6020808252825182820181905260009190848201906040850190845b818110156104205783516001600160d81b031916835292840192918401916001016103fa565b50909695505050505050565b60006020828403121561043e57600080fd5b8135801515811461037457600080fd5b634e487b7160e01b600052604160045260246000fd5b634e487b7160e01b600052603260045260246000fd5b60006001820161049a57634e487b7160e01b600052601160045260246000fd5b506001019056fea2646970667358221220584f154d90ac877c155cbbf88dae3e36a6d40a670c2ae6b7bad69b9515238fe064736f6c634300080f0033",
    "linkReferences": {}
  },
  "methodIdentifiers": {
    "changeKernel(address)": "4657b36c",
    "configureDependencies()": "9459b875",
    "isActive()": "22f3e2d4",
    "kernel()": "d4aae0c4",
    "requestPermissions()": "5924be70",
    "setActiveStatus(bool)": "ec7404b1"
  },
  "id": 57
}