{
  "abi": [
    {
      "inputs": [
        {
          "internalType": "contract Kernel",
          "name": "kernel_",
          "type": "address"
        },
        {
          "internalType": "contract AggregatorV2V3Interface",
          "name": "ohmEthPriceFeed_",
          "type": "address"
        },
        {
          "internalType": "contract AggregatorV2V3Interface",
          "name": "reserveEthPriceFeed_",
          "type": "address"
        },
        {
          "internalType": "uint48",
          "name": "observationFrequency_",
          "type": "uint48"
        },
        {
          "internalType": "uint48",
          "name": "movingAverageDuration_",
          "type": "uint48"
        }
      ],
      "stateMutability": "nonpayable",
      "type": "constructor"
    },
    {
      "inputs": [
        {
          "internalType": "address",
          "name": "caller_",
          "type": "address"
        }
      ],
      "name": "KernelAdapter_OnlyKernel",
      "type": "error"
    },
    {
      "inputs": [
        {
          "internalType": "address",
          "name": "policy_",
          "type": "address"
        }
      ],
      "name": "Module_PolicyNotPermitted",
      "type": "error"
    },
    {
      "inputs": [],
      "name": "Price_AlreadyInitialized",
      "type": "error"
    },
    {
      "inputs": [
        {
          "internalType": "address",
          "name": "priceFeed",
          "type": "address"
        }
      ],
      "name": "Price_BadFeed",
      "type": "error"
    },
    {
      "inputs": [],
      "name": "Price_InvalidParams",
      "type": "error"
    },
    {
      "inputs": [],
      "name": "Price_NotInitialized",
      "type": "error"
    },
    {
      "anonymous": false,
      "inputs": [
        {
          "indexed": false,
          "internalType": "uint48",
          "name": "movingAverageDuration_",
          "type": "uint48"
        }
      ],
      "name": "MovingAverageDurationChanged",
      "type": "event"
    },
    {
      "anonymous": false,
      "inputs": [
        {
          "indexed": false,
          "internalType": "uint256",
          "name": "timestamp_",
          "type": "uint256"
        },
        {
          "indexed": false,
          "internalType": "uint256",
          "name": "price_",
          "type": "uint256"
        },
        {
          "indexed": false,
          "internalType": "uint256",
          "name": "movingAverage_",
          "type": "uint256"
        }
      ],
      "name": "NewObservation",
      "type": "event"
    },
    {
      "anonymous": false,
      "inputs": [
        {
          "indexed": false,
          "internalType": "uint48",
          "name": "observationFrequency_",
          "type": "uint48"
        }
      ],
      "name": "ObservationFrequencyChanged",
      "type": "event"
    },
    {
      "inputs": [],
      "name": "INIT",
      "outputs": [],
      "stateMutability": "nonpayable",
      "type": "function"
    },
    {
      "inputs": [],
      "name": "KEYCODE",
      "outputs": [
        {
          "internalType": "Keycode",
          "name": "",
          "type": "bytes5"
        }
      ],
      "stateMutability": "pure",
      "type": "function"
    },
    {
      "inputs": [],
      "name": "VERSION",
      "outputs": [
        {
          "internalType": "uint8",
          "name": "major",
          "type": "uint8"
        },
        {
          "internalType": "uint8",
          "name": "minor",
          "type": "uint8"
        }
      ],
      "stateMutability": "pure",
      "type": "function"
    },
    {
      "inputs": [
        {
          "internalType": "contract Kernel",
          "name": "newKernel_",
          "type": "address"
        }
      ],
      "name": "changeKernel",
      "outputs": [],
      "stateMutability": "nonpayable",
      "type": "function"
    },
    {
      "inputs": [
        {
          "internalType": "uint48",
          "name": "movingAverageDuration_",
          "type": "uint48"
        }
      ],
      "name": "changeMovingAverageDuration",
      "outputs": [],
      "stateMutability": "nonpayable",
      "type": "function"
    },
    {
      "inputs": [
        {
          "internalType": "uint48",
          "name": "observationFrequency_",
          "type": "uint48"
        }
      ],
      "name": "changeObservationFrequency",
      "outputs": [],
      "stateMutability": "nonpayable",
      "type": "function"
    },
    {
      "inputs": [],
      "name": "decimals",
      "outputs": [
        {
          "internalType": "uint8",
          "name": "",
          "type": "uint8"
        }
      ],
      "stateMutability": "view",
      "type": "function"
    },
    {
      "inputs": [],
      "name": "getCurrentPrice",
      "outputs": [
        {
          "internalType": "uint256",
          "name": "",
          "type": "uint256"
        }
      ],
      "stateMutability": "view",
      "type": "function"
    },
    {
      "inputs": [],
      "name": "getLastPrice",
      "outputs": [
        {
          "internalType": "uint256",
          "name": "",
          "type": "uint256"
        }
      ],
      "stateMutability": "view",
      "type": "function"
    },
    {
      "inputs": [],
      "name": "getMovingAverage",
      "outputs": [
        {
          "internalType": "uint256",
          "name": "",
          "type": "uint256"
        }
      ],
      "stateMutability": "view",
      "type": "function"
    },
    {
      "inputs": [
        {
          "internalType": "uint256[]",
          "name": "startObservations_",
          "type": "uint256[]"
        },
        {
          "internalType": "uint48",
          "name": "lastObservationTime_",
          "type": "uint48"
        }
      ],
      "name": "initialize",
      "outputs": [],
      "stateMutability": "nonpayable",
      "type": "function"
    },
    {
      "inputs": [],
      "name": "initialized",
      "outputs": [
        {
          "internalType": "bool",
          "name": "",
          "type": "bool"
        }
      ],
      "stateMutability": "view",
      "type": "function"
    },
    {
      "inputs": [],
      "name": "kernel",
      "outputs": [
        {
          "internalType": "contract Kernel",
          "name": "",
          "type": "address"
        }
      ],
      "stateMutability": "view",
      "type": "function"
    },
    {
      "inputs": [],
      "name": "lastObservationTime",
      "outputs": [
        {
          "internalType": "uint48",
          "name": "",
          "type": "uint48"
        }
      ],
      "stateMutability": "view",
      "type": "function"
    },
    {
      "inputs": [],
      "name": "movingAverageDuration",
      "outputs": [
        {
          "internalType": "uint48",
          "name": "",
          "type": "uint48"
        }
      ],
      "stateMutability": "view",
      "type": "function"
    },
    {
      "inputs": [],
      "name": "nextObsIndex",
      "outputs": [
        {
          "internalType": "uint32",
          "name": "",
          "type": "uint32"
        }
      ],
      "stateMutability": "view",
      "type": "function"
    },
    {
      "inputs": [],
      "name": "numObservations",
      "outputs": [
        {
          "internalType": "uint32",
          "name": "",
          "type": "uint32"
        }
      ],
      "stateMutability": "view",
      "type": "function"
    },
    {
      "inputs": [],
      "name": "observationFrequency",
      "outputs": [
        {
          "internalType": "uint48",
          "name": "",
          "type": "uint48"
        }
      ],
      "stateMutability": "view",
      "type": "function"
    },
    {
      "inputs": [
        {
          "internalType": "uint256",
          "name": "",
          "type": "uint256"
        }
      ],
      "name": "observations",
      "outputs": [
        {
          "internalType": "uint256",
          "name": "",
          "type": "uint256"
        }
      ],
      "stateMutability": "view",
      "type": "function"
    },
    {
      "inputs": [],
      "name": "updateMovingAverage",
      "outputs": [],
      "stateMutability": "nonpayable",
      "type": "function"
    }
  ],
  "bytecode": {
    "object": "0x60e06040523480156200001157600080fd5b5060405162001a2338038062001a238339810160408190526200003491620003dd565b600080546001600160a01b0319166001600160a01b03871617905565ffffffffffff811615806200007757506200006c82826200046b565b65ffffffffffff1615155b15620000965760405163bd19ab3f60e01b815260040160405180910390fd5b6001600160a01b03841660808190526040805163313ce56760e01b815290516000929163313ce5679160048083019260209291908290030181865afa158015620000e4573d6000803e3d6000fd5b505050506040513d601f19601f820116820180604052508101906200010a919062000493565b9050836001600160a01b031660a0816001600160a01b031681525050600060a0516001600160a01b031663313ce5676040518163ffffffff1660e01b8152600401602060405180830381865afa15801562000169573d6000803e3d6000fd5b505050506040513d601f19601f820116820180604052508101906200018f919062000493565b9050600082620001a1836012620004d5565b620001ad9190620004fd565b60ff1690506026811115620001d55760405163bd19ab3f60e01b815260040160405180910390fd5b620001e281600a62000622565b60c0526003805465ffffffffffff868116600160701b0265ffffffffffff60701b19918916680100000000000000000291909116600160401b600160a01b03199092169190911717905562000238858562000630565b6003805463ffffffff60201b191664010000000063ffffffff938416810291909117918290559004166001600160401b038111156200027b576200027b62000658565b604051908082528060200260200182016040528015620002a5578160200160208202803683370190505b508051620002bc9160029160209091019062000341565b5060405165ffffffffffff851681527fbf17d91c3fb2f4166d1548087583c97a6cb790502bbcdce123d872c290f582029060200160405180910390a160405165ffffffffffff861681527fccdeec192bc388cfc3e642b4a812d9cab15e3728046b2cb7b359702510a918c59060200160405180910390a150505050505050506200066e565b8280548282559060005260206000209081019282156200037f579160200282015b828111156200037f57825182559160200191906001019062000362565b506200038d92915062000391565b5090565b5b808211156200038d576000815560010162000392565b6001600160a01b0381168114620003be57600080fd5b50565b805165ffffffffffff81168114620003d857600080fd5b919050565b600080600080600060a08688031215620003f657600080fd5b85516200040381620003a8565b60208701519095506200041681620003a8565b60408701519094506200042981620003a8565b92506200043960608701620003c1565b91506200044960808701620003c1565b90509295509295909350565b634e487b7160e01b600052601260045260246000fd5b600065ffffffffffff8084168062000487576200048762000455565b92169190910692915050565b600060208284031215620004a657600080fd5b815160ff81168114620004b857600080fd5b9392505050565b634e487b7160e01b600052601160045260246000fd5b600060ff821660ff84168060ff03821115620004f557620004f5620004bf565b019392505050565b600060ff821660ff8416808210156200051a576200051a620004bf565b90039392505050565b600181815b8085111562000564578160001904821115620005485762000548620004bf565b808516156200055657918102915b93841c939080029062000528565b509250929050565b6000826200057d575060016200061c565b816200058c575060006200061c565b8160018114620005a55760028114620005b057620005d0565b60019150506200061c565b60ff841115620005c457620005c4620004bf565b50506001821b6200061c565b5060208310610133831016604e8410600b8410161715620005f5575081810a6200061c565b62000601838362000523565b8060001904821115620006185762000618620004bf565b0290505b92915050565b6000620004b883836200056c565b600065ffffffffffff808416806200064c576200064c62000455565b92169190910492915050565b634e487b7160e01b600052604160045260246000fd5b60805160a05160c051611377620006ac6000396000610f32015260008181610e340152610ef7015260008181610d280152610e0001526113776000f3fe608060405234801561001057600080fd5b506004361061012c5760003560e01c80638a157337116100ad578063d4aae0c411610071578063d4aae0c4146102a8578063d8cf24fd146102d3578063ea643914146102db578063eb91d37e146102e3578063ffa1ad74146102eb57600080fd5b80638a15733714610248578063902a35b91461025b578063aa321fe21461026e578063b5e7130514610287578063d266f5d01461028f57600080fd5b80634657b36c116100f45780634657b36c146101d057806367eab044146101e55780637321f100146101fd5780637d4dce761461022d57806386db7df01461024057600080fd5b8063158ef93e146101315780631ae7ec2e1461015a578063252c09d7146101705780632e23fc3f14610191578063313ce567146101b6575b600080fd5b60035461014590600160d01b900460ff1681565b60405190151581526020015b60405180910390f35b60405164505249434560d81b8152602001610151565b61018361017e366004610fc9565b610300565b604051908152602001610151565b6003546101a19063ffffffff1681565b60405163ffffffff9091168152602001610151565b6101be601281565b60405160ff9091168152602001610151565b6101e36101de366004610fe2565b610321565b005b6003546101a190640100000000900463ffffffff1681565b60035461021690600160401b900465ffffffffffff1681565b60405165ffffffffffff9091168152602001610151565b6101e361023b36600461102d565b610375565b6101e3610584565b6101e361025636600461102d565b6107df565b6101e361026936600461105e565b6109e4565b60035461021690600160701b900465ffffffffffff1681565b610183610bef565b60035461021690600160a01b900465ffffffffffff1681565b6000546102bb906001600160a01b031681565b6040516001600160a01b039091168152602001610151565b610183610c23565b6101e3610cc4565b610183610cf3565b60408051600181526000602082015201610151565b6002818154811061031057600080fd5b600091825260209091200154905081565b6000546001600160a01b031633146103535760405163053e900f60e21b81523360048201526024015b60405180910390fd5b600080546001600160a01b0319166001600160a01b0392909216919091179055565b6000546001600160a01b031663f166d9eb64505249434560d81b336000356001600160e01b0319166040518463ffffffff1660e01b81526004016103bb9392919061112e565b602060405180830381865afa1580156103d8573d6000803e3d6000fd5b505050506040513d601f19601f820116820180604052508101906103fc9190611163565b61041b576040516311bf00c960e01b815233600482015260240161034a565b65ffffffffffff811615806104535750600354610448908290600160701b900465ffffffffffff1661119b565b65ffffffffffff1615155b156104715760405163bd19ab3f60e01b815260040160405180910390fd5b600354600090610491908390600160701b900465ffffffffffff166111d6565b65ffffffffffff1690508067ffffffffffffffff8111156104b4576104b4611048565b6040519080825280602002602001820160405280156104dd578160200160208202803683370190505b5080516104f291600291602090910190610f69565b506003805460006001557affffffffffffff000000000000ffffffffffffffffffffffffffff1916600160401b65ffffffffffff851690810267ffffffff0000000019169190911764010000000063ffffffff851602179091556040519081527fccdeec192bc388cfc3e642b4a812d9cab15e3728046b2cb7b359702510a918c5906020015b60405180910390a15050565b6000546001600160a01b031663f166d9eb64505249434560d81b336000356001600160e01b0319166040518463ffffffff1660e01b81526004016105ca9392919061112e565b602060405180830381865afa1580156105e7573d6000803e3d6000fd5b505050506040513d601f19601f8201168201806040525081019061060b9190611163565b61062a576040516311bf00c960e01b815233600482015260240161034a565b600354600160d01b900460ff166106545760405163a985d3f560e01b815260040160405180910390fd5b6003546002805463ffffffff6401000000008404811693600093929116908110610680576106806111fb565b906000526020600020015490506000610697610cf3565b9050818111156106d85763ffffffff83166106b28383611211565b6106bc9190611228565b600160008282546106cd919061123c565b9091555061070a9050565b63ffffffff83166106e98284611211565b6106f39190611228565b600160008282546107049190611211565b90915550505b60035460028054839263ffffffff16908110610728576107286111fb565b6000918252602090912001556003805465ffffffffffff4216600160a01b0265ffffffffffff60a01b198216811790925584916107719163ffffffff9182169116176001611254565b61077b919061127c565b6003805463ffffffff191663ffffffff929092169190911790556001546040805142815260208101849052908101919091527fa62f55aa6e9680aff071df0c621257f66bc5ba0dce63725989b3e5e42f24c6299060600160405180910390a1505050565b6000546001600160a01b031663f166d9eb64505249434560d81b336000356001600160e01b0319166040518463ffffffff1660e01b81526004016108259392919061112e565b602060405180830381865afa158015610842573d6000803e3d6000fd5b505050506040513d601f19601f820116820180604052508101906108669190611163565b610885576040516311bf00c960e01b815233600482015260240161034a565b65ffffffffffff811615806108bc57506003546108b190600160401b900465ffffffffffff168261119b565b65ffffffffffff1615155b156108da5760405163bd19ab3f60e01b815260040160405180910390fd5b6003546000906108f990600160401b900465ffffffffffff16836111d6565b65ffffffffffff1690508067ffffffffffffffff81111561091c5761091c611048565b604051908082528060200260200182016040528015610945578160200160208202803683370190505b50805161095a91600291602090910190610f69565b506003805460006001557affffffffffffffffffffffffff000000000000ffffffffffffffff1916600160701b65ffffffffffff851690810267ffffffff0000000019169190911764010000000063ffffffff851602179091556040519081527fbf17d91c3fb2f4166d1548087583c97a6cb790502bbcdce123d872c290f5820290602001610578565b6000546001600160a01b031663f166d9eb64505249434560d81b336000356001600160e01b0319166040518463ffffffff1660e01b8152600401610a2a9392919061112e565b602060405180830381865afa158015610a47573d6000803e3d6000fd5b505050506040513d601f19601f82011682018060405250810190610a6b9190611163565b610a8a576040516311bf00c960e01b815233600482015260240161034a565b600354600160d01b900460ff1615610ab55760405163d5a5ed8960e01b815260040160405180910390fd5b600254825181141580610ad757504265ffffffffffff168265ffffffffffff16115b15610af55760405163bd19ab3f60e01b815260040160405180910390fd5b6000805b82811015610ba357848181518110610b1357610b136111fb565b6020026020010151600003610b3b5760405163bd19ab3f60e01b815260040160405180910390fd5b848181518110610b4d57610b4d6111fb565b602002602001015182610b60919061123c565b9150848181518110610b7457610b746111fb565b602002602001015160028281548110610b8f57610b8f6111fb565b600091825260209091200155600101610af9565b50610bae8282611228565b60015550506003805460ff60d01b1965ffffffffffff909316600160a01b029290921666ffffffffffffff60a01b1990921691909117600160d01b17905550565b600354600090600160d01b900460ff16610c1c5760405163a985d3f560e01b815260040160405180910390fd5b5060015490565b600354600090600160d01b900460ff16610c505760405163a985d3f560e01b815260040160405180910390fd5b60035460009063ffffffff1615610c7b57600354610c769060019063ffffffff16611293565b610c98565b600354610c9890600190640100000000900463ffffffff16611293565b905060028163ffffffff1681548110610cb357610cb36111fb565b906000526020600020015491505090565b6000546001600160a01b03163314610cf15760405163053e900f60e21b815233600482015260240161034a565b565b600354600090600160d01b900460ff16610d205760405163a985d3f560e01b815260040160405180910390fd5b6000806000807f00000000000000000000000000000000000000000000000000000000000000006001600160a01b031663feaf968c6040518163ffffffff1660e01b815260040160a060405180830381865afa158015610d84573d6000803e3d6000fd5b505050506040513d601f19601f82011682018060405250810190610da891906112d2565b50935050925050600360089054906101000a900465ffffffffffff1665ffffffffffff166003610dd89190611322565b610de29042611211565b811015610e2d57604051632f718a5b60e11b81526001600160a01b037f000000000000000000000000000000000000000000000000000000000000000016600482015260240161034a565b81935060007f00000000000000000000000000000000000000000000000000000000000000006001600160a01b031663feaf968c6040518163ffffffff1660e01b815260040160a060405180830381865afa158015610e90573d6000803e3d6000fd5b505050506040513d601f19601f82011682018060405250810190610eb491906112d2565b50600354909550919350610ed9925050600160401b900465ffffffffffff1642611211565b821015610f2457604051632f718a5b60e11b81526001600160a01b037f000000000000000000000000000000000000000000000000000000000000000016600482015260240161034a565b925060009150829050610f577f000000000000000000000000000000000000000000000000000000000000000085611322565b610f619190611228565b949350505050565b828054828255906000526020600020908101928215610fa4579160200282015b82811115610fa4578251825591602001919060010190610f89565b50610fb0929150610fb4565b5090565b5b80821115610fb05760008155600101610fb5565b600060208284031215610fdb57600080fd5b5035919050565b600060208284031215610ff457600080fd5b81356001600160a01b038116811461100b57600080fd5b9392505050565b803565ffffffffffff8116811461102857600080fd5b919050565b60006020828403121561103f57600080fd5b61100b82611012565b634e487b7160e01b600052604160045260246000fd5b6000806040838503121561107157600080fd5b823567ffffffffffffffff8082111561108957600080fd5b818501915085601f83011261109d57600080fd5b81356020828211156110b1576110b1611048565b8160051b604051601f19603f830116810181811086821117156110d6576110d6611048565b6040529283528183019350848101820192898411156110f457600080fd5b948201945b83861015611112578535855294820194938201936110f9565b96506111219050878201611012565b9450505050509250929050565b6001600160d81b03199390931683526001600160a01b039190911660208301526001600160e01b031916604082015260600190565b60006020828403121561117557600080fd5b8151801515811461100b57600080fd5b634e487b7160e01b600052601260045260246000fd5b600065ffffffffffff808416806111b4576111b4611185565b92169190910692915050565b634e487b7160e01b600052601160045260246000fd5b600065ffffffffffff808416806111ef576111ef611185565b92169190910492915050565b634e487b7160e01b600052603260045260246000fd5b600082821015611223576112236111c0565b500390565b60008261123757611237611185565b500490565b6000821982111561124f5761124f6111c0565b500190565b600063ffffffff808316818516808303821115611273576112736111c0565b01949350505050565b600063ffffffff808416806111b4576111b4611185565b600063ffffffff838116908316818110156112b0576112b06111c0565b039392505050565b805169ffffffffffffffffffff8116811461102857600080fd5b600080600080600060a086880312156112ea57600080fd5b6112f3866112b8565b9450602086015193506040860151925060608601519150611316608087016112b8565b90509295509295909350565b600081600019048311821515161561133c5761133c6111c0565b50029056fea2646970667358221220f4769f3d14607d4558c45a9231136aaa7964d382a4ba50dede0aee07228fdffd64736f6c634300080f0033",
    "linkReferences": {}
  },
  "methodIdentifiers": {
    "INIT()": "ea643914",
    "KEYCODE()": "1ae7ec2e",
    "VERSION()": "ffa1ad74",
    "changeKernel(address)": "4657b36c",
    "changeMovingAverageDuration(uint48)": "8a157337",
    "changeObservationFrequency(uint48)": "7d4dce76",
    "decimals()": "313ce567",
    "getCurrentPrice()": "eb91d37e",
    "getLastPrice()": "d8cf24fd",
    "getMovingAverage()": "b5e71305",
    "initialize(uint256[],uint48)": "902a35b9",
    "initialized()": "158ef93e",
    "kernel()": "d4aae0c4",
    "lastObservationTime()": "d266f5d0",
    "movingAverageDuration()": "aa321fe2",
    "nextObsIndex()": "2e23fc3f",
    "numObservations()": "67eab044",
    "observationFrequency()": "7321f100",
    "observations(uint256)": "252c09d7",
    "updateMovingAverage()": "86db7df0"
  },
  "id": 23
}