{
  "abi": [
    {
      "inputs": [
        {
          "internalType": "contract Kernel",
          "name": "kernel_",
          "type": "address"
        }
      ],
      "stateMutability": "nonpayable",
      "type": "constructor"
    },
    {
      "inputs": [
        {
          "internalType": "address",
          "name": "caller_",
          "type": "address"
        }
      ],
      "name": "KernelAdapter_OnlyKernel",
      "type": "error"
    },
    {
      "inputs": [],
      "name": "PolicyStillActive",
      "type": "error"
    },
    {
      "inputs": [
        {
          "internalType": "Keycode",
          "name": "keycode_",
          "type": "bytes5"
        }
      ],
      "name": "Policy_ModuleDoesNotExist",
      "type": "error"
    },
    {
      "inputs": [
        {
          "internalType": "Role",
          "name": "role_",
          "type": "bytes32"
        }
      ],
      "name": "Policy_OnlyRole",
      "type": "error"
    },
    {
      "anonymous": false,
      "inputs": [
        {
          "indexed": true,
          "internalType": "address",
          "name": "policy_",
          "type": "address"
        },
        {
          "indexed": false,
          "internalType": "contract ERC20[]",
          "name": "tokens_",
          "type": "address[]"
        }
      ],
      "name": "ApprovalRevoked",
      "type": "event"
    },
    {
      "inputs": [
        {
          "internalType": "contract Kernel",
          "name": "newKernel_",
          "type": "address"
        }
      ],
      "name": "changeKernel",
      "outputs": [],
      "stateMutability": "nonpayable",
      "type": "function"
    },
    {
      "inputs": [],
      "name": "configureDependencies",
      "outputs": [
        {
          "internalType": "Keycode[]",
          "name": "dependencies",
          "type": "bytes5[]"
        }
      ],
      "stateMutability": "nonpayable",
      "type": "function"
    },
    {
      "inputs": [
        {
          "internalType": "contract ERC20",
          "name": "token_",
          "type": "address"
        },
        {
          "internalType": "address",
          "name": "debtor_",
          "type": "address"
        },
        {
          "internalType": "uint256",
          "name": "amount_",
          "type": "uint256"
        }
      ],
      "name": "decreaseDebt",
      "outputs": [],
      "stateMutability": "nonpayable",
      "type": "function"
    },
    {
      "inputs": [
        {
          "internalType": "address",
          "name": "for_",
          "type": "address"
        },
        {
          "internalType": "contract ERC20",
          "name": "token_",
          "type": "address"
        },
        {
          "internalType": "uint256",
          "name": "amount_",
          "type": "uint256"
        }
      ],
      "name": "grantApproval",
      "outputs": [],
      "stateMutability": "nonpayable",
      "type": "function"
    },
    {
      "inputs": [
        {
          "internalType": "contract ERC20",
          "name": "token_",
          "type": "address"
        },
        {
          "internalType": "address",
          "name": "debtor_",
          "type": "address"
        },
        {
          "internalType": "uint256",
          "name": "amount_",
          "type": "uint256"
        }
      ],
      "name": "increaseDebt",
      "outputs": [],
      "stateMutability": "nonpayable",
      "type": "function"
    },
    {
      "inputs": [],
      "name": "isActive",
      "outputs": [
        {
          "internalType": "bool",
          "name": "",
          "type": "bool"
        }
      ],
      "stateMutability": "view",
      "type": "function"
    },
    {
      "inputs": [],
      "name": "kernel",
      "outputs": [
        {
          "internalType": "contract Kernel",
          "name": "",
          "type": "address"
        }
      ],
      "stateMutability": "view",
      "type": "function"
    },
    {
      "inputs": [],
      "name": "requestPermissions",
      "outputs": [
        {
          "components": [
            {
              "internalType": "Keycode",
              "name": "keycode",
              "type": "bytes5"
            },
            {
              "internalType": "bytes4",
              "name": "funcSelector",
              "type": "bytes4"
            }
          ],
          "internalType": "struct Permissions[]",
          "name": "requests",
          "type": "tuple[]"
        }
      ],
      "stateMutability": "view",
      "type": "function"
    },
    {
      "inputs": [
        {
          "internalType": "address",
          "name": "policy_",
          "type": "address"
        },
        {
          "internalType": "contract ERC20[]",
          "name": "tokens_",
          "type": "address[]"
        }
      ],
      "name": "revokePolicyApprovals",
      "outputs": [],
      "stateMutability": "nonpayable",
      "type": "function"
    },
    {
      "inputs": [
        {
          "internalType": "bool",
          "name": "activate_",
          "type": "bool"
        }
      ],
      "name": "setActiveStatus",
      "outputs": [],
      "stateMutability": "nonpayable",
      "type": "function"
    }
  ],
  "bytecode": {
    "object": "0x608060405234801561001057600080fd5b50604051610e92380380610e9283398101604081905261002f91610054565b600080546001600160a01b0319166001600160a01b0392909216919091179055610084565b60006020828403121561006657600080fd5b81516001600160a01b038116811461007d57600080fd5b9392505050565b610dff806100936000396000f3fe608060405234801561001057600080fd5b506004361061009e5760003560e01c80639459b875116100665780639459b8751461011c578063d4aae0c414610131578063ec7404b11461015c578063ed60f1881461016f578063f3d8c7a71461018257600080fd5b806322f3e2d4146100a35780634657b36c146100cc5780635924be70146100e157806359bb98a0146100f65780636de2449214610109575b600080fd5b6000546100b790600160a01b900460ff1681565b60405190151581526020015b60405180910390f35b6100df6100da366004610a6f565b610195565b005b6100e96101e9565b6040516100c39190610a93565b6100df610104366004610b1c565b61033a565b6100df610117366004610bf6565b6104b6565b610124610660565b6040516100c39190610c37565b600054610144906001600160a01b031681565b6040516001600160a01b0390911681526020016100c3565b6100df61016a366004610c93565b610706565b6100df61017d366004610bf6565b610751565b6100df610190366004610bf6565b61088c565b6000546001600160a01b031633146101c75760405163053e900f60e21b81523360048201526024015b60405180910390fd5b600080546001600160a01b0319166001600160a01b0392909216919091179055565b60606000600160009054906101000a90046001600160a01b03166001600160a01b0316631ae7ec2e6040518163ffffffff1660e01b8152600401602060405180830381865afa158015610240573d6000803e3d6000fd5b505050506040513d601f19601f820116820180604052508101906102649190610cb0565b60408051600280825260608201909252919250816020015b604080518082019091526000808252602082015281526020019060019003908161027c575050604080518082019091526001600160d81b03198316815263d1b5b47560e01b602082015281519193509083906000906102dd576102dd610cda565b60200260200101819052506040518060400160405280826001600160d81b0319168152602001634aae164b60e01b6001600160e01b0319168152508260018151811061032b5761032b610cda565b60200260200101819052505090565b816001600160a01b03166322f3e2d46040518163ffffffff1660e01b8152600401602060405180830381865afa158015610378573d6000803e3d6000fd5b505050506040513d601f19601f8201168201806040525081019061039c9190610cf0565b156103ba57604051636b5b2e2160e01b815260040160405180910390fd5b805160005b8181101561046f5760015483516001600160a01b039091169063d1b5b4759086908690859081106103f2576103f2610cda565b60209081029190910101516040516001600160e01b031960e085901b1681526001600160a01b0392831660048201529116602482015260006044820152606401600060405180830381600087803b15801561044c57600080fd5b505af1158015610460573d6000803e3d6000fd5b505050508060010190506103bf565b50826001600160a01b03167f225abc46e6d252730aade6e6865644c1bf38550af878655697bcd866b4983deb836040516104a99190610d0d565b60405180910390a2505050565b6831bab9ba37b234b0b760b91b60008160005460405163ac4ab3fb60e01b8152336004820152602481018390529192506001600160a01b03169063ac4ab3fb90604401602060405180830381865afa158015610516573d6000803e3d6000fd5b505050506040513d601f19601f8201168201806040525081019061053a9190610cf0565b61055a576040516371324ef360e11b8152600481018290526024016101be565b6001546040516328a4ace560e01b81526001600160a01b038781166004830152868116602483015260009216906328a4ace590604401602060405180830381865afa1580156105ad573d6000803e3d6000fd5b505050506040513d601f19601f820116820180604052508101906105d19190610d4e565b6001549091506001600160a01b0316634aae164b87876105f18886610d7d565b6040516001600160e01b031960e086901b1681526001600160a01b0393841660048201529290911660248301526044820152606401600060405180830381600087803b15801561064057600080fd5b505af1158015610654573d6000803e3d6000fd5b50505050505050505050565b6040805160018082528183019092526060916020808301908036833701905050905064545253525960d81b8160008151811061069e5761069e610cda565b60200260200101906001600160d81b03191690816001600160d81b031916815250506106e3816000815181106106d6576106d6610cda565b60200260200101516109a5565b600180546001600160a01b0319166001600160a01b039290921691909117905590565b6000546001600160a01b031633146107335760405163053e900f60e21b81523360048201526024016101be565b60008054911515600160a01b0260ff60a01b19909216919091179055565b6831bab9ba37b234b0b760b91b60008160005460405163ac4ab3fb60e01b8152336004820152602481018390529192506001600160a01b03169063ac4ab3fb90604401602060405180830381865afa1580156107b1573d6000803e3d6000fd5b505050506040513d601f19601f820116820180604052508101906107d59190610cf0565b6107f5576040516371324ef360e11b8152600481018290526024016101be565b6001546040516328a4ace560e01b81526001600160a01b038781166004830152868116602483015260009216906328a4ace590604401602060405180830381865afa158015610848573d6000803e3d6000fd5b505050506040513d601f19601f8201168201806040525081019061086c9190610d4e565b6001549091506001600160a01b0316634aae164b87876105f18886610d95565b6831bab9ba37b234b0b760b91b60008160005460405163ac4ab3fb60e01b8152336004820152602481018390529192506001600160a01b03169063ac4ab3fb90604401602060405180830381865afa1580156108ec573d6000803e3d6000fd5b505050506040513d601f19601f820116820180604052508101906109109190610cf0565b610930576040516371324ef360e11b8152600481018290526024016101be565b60015460405163d1b5b47560e01b81526001600160a01b0387811660048301528681166024830152604482018690529091169063d1b5b47590606401600060405180830381600087803b15801561098657600080fd5b505af115801561099a573d6000803e3d6000fd5b505050505050505050565b60008054604051632d37002d60e21b81526001600160d81b03198416600482015282916001600160a01b03169063b4dc00b490602401602060405180830381865afa1580156109f8573d6000803e3d6000fd5b505050506040513d601f19601f82011682018060405250810190610a1c9190610dac565b90506001600160a01b038116610a5157604051635c3fa9cd60e01b81526001600160d81b0319841660048201526024016101be565b92915050565b6001600160a01b0381168114610a6c57600080fd5b50565b600060208284031215610a8157600080fd5b8135610a8c81610a57565b9392505050565b602080825282518282018190526000919060409081850190868401855b82811015610ae957815180516001600160d81b03191685528601516001600160e01b031916868501529284019290850190600101610ab0565b5091979650505050505050565b634e487b7160e01b600052604160045260246000fd5b8035610b1781610a57565b919050565b60008060408385031215610b2f57600080fd5b8235610b3a81610a57565b915060208381013567ffffffffffffffff80821115610b5857600080fd5b818601915086601f830112610b6c57600080fd5b813581811115610b7e57610b7e610af6565b8060051b604051601f19603f83011681018181108582111715610ba357610ba3610af6565b604052918252848201925083810185019189831115610bc157600080fd5b938501935b82851015610be657610bd785610b0c565b84529385019392850192610bc6565b8096505050505050509250929050565b600080600060608486031215610c0b57600080fd5b8335610c1681610a57565b92506020840135610c2681610a57565b929592945050506040919091013590565b6020808252825182820181905260009190848201906040850190845b81811015610c795783516001600160d81b03191683529284019291840191600101610c53565b50909695505050505050565b8015158114610a6c57600080fd5b600060208284031215610ca557600080fd5b8135610a8c81610c85565b600060208284031215610cc257600080fd5b81516001600160d81b031981168114610a8c57600080fd5b634e487b7160e01b600052603260045260246000fd5b600060208284031215610d0257600080fd5b8151610a8c81610c85565b6020808252825182820181905260009190848201906040850190845b81811015610c795783516001600160a01b031683529284019291840191600101610d29565b600060208284031215610d6057600080fd5b5051919050565b634e487b7160e01b600052601160045260246000fd5b60008219821115610d9057610d90610d67565b500190565b600082821015610da757610da7610d67565b500390565b600060208284031215610dbe57600080fd5b8151610a8c81610a5756fea26469706673582212208918b54f2010069a365e6ce5e4686ba74997f985665e506b77d87b07641b60fc64736f6c634300080f0033",
    "linkReferences": {}
  },
  "methodIdentifiers": {
    "changeKernel(address)": "4657b36c",
    "configureDependencies()": "9459b875",
    "decreaseDebt(address,address,uint256)": "ed60f188",
    "grantApproval(address,address,uint256)": "f3d8c7a7",
    "increaseDebt(address,address,uint256)": "6de24492",
    "isActive()": "22f3e2d4",
    "kernel()": "d4aae0c4",
    "requestPermissions()": "5924be70",
    "revokePolicyApprovals(address,address[])": "59bb98a0",
    "setActiveStatus(bool)": "ec7404b1"
  },
  "id": 32
}