{
  "abi": [
    {
      "inputs": [
        {
          "internalType": "contract Kernel",
          "name": "kernel_",
          "type": "address"
        }
      ],
      "stateMutability": "nonpayable",
      "type": "constructor"
    },
    {
      "inputs": [
        {
          "internalType": "address",
          "name": "caller_",
          "type": "address"
        }
      ],
      "name": "KernelAdapter_OnlyKernel",
      "type": "error"
    },
    {
      "inputs": [
        {
          "internalType": "Keycode",
          "name": "keycode_",
          "type": "bytes5"
        }
      ],
      "name": "Policy_ModuleDoesNotExist",
      "type": "error"
    },
    {
      "inputs": [
        {
          "internalType": "Role",
          "name": "role_",
          "type": "bytes32"
        }
      ],
      "name": "Policy_OnlyRole",
      "type": "error"
    },
    {
      "inputs": [],
      "name": "VOTES",
      "outputs": [
        {
          "internalType": "contract OlympusVotes",
          "name": "",
          "type": "address"
        }
      ],
      "stateMutability": "view",
      "type": "function"
    },
    {
      "inputs": [
        {
          "internalType": "contract Kernel",
          "name": "newKernel_",
          "type": "address"
        }
      ],
      "name": "changeKernel",
      "outputs": [],
      "stateMutability": "nonpayable",
      "type": "function"
    },
    {
      "inputs": [],
      "name": "configureDependencies",
      "outputs": [
        {
          "internalType": "Keycode[]",
          "name": "dependencies",
          "type": "bytes5[]"
        }
      ],
      "stateMutability": "nonpayable",
      "type": "function"
    },
    {
      "inputs": [],
      "name": "isActive",
      "outputs": [
        {
          "internalType": "bool",
          "name": "",
          "type": "bool"
        }
      ],
      "stateMutability": "view",
      "type": "function"
    },
    {
      "inputs": [
        {
          "internalType": "address",
          "name": "wallet_",
          "type": "address"
        },
        {
          "internalType": "uint256",
          "name": "amount_",
          "type": "uint256"
        }
      ],
      "name": "issueVotesTo",
      "outputs": [],
      "stateMutability": "nonpayable",
      "type": "function"
    },
    {
      "inputs": [],
      "name": "kernel",
      "outputs": [
        {
          "internalType": "contract Kernel",
          "name": "",
          "type": "address"
        }
      ],
      "stateMutability": "view",
      "type": "function"
    },
    {
      "inputs": [],
      "name": "requestPermissions",
      "outputs": [
        {
          "components": [
            {
              "internalType": "Keycode",
              "name": "keycode",
              "type": "bytes5"
            },
            {
              "internalType": "bytes4",
              "name": "funcSelector",
              "type": "bytes4"
            }
          ],
          "internalType": "struct Permissions[]",
          "name": "permissions",
          "type": "tuple[]"
        }
      ],
      "stateMutability": "view",
      "type": "function"
    },
    {
      "inputs": [
        {
          "internalType": "address",
          "name": "wallet_",
          "type": "address"
        },
        {
          "internalType": "uint256",
          "name": "amount_",
          "type": "uint256"
        }
      ],
      "name": "revokeVotesFrom",
      "outputs": [],
      "stateMutability": "nonpayable",
      "type": "function"
    },
    {
      "inputs": [
        {
          "internalType": "bool",
          "name": "activate_",
          "type": "bool"
        }
      ],
      "name": "setActiveStatus",
      "outputs": [],
      "stateMutability": "nonpayable",
      "type": "function"
    }
  ],
  "bytecode": {
    "object": "0x608060405234801561001057600080fd5b5060405161099038038061099083398101604081905261002f91610054565b600080546001600160a01b0319166001600160a01b0392909216919091179055610084565b60006020828403121561006657600080fd5b81516001600160a01b038116811461007d57600080fd5b9392505050565b6108fd806100936000396000f3fe608060405234801561001057600080fd5b50600436106100935760003560e01c80639459b875116100665780639459b875146100fe578063d4aae0c414610113578063e4b4a7271461013e578063eba4d10414610151578063ec7404b11461016457600080fd5b806322f3e2d4146100985780634657b36c146100c15780635924be70146100d65780637ae5e06b146100eb575b600080fd5b6000546100ac90600160a01b900460ff1681565b60405190151581526020015b60405180910390f35b6100d46100cf366004610721565b610177565b005b6100de6101cb565b6040516100b89190610745565b6100d46100f93660046107a8565b610374565b610106610487565b6040516100b891906107d4565b600054610126906001600160a01b031681565b6040516001600160a01b0390911681526020016100b8565b600154610126906001600160a01b031681565b6100d461015f3660046107a8565b61052d565b6100d4610172366004610830565b61060c565b6000546001600160a01b031633146101a95760405163053e900f60e21b81523360048201526024015b60405180910390fd5b600080546001600160a01b0319166001600160a01b0392909216919091179055565b6040805160028082526060828101909352816020015b60408051808201909152600080825260208201528152602001906001900390816101e157505060408051808201808352600154630d73f61760e11b90915291519293509182916001600160a01b031690631ae7ec2e906044808501916020918187030181865afa158015610259573d6000803e3d6000fd5b505050506040513d601f19601f8201168201806040525081019061027d919061084d565b6001600160d81b03191681526308934a5f60e31b602090910152815182906000906102aa576102aa610877565b60200260200101819052506040518060400160405280600160009054906101000a90046001600160a01b03166001600160a01b0316631ae7ec2e6040518163ffffffff1660e01b8152600401602060405180830381865afa158015610313573d6000803e3d6000fd5b505050506040513d601f19601f82011682018060405250810190610337919061084d565b6001600160d81b031916815263079cc67960e41b60209091015281518290600190811061036657610366610877565b602002602001018190525090565b6a3b37ba32b92fb0b236b4b760a91b60008160005460405163ac4ab3fb60e01b8152336004820152602481018390529192506001600160a01b03169063ac4ab3fb90604401602060405180830381865afa1580156103d6573d6000803e3d6000fd5b505050506040513d601f19601f820116820180604052508101906103fa919061088d565b61041a576040516371324ef360e11b8152600481018290526024016101a0565b60015460405163079cc67960e41b81526001600160a01b03868116600483015260248201869052909116906379cc6790906044015b600060405180830381600087803b15801561046957600080fd5b505af115801561047d573d6000803e3d6000fd5b5050505050505050565b6040805160018082528183019092526060916020808301908036833701905050905064564f54455360d81b816000815181106104c5576104c5610877565b60200260200101906001600160d81b03191690816001600160d81b0319168152505061050a816000815181106104fd576104fd610877565b6020026020010151610657565b600180546001600160a01b0319166001600160a01b039290921691909117905590565b6a3b37ba32b92fb0b236b4b760a91b60008160005460405163ac4ab3fb60e01b8152336004820152602481018390529192506001600160a01b03169063ac4ab3fb90604401602060405180830381865afa15801561058f573d6000803e3d6000fd5b505050506040513d601f19601f820116820180604052508101906105b3919061088d565b6105d3576040516371324ef360e11b8152600481018290526024016101a0565b6001546040516308934a5f60e31b81526001600160a01b038681166004830152602482018690529091169063449a52f89060440161044f565b6000546001600160a01b031633146106395760405163053e900f60e21b81523360048201526024016101a0565b60008054911515600160a01b0260ff60a01b19909216919091179055565b60008054604051632d37002d60e21b81526001600160d81b03198416600482015282916001600160a01b03169063b4dc00b490602401602060405180830381865afa1580156106aa573d6000803e3d6000fd5b505050506040513d601f19601f820116820180604052508101906106ce91906108aa565b90506001600160a01b03811661070357604051635c3fa9cd60e01b81526001600160d81b0319841660048201526024016101a0565b92915050565b6001600160a01b038116811461071e57600080fd5b50565b60006020828403121561073357600080fd5b813561073e81610709565b9392505050565b602080825282518282018190526000919060409081850190868401855b8281101561079b57815180516001600160d81b03191685528601516001600160e01b031916868501529284019290850190600101610762565b5091979650505050505050565b600080604083850312156107bb57600080fd5b82356107c681610709565b946020939093013593505050565b6020808252825182820181905260009190848201906040850190845b818110156108165783516001600160d81b031916835292840192918401916001016107f0565b50909695505050505050565b801515811461071e57600080fd5b60006020828403121561084257600080fd5b813561073e81610822565b60006020828403121561085f57600080fd5b81516001600160d81b03198116811461073e57600080fd5b634e487b7160e01b600052603260045260246000fd5b60006020828403121561089f57600080fd5b815161073e81610822565b6000602082840312156108bc57600080fd5b815161073e8161070956fea2646970667358221220caf0c8c0d792419fbe2195aa9384ba66d46e5c251d068a0279c710edeb802f4964736f6c634300080f0033",
    "linkReferences": {}
  },
  "methodIdentifiers": {
    "VOTES()": "e4b4a727",
    "changeKernel(address)": "4657b36c",
    "configureDependencies()": "9459b875",
    "isActive()": "22f3e2d4",
    "issueVotesTo(address,uint256)": "eba4d104",
    "kernel()": "d4aae0c4",
    "requestPermissions()": "5924be70",
    "revokeVotesFrom(address,uint256)": "7ae5e06b",
    "setActiveStatus(bool)": "ec7404b1"
  },
  "id": 33
}