{
  "abi": [
    {
      "inputs": [
        {
          "internalType": "contract Kernel",
          "name": "kernel_",
          "type": "address"
        }
      ],
      "stateMutability": "nonpayable",
      "type": "constructor"
    },
    {
      "inputs": [],
      "name": "INSTR_InstructionsCannotBeEmpty",
      "type": "error"
    },
    {
      "inputs": [],
      "name": "INSTR_InvalidChangeExecutorAction",
      "type": "error"
    },
    {
      "inputs": [
        {
          "internalType": "Keycode",
          "name": "keycode_",
          "type": "bytes5"
        }
      ],
      "name": "InvalidKeycode",
      "type": "error"
    },
    {
      "inputs": [
        {
          "internalType": "address",
          "name": "caller_",
          "type": "address"
        }
      ],
      "name": "KernelAdapter_OnlyKernel",
      "type": "error"
    },
    {
      "inputs": [
        {
          "internalType": "address",
          "name": "policy_",
          "type": "address"
        }
      ],
      "name": "Module_PolicyNotPermitted",
      "type": "error"
    },
    {
      "inputs": [
        {
          "internalType": "address",
          "name": "target_",
          "type": "address"
        }
      ],
      "name": "TargetNotAContract",
      "type": "error"
    },
    {
      "anonymous": false,
      "inputs": [
        {
          "indexed": false,
          "internalType": "uint256",
          "name": "instructionsId",
          "type": "uint256"
        }
      ],
      "name": "InstructionsStored",
      "type": "event"
    },
    {
      "inputs": [],
      "name": "INIT",
      "outputs": [],
      "stateMutability": "nonpayable",
      "type": "function"
    },
    {
      "inputs": [],
      "name": "KEYCODE",
      "outputs": [
        {
          "internalType": "Keycode",
          "name": "",
          "type": "bytes5"
        }
      ],
      "stateMutability": "pure",
      "type": "function"
    },
    {
      "inputs": [],
      "name": "VERSION",
      "outputs": [
        {
          "internalType": "uint8",
          "name": "major",
          "type": "uint8"
        },
        {
          "internalType": "uint8",
          "name": "minor",
          "type": "uint8"
        }
      ],
      "stateMutability": "pure",
      "type": "function"
    },
    {
      "inputs": [
        {
          "internalType": "contract Kernel",
          "name": "newKernel_",
          "type": "address"
        }
      ],
      "name": "changeKernel",
      "outputs": [],
      "stateMutability": "nonpayable",
      "type": "function"
    },
    {
      "inputs": [
        {
          "internalType": "uint256",
          "name": "instructionsId_",
          "type": "uint256"
        }
      ],
      "name": "getInstructions",
      "outputs": [
        {
          "components": [
            {
              "internalType": "enum Actions",
              "name": "action",
              "type": "uint8"
            },
            {
              "internalType": "address",
              "name": "target",
              "type": "address"
            }
          ],
          "internalType": "struct Instruction[]",
          "name": "",
          "type": "tuple[]"
        }
      ],
      "stateMutability": "view",
      "type": "function"
    },
    {
      "inputs": [],
      "name": "kernel",
      "outputs": [
        {
          "internalType": "contract Kernel",
          "name": "",
          "type": "address"
        }
      ],
      "stateMutability": "view",
      "type": "function"
    },
    {
      "inputs": [
        {
          "components": [
            {
              "internalType": "enum Actions",
              "name": "action",
              "type": "uint8"
            },
            {
              "internalType": "address",
              "name": "target",
              "type": "address"
            }
          ],
          "internalType": "struct Instruction[]",
          "name": "instructions_",
          "type": "tuple[]"
        }
      ],
      "name": "store",
      "outputs": [
        {
          "internalType": "uint256",
          "name": "",
          "type": "uint256"
        }
      ],
      "stateMutability": "nonpayable",
      "type": "function"
    },
    {
      "inputs": [
        {
          "internalType": "uint256",
          "name": "",
          "type": "uint256"
        },
        {
          "internalType": "uint256",
          "name": "",
          "type": "uint256"
        }
      ],
      "name": "storedInstructions",
      "outputs": [
        {
          "internalType": "enum Actions",
          "name": "action",
          "type": "uint8"
        },
        {
          "internalType": "address",
          "name": "target",
          "type": "address"
        }
      ],
      "stateMutability": "view",
      "type": "function"
    },
    {
      "inputs": [],
      "name": "totalInstructions",
      "outputs": [
        {
          "internalType": "uint256",
          "name": "",
          "type": "uint256"
        }
      ],
      "stateMutability": "view",
      "type": "function"
    }
  ],
  "bytecode": {
    "object": "0x608060405234801561001057600080fd5b50604051610a4d380380610a4d83398101604081905261002f91610054565b600080546001600160a01b0319166001600160a01b0392909216919091179055610084565b60006020828403121561006657600080fd5b81516001600160a01b038116811461007d57600080fd5b9392505050565b6109ba806100936000396000f3fe608060405234801561001057600080fd5b50600436106100935760003560e01c8063b1d85eec11610066578063b1d85eec14610100578063d4aae0c414610113578063ea6439141461013e578063f19928c014610146578063ffa1ad741461016657600080fd5b80631ae7ec2e146100985780634657b36c146100b35780636eaadfc7146100c85780638ba639a4146100df575b600080fd5b6040516424a729aa2960d91b81526020015b60405180910390f35b6100c66100c13660046106b3565b61017b565b005b6100d160015481565b6040519081526020016100aa565b6100f26100ed3660046106d7565b6101cf565b6040516100aa929190610731565b6100d161010e366004610757565b610210565b600054610126906001600160a01b031681565b6040516001600160a01b0390911681526020016100aa565b6100c6610502565b6101596101543660046107cc565b610531565b6040516100aa91906107e5565b604080516001815260006020820152016100aa565b6000546001600160a01b031633146101ad5760405163053e900f60e21b81523360048201526024015b60405180910390fd5b600080546001600160a01b0319166001600160a01b0392909216919091179055565b600260205281600052604060002081815481106101eb57600080fd5b60009182526020909120015460ff8116925061010090046001600160a01b0316905082565b600080546001600160a01b031663f166d9eb6424a729aa2960d91b6040516001600160e01b031960e084901b811682526001600160d81b03199290921660048201523360248201526000359091166044820152606401602060405180830381865afa158015610283573d6000803e3d6000fd5b505050506040513d601f19601f820116820180604052508101906102a79190610844565b6102c6576040516311bf00c960e01b81523360048201526024016101a4565b60018054839160009182906102da9061087c565b9182905550600081815260026020526040812091925083900361031057604051633f6c6e9960e01b815260040160405180910390fd5b60005b838110156104c5573687878381811061032e5761032e610895565b905060400201905061035181602001602081019061034c91906106b3565b6105e0565b600061036060208301836108b8565b6006811115610371576103716106f9565b148061039a5750600161038760208301836108b8565b6006811115610398576103986106f9565b145b156104235760006103b160408301602084016106b3565b905061041d816001600160a01b0316631ae7ec2e6040518163ffffffff1660e01b8152600401602060405180830381865afa1580156103f4573d6000803e3d6000fd5b505050506040513d601f19601f8201168201806040525081019061041891906108d5565b610613565b50610478565b600461043260208301836108b8565b6006811115610443576104436106f9565b14801561045a57506104566001866108ff565b8214155b156104785760405163dcaa8ba760e01b815260040160405180910390fd5b8288888481811061048b5761048b610895565b835460018101855560009485526020909420604090910292909201929190910190506104b78282610916565b505081600101915050610313565b506040518281527f786456549a8048fc360b44d675c164244436ef1e5048c3aecea4d160400fd0019060200160405180910390a150949350505050565b6000546001600160a01b0316331461052f5760405163053e900f60e21b81523360048201526024016101a4565b565b606060026000838152602001908152602001600020805480602002602001604051908101604052809291908181526020016000905b828210156105d557600084815260209020604080518082019091529083018054829060ff16600681111561059c5761059c6106f9565b60068111156105ad576105ad6106f9565b8152905461010090046001600160a01b03166020918201529082526001929092019101610566565b505050509050919050565b803b600081900361060f57604051631bd1ba9d60e21b81526001600160a01b03831660048201526024016101a4565b5050565b8060005b600581101561069657600082826005811061063457610634610895565b1a60f81b9050604160f81b6001600160f81b0319821610806106635750602d60f91b6001600160f81b03198216115b1561068d5760405163075f770560e31b81526001600160d81b0319851660048201526024016101a4565b50600101610617565b505050565b6001600160a01b03811681146106b057600080fd5b50565b6000602082840312156106c557600080fd5b81356106d08161069b565b9392505050565b600080604083850312156106ea57600080fd5b50508035926020909101359150565b634e487b7160e01b600052602160045260246000fd5b6007811061072d57634e487b7160e01b600052602160045260246000fd5b9052565b6040810161073f828561070f565b6001600160a01b039290921660209190910152919050565b6000806020838503121561076a57600080fd5b823567ffffffffffffffff8082111561078257600080fd5b818501915085601f83011261079657600080fd5b8135818111156107a557600080fd5b8660208260061b85010111156107ba57600080fd5b60209290920196919550909350505050565b6000602082840312156107de57600080fd5b5035919050565b602080825282518282018190526000919060409081850190868401855b8281101561083757815161081785825161070f565b8601516001600160a01b0316848701529284019290850190600101610802565b5091979650505050505050565b60006020828403121561085657600080fd5b815180151581146106d057600080fd5b634e487b7160e01b600052601160045260246000fd5b60006001820161088e5761088e610866565b5060010190565b634e487b7160e01b600052603260045260246000fd5b600781106106b057600080fd5b6000602082840312156108ca57600080fd5b81356106d0816108ab565b6000602082840312156108e757600080fd5b81516001600160d81b0319811681146106d057600080fd5b60008282101561091157610911610866565b500390565b8135610921816108ab565b6007811061093f57634e487b7160e01b600052602160045260246000fd5b815460ff821691508160ff198216178355602084013561095e8161069b565b6001600160a81b03199190911690911760089190911b610100600160a81b03161790555056fea26469706673582212208934b597e008a21e6745a6c8fce43fc6df3b66fc6cdef6e92642dfd3aa917d7564736f6c634300080f0033",
    "linkReferences": {}
  },
  "methodIdentifiers": {
    "INIT()": "ea643914",
    "KEYCODE()": "1ae7ec2e",
    "VERSION()": "ffa1ad74",
    "changeKernel(address)": "4657b36c",
    "getInstructions(uint256)": "f19928c0",
    "kernel()": "d4aae0c4",
    "store((uint8,address)[])": "b1d85eec",
    "storedInstructions(uint256,uint256)": "8ba639a4",
    "totalInstructions()": "6eaadfc7"
  },
  "id": 21
}