{
  "abi": [
    {
      "inputs": [
        {
          "internalType": "contract Kernel",
          "name": "kernel_",
          "type": "address"
        },
        {
          "internalType": "contract ERC20[2]",
          "name": "tokens_",
          "type": "address[2]"
        },
        {
          "internalType": "uint256[3]",
          "name": "rangeParams_",
          "type": "uint256[3]"
        }
      ],
      "stateMutability": "nonpayable",
      "type": "constructor"
    },
    {
      "inputs": [
        {
          "internalType": "address",
          "name": "caller_",
          "type": "address"
        }
      ],
      "name": "KernelAdapter_OnlyKernel",
      "type": "error"
    },
    {
      "inputs": [
        {
          "internalType": "address",
          "name": "policy_",
          "type": "address"
        }
      ],
      "name": "Module_PolicyNotPermitted",
      "type": "error"
    },
    {
      "inputs": [],
      "name": "RANGE_InvalidParams",
      "type": "error"
    },
    {
      "anonymous": false,
      "inputs": [
        {
          "indexed": false,
          "internalType": "bool",
          "name": "high_",
          "type": "bool"
        },
        {
          "indexed": false,
          "internalType": "uint256",
          "name": "timestamp_",
          "type": "uint256"
        }
      ],
      "name": "CushionDown",
      "type": "event"
    },
    {
      "anonymous": false,
      "inputs": [
        {
          "indexed": false,
          "internalType": "bool",
          "name": "high_",
          "type": "bool"
        },
        {
          "indexed": false,
          "internalType": "uint256",
          "name": "timestamp_",
          "type": "uint256"
        },
        {
          "indexed": false,
          "internalType": "uint256",
          "name": "capacity_",
          "type": "uint256"
        }
      ],
      "name": "CushionUp",
      "type": "event"
    },
    {
      "anonymous": false,
      "inputs": [
        {
          "indexed": false,
          "internalType": "uint256",
          "name": "wallLowPrice_",
          "type": "uint256"
        },
        {
          "indexed": false,
          "internalType": "uint256",
          "name": "cushionLowPrice_",
          "type": "uint256"
        },
        {
          "indexed": false,
          "internalType": "uint256",
          "name": "cushionHighPrice_",
          "type": "uint256"
        },
        {
          "indexed": false,
          "internalType": "uint256",
          "name": "wallHighPrice_",
          "type": "uint256"
        }
      ],
      "name": "PricesChanged",
      "type": "event"
    },
    {
      "anonymous": false,
      "inputs": [
        {
          "indexed": false,
          "internalType": "uint256",
          "name": "cushionSpread_",
          "type": "uint256"
        },
        {
          "indexed": false,
          "internalType": "uint256",
          "name": "wallSpread_",
          "type": "uint256"
        }
      ],
      "name": "SpreadsChanged",
      "type": "event"
    },
    {
      "anonymous": false,
      "inputs": [
        {
          "indexed": false,
          "internalType": "uint256",
          "name": "thresholdFactor_",
          "type": "uint256"
        }
      ],
      "name": "ThresholdFactorChanged",
      "type": "event"
    },
    {
      "anonymous": false,
      "inputs": [
        {
          "indexed": false,
          "internalType": "bool",
          "name": "high_",
          "type": "bool"
        },
        {
          "indexed": false,
          "internalType": "uint256",
          "name": "timestamp_",
          "type": "uint256"
        },
        {
          "indexed": false,
          "internalType": "uint256",
          "name": "capacity_",
          "type": "uint256"
        }
      ],
      "name": "WallDown",
      "type": "event"
    },
    {
      "anonymous": false,
      "inputs": [
        {
          "indexed": false,
          "internalType": "bool",
          "name": "high_",
          "type": "bool"
        },
        {
          "indexed": false,
          "internalType": "uint256",
          "name": "timestamp_",
          "type": "uint256"
        },
        {
          "indexed": false,
          "internalType": "uint256",
          "name": "capacity_",
          "type": "uint256"
        }
      ],
      "name": "WallUp",
      "type": "event"
    },
    {
      "inputs": [],
      "name": "FACTOR_SCALE",
      "outputs": [
        {
          "internalType": "uint256",
          "name": "",
          "type": "uint256"
        }
      ],
      "stateMutability": "view",
      "type": "function"
    },
    {
      "inputs": [],
      "name": "INIT",
      "outputs": [],
      "stateMutability": "nonpayable",
      "type": "function"
    },
    {
      "inputs": [],
      "name": "KEYCODE",
      "outputs": [
        {
          "internalType": "Keycode",
          "name": "",
          "type": "bytes5"
        }
      ],
      "stateMutability": "pure",
      "type": "function"
    },
    {
      "inputs": [],
      "name": "VERSION",
      "outputs": [
        {
          "internalType": "uint8",
          "name": "major",
          "type": "uint8"
        },
        {
          "internalType": "uint8",
          "name": "minor",
          "type": "uint8"
        }
      ],
      "stateMutability": "pure",
      "type": "function"
    },
    {
      "inputs": [
        {
          "internalType": "bool",
          "name": "high_",
          "type": "bool"
        }
      ],
      "name": "active",
      "outputs": [
        {
          "internalType": "bool",
          "name": "",
          "type": "bool"
        }
      ],
      "stateMutability": "view",
      "type": "function"
    },
    {
      "inputs": [
        {
          "internalType": "bool",
          "name": "high_",
          "type": "bool"
        }
      ],
      "name": "capacity",
      "outputs": [
        {
          "internalType": "uint256",
          "name": "",
          "type": "uint256"
        }
      ],
      "stateMutability": "view",
      "type": "function"
    },
    {
      "inputs": [
        {
          "internalType": "contract Kernel",
          "name": "newKernel_",
          "type": "address"
        }
      ],
      "name": "changeKernel",
      "outputs": [],
      "stateMutability": "nonpayable",
      "type": "function"
    },
    {
      "inputs": [],
      "name": "kernel",
      "outputs": [
        {
          "internalType": "contract Kernel",
          "name": "",
          "type": "address"
        }
      ],
      "stateMutability": "view",
      "type": "function"
    },
    {
      "inputs": [
        {
          "internalType": "bool",
          "name": "high_",
          "type": "bool"
        }
      ],
      "name": "lastActive",
      "outputs": [
        {
          "internalType": "uint256",
          "name": "",
          "type": "uint256"
        }
      ],
      "stateMutability": "view",
      "type": "function"
    },
    {
      "inputs": [
        {
          "internalType": "bool",
          "name": "high_",
          "type": "bool"
        }
      ],
      "name": "market",
      "outputs": [
        {
          "internalType": "uint256",
          "name": "",
          "type": "uint256"
        }
      ],
      "stateMutability": "view",
      "type": "function"
    },
    {
      "inputs": [],
      "name": "ohm",
      "outputs": [
        {
          "internalType": "contract ERC20",
          "name": "",
          "type": "address"
        }
      ],
      "stateMutability": "view",
      "type": "function"
    },
    {
      "inputs": [
        {
          "internalType": "bool",
          "name": "wall_",
          "type": "bool"
        },
        {
          "internalType": "bool",
          "name": "high_",
          "type": "bool"
        }
      ],
      "name": "price",
      "outputs": [
        {
          "internalType": "uint256",
          "name": "",
          "type": "uint256"
        }
      ],
      "stateMutability": "view",
      "type": "function"
    },
    {
      "inputs": [],
      "name": "range",
      "outputs": [
        {
          "components": [
            {
              "components": [
                {
                  "internalType": "bool",
                  "name": "active",
                  "type": "bool"
                },
                {
                  "internalType": "uint48",
                  "name": "lastActive",
                  "type": "uint48"
                },
                {
                  "internalType": "uint256",
                  "name": "capacity",
                  "type": "uint256"
                },
                {
                  "internalType": "uint256",
                  "name": "threshold",
                  "type": "uint256"
                },
                {
                  "internalType": "uint256",
                  "name": "market",
                  "type": "uint256"
                }
              ],
              "internalType": "struct OlympusRange.Side",
              "name": "low",
              "type": "tuple"
            },
            {
              "components": [
                {
                  "internalType": "bool",
                  "name": "active",
                  "type": "bool"
                },
                {
                  "internalType": "uint48",
                  "name": "lastActive",
                  "type": "uint48"
                },
                {
                  "internalType": "uint256",
                  "name": "capacity",
                  "type": "uint256"
                },
                {
                  "internalType": "uint256",
                  "name": "threshold",
                  "type": "uint256"
                },
                {
                  "internalType": "uint256",
                  "name": "market",
                  "type": "uint256"
                }
              ],
              "internalType": "struct OlympusRange.Side",
              "name": "high",
              "type": "tuple"
            },
            {
              "components": [
                {
                  "components": [
                    {
                      "internalType": "uint256",
                      "name": "price",
                      "type": "uint256"
                    }
                  ],
                  "internalType": "struct OlympusRange.Line",
                  "name": "high",
                  "type": "tuple"
                },
                {
                  "components": [
                    {
                      "internalType": "uint256",
                      "name": "price",
                      "type": "uint256"
                    }
                  ],
                  "internalType": "struct OlympusRange.Line",
                  "name": "low",
                  "type": "tuple"
                },
                {
                  "internalType": "uint256",
                  "name": "spread",
                  "type": "uint256"
                }
              ],
              "internalType": "struct OlympusRange.Band",
              "name": "cushion",
              "type": "tuple"
            },
            {
              "components": [
                {
                  "components": [
                    {
                      "internalType": "uint256",
                      "name": "price",
                      "type": "uint256"
                    }
                  ],
                  "internalType": "struct OlympusRange.Line",
                  "name": "high",
                  "type": "tuple"
                },
                {
                  "components": [
                    {
                      "internalType": "uint256",
                      "name": "price",
                      "type": "uint256"
                    }
                  ],
                  "internalType": "struct OlympusRange.Line",
                  "name": "low",
                  "type": "tuple"
                },
                {
                  "internalType": "uint256",
                  "name": "spread",
                  "type": "uint256"
                }
              ],
              "internalType": "struct OlympusRange.Band",
              "name": "wall",
              "type": "tuple"
            }
          ],
          "internalType": "struct OlympusRange.Range",
          "name": "",
          "type": "tuple"
        }
      ],
      "stateMutability": "view",
      "type": "function"
    },
    {
      "inputs": [
        {
          "internalType": "bool",
          "name": "high_",
          "type": "bool"
        },
        {
          "internalType": "uint256",
          "name": "capacity_",
          "type": "uint256"
        }
      ],
      "name": "regenerate",
      "outputs": [],
      "stateMutability": "nonpayable",
      "type": "function"
    },
    {
      "inputs": [],
      "name": "reserve",
      "outputs": [
        {
          "internalType": "contract ERC20",
          "name": "",
          "type": "address"
        }
      ],
      "stateMutability": "view",
      "type": "function"
    },
    {
      "inputs": [
        {
          "internalType": "uint256",
          "name": "cushionSpread_",
          "type": "uint256"
        },
        {
          "internalType": "uint256",
          "name": "wallSpread_",
          "type": "uint256"
        }
      ],
      "name": "setSpreads",
      "outputs": [],
      "stateMutability": "nonpayable",
      "type": "function"
    },
    {
      "inputs": [
        {
          "internalType": "uint256",
          "name": "thresholdFactor_",
          "type": "uint256"
        }
      ],
      "name": "setThresholdFactor",
      "outputs": [],
      "stateMutability": "nonpayable",
      "type": "function"
    },
    {
      "inputs": [
        {
          "internalType": "bool",
          "name": "wall_",
          "type": "bool"
        }
      ],
      "name": "spread",
      "outputs": [
        {
          "internalType": "uint256",
          "name": "",
          "type": "uint256"
        }
      ],
      "stateMutability": "view",
      "type": "function"
    },
    {
      "inputs": [],
      "name": "thresholdFactor",
      "outputs": [
        {
          "internalType": "uint256",
          "name": "",
          "type": "uint256"
        }
      ],
      "stateMutability": "view",
      "type": "function"
    },
    {
      "inputs": [
        {
          "internalType": "bool",
          "name": "high_",
          "type": "bool"
        },
        {
          "internalType": "uint256",
          "name": "capacity_",
          "type": "uint256"
        }
      ],
      "name": "updateCapacity",
      "outputs": [],
      "stateMutability": "nonpayable",
      "type": "function"
    },
    {
      "inputs": [
        {
          "internalType": "bool",
          "name": "high_",
          "type": "bool"
        },
        {
          "internalType": "uint256",
          "name": "market_",
          "type": "uint256"
        },
        {
          "internalType": "uint256",
          "name": "marketCapacity_",
          "type": "uint256"
        }
      ],
      "name": "updateMarket",
      "outputs": [],
      "stateMutability": "nonpayable",
      "type": "function"
    },
    {
      "inputs": [
        {
          "internalType": "uint256",
          "name": "movingAverage_",
          "type": "uint256"
        }
      ],
      "name": "updatePrices",
      "outputs": [],
      "stateMutability": "nonpayable",
      "type": "function"
    }
  ],
  "bytecode": {
    "object": "0x60c06040523480156200001157600080fd5b506040516200160e3803806200160e8339810160408190526200003491620002fa565b600080546001600160a01b0319166001600160a01b038516178155604080516101208101825260808082018481524265ffffffffffff1660a080850182905260c0850187905260e08501879052600019610100860181905292855285519081018652868152602080820192909252808601879052606080820188905281850193909352818501528451808401865280830187815281528551808301875287815281830152878201518187015284860152845192830185528282018681528352845180820186529586528201949094529092830191810184600260209081029190910151909152915281518051600180548385015165ffffffffffff90811661010090810266ffffffffffff0019951515861666ffffffffffffff19948516171790935560408086015160025560608087015160035560809687015160045588880151805160058054838c01519096169097029015159097169390941692909217949094179092558083015160065580820151600755830151600855818501518051516009558085015151600a55820151600b5590930151805151600c558083015151600d55830151600e558351600f5584516001600160a01b03908116909152848201511660a05282810151838301518351918252918101919091527ff9f6bac7789241c1f8bc37f72defbdc6b5482ec2c96cb91f7ebf917c7ef7ff98910160405180910390a180516040519081527f66df6e0040d88b0d9e6e482ec0ef8983562d1186b0b94f9747f64f3c7e3863359060200160405180910390a1505050620003d6565b6001600160a01b03811681146200028f57600080fd5b50565b604080519081016001600160401b0381118282101715620002c357634e487b7160e01b600052604160045260246000fd5b60405290565b604051606081016001600160401b0381118282101715620002c357634e487b7160e01b600052604160045260246000fd5b600080600060c084860312156200031057600080fd5b83516200031d8162000279565b92506020603f850186136200033157600080fd5b6200033b62000292565b8060608701888111156200034e57600080fd5b8388015b8181101562000376578051620003688162000279565b845292840192840162000352565b5081955088607f8901126200038a57600080fd5b62000394620002c9565b925082915060c0880189811115620003ab57600080fd5b5b80821015620003c757815184529284019290840190620003ac565b50508093505050509250925092565b60805160a051611212620003fc60003960006102bb0152600061016001526112126000f3fe608060405234801561001057600080fd5b50600436106101415760003560e01c8063a1fb6345116100b8578063cd3293de1161007c578063cd3293de146102b6578063d4aae0c4146102dd578063e69f3c4e146102f0578063e97206a914610303578063ea643914146103c6578063ffa1ad74146103ce57600080fd5b8063a1fb63451461026b578063ae7e8d8114610274578063bf30142b14610287578063c21e66521461029a578063c45e91d6146102a357600080fd5b80633e56993a1161010a5780633e56993a146101e957806341f19a46146101fc5780634657b36c1461020f57806359d236e6146102225780636d9a9a62146102455780638c3f914a1461025857600080fd5b8062d167391461014657806302b1d2391461015b5780631ae7ec2e1461019f57806333bd33b4146101b55780633778c2b2146101c8575b600080fd5b610159610154366004610fe2565b6103e3565b005b6101827f000000000000000000000000000000000000000000000000000000000000000081565b6040516001600160a01b0390911681526020015b60405180910390f35b6040516452414e474560d81b8152602001610196565b6101596101c336600461100e565b6105ba565b6101db6101d6366004611027565b6106c9565b604051908152602001610196565b6101596101f7366004611060565b610703565b61015961020a366004611095565b61086c565b61015961021d3660046110b7565b6109a9565b6102356102303660046110e7565b6109f8565b6040519015158152602001610196565b610159610253366004610fe2565b610a16565b6101db6102663660046110e7565b610bce565b6101db61271081565b61015961028236600461100e565b610be6565b6101db6102953660046110e7565b610d75565b6101db600f5481565b6101db6102b13660046110e7565b610d8d565b6101827f000000000000000000000000000000000000000000000000000000000000000081565b600054610182906001600160a01b031681565b6101db6102fe3660046110e7565b610da5565b61030b610dd7565b60408051825180511515825260208082015165ffffffffffff9081168285015282850151848601526060808401518186015260809384015184860152828701518051151560a08701528084015190921660c08601528186015160e0860152818101516101008601529201516101208401528484015180515161014085015280820151516101608501528401516101808401529301518051516101a083015292830151516101c08201529101516101e082015261020001610196565b610159610ed4565b60408051600181526000602082015201610196565b6000546001600160a01b031663f166d9eb6452414e474560d81b336000356001600160e01b0319166040518463ffffffff1660e01b815260040161042993929190611104565b602060405180830381865afa158015610446573d6000803e3d6000fd5b505050506040513d601f19601f8201168201806040525081019061046a9190611139565b61048e576040516311bf00c960e01b81523360048201526024015b60405180910390fd5b6000612710600f54836104a1919061116c565b6104ab919061118b565b90508215610515576040805160a08101825260018082524265ffffffffffff1660208301819052928201859052606082018490526008546080909201919091526005805466ffffffffffffff19166101009093029290921717905560068290556007819055610572565b6040805160a08101825260018082524265ffffffffffff166020830181905292820185905260608201849052600454608090920191909152805466ffffffffffffff19166101009092029190911781179055600282905560038190555b6040805184151581524260208201529081018390527f518b1eea6c42d5d25b8983db58076556c4eb12d0f58f403100e037bbdf629cc3906060015b60405180910390a1505050565b6000546001600160a01b031663f166d9eb6452414e474560d81b336000356001600160e01b0319166040518463ffffffff1660e01b815260040161060093929190611104565b602060405180830381865afa15801561061d573d6000803e3d6000fd5b505050506040513d601f19601f820116820180604052508101906106419190611139565b610660576040516311bf00c960e01b8152336004820152602401610485565b6127108111806106705750606481105b1561068e5760405163c51f44ab60e01b815260040160405180910390fd5b600f8190556040518181527f66df6e0040d88b0d9e6e482ec0ef8983562d1186b0b94f9747f64f3c7e3863359060200160405180910390a150565b600082156106e95781156106e05750600c546106fd565b50600d546106fd565b81156106f857506009546106fd565b50600a545b92915050565b6000546001600160a01b031663f166d9eb6452414e474560d81b336000356001600160e01b0319166040518463ffffffff1660e01b815260040161074993929190611104565b602060405180830381865afa158015610766573d6000803e3d6000fd5b505050506040513d601f19601f8201168201806040525081019061078a9190611139565b6107a9576040516311bf00c960e01b8152336004820152602401610485565b600019821480156107b957508015155b156107d75760405163c51f44ab60e01b815260040160405180910390fd5b82156107e75760088290556107ed565b60048290555b600019820361082d576040805184151581524260208201527fc0be2d89ec6f4d478c644e7dcb37ec5372fb158563c955066b91b5650e37e32791016105ad565b6040805184151581524260208201529081018290527f6addeb12ca5495dd878280b56a2ebcc0c18eda83a3d30ea01f9c661b03209001906060016105ad565b6000546001600160a01b031663f166d9eb6452414e474560d81b336000356001600160e01b0319166040518463ffffffff1660e01b81526004016108b293929190611104565b602060405180830381865afa1580156108cf573d6000803e3d6000fd5b505050506040513d601f19601f820116820180604052508101906108f39190611139565b610912576040516311bf00c960e01b8152336004820152602401610485565b6127108111806109225750606481105b8061092e575061271082115b806109395750606482105b8061094357508082115b156109615760405163c51f44ab60e01b815260040160405180910390fd5b600e819055600b82905560408051828152602081018490527ff9f6bac7789241c1f8bc37f72defbdc6b5482ec2c96cb91f7ebf917c7ef7ff9891015b60405180910390a15050565b6000546001600160a01b031633146109d65760405163053e900f60e21b8152336004820152602401610485565b600080546001600160a01b0319166001600160a01b0392909216919091179055565b60008115610a0b57505060055460ff1690565b505060015460ff1690565b6000546001600160a01b031663f166d9eb6452414e474560d81b336000356001600160e01b0319166040518463ffffffff1660e01b8152600401610a5c93929190611104565b602060405180830381865afa158015610a79573d6000803e3d6000fd5b505050506040513d601f19601f82011682018060405250810190610a9d9190611139565b610abc576040516311bf00c960e01b8152336004820152602401610485565b8115610b4c57600681905560075481108015610ada575060055460ff165b15610b48576005805466ffffffffffffff19166101004265ffffffffffff811691909102919091179091556040805160018152602081019290925281018290527fc897c3dfa8334f335974948095373e499dbc757ce1133f2980bcfca098c736bf9060600160405180910390a15b5050565b600281905560035481108015610b64575060015460ff165b15610b48576001805466ffffffffffffff19166101004265ffffffffffff811691909102919091179091556040805160008152602081019290925281018290527fc897c3dfa8334f335974948095373e499dbc757ce1133f2980bcfca098c736bf9060600161099d565b60008115610bde575050600e5490565b5050600b5490565b6000546001600160a01b031663f166d9eb6452414e474560d81b336000356001600160e01b0319166040518463ffffffff1660e01b8152600401610c2c93929190611104565b602060405180830381865afa158015610c49573d6000803e3d6000fd5b505050506040513d601f19601f82011682018060405250810190610c6d9190611139565b610c8c576040516311bf00c960e01b8152336004820152602401610485565b600e54600b54612710610c9f83826111ad565b610ca9908561116c565b610cb3919061118b565b600d55612710610cc383826111c4565b610ccd908561116c565b610cd7919061118b565b600c55612710610ce782826111ad565b610cf1908561116c565b610cfb919061118b565b600a55612710610d0b82826111c4565b610d15908561116c565b610d1f919061118b565b6009819055600d54600a54600c546040517f7f3eb23042093bdf239802495c60dece3a6249a51e7d0830afa71dc7bb184da9946105ad949392909193845260208401929092526040830152606082015260800190565b60008115610d8557505060065490565b505060025490565b60008115610d9d57505060085490565b505060045490565b60008115610dc2575050600554610100900465ffffffffffff1690565b5050600154610100900465ffffffffffff1690565b610ddf610f03565b50604080516101208101825260015460ff8082161515608080850191825265ffffffffffff61010094859004811660a08088019190915260025460c088015260035460e08801526004548688015292865286519283018752600554938416151583529390920490921660208381019190915260065483860152600754606080850191909152600854848401528185019390935284518083018652600954818501908152815285518083018752600a54815281830152600b54818701528486015284519182018552600c54828401908152825284518082018652600d54815290820152600e549381019390935281019190915290565b6000546001600160a01b03163314610f015760405163053e900f60e21b8152336004820152602401610485565b565b60408051610120810182526000608080830182815260a080850184905260c0850184905260e0850184905261010085018490529084528451908101855282815260208082018490528186018490526060820184905291810192909252820152908101610f966040805160808101825260006060820181815282528251602080820185528282528301529181019190915290565b8152602001610fcc6040805160808101825260006060820181815282528251602080820185528282528301529181019190915290565b905290565b8015158114610fdf57600080fd5b50565b60008060408385031215610ff557600080fd5b823561100081610fd1565b946020939093013593505050565b60006020828403121561102057600080fd5b5035919050565b6000806040838503121561103a57600080fd5b823561104581610fd1565b9150602083013561105581610fd1565b809150509250929050565b60008060006060848603121561107557600080fd5b833561108081610fd1565b95602085013595506040909401359392505050565b600080604083850312156110a857600080fd5b50508035926020909101359150565b6000602082840312156110c957600080fd5b81356001600160a01b03811681146110e057600080fd5b9392505050565b6000602082840312156110f957600080fd5b81356110e081610fd1565b6001600160d81b03199390931683526001600160a01b039190911660208301526001600160e01b031916604082015260600190565b60006020828403121561114b57600080fd5b81516110e081610fd1565b634e487b7160e01b600052601160045260246000fd5b600081600019048311821515161561118657611186611156565b500290565b6000826111a857634e487b7160e01b600052601260045260246000fd5b500490565b6000828210156111bf576111bf611156565b500390565b600082198211156111d7576111d7611156565b50019056fea2646970667358221220e5c2547de3a71b49659eb924cb5106983b669b12467dde6803ac21e7ba32bd9764736f6c634300080f0033",
    "linkReferences": {}
  },
  "methodIdentifiers": {
    "FACTOR_SCALE()": "a1fb6345",
    "INIT()": "ea643914",
    "KEYCODE()": "1ae7ec2e",
    "VERSION()": "ffa1ad74",
    "active(bool)": "59d236e6",
    "capacity(bool)": "bf30142b",
    "changeKernel(address)": "4657b36c",
    "kernel()": "d4aae0c4",
    "lastActive(bool)": "e69f3c4e",
    "market(bool)": "c45e91d6",
    "ohm()": "02b1d239",
    "price(bool,bool)": "3778c2b2",
    "range()": "e97206a9",
    "regenerate(bool,uint256)": "00d16739",
    "reserve()": "cd3293de",
    "setSpreads(uint256,uint256)": "41f19a46",
    "setThresholdFactor(uint256)": "33bd33b4",
    "spread(bool)": "8c3f914a",
    "thresholdFactor()": "c21e6652",
    "updateCapacity(bool,uint256)": "6d9a9a62",
    "updateMarket(bool,uint256,uint256)": "3e56993a",
    "updatePrices(uint256)": "ae7e8d81"
  },
  "id": 24
}