{
  "abi": [
    {
      "inputs": [
        {
          "internalType": "contract Kernel",
          "name": "kernel_",
          "type": "address"
        },
        {
          "internalType": "contract IBondAuctioneer",
          "name": "auctioneer_",
          "type": "address"
        },
        {
          "internalType": "contract IBondCallback",
          "name": "callback_",
          "type": "address"
        },
        {
          "internalType": "contract ERC20[2]",
          "name": "tokens_",
          "type": "address[2]"
        },
        {
          "internalType": "uint32[8]",
          "name": "configParams",
          "type": "uint32[8]"
        }
      ],
      "stateMutability": "nonpayable",
      "type": "constructor"
    },
    {
      "inputs": [
        {
          "internalType": "address",
          "name": "caller_",
          "type": "address"
        }
      ],
      "name": "KernelAdapter_OnlyKernel",
      "type": "error"
    },
    {
      "inputs": [],
      "name": "Operator_AlreadyInitialized",
      "type": "error"
    },
    {
      "inputs": [
        {
          "internalType": "uint256",
          "name": "amountOut",
          "type": "uint256"
        },
        {
          "internalType": "uint256",
          "name": "minAmountOut",
          "type": "uint256"
        }
      ],
      "name": "Operator_AmountLessThanMinimum",
      "type": "error"
    },
    {
      "inputs": [],
      "name": "Operator_Inactive",
      "type": "error"
    },
    {
      "inputs": [],
      "name": "Operator_InsufficientCapacity",
      "type": "error"
    },
    {
      "inputs": [],
      "name": "Operator_InvalidParams",
      "type": "error"
    },
    {
      "inputs": [],
      "name": "Operator_NotInitialized",
      "type": "error"
    },
    {
      "inputs": [],
      "name": "Operator_WallDown",
      "type": "error"
    },
    {
      "inputs": [
        {
          "internalType": "Keycode",
          "name": "keycode_",
          "type": "bytes5"
        }
      ],
      "name": "Policy_ModuleDoesNotExist",
      "type": "error"
    },
    {
      "inputs": [
        {
          "internalType": "Role",
          "name": "role_",
          "type": "bytes32"
        }
      ],
      "name": "Policy_OnlyRole",
      "type": "error"
    },
    {
      "anonymous": false,
      "inputs": [
        {
          "indexed": false,
          "internalType": "uint32",
          "name": "cushionFactor_",
          "type": "uint32"
        }
      ],
      "name": "CushionFactorChanged",
      "type": "event"
    },
    {
      "anonymous": false,
      "inputs": [
        {
          "indexed": false,
          "internalType": "uint32",
          "name": "duration_",
          "type": "uint32"
        },
        {
          "indexed": false,
          "internalType": "uint32",
          "name": "debtBuffer_",
          "type": "uint32"
        },
        {
          "indexed": false,
          "internalType": "uint32",
          "name": "depositInterval_",
          "type": "uint32"
        }
      ],
      "name": "CushionParamsChanged",
      "type": "event"
    },
    {
      "anonymous": false,
      "inputs": [
        {
          "indexed": false,
          "internalType": "uint32",
          "name": "wait_",
          "type": "uint32"
        },
        {
          "indexed": false,
          "internalType": "uint32",
          "name": "threshold_",
          "type": "uint32"
        },
        {
          "indexed": false,
          "internalType": "uint32",
          "name": "observe_",
          "type": "uint32"
        }
      ],
      "name": "RegenParamsChanged",
      "type": "event"
    },
    {
      "anonymous": false,
      "inputs": [
        {
          "indexed": false,
          "internalType": "uint32",
          "name": "reserveFactor_",
          "type": "uint32"
        }
      ],
      "name": "ReserveFactorChanged",
      "type": "event"
    },
    {
      "anonymous": false,
      "inputs": [
        {
          "indexed": true,
          "internalType": "contract ERC20",
          "name": "tokenIn_",
          "type": "address"
        },
        {
          "indexed": true,
          "internalType": "contract ERC20",
          "name": "tokenOut_",
          "type": "address"
        },
        {
          "indexed": false,
          "internalType": "uint256",
          "name": "amountIn_",
          "type": "uint256"
        },
        {
          "indexed": false,
          "internalType": "uint256",
          "name": "amountOut_",
          "type": "uint256"
        }
      ],
      "name": "Swap",
      "type": "event"
    },
    {
      "inputs": [],
      "name": "FACTOR_SCALE",
      "outputs": [
        {
          "internalType": "uint32",
          "name": "",
          "type": "uint32"
        }
      ],
      "stateMutability": "view",
      "type": "function"
    },
    {
      "inputs": [],
      "name": "active",
      "outputs": [
        {
          "internalType": "bool",
          "name": "",
          "type": "bool"
        }
      ],
      "stateMutability": "view",
      "type": "function"
    },
    {
      "inputs": [],
      "name": "auctioneer",
      "outputs": [
        {
          "internalType": "contract IBondAuctioneer",
          "name": "",
          "type": "address"
        }
      ],
      "stateMutability": "view",
      "type": "function"
    },
    {
      "inputs": [
        {
          "internalType": "uint256",
          "name": "id_",
          "type": "uint256"
        },
        {
          "internalType": "uint256",
          "name": "amountOut_",
          "type": "uint256"
        }
      ],
      "name": "bondPurchase",
      "outputs": [],
      "stateMutability": "nonpayable",
      "type": "function"
    },
    {
      "inputs": [],
      "name": "callback",
      "outputs": [
        {
          "internalType": "contract IBondCallback",
          "name": "",
          "type": "address"
        }
      ],
      "stateMutability": "view",
      "type": "function"
    },
    {
      "inputs": [
        {
          "internalType": "contract Kernel",
          "name": "newKernel_",
          "type": "address"
        }
      ],
      "name": "changeKernel",
      "outputs": [],
      "stateMutability": "nonpayable",
      "type": "function"
    },
    {
      "inputs": [],
      "name": "config",
      "outputs": [
        {
          "components": [
            {
              "internalType": "uint32",
              "name": "cushionFactor",
              "type": "uint32"
            },
            {
              "internalType": "uint32",
              "name": "cushionDuration",
              "type": "uint32"
            },
            {
              "internalType": "uint32",
              "name": "cushionDebtBuffer",
              "type": "uint32"
            },
            {
              "internalType": "uint32",
              "name": "cushionDepositInterval",
              "type": "uint32"
            },
            {
              "internalType": "uint32",
              "name": "reserveFactor",
              "type": "uint32"
            },
            {
              "internalType": "uint32",
              "name": "regenWait",
              "type": "uint32"
            },
            {
              "internalType": "uint32",
              "name": "regenThreshold",
              "type": "uint32"
            },
            {
              "internalType": "uint32",
              "name": "regenObserve",
              "type": "uint32"
            }
          ],
          "internalType": "struct IOperator.Config",
          "name": "",
          "type": "tuple"
        }
      ],
      "stateMutability": "view",
      "type": "function"
    },
    {
      "inputs": [],
      "name": "configureDependencies",
      "outputs": [
        {
          "internalType": "Keycode[]",
          "name": "dependencies",
          "type": "bytes5[]"
        }
      ],
      "stateMutability": "nonpayable",
      "type": "function"
    },
    {
      "inputs": [
        {
          "internalType": "bool",
          "name": "high_",
          "type": "bool"
        }
      ],
      "name": "fullCapacity",
      "outputs": [
        {
          "internalType": "uint256",
          "name": "",
          "type": "uint256"
        }
      ],
      "stateMutability": "view",
      "type": "function"
    },
    {
      "inputs": [
        {
          "internalType": "contract ERC20",
          "name": "tokenIn_",
          "type": "address"
        },
        {
          "internalType": "uint256",
          "name": "amountIn_",
          "type": "uint256"
        }
      ],
      "name": "getAmountOut",
      "outputs": [
        {
          "internalType": "uint256",
          "name": "",
          "type": "uint256"
        }
      ],
      "stateMutability": "view",
      "type": "function"
    },
    {
      "inputs": [],
      "name": "initialize",
      "outputs": [],
      "stateMutability": "nonpayable",
      "type": "function"
    },
    {
      "inputs": [],
      "name": "initialized",
      "outputs": [
        {
          "internalType": "bool",
          "name": "",
          "type": "bool"
        }
      ],
      "stateMutability": "view",
      "type": "function"
    },
    {
      "inputs": [],
      "name": "isActive",
      "outputs": [
        {
          "internalType": "bool",
          "name": "",
          "type": "bool"
        }
      ],
      "stateMutability": "view",
      "type": "function"
    },
    {
      "inputs": [],
      "name": "kernel",
      "outputs": [
        {
          "internalType": "contract Kernel",
          "name": "",
          "type": "address"
        }
      ],
      "stateMutability": "view",
      "type": "function"
    },
    {
      "inputs": [],
      "name": "ohm",
      "outputs": [
        {
          "internalType": "contract ERC20",
          "name": "",
          "type": "address"
        }
      ],
      "stateMutability": "view",
      "type": "function"
    },
    {
      "inputs": [],
      "name": "ohmDecimals",
      "outputs": [
        {
          "internalType": "uint8",
          "name": "",
          "type": "uint8"
        }
      ],
      "stateMutability": "view",
      "type": "function"
    },
    {
      "inputs": [],
      "name": "operate",
      "outputs": [],
      "stateMutability": "nonpayable",
      "type": "function"
    },
    {
      "inputs": [
        {
          "internalType": "bool",
          "name": "high_",
          "type": "bool"
        }
      ],
      "name": "regenerate",
      "outputs": [],
      "stateMutability": "nonpayable",
      "type": "function"
    },
    {
      "inputs": [],
      "name": "requestPermissions",
      "outputs": [
        {
          "components": [
            {
              "internalType": "Keycode",
              "name": "keycode",
              "type": "bytes5"
            },
            {
              "internalType": "bytes4",
              "name": "funcSelector",
              "type": "bytes4"
            }
          ],
          "internalType": "struct Permissions[]",
          "name": "requests",
          "type": "tuple[]"
        }
      ],
      "stateMutability": "view",
      "type": "function"
    },
    {
      "inputs": [],
      "name": "reserve",
      "outputs": [
        {
          "internalType": "contract ERC20",
          "name": "",
          "type": "address"
        }
      ],
      "stateMutability": "view",
      "type": "function"
    },
    {
      "inputs": [],
      "name": "reserveDecimals",
      "outputs": [
        {
          "internalType": "uint8",
          "name": "",
          "type": "uint8"
        }
      ],
      "stateMutability": "view",
      "type": "function"
    },
    {
      "inputs": [
        {
          "internalType": "bool",
          "name": "activate_",
          "type": "bool"
        }
      ],
      "name": "setActiveStatus",
      "outputs": [],
      "stateMutability": "nonpayable",
      "type": "function"
    },
    {
      "inputs": [
        {
          "internalType": "contract IBondAuctioneer",
          "name": "auctioneer_",
          "type": "address"
        },
        {
          "internalType": "contract IBondCallback",
          "name": "callback_",
          "type": "address"
        }
      ],
      "name": "setBondContracts",
      "outputs": [],
      "stateMutability": "nonpayable",
      "type": "function"
    },
    {
      "inputs": [
        {
          "internalType": "uint32",
          "name": "cushionFactor_",
          "type": "uint32"
        }
      ],
      "name": "setCushionFactor",
      "outputs": [],
      "stateMutability": "nonpayable",
      "type": "function"
    },
    {
      "inputs": [
        {
          "internalType": "uint32",
          "name": "duration_",
          "type": "uint32"
        },
        {
          "internalType": "uint32",
          "name": "debtBuffer_",
          "type": "uint32"
        },
        {
          "internalType": "uint32",
          "name": "depositInterval_",
          "type": "uint32"
        }
      ],
      "name": "setCushionParams",
      "outputs": [],
      "stateMutability": "nonpayable",
      "type": "function"
    },
    {
      "inputs": [
        {
          "internalType": "uint32",
          "name": "wait_",
          "type": "uint32"
        },
        {
          "internalType": "uint32",
          "name": "threshold_",
          "type": "uint32"
        },
        {
          "internalType": "uint32",
          "name": "observe_",
          "type": "uint32"
        }
      ],
      "name": "setRegenParams",
      "outputs": [],
      "stateMutability": "nonpayable",
      "type": "function"
    },
    {
      "inputs": [
        {
          "internalType": "uint32",
          "name": "reserveFactor_",
          "type": "uint32"
        }
      ],
      "name": "setReserveFactor",
      "outputs": [],
      "stateMutability": "nonpayable",
      "type": "function"
    },
    {
      "inputs": [
        {
          "internalType": "uint256",
          "name": "cushionSpread_",
          "type": "uint256"
        },
        {
          "internalType": "uint256",
          "name": "wallSpread_",
          "type": "uint256"
        }
      ],
      "name": "setSpreads",
      "outputs": [],
      "stateMutability": "nonpayable",
      "type": "function"
    },
    {
      "inputs": [
        {
          "internalType": "uint256",
          "name": "thresholdFactor_",
          "type": "uint256"
        }
      ],
      "name": "setThresholdFactor",
      "outputs": [],
      "stateMutability": "nonpayable",
      "type": "function"
    },
    {
      "inputs": [],
      "name": "status",
      "outputs": [
        {
          "components": [
            {
              "components": [
                {
                  "internalType": "uint32",
                  "name": "count",
                  "type": "uint32"
                },
                {
                  "internalType": "uint48",
                  "name": "lastRegen",
                  "type": "uint48"
                },
                {
                  "internalType": "uint32",
                  "name": "nextObservation",
                  "type": "uint32"
                },
                {
                  "internalType": "bool[]",
                  "name": "observations",
                  "type": "bool[]"
                }
              ],
              "internalType": "struct IOperator.Regen",
              "name": "low",
              "type": "tuple"
            },
            {
              "components": [
                {
                  "internalType": "uint32",
                  "name": "count",
                  "type": "uint32"
                },
                {
                  "internalType": "uint48",
                  "name": "lastRegen",
                  "type": "uint48"
                },
                {
                  "internalType": "uint32",
                  "name": "nextObservation",
                  "type": "uint32"
                },
                {
                  "internalType": "bool[]",
                  "name": "observations",
                  "type": "bool[]"
                }
              ],
              "internalType": "struct IOperator.Regen",
              "name": "high",
              "type": "tuple"
            }
          ],
          "internalType": "struct IOperator.Status",
          "name": "",
          "type": "tuple"
        }
      ],
      "stateMutability": "view",
      "type": "function"
    },
    {
      "inputs": [
        {
          "internalType": "contract ERC20",
          "name": "tokenIn_",
          "type": "address"
        },
        {
          "internalType": "uint256",
          "name": "amountIn_",
          "type": "uint256"
        },
        {
          "internalType": "uint256",
          "name": "minAmountOut_",
          "type": "uint256"
        }
      ],
      "name": "swap",
      "outputs": [
        {
          "internalType": "uint256",
          "name": "amountOut",
          "type": "uint256"
        }
      ],
      "stateMutability": "nonpayable",
      "type": "function"
    },
    {
      "inputs": [],
      "name": "toggleActive",
      "outputs": [],
      "stateMutability": "nonpayable",
      "type": "function"
    }
  ],
  "bytecode": {
    "object": "0x610100604052600180553480156200001657600080fd5b50604051620062c7380380620062c7833981016040819052620000399162000a1e565b600080546001600160a01b0319166001600160a01b0387811691909117909155841615806200006f57506001600160a01b038316155b156200008e5760405163042a67ad60e41b815260040160405180910390fd5b62093a80816001602002015163ffffffff161180620000bc575062015180816001602002015163ffffffff16105b15620000db5760405163042a67ad60e41b815260040160405180910390fd5b612710816002602002015163ffffffff1610156200010c5760405163042a67ad60e41b815260040160405180910390fd5b610e10816003602002015163ffffffff1610806200013b57506020810151606082015163ffffffff9182169116115b156200015a5760405163042a67ad60e41b815260040160405180910390fd5b612710816004602002015163ffffffff1611806200018557506064816004602002015163ffffffff16105b15620001a45760405163042a67ad60e41b815260040160405180910390fd5b610e10816005602002015163ffffffff161080620001d3575060e081015160c082015163ffffffff9182169116115b80620001e7575060e081015163ffffffff16155b15620002065760405163042a67ad60e41b815260040160405180910390fd5b600b80546001600160a01b038681166001600160a01b031992831617909255600c805486841692169190911790558251811660805282516040805163313ce56760e01b81529051919092169163313ce5679160048083019260209291908290030181865afa1580156200027d573d6000803e3d6000fd5b505050506040513d601f19601f82011682018060405250810190620002a3919062000afb565b60ff1660a05281600160200201516001600160a01b031660c05281600160200201516001600160a01b031663313ce5676040518163ffffffff1660e01b8152600401602060405180830381865afa15801562000303573d6000803e3d6000fd5b505050506040513d601f19601f8201168201806040525081019062000329919062000afb565b60ff1660e05260408051608081018252600080825265ffffffffffff4216602083015291810182905260608101836007602002015163ffffffff166001600160401b038111156200037e576200037e6200093d565b604051908082528060200260200182016040528015620003a8578160200160208202803683370190505b5090526040805161010081018252845163ffffffff908116825260208087015182169083015285830151169181019190915290915060608101836003602002015163ffffffff168152602001836004600881106200040a576200040a62000ae5565b602002015163ffffffff1681526020018360056008811062000430576200043062000ae5565b602002015163ffffffff1681526020018360066008811062000456576200045662000ae5565b602002015163ffffffff168152602001836007600881106200047c576200047c62000ae5565b602002015163ffffffff16815250600660008201518160000160006101000a81548163ffffffff021916908363ffffffff16021790555060208201518160000160046101000a81548163ffffffff021916908363ffffffff16021790555060408201518160000160086101000a81548163ffffffff021916908363ffffffff160217905550606082015181600001600c6101000a81548163ffffffff021916908363ffffffff16021790555060808201518160000160106101000a81548163ffffffff021916908363ffffffff16021790555060a08201518160000160146101000a81548163ffffffff021916908363ffffffff16021790555060c08201518160000160186101000a81548163ffffffff021916908363ffffffff16021790555060e082015181600001601c6101000a81548163ffffffff021916908363ffffffff160217905550905050604051806040016040528082815260200182815250600260008201518160000160008201518160000160006101000a81548163ffffffff021916908363ffffffff16021790555060208201518160000160046101000a81548165ffffffffffff021916908365ffffffffffff160217905550604082015181600001600a6101000a81548163ffffffff021916908363ffffffff16021790555060608201518160010190805190602001906200067e92919062000861565b505050602082810151805160028401805483850151604085015163ffffffff9081166a01000000000000000000000263ffffffff60501b1965ffffffffffff909316640100000000026001600160501b031990941691909516179190911716919091178155606082015180519293919262000700926003870192019062000861565b5050509050507f5760955ed2acbd2b290c0a6edf1c0bc845f64f1da0b9f89582fac3daade8dff5826000600881106200073d576200073d62000ae5565b60200201516040516200075c919063ffffffff91909116815260200190565b60405180910390a1602080830151604080850151606080870151835163ffffffff95861681529285169583019590955292909316908301527f6627cd780fa2d7faf558f4d9d700a0852b79903fd60ce8c0f734103cf8aa12b8910160405180910390a1608082015160405163ffffffff90911681527fb3f67f3c41e3a7c2c87b93a1c1fe4581744242b44b44d4a873ca8facec1ee8a59060200160405180910390a160a082015160c083015160e08401516040805163ffffffff9485168152928416602084015292168183015290517f9f11b1d829316eb1d4d6f91541c83d9f78bc1e309f755c759d190c973f7b4fae9181900360600190a150505050505062000b27565b82805482825590600052602060002090601f01602090048101928215620008fb5791602002820160005b83821115620008ca57835183826101000a81548160ff02191690831515021790555092602001926001016020816000010492830192600103026200088b565b8015620008f95782816101000a81549060ff0219169055600101602081600001049283019260010302620008ca565b505b50620009099291506200090d565b5090565b5b808211156200090957600081556001016200090e565b6001600160a01b03811681146200093a57600080fd5b50565b634e487b7160e01b600052604160045260246000fd5b604080519081016001600160401b03811182821017156200098457634e487b7160e01b600052604160045260246000fd5b60405290565b600082601f8301126200099c57600080fd5b6040516101008082016001600160401b0381118382101715620009cf57634e487b7160e01b600052604160045260246000fd5b60405283018185821115620009e357600080fd5b845b8281101562000a1357805163ffffffff8116811462000a045760008081fd5b825260209182019101620009e5565b509195945050505050565b60008060008060006101a0868803121562000a3857600080fd5b855162000a458162000924565b8095505060208087015162000a5a8162000924565b604088015190955062000a6d8162000924565b9350607f8701881362000a7f57600080fd5b62000a8962000953565b8060a089018a81111562000a9c57600080fd5b60608a015b8181101562000ac557805162000ab78162000924565b845292840192840162000aa1565b5081955062000ad58b826200098a565b9450505050509295509295909350565b634e487b7160e01b600052603260045260246000fd5b60006020828403121562000b0e57600080fd5b815160ff8116811462000b2057600080fd5b9392505050565b60805160a05160c05160e05161569462000c3360003960008181610360015281816120bb01528181612a5f01528181613a3d01528181613b4501528181614046015261409401526000818161054201528181611b6401528181611e5401528181612340015281816123c40152818161243e0152818161255c0152818161262601528181612bd401528181613ca701526141d00152600081816105080152818161201201528181612b1601528181613a5e01528181613b240152818161402501526140b501526000818161020f01528181611e0e0152818161218a01528181612296015281816123e901528181612601015281816129a801528181613c7801526141ff01526156946000f3fe608060405234801561001057600080fd5b50600436106101f05760003560e01c80636e703c2e1161010f578063aa9760a1116100a2578063cd3293de11610071578063cd3293de1461053d578063d4aae0c414610564578063ec7404b114610577578063f2fa47371461058a57600080fd5b8063aa9760a1146104dd578063ab104771146104f0578063aea564af14610503578063ca706bcf1461052a57600080fd5b80639459b875116100de5780639459b875146104765780639e8977111461048b5780639f1d0f59146104ac578063a1fb6345146104bf57600080fd5b80636e703c2e1461035b5780637159a6181461039457806379502c551461039c5780638129fc1c1461046e57600080fd5b806329c68dc11161018757806341f19a461161015657806341f19a461461030d5780634657b36c146103205780635924be70146103335780635ec2c7bf1461034857600080fd5b806329c68dc1146102cc5780632ecd1f20146102d457806333bd33b4146102e75780633a3f54bc146102fa57600080fd5b8063158ef93e116101c3578063158ef93e1461028357806319f63dd714610290578063200d2ed2146102a357806322f3e2d4146102b857600080fd5b806301de9ba8146101f557806302b1d2391461020a57806302fb0c5e1461024e578063083b273214610270575b600080fd5b610208610203366004614bd4565b61059d565b005b6102317f000000000000000000000000000000000000000000000000000000000000000081565b6040516001600160a01b0390911681526020015b60405180910390f35b60075461026090610100900460ff1681565b6040519015158152602001610245565b600c54610231906001600160a01b031681565b6007546102609060ff1681565b61020861029e366004614c04565b6106e3565b6102ab6107f7565b6040516102459190614cbd565b60005461026090600160a01b900460ff1681565b6102086109d0565b6102086102e2366004614d0d565b610a98565b6102086102f5366004614d2a565b610b4f565b610208610308366004614d43565b610c5d565b61020861031b366004614d86565b610edf565b61020861032e366004614da8565b610ffc565b61033b61104b565b6040516102459190614dc5565b600b54610231906001600160a01b031681565b6103827f000000000000000000000000000000000000000000000000000000000000000081565b60405160ff9091168152602001610245565b6102086114b6565b6104616040805161010081018252600080825260208201819052918101829052606081018290526080810182905260a0810182905260c0810182905260e081019190915250604080516101008101825260065463ffffffff8082168352600160201b820481166020840152600160401b8204811693830193909352600160601b810483166060830152600160801b810483166080830152600160a01b8104831660a0830152600160c01b8104831660c0830152600160e01b900490911660e082015290565b6040516102459190614e28565b610208611a77565b61047e611c00565b6040516102459190614eaf565b61049e610499366004614d0d565b611e3a565b604051908152602001610245565b61049e6104ba366004614efd565b612111565b6104c861271081565b60405163ffffffff9091168152602001610245565b6102086104eb366004614bd4565b612694565b6102086104fe366004614d86565b6127c0565b6103827f000000000000000000000000000000000000000000000000000000000000000081565b61049e610538366004614f32565b6129a4565b6102317f000000000000000000000000000000000000000000000000000000000000000081565b600054610231906001600160a01b031681565b610208610585366004614d0d565b612c9b565b610208610598366004614d43565b612ce6565b6e6f70657261746f725f706f6c69637960881b60008160005460405163ac4ab3fb60e01b81529192506001600160a01b03169063ac4ab3fb906105e69033908590600401614f5e565b602060405180830381865afa158015610603573d6000803e3d6000fd5b505050506040513d601f19601f820116820180604052508101906106279190614f77565b61064c576040516371324ef360e11b8152600481018290526024015b60405180910390fd5b6127108363ffffffff161180610668575060648363ffffffff16105b156106865760405163042a67ad60e41b815260040160405180910390fd5b6006805463ffffffff60801b1916600160801b63ffffffff8616908102919091179091556040519081527fb3f67f3c41e3a7c2c87b93a1c1fe4581744242b44b44d4a873ca8facec1ee8a5906020015b60405180910390a1505050565b6d37b832b930ba37b92fb0b236b4b760911b60008160005460405163ac4ab3fb60e01b81529192506001600160a01b03169063ac4ab3fb9061072b9033908590600401614f5e565b602060405180830381865afa158015610748573d6000803e3d6000fd5b505050506040513d601f19601f8201168201806040525081019061076c9190614f77565b61078c576040516371324ef360e11b815260048101829052602401610643565b6001600160a01b03841615806107a957506001600160a01b038316155b156107c75760405163042a67ad60e41b815260040160405180910390fd5b5050600b80546001600160a01b039384166001600160a01b031991821617909155600c8054929093169116179055565b6108506040805160c08101825260009181018281526060808301849052608083019390935260a0820192909252908190815260408051608081018252600080825260208281018290529282015260608082015291015290565b6040805160c0810182526002805463ffffffff80821684860190815265ffffffffffff600160201b8404166060860152600160501b909204166080840152600380548551602082810282018101909752818152949593948694869360a0870193909183018282801561090157602002820191906000526020600020906000905b825461010083900a900460ff1615158152602060019283018181049485019490930390920291018084116108d05790505b5050509190925250505081526040805160808101825260028401805463ffffffff808216845265ffffffffffff600160201b830416602085810191909152600160501b909204168385015260038601805485518184028101840190965280865295820195939492936060860193928301828280156109be57602002820191906000526020600020906000905b825461010083900a900460ff16151581526020600192830181810494850194909303909202910180841161098d5790505b50505050508152505081525050905090565b6d37b832b930ba37b92fb0b236b4b760911b60008160005460405163ac4ab3fb60e01b81529192506001600160a01b03169063ac4ab3fb90610a189033908590600401614f5e565b602060405180830381865afa158015610a35573d6000803e3d6000fd5b505050506040513d601f19601f82011682018060405250810190610a599190614f77565b610a79576040516371324ef360e11b815260048101829052602401610643565b50506007805461ff001981166101009182900460ff1615909102179055565b6d37b832b930ba37b92fb0b236b4b760911b60008160005460405163ac4ab3fb60e01b81529192506001600160a01b03169063ac4ab3fb90610ae09033908590600401614f5e565b602060405180830381865afa158015610afd573d6000803e3d6000fd5b505050506040513d601f19601f82011682018060405250810190610b219190614f77565b610b41576040516371324ef360e11b815260048101829052602401610643565b610b4a83612ed0565b505050565b6e6f70657261746f725f706f6c69637960881b60008160005460405163ac4ab3fb60e01b81529192506001600160a01b03169063ac4ab3fb90610b989033908590600401614f5e565b602060405180830381865afa158015610bb5573d6000803e3d6000fd5b505050506040513d601f19601f82011682018060405250810190610bd99190614f77565b610bf9576040516371324ef360e11b815260048101829052602401610643565b600854604051630cef4ced60e21b8152600481018590526001600160a01b03909116906333bd33b4906024015b600060405180830381600087803b158015610c4057600080fd5b505af1158015610c54573d6000803e3d6000fd5b50505050505050565b6e6f70657261746f725f706f6c69637960881b60008160005460405163ac4ab3fb60e01b81529192506001600160a01b03169063ac4ab3fb90610ca69033908590600401614f5e565b602060405180830381865afa158015610cc3573d6000803e3d6000fd5b505050506040513d601f19601f82011682018060405250810190610ce79190614f77565b610d07576040516371324ef360e11b815260048101829052602401610643565b610e108563ffffffff161080610d2857508263ffffffff168463ffffffff16115b80610d37575063ffffffff8316155b15610d555760405163042a67ad60e41b815260040160405180910390fd5b6006805467ffffffffffffffff60a01b1916600160a01b63ffffffff8881169190910263ffffffff60c01b191691909117600160c01b87831602176001600160e01b0316600160e01b91861691820217909155600480546dffffffff000000000000ffffffff1916905567ffffffffffffffff811115610dd757610dd7614f94565b604051908082528060200260200182016040528015610e00578160200160208202803683370190505b508051610e1591600591602090910190614b01565b50600280546dffffffff000000000000ffffffff1916905563ffffffff831667ffffffffffffffff811115610e4c57610e4c614f94565b604051908082528060200260200182016040528015610e75578160200160208202803683370190505b508051610e8a91600391602090910190614b01565b506040805163ffffffff808816825280871660208301528516918101919091527f9f11b1d829316eb1d4d6f91541c83d9f78bc1e309f755c759d190c973f7b4fae906060015b60405180910390a15050505050565b6e6f70657261746f725f706f6c69637960881b60008160005460405163ac4ab3fb60e01b81529192506001600160a01b03169063ac4ab3fb90610f289033908590600401614f5e565b602060405180830381865afa158015610f45573d6000803e3d6000fd5b505050506040513d601f19601f82011682018060405250810190610f699190614f77565b610f89576040516371324ef360e11b815260048101829052602401610643565b6008546040516320f8cd2360e11b815260048101869052602481018590526001600160a01b03909116906341f19a4690604401600060405180830381600087803b158015610fd657600080fd5b505af1158015610fea573d6000803e3d6000fd5b50505050610ff66130cf565b50505050565b6000546001600160a01b031633146110295760405163053e900f60e21b8152336004820152602401610643565b600080546001600160a01b0319166001600160a01b0392909216919091179055565b60606000600860009054906101000a90046001600160a01b03166001600160a01b0316631ae7ec2e6040518163ffffffff1660e01b8152600401602060405180830381865afa1580156110a2573d6000803e3d6000fd5b505050506040513d601f19601f820116820180604052508101906110c69190614faa565b90506000600960009054906101000a90046001600160a01b03166001600160a01b0316631ae7ec2e6040518163ffffffff1660e01b8152600401602060405180830381865afa15801561111d573d6000803e3d6000fd5b505050506040513d601f19601f820116820180604052508101906111419190614faa565b90506000600a60009054906101000a90046001600160a01b03166001600160a01b0316631ae7ec2e6040518163ffffffff1660e01b8152600401602060405180830381865afa158015611198573d6000803e3d6000fd5b505050506040513d601f19601f820116820180604052508101906111bc9190614faa565b6040805160098082526101408201909252919250816020015b60408051808201909152600080825260208201528152602001906001900390816111d5575050604080518082019091526001600160d81b0319851681526336cd4d3160e11b6020820152815191955090859060009061123657611236614fd4565b60200260200101819052506040518060400160405280846001600160d81b0319168152602001633e56993a60e01b6001600160e01b0319168152508460018151811061128457611284614fd4565b60200260200101819052506040518060400160405280846001600160d81b031916815260200163ae7e8d8160e01b6001600160e01b031916815250846002815181106112d2576112d2614fd4565b60200260200101819052506040518060400160405280846001600160d81b031916815260200162d1673960e01b6001600160e01b0319168152508460038151811061131f5761131f614fd4565b60200260200101819052506040518060400160405280846001600160d81b03191681526020016341f19a4660e01b6001600160e01b0319168152508460048151811061136d5761136d614fd4565b60200260200101819052506040518060400160405280846001600160d81b03191681526020016333bd33b460e01b6001600160e01b031916815250846005815181106113bb576113bb614fd4565b60200260200101819052506040518060400160405280836001600160d81b031916815260200163d1b5b47560e01b6001600160e01b0319168152508460068151811061140957611409614fd4565b60200260200101819052506040518060400160405280826001600160d81b0319168152602001633a56e30760e01b6001600160e01b0319168152508460078151811061145757611457614fd4565b60200260200101819052506040518060400160405280826001600160d81b031916815260200163aaf0ad5a60e01b6001600160e01b031916815250846008815181106114a5576114a5614fd4565b602002602001018190525050505090565b600754610100900460ff166114de576040516316b0245b60e21b815260040160405180910390fd5b6f6f70657261746f725f6f70657261746560801b60008160005460405163ac4ab3fb60e01b81529192506001600160a01b03169063ac4ab3fb906115289033908590600401614f5e565b602060405180830381865afa158015611545573d6000803e3d6000fd5b505050506040513d601f19601f820116820180604052508101906115699190614f77565b611589576040516371324ef360e11b815260048101829052602401610643565b60075460ff166115ac57604051633cb84dd760e11b815260040160405180910390fd5b6115b46130cf565b6115bc6131a3565b6115c860016000613763565b6115d3600080613763565b604080516101008101825260065463ffffffff8082168352600160201b820481166020840152600160401b8204811683850152600160601b820481166060840152600160801b820481166080840152600160a01b8204811660a08401819052600160c01b8304821660c0850152600160e01b9092041660e0830152600854925163734f9e2760e11b815260016004820152919290916001600160a01b039091169063e69f3c4e90602401602060405180830381865afa15801561169a573d6000803e3d6000fd5b505050506040513d601f19601f820116820180604052508101906116be9190614fea565b6116c89190615019565b4265ffffffffffff16101580156116ef575060c081015160045463ffffffff918216911610155b156116fe576116fe6001612ed0565b60a081015160085460405163734f9e2760e11b81526000600482015263ffffffff909216916001600160a01b039091169063e69f3c4e90602401602060405180830381865afa158015611755573d6000803e3d6000fd5b505050506040513d601f19601f820116820180604052508101906117799190614fea565b6117839190615019565b4265ffffffffffff16101580156117aa575060c081015160025463ffffffff918216911610155b156117b9576117b96000612ed0565b6008546040805163e97206a960e01b815290516000926001600160a01b03169163e97206a9916004808301926102009291908290030181865afa158015611804573d6000803e3d6000fd5b505050506040513d601f19601f820116820180604052508101906118289190615196565b90506000600760029054906101000a90046001600160a01b03166001600160a01b031663d8cf24fd6040518163ffffffff1660e01b8152600401602060405180830381865afa15801561187f573d6000803e3d6000fd5b505050506040513d601f19601f820116820180604052508101906118a39190614fea565b8251519091501561198e57600b548251608001516040516304ea0e8b60e31b81526001600160a01b03909216916327507458916118e69160040190815260200190565b602060405180830381865afa158015611903573d6000803e3d6000fd5b505050506040513d601f19601f820116820180604052508101906119279190614f77565b1561195f576040820151602001515181118061194b57506060820151602001515181105b1561195a5761195a600061381a565b61198e565b604082015160200151518110801561197f57506060820151602001515181115b1561198e5761198e600061399f565b60208201515115611a7057600b546020830151608001516040516304ea0e8b60e31b81526001600160a01b03909216916327507458916119d49160040190815260200190565b602060405180830381865afa1580156119f1573d6000803e3d6000fd5b505050506040513d601f19601f82011682018060405250810190611a159190614f77565b15611a475760408201515151811080611a3357506060820151515181115b15611a4257611a42600161381a565b611a70565b6040820151515181118015611a6157506060820151515181105b15611a7057611a70600161399f565b5050505050565b6d37b832b930ba37b92fb0b236b4b760911b60008160005460405163ac4ab3fb60e01b81529192506001600160a01b03169063ac4ab3fb90611abf9033908590600401614f5e565b602060405180830381865afa158015611adc573d6000803e3d6000fd5b505050506040513d601f19601f82011682018060405250810190611b009190614f77565b611b20576040516371324ef360e11b815260048101829052602401610643565b60075460ff1615611b44576040516358b8d27560e01b815260040160405180910390fd5b60095460405163d1b5b47560e01b81523060048201526001600160a01b037f00000000000000000000000000000000000000000000000000000000000000008116602483015260001960448301529091169063d1b5b47590606401600060405180830381600087803b158015611bb957600080fd5b505af1158015611bcd573d6000803e3d6000fd5b50505050611bd96130cf565b611be36001612ed0565b611bed6000612ed0565b50506007805461ffff1916610101179055565b60408051600480825260a082019092526060916020820160808036833701905050905064505249434560d81b81600081518110611c3f57611c3f614fd4565b6001600160d81b031990921660209283029190910190910152611c676452414e474560d81b90565b81600181518110611c7a57611c7a614fd4565b6001600160d81b031990921660209283029190910190910152611ca264545253525960d81b90565b81600281518110611cb557611cb5614fd4565b6001600160d81b031990921660209283029190910190910152611cdd6426a4a72a2960d91b90565b81600381518110611cf057611cf0614fd4565b60200260200101906001600160d81b03191690816001600160d81b03191681525050611d3581600081518110611d2857611d28614fd4565b6020026020010151614486565b600760026101000a8154816001600160a01b0302191690836001600160a01b03160217905550611d7181600181518110611d2857611d28614fd4565b600860006101000a8154816001600160a01b0302191690836001600160a01b03160217905550611dad81600281518110611d2857611d28614fd4565b600960006101000a8154816001600160a01b0302191690836001600160a01b03160217905550611de981600381518110611d2857611d28614fd4565b600a80546001600160a01b0319166001600160a01b03928316908117909155611e37917f00000000000000000000000000000000000000000000000000000000000000001690600019614532565b90565b6009546040516305489ad560e21b81526001600160a01b037f00000000000000000000000000000000000000000000000000000000000000008116600483015260009283929116906315226b5490602401602060405180830381865afa158015611ea8573d6000803e3d6000fd5b505050506040513d601f19601f82011682018060405250810190611ecc9190614fea565b60065490915060009061271090611ef090600160801b900463ffffffff1684615228565b611efa919061525d565b9050831561210a5760085460405163461fc8a560e11b815260016004820152612710916001600160a01b031690638c3f914a90602401602060405180830381865afa158015611f4d573d6000803e3d6000fd5b505050506040513d601f19601f82011682018060405250810190611f719190614fea565b611f7c906002615228565b611f8890612710615019565b6120f3600760029054906101000a90046001600160a01b03166001600160a01b031663313ce5676040518163ffffffff1660e01b8152600401602060405180830381865afa158015611fde573d6000803e3d6000fd5b505050506040513d601f19601f820116820180604052508101906120029190615271565b61200d90600a615378565b6120387f0000000000000000000000000000000000000000000000000000000000000000600a615378565b6120429190615228565b600854604051631bbc615960e11b815260016004820181905260248201526001600160a01b0390911690633778c2b290604401602060405180830381865afa158015612092573d6000803e3d6000fd5b505050506040513d601f19601f820116820180604052508101906120b69190614fea565b6120e17f0000000000000000000000000000000000000000000000000000000000000000600a615378565b6120eb9190615228565b859190614641565b6120fd9190615228565b612107919061525d565b90505b9392505050565b600754600090610100900460ff1661213c576040516316b0245b60e21b815260040160405180910390fd5b60015460011461217b5760405162461bcd60e51b815260206004820152600a6024820152695245454e5452414e435960b01b6044820152606401610643565b60026001556001600160a01b037f000000000000000000000000000000000000000000000000000000000000000081169085160361243c57600854604051632ce91b7360e11b8152600060048201526001600160a01b03909116906359d236e690602401602060405180830381865afa1580156121fc573d6000803e3d6000fd5b505050506040513d601f19601f820116820180604052508101906122209190614f77565b61223d57604051631c184ff560e01b815260040160405180910390fd5b61224784846129a4565b9050818110156122745760405163c2d2c74360e01b81526004810182905260248101839052604401610643565b61227f600082613763565b61228960006146ee565b6122be6001600160a01b037f000000000000000000000000000000000000000000000000000000000000000016333086614942565b600a5460405163557856ad60e11b81526001600160a01b039091169063aaf0ad5a906122f09030908790600401614f5e565b600060405180830381600087803b15801561230a57600080fd5b505af115801561231e573d6000803e3d6000fd5b5050600954604051632f42aef560e01b81523360048201526001600160a01b037f000000000000000000000000000000000000000000000000000000000000000081166024830152604482018690529091169250632f42aef59150606401600060405180830381600087803b15801561239657600080fd5b505af11580156123aa573d6000803e3d6000fd5b505060408051868152602081018590526001600160a01b037f0000000000000000000000000000000000000000000000000000000000000000811694507f00000000000000000000000000000000000000000000000000000000000000001692507ffa2dda1cc1b86e41239702756b13effbc1a092b5c57e3ad320fbe4f3b13fe23591015b60405180910390a3612689565b7f00000000000000000000000000000000000000000000000000000000000000006001600160a01b0316846001600160a01b03160361267057600854604051632ce91b7360e11b8152600160048201526001600160a01b03909116906359d236e690602401602060405180830381865afa1580156124be573d6000803e3d6000fd5b505050506040513d601f19601f820116820180604052508101906124e29190614f77565b6124ff57604051631c184ff560e01b815260040160405180910390fd5b61250984846129a4565b9050818110156125365760405163c2d2c74360e01b81526004810182905260248101839052604401610643565b612541600182613763565b61254b60016146ee565b600954612587906001600160a01b037f000000000000000000000000000000000000000000000000000000000000000081169133911686614942565b600a54604051633a56e30760e01b81526001600160a01b0390911690633a56e307906125b99033908590600401614f5e565b600060405180830381600087803b1580156125d357600080fd5b505af11580156125e7573d6000803e3d6000fd5b505060408051868152602081018590526001600160a01b037f0000000000000000000000000000000000000000000000000000000000000000811694507f00000000000000000000000000000000000000000000000000000000000000001692507ffa2dda1cc1b86e41239702756b13effbc1a092b5c57e3ad320fbe4f3b13fe235910161242f565b60405163042a67ad60e41b815260040160405180910390fd5b600180559392505050565b6e6f70657261746f725f706f6c69637960881b60008160005460405163ac4ab3fb60e01b81529192506001600160a01b03169063ac4ab3fb906126dd9033908590600401614f5e565b602060405180830381865afa1580156126fa573d6000803e3d6000fd5b505050506040513d601f19601f8201168201806040525081019061271e9190614f77565b61273e576040516371324ef360e11b815260048101829052602401610643565b6127108363ffffffff16118061275a575060648363ffffffff16105b156127785760405163042a67ad60e41b815260040160405180910390fd5b6006805463ffffffff191663ffffffff85169081179091556040519081527f5760955ed2acbd2b290c0a6edf1c0bc845f64f1da0b9f89582fac3daade8dff5906020016106d6565b600754610100900460ff166127e8576040516316b0245b60e21b815260040160405180910390fd5b7037b832b930ba37b92fb932b837b93a32b960791b60008160005460405163ac4ab3fb60e01b81529192506001600160a01b03169063ac4ab3fb906128339033908590600401614f5e565b602060405180830381865afa158015612850573d6000803e3d6000fd5b505050506040513d601f19601f820116820180604052508101906128749190614f77565b612894576040516371324ef360e11b815260048101829052602401610643565b60085460405163622f48eb60e11b8152600160048201526001600160a01b039091169063c45e91d690602401602060405180830381865afa1580156128dd573d6000803e3d6000fd5b505050506040513d601f19601f820116820180604052508101906129019190614fea565b840361291c57612912600184613763565b61291c60016146ee565b60085460405163622f48eb60e11b8152600060048201526001600160a01b039091169063c45e91d690602401602060405180830381865afa158015612965573d6000803e3d6000fd5b505050506040513d601f19601f820116820180604052508101906129899190614fea565b8403610ff65761299a600084613763565b610ff660006146ee565b60007f00000000000000000000000000000000000000000000000000000000000000006001600160a01b0316836001600160a01b031603612bd257600854604051631bbc615960e11b81526001600482015260006024820181905291612b3c916001600160a01b0390911690633778c2b290604401602060405180830381865afa158015612a36573d6000803e3d6000fd5b505050506040513d601f19601f82011682018060405250810190612a5a9190614fea565b612a857f0000000000000000000000000000000000000000000000000000000000000000600a615378565b612a8f9190615228565b600760029054906101000a90046001600160a01b03166001600160a01b031663313ce5676040518163ffffffff1660e01b8152600401602060405180830381865afa158015612ae2573d6000803e3d6000fd5b505050506040513d601f19601f82011682018060405250810190612b069190615271565b612b1190600a615378565b6120e17f0000000000000000000000000000000000000000000000000000000000000000600a615378565b60085460405163bf30142b60e01b8152600060048201529192506001600160a01b03169063bf30142b906024015b602060405180830381865afa158015612b87573d6000803e3d6000fd5b505050506040513d601f19601f82011682018060405250810190612bab9190614fea565b811115612bcb57604051632c05036160e01b815260040160405180910390fd5b9050612c95565b7f00000000000000000000000000000000000000000000000000000000000000006001600160a01b0316836001600160a01b031603612670576000612c63600760029054906101000a90046001600160a01b03166001600160a01b031663313ce5676040518163ffffffff1660e01b8152600401602060405180830381865afa158015611fde573d6000803e3d6000fd5b60085460405163bf30142b60e01b8152600160048201529192506001600160a01b03169063bf30142b90602401612b6a565b92915050565b6000546001600160a01b03163314612cc85760405163053e900f60e21b8152336004820152602401610643565b60008054911515600160a01b0260ff60a01b19909216919091179055565b6e6f70657261746f725f706f6c69637960881b60008160005460405163ac4ab3fb60e01b81529192506001600160a01b03169063ac4ab3fb90612d2f9033908590600401614f5e565b602060405180830381865afa158015612d4c573d6000803e3d6000fd5b505050506040513d601f19601f82011682018060405250810190612d709190614f77565b612d90576040516371324ef360e11b815260048101829052602401610643565b62093a808563ffffffff161180612daf5750620151808563ffffffff16105b15612dcd5760405163042a67ad60e41b815260040160405180910390fd5b61271063ffffffff85161015612df65760405163042a67ad60e41b815260040160405180910390fd5b610e1063ffffffff84161080612e1757508463ffffffff168363ffffffff16115b15612e355760405163042a67ad60e41b815260040160405180910390fd5b600680546bffffffffffffffff000000001916600160201b63ffffffff8881169182026bffffffff0000000000000000191692909217600160401b8884169081029190911763ffffffff60601b1916600160601b93881693840217909355604080519182526020820193909352918201527f6627cd780fa2d7faf558f4d9d700a0852b79903fd60ce8c0f734103cf8aa12b890606001610ed0565b612ed98161381a565b8015612fef576004805463ffffffff19169055600654600160e01b900463ffffffff1667ffffffffffffffff811115612f1457612f14614f94565b604051908082528060200260200182016040528015612f3d578160200160208202803683370190505b508051612f5291600591602090910190614b01565b50600480546dffffffffffffffffffff000000001916600160201b4265ffffffffffff16021790556000612f866001611e3a565b60085460405162d1673960e01b815260016004820152602481018390529192506001600160a01b03169062d16739906044015b600060405180830381600087803b158015612fd357600080fd5b505af1158015612fe7573d6000803e3d6000fd5b505050505050565b6002805463ffffffff19169055600654600160e01b900463ffffffff1667ffffffffffffffff81111561302457613024614f94565b60405190808252806020026020018201604052801561304d578160200160208202803683370190505b50805161306291600391602090910190614b01565b50600280546dffffffffffffffffffff000000001916600160201b4265ffffffffffff1602179055600061309581611e3a565b60085460405162d1673960e01b815260006004820152602481018390529192506001600160a01b03169062d1673990604401612fb9565b50565b6000600760029054906101000a90046001600160a01b03166001600160a01b031663b5e713056040518163ffffffff1660e01b8152600401602060405180830381865afa158015613124573d6000803e3d6000fd5b505050506040513d601f19601f820116820180604052508101906131489190614fea565b60085460405163ae7e8d8160e01b8152600481018390529192506001600160a01b03169063ae7e8d8190602401600060405180830381600087803b15801561318f57600080fd5b505af1158015611a70573d6000803e3d6000fd5b6000600760029054906101000a90046001600160a01b03166001600160a01b031663b5e713056040518163ffffffff1660e01b8152600401602060405180830381865afa1580156131f8573d6000803e3d6000fd5b505050506040513d601f19601f8201168201806040525081019061321c9190614fea565b90506000600760029054906101000a90046001600160a01b03166001600160a01b031663d8cf24fd6040518163ffffffff1660e01b8152600401602060405180830381865afa158015613273573d6000803e3d6000fd5b505050506040513d601f19601f820116820180604052508101906132979190614fea565b600654604080516080810182526002805463ffffffff818116845265ffffffffffff600160201b830416602080860191909152600160501b90920481168486015260038054865181850281018501909752808752979850600160e01b90960416956000959394929360608601939290919083018282801561335757602002820191906000526020600020906000905b825461010083900a900460ff1615158152602060019283018181049485019490930390920291018084116133265790505b505050505081525050905083831061341b578060600151816040015163ffffffff168151811061338957613389614fd4565b60200260200101516134165760408101516003805460019263ffffffff169081106133b6576133b6614fd4565b60009182526020808320908204018054931515601f9092166101000a91820260ff90920219909316179091556002805463ffffffff16916133f683615387565b91906101000a81548163ffffffff021916908363ffffffff160217905550505b6134c9565b8060600151816040015163ffffffff168151811061343b5761343b614fd4565b6020026020010151156134c95760408101516003805460009263ffffffff1690811061346957613469614fd4565b60009182526020808320908204018054931515601f9092166101000a91820260ff90920219909316179091556002805463ffffffff16916134a9836153aa565b91906101000a81548163ffffffff021916908363ffffffff160217905550505b81816040015160016134db91906153ca565b6134e591906153f2565b6002805463ffffffff60501b1916600160501b63ffffffff93841681029190911790915560408051608081018252600480548086168352600160201b810465ffffffffffff166020808501919091529490049094168183015260058054835181860281018601909452808452919493606086019392908301828280156135aa57602002820191906000526020600020906000905b825461010083900a900460ff1615158152602060019283018181049485019490930390920291018084116135795790505b505050505081525050905083831161366e578060600151816040015163ffffffff16815181106135dc576135dc614fd4565b60200260200101516136695760408101516005805460019263ffffffff1690811061360957613609614fd4565b60009182526020808320908204018054931515601f9092166101000a91820260ff90920219909316179091556004805463ffffffff169161364983615387565b91906101000a81548163ffffffff021916908363ffffffff160217905550505b61371c565b8060600151816040015163ffffffff168151811061368e5761368e614fd4565b60200260200101511561371c5760408101516005805460009263ffffffff169081106136bc576136bc614fd4565b60009182526020808320908204018054931515601f9092166101000a91820260ff90920219909316179091556004805463ffffffff16916136fc836153aa565b91906101000a81548163ffffffff021916908363ffffffff160217905550505b818160400151600161372e91906153ca565b61373891906153f2565b6004805463ffffffff92909216600160501b0263ffffffff60501b1990921691909117905550505050565b60085460405163bf30142b60e01b8152831515600482015260009183916001600160a01b039091169063bf30142b90602401602060405180830381865afa1580156137b2573d6000803e3d6000fd5b505050506040513d601f19601f820116820180604052508101906137d69190614fea565b6137e09190615415565b6008546040516336cd4d3160e11b81528515156004820152602481018390529192506001600160a01b031690636d9a9a6290604401610c26565b60085460405163622f48eb60e11b815282151560048201526000916001600160a01b03169063c45e91d690602401602060405180830381865afa158015613865573d6000803e3d6000fd5b505050506040513d601f19601f820116820180604052508101906138899190614fea565b600b546040516304ea0e8b60e31b8152600481018390529192506001600160a01b031690632750745890602401602060405180830381865afa1580156138d3573d6000803e3d6000fd5b505050506040513d601f19601f820116820180604052508101906138f79190614f77565b1561399b57600b5460405163ae41809560e01b8152600481018390526001600160a01b039091169063ae41809590602401600060405180830381600087803b15801561394257600080fd5b505af1158015613956573d6000803e3d6000fd5b5050600854604051631f2b4c9d60e11b815285151560048201526000196024820152600060448201526001600160a01b039091169250633e56993a9150606401612fb9565b5050565b6008546040805163e97206a960e01b815290516000926001600160a01b03169163e97206a9916004808301926102009291908290030181865afa1580156139ea573d6000803e3d6000fd5b505050506040513d601f19601f82011682018060405250810190613a0e9190615196565b90508115613f2b5760408101515151600090613a2990614a55565b90506000613a3860028361542c565b613a827f00000000000000000000000000000000000000000000000000000000000000007f0000000000000000000000000000000000000000000000000000000000000000615464565b613a8c91906154a5565b9050600082600760029054906101000a90046001600160a01b03166001600160a01b031663313ce5676040518163ffffffff1660e01b8152600401602060405180830381865afa158015613ae4573d6000803e3d6000fd5b505050506040513d601f19601f82011682018060405250810190613b089190615271565b613b129190615464565b613b1d90600a615378565b90506000837f00000000000000000000000000000000000000000000000000000000000000007f0000000000000000000000000000000000000000000000000000000000000000613b6f8660246154a5565b613b7991906154a5565b613b839190615464565b613b8d9190615464565b613b9890600a615378565b60608601515151909150600090613bb0908385614641565b60408701515151909150600090613bc8908486614641565b604080516101008101825260065463ffffffff808216808452600160201b83048216602080860191909152600160401b8404831685870152600160601b840483166060860152600160801b840483166080860152600160a01b8404831660a0860152600160c01b8404831660c0860152600160e01b909304821660e0850152918c0151909301519394509092600092613c6692906127109061464116565b905060006040518061018001604052807f00000000000000000000000000000000000000000000000000000000000000006001600160a01b031681526020017f00000000000000000000000000000000000000000000000000000000000000006001600160a01b03168152602001600c60009054906101000a90046001600160a01b03166001600160a01b03168152602001600015158152602001838152602001868152602001858152602001846040015163ffffffff168152602001600065ffffffffffff168152602001846020015163ffffffff1642613d489190615019565b65ffffffffffff168152606085015163ffffffff16602082015260008a810b604092830152600b54915163380b5bb160e01b8152929350916001600160a01b039091169063380b5bb190613da09085906004016154e8565b6020604051808303816000875af1158015613dbf573d6000803e3d6000fd5b505050506040513d601f19601f82011682018060405250810190613de39190614fea565b600c54600b5460408051639787d10760e01b815290519394506001600160a01b03928316936398fc55d89390921691639787d107916004808201926020929091908290030181865afa158015613e3d573d6000803e3d6000fd5b505050506040513d601f19601f82011682018060405250810190613e6191906155c6565b836040518363ffffffff1660e01b8152600401613e7f929190614f5e565b600060405180830381600087803b158015613e9957600080fd5b505af1158015613ead573d6000803e3d6000fd5b5050600854604051631f2b4c9d60e11b81526001600482015260248101859052604481018790526001600160a01b039091169250633e56993a9150606401600060405180830381600087803b158015613f0557600080fd5b505af1158015613f19573d6000803e3d6000fd5b50505050505050505050505050505050565b6000600760029054906101000a90046001600160a01b03166001600160a01b031663313ce5676040518163ffffffff1660e01b8152600401602060405180830381865afa158015613f80573d6000803e3d6000fd5b505050506040513d601f19601f82011682018060405250810190613fa49190615271565b60408301516020015151909150600090613fbf8360026155e3565b613fca90600a615378565b613fd4919061525d565b60608401516020015151909150600090613fef8460026155e3565b613ffa90600a615378565b614004919061525d565b9050600061401183614a55565b9050600061402060028361542c565b61406a7f00000000000000000000000000000000000000000000000000000000000000007f0000000000000000000000000000000000000000000000000000000000000000615464565b61407491906154a5565b905060006140828387615464565b61408d90600a615378565b90506000837f00000000000000000000000000000000000000000000000000000000000000007f00000000000000000000000000000000000000000000000000000000000000006140df8660246154a5565b6140e991906154a5565b6140f39190615464565b6140fd9190615464565b61410890600a615378565b90506000614117868385614641565b90506000614126888486614641565b604080516101008101825260065463ffffffff808216808452600160201b830482166020850152600160401b8304821684860152600160601b830482166060850152600160801b830482166080850152600160a01b8304821660a0850152600160c01b8304821660c0850152600160e01b909204811660e08401528e519093015193945090926000926141be92906127109061464116565b905060006040518061018001604052807f00000000000000000000000000000000000000000000000000000000000000006001600160a01b031681526020017f00000000000000000000000000000000000000000000000000000000000000006001600160a01b03168152602001600c60009054906101000a90046001600160a01b03166001600160a01b03168152602001600015158152602001838152602001868152602001858152602001846040015163ffffffff168152602001600065ffffffffffff168152602001846020015163ffffffff16426142a09190615019565b65ffffffffffff168152606085015163ffffffff16602082015260008a810b604092830152600b54915163380b5bb160e01b8152929350916001600160a01b039091169063380b5bb1906142f89085906004016154e8565b6020604051808303816000875af1158015614317573d6000803e3d6000fd5b505050506040513d601f19601f8201168201806040525081019061433b9190614fea565b600c54600b5460408051639787d10760e01b815290519394506001600160a01b03928316936398fc55d89390921691639787d107916004808201926020929091908290030181865afa158015614395573d6000803e3d6000fd5b505050506040513d601f19601f820116820180604052508101906143b991906155c6565b836040518363ffffffff1660e01b81526004016143d7929190614f5e565b600060405180830381600087803b1580156143f157600080fd5b505af1158015614405573d6000803e3d6000fd5b5050600854604051631f2b4c9d60e11b81526000600482015260248101859052604481018790526001600160a01b039091169250633e56993a9150606401600060405180830381600087803b15801561445d57600080fd5b505af1158015614471573d6000803e3d6000fd5b50505050505050505050505050505050505050565b60008054604051632d37002d60e21b81526001600160d81b03198416600482015282916001600160a01b03169063b4dc00b490602401602060405180830381865afa1580156144d9573d6000803e3d6000fd5b505050506040513d601f19601f820116820180604052508101906144fd91906155c6565b90506001600160a01b038116612c9557604051635c3fa9cd60e01b81526001600160d81b031984166004820152602401610643565b600080846001600160a01b031663095ea7b360e01b858560405160240161455a929190614f5e565b60408051601f198184030181529181526020820180516001600160e01b03166001600160e01b03199094169390931790925290516145989190615604565b6000604051808303816000865af19150503d80600081146145d5576040519150601f19603f3d011682016040523d82523d6000602084013e6145da565b606091505b50915091508180156146045750805115806146045750808060200190518101906146049190614f77565b611a705760405162461bcd60e51b815260206004820152600e60248201526d1054141493d59157d1905253115160921b6044820152606401610643565b600080806000198587098587029250828110838203039150508060000361467a576000841161466f57600080fd5b50829004905061210a565b80841161468657600080fd5b600084868809600260036001881981018916988990049182028318808302840302808302840302808302840302808302840302808302840302918202909203026000889003889004909101858311909403939093029303949094049190911702949350505050565b600854604051632ce91b7360e11b815282151560048201526000916001600160a01b0316906359d236e690602401602060405180830381865afa158015614739573d6000803e3d6000fd5b505050506040513d601f19601f8201168201806040525081019061475d9190614f77565b60085460405163622f48eb60e11b815284151560048201529192506000916001600160a01b039091169063c45e91d690602401602060405180830381865afa1580156147ad573d6000803e3d6000fd5b505050506040513d601f19601f820116820180604052508101906147d19190614fea565b905081158061493457508180156148505750600b546040516304ea0e8b60e31b8152600481018390526001600160a01b0390911690632750745890602401602060405180830381865afa15801561482c573d6000803e3d6000fd5b505050506040513d601f19601f820116820180604052508101906148509190614f77565b80156149345750600b546040516307018e9b60e21b8152600481018390526001600160a01b0390911690631c063a6c90602401602060405180830381865afa1580156148a0573d6000803e3d6000fd5b505050506040513d601f19601f820116820180604052508101906148c49190614fea565b60085460405163bf30142b60e01b815285151560048201526001600160a01b039091169063bf30142b90602401602060405180830381865afa15801561490e573d6000803e3d6000fd5b505050506040513d601f19601f820116820180604052508101906149329190614fea565b105b15610b4a57610b4a8361381a565b604080516001600160a01b0385811660248301528481166044830152606480830185905283518084039091018152608490920183526020820180516001600160e01b03166323b872dd60e01b17905291516000928392908816916149a69190615604565b6000604051808303816000865af19150503d80600081146149e3576040519150601f19603f3d011682016040523d82523d6000602084013e6149e8565b606091505b5091509150818015614a12575080511580614a12575080806020019051810190614a129190614f77565b612fe75760405162461bcd60e51b81526020600482015260146024820152731514905394d1915497d19493d357d1905253115160621b6044820152606401610643565b6000805b600a8310614a8057614a6c600a8461525d565b925080614a788161563f565b915050614a59565b600760029054906101000a90046001600160a01b03166001600160a01b031663313ce5676040518163ffffffff1660e01b8152600401602060405180830381865afa158015614ad3573d6000803e3d6000fd5b505050506040513d601f19601f82011682018060405250810190614af79190615271565b61210a9082615464565b82805482825590600052602060002090601f01602090048101928215614b965791602002820160005b83821115614b6757835183826101000a81548160ff0219169083151502179055509260200192600101602081600001049283019260010302614b2a565b8015614b945782816101000a81549060ff0219169055600101602081600001049283019260010302614b67565b505b50614ba2929150614ba6565b5090565b5b80821115614ba25760008155600101614ba7565b803563ffffffff81168114614bcf57600080fd5b919050565b600060208284031215614be657600080fd5b61210a82614bbb565b6001600160a01b03811681146130cc57600080fd5b60008060408385031215614c1757600080fd5b8235614c2281614bef565b91506020830135614c3281614bef565b809150509250929050565b60006080830163ffffffff808451168552602065ffffffffffff818601511681870152816040860151166040870152606085015191506080606087015282825180855260a0880191508284019450600093505b80841015614cb257845115158252938201936001939093019290820190614c90565b509695505050505050565b602081526000825160406020840152614cd96060840182614c3d565b90506020840151601f19848303016040850152614cf68282614c3d565b95945050505050565b80151581146130cc57600080fd5b600060208284031215614d1f57600080fd5b813561210a81614cff565b600060208284031215614d3c57600080fd5b5035919050565b600080600060608486031215614d5857600080fd5b614d6184614bbb565b9250614d6f60208501614bbb565b9150614d7d60408501614bbb565b90509250925092565b60008060408385031215614d9957600080fd5b50508035926020909101359150565b600060208284031215614dba57600080fd5b813561210a81614bef565b602080825282518282018190526000919060409081850190868401855b82811015614e1b57815180516001600160d81b03191685528601516001600160e01b031916868501529284019290850190600101614de2565b5091979650505050505050565b60006101008201905063ffffffff8084511683528060208501511660208401528060408501511660408401528060608501511660608401528060808501511660808401528060a08501511660a08401525060c0830151614e9060c084018263ffffffff169052565b5060e0830151614ea860e084018263ffffffff169052565b5092915050565b6020808252825182820181905260009190848201906040850190845b81811015614ef15783516001600160d81b03191683529284019291840191600101614ecb565b50909695505050505050565b600080600060608486031215614f1257600080fd5b8335614f1d81614bef565b95602085013595506040909401359392505050565b60008060408385031215614f4557600080fd5b8235614f5081614bef565b946020939093013593505050565b6001600160a01b03929092168252602082015260400190565b600060208284031215614f8957600080fd5b815161210a81614cff565b634e487b7160e01b600052604160045260246000fd5b600060208284031215614fbc57600080fd5b81516001600160d81b03198116811461210a57600080fd5b634e487b7160e01b600052603260045260246000fd5b600060208284031215614ffc57600080fd5b5051919050565b634e487b7160e01b600052601160045260246000fd5b6000821982111561502c5761502c615003565b500190565b600060a0828403121561504357600080fd5b60405160a0810181811067ffffffffffffffff8211171561507457634e487b7160e01b600052604160045260246000fd5b8060405250809150825161508781614cff565b8152602083015165ffffffffffff811681146150a257600080fd5b806020830152506040830151604082015260608301516060820152608083015160808201525092915050565b6000602082840312156150e057600080fd5b6040516020810181811067ffffffffffffffff8211171561511157634e487b7160e01b600052604160045260246000fd5b6040529151825250919050565b60006060828403121561513057600080fd5b6040516060810181811067ffffffffffffffff8211171561516157634e487b7160e01b600052604160045260246000fd5b60405290508061517184846150ce565b815261518084602085016150ce565b6020820152604083015160408201525092915050565b600061020082840312156151a957600080fd5b6040516080810181811067ffffffffffffffff821117156151da57634e487b7160e01b600052604160045260246000fd5b6040526151e78484615031565b81526151f68460a08501615031565b602082015261520984610140850161511e565b604082015261521c846101a0850161511e565b60608201529392505050565b600081600019048311821515161561524257615242615003565b500290565b634e487b7160e01b600052601260045260246000fd5b60008261526c5761526c615247565b500490565b60006020828403121561528357600080fd5b815160ff8116811461210a57600080fd5b600181815b808511156152cf5781600019048211156152b5576152b5615003565b808516156152c257918102915b93841c9390800290615299565b509250929050565b6000826152e657506001612c95565b816152f357506000612c95565b816001811461530957600281146153135761532f565b6001915050612c95565b60ff84111561532457615324615003565b50506001821b612c95565b5060208310610133831016604e8410600b8410161715615352575081810a612c95565b61535c8383615294565b806000190482111561537057615370615003565b029392505050565b600061210a60ff8416836152d7565b600063ffffffff8083168181036153a0576153a0615003565b6001019392505050565b600063ffffffff8216806153c0576153c0615003565b6000190192915050565b600063ffffffff8083168185168083038211156153e9576153e9615003565b01949350505050565b600063ffffffff8084168061540957615409615247565b92169190910692915050565b60008282101561542757615427615003565b500390565b60008160000b8360000b8061544357615443615247565b607f1982146000198214161561545b5761545b615003565b90059392505050565b600081810b83820b8281128015607f1983018412161561548657615486615003565b81607f01831381161561549b5761549b615003565b5090039392505050565b60008160000b8360000b6000821282607f038213811516156154c9576154c9615003565b82607f190382128116156154df576154df615003565b50019392505050565b81516001600160a01b031681526101808101602083015161551460208401826001600160a01b03169052565b50604083015161552f60408401826001600160a01b03169052565b506060830151615543606084018215159052565b506080830151608083015260a083015160a083015260c083015160c083015260e083015161557960e084018263ffffffff169052565b506101008381015165ffffffffffff9081169184019190915261012080850151909116908301526101408084015163ffffffff16908301526101609283015160000b929091019190915290565b6000602082840312156155d857600080fd5b815161210a81614bef565b600060ff821660ff84168160ff048111821515161561537057615370615003565b6000825160005b81811015615625576020818601810151858301520161560b565b81811115615634576000828501525b509190910192915050565b60008160000b607f810361565557615655615003565b6001019291505056fea2646970667358221220d7051ee7ce9ad09338fdb9ea1c377d8a4ecdb3f16427f293e3cc5199608f644664736f6c634300080f0033",
    "linkReferences": {}
  },
  "methodIdentifiers": {
    "FACTOR_SCALE()": "a1fb6345",
    "active()": "02fb0c5e",
    "auctioneer()": "5ec2c7bf",
    "bondPurchase(uint256,uint256)": "ab104771",
    "callback()": "083b2732",
    "changeKernel(address)": "4657b36c",
    "config()": "79502c55",
    "configureDependencies()": "9459b875",
    "fullCapacity(bool)": "9e897711",
    "getAmountOut(address,uint256)": "ca706bcf",
    "initialize()": "8129fc1c",
    "initialized()": "158ef93e",
    "isActive()": "22f3e2d4",
    "kernel()": "d4aae0c4",
    "ohm()": "02b1d239",
    "ohmDecimals()": "aea564af",
    "operate()": "7159a618",
    "regenerate(bool)": "2ecd1f20",
    "requestPermissions()": "5924be70",
    "reserve()": "cd3293de",
    "reserveDecimals()": "6e703c2e",
    "setActiveStatus(bool)": "ec7404b1",
    "setBondContracts(address,address)": "19f63dd7",
    "setCushionFactor(uint32)": "aa9760a1",
    "setCushionParams(uint32,uint32,uint32)": "f2fa4737",
    "setRegenParams(uint32,uint32,uint32)": "3a3f54bc",
    "setReserveFactor(uint32)": "01de9ba8",
    "setSpreads(uint256,uint256)": "41f19a46",
    "setThresholdFactor(uint256)": "33bd33b4",
    "status()": "200d2ed2",
    "swap(address,uint256,uint256)": "9f1d0f59",
    "toggleActive()": "29c68dc1"
  },
  "id": 30
}