{
  "abi": [
    {
      "inputs": [
        {
          "internalType": "contract Kernel",
          "name": "kernel_",
          "type": "address"
        },
        {
          "internalType": "contract IOperator",
          "name": "operator_",
          "type": "address"
        },
        {
          "internalType": "contract ERC20",
          "name": "rewardToken_",
          "type": "address"
        },
        {
          "internalType": "uint256",
          "name": "reward_",
          "type": "uint256"
        }
      ],
      "stateMutability": "nonpayable",
      "type": "constructor"
    },
    {
      "inputs": [],
      "name": "Heart_BeatStopped",
      "type": "error"
    },
    {
      "inputs": [],
      "name": "Heart_InvalidParams",
      "type": "error"
    },
    {
      "inputs": [],
      "name": "Heart_OutOfCycle",
      "type": "error"
    },
    {
      "inputs": [
        {
          "internalType": "address",
          "name": "caller_",
          "type": "address"
        }
      ],
      "name": "KernelAdapter_OnlyKernel",
      "type": "error"
    },
    {
      "inputs": [
        {
          "internalType": "Keycode",
          "name": "keycode_",
          "type": "bytes5"
        }
      ],
      "name": "Policy_ModuleDoesNotExist",
      "type": "error"
    },
    {
      "inputs": [
        {
          "internalType": "Role",
          "name": "role_",
          "type": "bytes32"
        }
      ],
      "name": "Policy_OnlyRole",
      "type": "error"
    },
    {
      "anonymous": false,
      "inputs": [
        {
          "indexed": false,
          "internalType": "uint256",
          "name": "timestamp_",
          "type": "uint256"
        }
      ],
      "name": "Beat",
      "type": "event"
    },
    {
      "anonymous": false,
      "inputs": [
        {
          "indexed": false,
          "internalType": "address",
          "name": "to_",
          "type": "address"
        },
        {
          "indexed": false,
          "internalType": "uint256",
          "name": "rewardAmount_",
          "type": "uint256"
        }
      ],
      "name": "RewardIssued",
      "type": "event"
    },
    {
      "anonymous": false,
      "inputs": [
        {
          "indexed": false,
          "internalType": "contract ERC20",
          "name": "token_",
          "type": "address"
        },
        {
          "indexed": false,
          "internalType": "uint256",
          "name": "rewardAmount_",
          "type": "uint256"
        }
      ],
      "name": "RewardUpdated",
      "type": "event"
    },
    {
      "inputs": [],
      "name": "active",
      "outputs": [
        {
          "internalType": "bool",
          "name": "",
          "type": "bool"
        }
      ],
      "stateMutability": "view",
      "type": "function"
    },
    {
      "inputs": [],
      "name": "beat",
      "outputs": [],
      "stateMutability": "nonpayable",
      "type": "function"
    },
    {
      "inputs": [
        {
          "internalType": "contract Kernel",
          "name": "newKernel_",
          "type": "address"
        }
      ],
      "name": "changeKernel",
      "outputs": [],
      "stateMutability": "nonpayable",
      "type": "function"
    },
    {
      "inputs": [],
      "name": "configureDependencies",
      "outputs": [
        {
          "internalType": "Keycode[]",
          "name": "dependencies",
          "type": "bytes5[]"
        }
      ],
      "stateMutability": "nonpayable",
      "type": "function"
    },
    {
      "inputs": [],
      "name": "frequency",
      "outputs": [
        {
          "internalType": "uint256",
          "name": "",
          "type": "uint256"
        }
      ],
      "stateMutability": "view",
      "type": "function"
    },
    {
      "inputs": [],
      "name": "isActive",
      "outputs": [
        {
          "internalType": "bool",
          "name": "",
          "type": "bool"
        }
      ],
      "stateMutability": "view",
      "type": "function"
    },
    {
      "inputs": [],
      "name": "kernel",
      "outputs": [
        {
          "internalType": "contract Kernel",
          "name": "",
          "type": "address"
        }
      ],
      "stateMutability": "view",
      "type": "function"
    },
    {
      "inputs": [],
      "name": "lastBeat",
      "outputs": [
        {
          "internalType": "uint256",
          "name": "",
          "type": "uint256"
        }
      ],
      "stateMutability": "view",
      "type": "function"
    },
    {
      "inputs": [],
      "name": "requestPermissions",
      "outputs": [
        {
          "components": [
            {
              "internalType": "Keycode",
              "name": "keycode",
              "type": "bytes5"
            },
            {
              "internalType": "bytes4",
              "name": "funcSelector",
              "type": "bytes4"
            }
          ],
          "internalType": "struct Permissions[]",
          "name": "permissions",
          "type": "tuple[]"
        }
      ],
      "stateMutability": "view",
      "type": "function"
    },
    {
      "inputs": [],
      "name": "resetBeat",
      "outputs": [],
      "stateMutability": "nonpayable",
      "type": "function"
    },
    {
      "inputs": [],
      "name": "reward",
      "outputs": [
        {
          "internalType": "uint256",
          "name": "",
          "type": "uint256"
        }
      ],
      "stateMutability": "view",
      "type": "function"
    },
    {
      "inputs": [],
      "name": "rewardToken",
      "outputs": [
        {
          "internalType": "contract ERC20",
          "name": "",
          "type": "address"
        }
      ],
      "stateMutability": "view",
      "type": "function"
    },
    {
      "inputs": [
        {
          "internalType": "bool",
          "name": "activate_",
          "type": "bool"
        }
      ],
      "name": "setActiveStatus",
      "outputs": [],
      "stateMutability": "nonpayable",
      "type": "function"
    },
    {
      "inputs": [
        {
          "internalType": "contract ERC20",
          "name": "token_",
          "type": "address"
        },
        {
          "internalType": "uint256",
          "name": "reward_",
          "type": "uint256"
        }
      ],
      "name": "setRewardTokenAndAmount",
      "outputs": [],
      "stateMutability": "nonpayable",
      "type": "function"
    },
    {
      "inputs": [],
      "name": "toggleBeat",
      "outputs": [],
      "stateMutability": "nonpayable",
      "type": "function"
    },
    {
      "inputs": [
        {
          "internalType": "contract ERC20",
          "name": "token_",
          "type": "address"
        }
      ],
      "name": "withdrawUnspentRewards",
      "outputs": [],
      "stateMutability": "nonpayable",
      "type": "function"
    }
  ],
  "bytecode": {
    "object": "0x60806040526001805534801561001457600080fd5b50604051611035380380611035833981016040819052610033916100a1565b600080546001600160a01b03199081166001600160a01b0396871617909155600780548216948616949094179093556002805460ff191660011790554260035560058054909316919093161790556004556100f4565b6001600160a01b038116811461009e57600080fd5b50565b600080600080608085870312156100b757600080fd5b84516100c281610089565b60208601519094506100d381610089565b60408601519093506100e481610089565b6060959095015193969295505050565b610f32806101036000396000f3fe608060405234801561001057600080fd5b50600436106101005760003560e01c80639459b87511610097578063ead50da311610066578063ead50da3146101fb578063ec7404b114610203578063ef68b87d14610216578063f7c618c11461021e57600080fd5b80639459b8751461019f5780639ab7d7e7146101b4578063d3a7b7d3146101c7578063d4aae0c4146101d057600080fd5b80635924be70116100d35780635924be7014610167578063633929901461017c5780636cf430b31461018f5780637a259dba1461019757600080fd5b806302fb0c5e14610105578063228cb7331461012757806322f3e2d41461013e5780634657b36c14610152575b600080fd5b6002546101129060ff1681565b60405190151581526020015b60405180910390f35b61013060045481565b60405190815260200161011e565b60005461011290600160a01b900460ff1681565b610165610160366004610c95565b610231565b005b61016f610285565b60405161011e9190610cb9565b61016561018a366004610d1c565b610373565b61016561047b565b610165610537565b6101a7610704565b60405161011e9190610d48565b6101656101c2366004610c95565b6107aa565b61013060035481565b6000546101e3906001600160a01b031681565b6040516001600160a01b03909116815260200161011e565b6101306108d4565b610165610211366004610da4565b61094e565b610165610999565b6005546101e3906001600160a01b031681565b6000546001600160a01b031633146102635760405163053e900f60e21b81523360048201526024015b60405180910390fd5b600080546001600160a01b0319166001600160a01b0392909216919091179055565b604080516001808252818301909252606091816020015b604080518082019091526000808252602082015281526020019060019003908161029c57505060408051808201808352600654630d73f61760e11b90915291519293509182916001600160a01b031690631ae7ec2e906044808501916020918187030181865afa158015610314573d6000803e3d6000fd5b505050506040513d601f19601f820116820180604052508101906103389190610dc1565b6001600160d81b031916815263086db7df60e41b6020909101528151829060009061036557610365610deb565b602002602001018190525090565b6a3432b0b93a2fb0b236b4b760a91b60008160005460405163ac4ab3fb60e01b8152336004820152602481018390529192506001600160a01b03169063ac4ab3fb90604401602060405180830381865afa1580156103d5573d6000803e3d6000fd5b505050506040513d601f19601f820116820180604052508101906103f99190610e01565b610419576040516371324ef360e11b81526004810182905260240161025a565b600580546001600160a01b0319166001600160a01b038616908117909155600484905560408051918252602082018590527f401ccfec4c6c7ac3f3b71182750d0f8d73c0d29cc476732b0b21ab0d359da47f910160405180910390a150505050565b6a3432b0b93a2fb0b236b4b760a91b60008160005460405163ac4ab3fb60e01b8152336004820152602481018390529192506001600160a01b03169063ac4ab3fb90604401602060405180830381865afa1580156104dd573d6000803e3d6000fd5b505050506040513d601f19601f820116820180604052508101906105019190610e01565b610521576040516371324ef360e11b81526004810182905260240161025a565b50506002805460ff19811660ff90911615179055565b6001546001146105765760405162461bcd60e51b815260206004820152600a6024820152695245454e5452414e435960b01b604482015260640161025a565b600260018190555460ff1661059e57604051630137efe360e71b815260040160405180910390fd5b6105a66108d4565b6003546105b39190610e34565b4210156105d35760405163461bbb8360e11b815260040160405180910390fd5b600660009054906101000a90046001600160a01b03166001600160a01b03166386db7df06040518163ffffffff1660e01b8152600401600060405180830381600087803b15801561062357600080fd5b505af1158015610637573d6000803e3d6000fd5b50505050600760009054906101000a90046001600160a01b03166001600160a01b0316637159a6186040518163ffffffff1660e01b8152600401600060405180830381600087803b15801561068b57600080fd5b505af115801561069f573d6000803e3d6000fd5b505050506106ab6108d4565b600360008282546106bc9190610e34565b909155506106cb905033610a58565b6040514281527fd5215e0661831421a9ebc79f9d2848dbfc61213cf6ae3c92b45e17ea50be19109060200160405180910390a160018055565b6040805160018082528183019092526060916020808301908036833701905050905064505249434560d81b8160008151811061074257610742610deb565b60200260200101906001600160d81b03191690816001600160d81b031916815250506107878160008151811061077a5761077a610deb565b6020026020010151610abe565b600680546001600160a01b0319166001600160a01b039290921691909117905590565b6a3432b0b93a2fb0b236b4b760a91b60008160005460405163ac4ab3fb60e01b8152336004820152602481018390529192506001600160a01b03169063ac4ab3fb90604401602060405180830381865afa15801561080c573d6000803e3d6000fd5b505050506040513d601f19601f820116820180604052508101906108309190610e01565b610850576040516371324ef360e11b81526004810182905260240161025a565b6040516370a0823160e01b81523060048201526108cf9033906001600160a01b038616906370a0823190602401602060405180830381865afa15801561089a573d6000803e3d6000fd5b505050506040513d601f19601f820116820180604052508101906108be9190610e4c565b6001600160a01b0386169190610b70565b505050565b60065460408051627321f160e81b815290516000926001600160a01b031691637321f1009160048083019260209291908290030181865afa15801561091d573d6000803e3d6000fd5b505050506040513d601f19601f820116820180604052508101906109419190610e65565b65ffffffffffff16905090565b6000546001600160a01b0316331461097b5760405163053e900f60e21b815233600482015260240161025a565b60008054911515600160a01b0260ff60a01b19909216919091179055565b6a3432b0b93a2fb0b236b4b760a91b60008160005460405163ac4ab3fb60e01b8152336004820152602481018390529192506001600160a01b03169063ac4ab3fb90604401602060405180830381865afa1580156109fb573d6000803e3d6000fd5b505050506040513d601f19601f82011682018060405250810190610a1f9190610e01565b610a3f576040516371324ef360e11b81526004810182905260240161025a565b610a476108d4565b610a519042610e8d565b6003555050565b600454600554610a75916001600160a01b03909116908390610b70565b600454604080516001600160a01b038416815260208101929092527ff9b6ec770c96c3a6f9225bf3a8463a8ad03e884448af07b4ecd4d19d628946ee910160405180910390a150565b60008054604051632d37002d60e21b81526001600160d81b03198416600482015282916001600160a01b03169063b4dc00b490602401602060405180830381865afa158015610b11573d6000803e3d6000fd5b505050506040513d601f19601f82011682018060405250810190610b359190610ea4565b90506001600160a01b038116610b6a57604051635c3fa9cd60e01b81526001600160d81b03198416600482015260240161025a565b92915050565b604080516001600160a01b038481166024830152604480830185905283518084039091018152606490920183526020820180516001600160e01b031663a9059cbb60e01b1790529151600092839290871691610bcc9190610ec1565b6000604051808303816000865af19150503d8060008114610c09576040519150601f19603f3d011682016040523d82523d6000602084013e610c0e565b606091505b5091509150818015610c38575080511580610c38575080806020019051810190610c389190610e01565b610c765760405162461bcd60e51b815260206004820152600f60248201526e1514905394d1915497d19052531151608a1b604482015260640161025a565b5050505050565b6001600160a01b0381168114610c9257600080fd5b50565b600060208284031215610ca757600080fd5b8135610cb281610c7d565b9392505050565b602080825282518282018190526000919060409081850190868401855b82811015610d0f57815180516001600160d81b03191685528601516001600160e01b031916868501529284019290850190600101610cd6565b5091979650505050505050565b60008060408385031215610d2f57600080fd5b8235610d3a81610c7d565b946020939093013593505050565b6020808252825182820181905260009190848201906040850190845b81811015610d8a5783516001600160d81b03191683529284019291840191600101610d64565b50909695505050505050565b8015158114610c9257600080fd5b600060208284031215610db657600080fd5b8135610cb281610d96565b600060208284031215610dd357600080fd5b81516001600160d81b031981168114610cb257600080fd5b634e487b7160e01b600052603260045260246000fd5b600060208284031215610e1357600080fd5b8151610cb281610d96565b634e487b7160e01b600052601160045260246000fd5b60008219821115610e4757610e47610e1e565b500190565b600060208284031215610e5e57600080fd5b5051919050565b600060208284031215610e7757600080fd5b815165ffffffffffff81168114610cb257600080fd5b600082821015610e9f57610e9f610e1e565b500390565b600060208284031215610eb657600080fd5b8151610cb281610c7d565b6000825160005b81811015610ee25760208186018101518583015201610ec8565b81811115610ef1576000828501525b50919091019291505056fea2646970667358221220fb6aa5d28181bd30324b54dd37ea6eec971c5ac4835b1381606c82bf0d13d4b964736f6c634300080f0033",
    "linkReferences": {}
  },
  "methodIdentifiers": {
    "active()": "02fb0c5e",
    "beat()": "7a259dba",
    "changeKernel(address)": "4657b36c",
    "configureDependencies()": "9459b875",
    "frequency()": "ead50da3",
    "isActive()": "22f3e2d4",
    "kernel()": "d4aae0c4",
    "lastBeat()": "d3a7b7d3",
    "requestPermissions()": "5924be70",
    "resetBeat()": "ef68b87d",
    "reward()": "228cb733",
    "rewardToken()": "f7c618c1",
    "setActiveStatus(bool)": "ec7404b1",
    "setRewardTokenAndAmount(address,uint256)": "63392990",
    "toggleBeat()": "6cf430b3",
    "withdrawUnspentRewards(address)": "9ab7d7e7"
  },
  "id": 29
}