{
  "abi": [
    {
      "inputs": [
        {
          "internalType": "contract Kernel",
          "name": "kernel_",
          "type": "address"
        },
        {
          "internalType": "contract IBondAggregator",
          "name": "aggregator_",
          "type": "address"
        },
        {
          "internalType": "contract ERC20",
          "name": "ohm_",
          "type": "address"
        }
      ],
      "stateMutability": "nonpayable",
      "type": "constructor"
    },
    {
      "inputs": [],
      "name": "Callback_InvalidParams",
      "type": "error"
    },
    {
      "inputs": [
        {
          "internalType": "uint256",
          "name": "id",
          "type": "uint256"
        }
      ],
      "name": "Callback_MarketNotSupported",
      "type": "error"
    },
    {
      "inputs": [],
      "name": "Callback_TokensNotReceived",
      "type": "error"
    },
    {
      "inputs": [
        {
          "internalType": "address",
          "name": "caller_",
          "type": "address"
        }
      ],
      "name": "KernelAdapter_OnlyKernel",
      "type": "error"
    },
    {
      "inputs": [
        {
          "internalType": "Keycode",
          "name": "keycode_",
          "type": "bytes5"
        }
      ],
      "name": "Policy_ModuleDoesNotExist",
      "type": "error"
    },
    {
      "inputs": [
        {
          "internalType": "Role",
          "name": "role_",
          "type": "bytes32"
        }
      ],
      "name": "Policy_OnlyRole",
      "type": "error"
    },
    {
      "inputs": [],
      "name": "MINTR",
      "outputs": [
        {
          "internalType": "contract OlympusMinter",
          "name": "",
          "type": "address"
        }
      ],
      "stateMutability": "view",
      "type": "function"
    },
    {
      "inputs": [],
      "name": "TRSRY",
      "outputs": [
        {
          "internalType": "contract OlympusTreasury",
          "name": "",
          "type": "address"
        }
      ],
      "stateMutability": "view",
      "type": "function"
    },
    {
      "inputs": [],
      "name": "aggregator",
      "outputs": [
        {
          "internalType": "contract IBondAggregator",
          "name": "",
          "type": "address"
        }
      ],
      "stateMutability": "view",
      "type": "function"
    },
    {
      "inputs": [
        {
          "internalType": "uint256",
          "name": "id_",
          "type": "uint256"
        }
      ],
      "name": "amountsForMarket",
      "outputs": [
        {
          "internalType": "uint256",
          "name": "in_",
          "type": "uint256"
        },
        {
          "internalType": "uint256",
          "name": "out_",
          "type": "uint256"
        }
      ],
      "stateMutability": "view",
      "type": "function"
    },
    {
      "inputs": [
        {
          "internalType": "address",
          "name": "",
          "type": "address"
        },
        {
          "internalType": "uint256",
          "name": "",
          "type": "uint256"
        }
      ],
      "name": "approvedMarkets",
      "outputs": [
        {
          "internalType": "bool",
          "name": "",
          "type": "bool"
        }
      ],
      "stateMutability": "view",
      "type": "function"
    },
    {
      "inputs": [
        {
          "internalType": "contract ERC20[]",
          "name": "tokens_",
          "type": "address[]"
        }
      ],
      "name": "batchToTreasury",
      "outputs": [],
      "stateMutability": "nonpayable",
      "type": "function"
    },
    {
      "inputs": [
        {
          "internalType": "uint256",
          "name": "id_",
          "type": "uint256"
        },
        {
          "internalType": "uint256",
          "name": "inputAmount_",
          "type": "uint256"
        },
        {
          "internalType": "uint256",
          "name": "outputAmount_",
          "type": "uint256"
        }
      ],
      "name": "callback",
      "outputs": [],
      "stateMutability": "nonpayable",
      "type": "function"
    },
    {
      "inputs": [
        {
          "internalType": "contract Kernel",
          "name": "newKernel_",
          "type": "address"
        }
      ],
      "name": "changeKernel",
      "outputs": [],
      "stateMutability": "nonpayable",
      "type": "function"
    },
    {
      "inputs": [],
      "name": "configureDependencies",
      "outputs": [
        {
          "internalType": "Keycode[]",
          "name": "dependencies",
          "type": "bytes5[]"
        }
      ],
      "stateMutability": "nonpayable",
      "type": "function"
    },
    {
      "inputs": [],
      "name": "isActive",
      "outputs": [
        {
          "internalType": "bool",
          "name": "",
          "type": "bool"
        }
      ],
      "stateMutability": "view",
      "type": "function"
    },
    {
      "inputs": [],
      "name": "kernel",
      "outputs": [
        {
          "internalType": "contract Kernel",
          "name": "",
          "type": "address"
        }
      ],
      "stateMutability": "view",
      "type": "function"
    },
    {
      "inputs": [],
      "name": "ohm",
      "outputs": [
        {
          "internalType": "contract ERC20",
          "name": "",
          "type": "address"
        }
      ],
      "stateMutability": "view",
      "type": "function"
    },
    {
      "inputs": [],
      "name": "operator",
      "outputs": [
        {
          "internalType": "contract Operator",
          "name": "",
          "type": "address"
        }
      ],
      "stateMutability": "view",
      "type": "function"
    },
    {
      "inputs": [
        {
          "internalType": "contract ERC20",
          "name": "",
          "type": "address"
        }
      ],
      "name": "priorBalances",
      "outputs": [
        {
          "internalType": "uint256",
          "name": "",
          "type": "uint256"
        }
      ],
      "stateMutability": "view",
      "type": "function"
    },
    {
      "inputs": [],
      "name": "requestPermissions",
      "outputs": [
        {
          "components": [
            {
              "internalType": "Keycode",
              "name": "keycode",
              "type": "bytes5"
            },
            {
              "internalType": "bytes4",
              "name": "funcSelector",
              "type": "bytes4"
            }
          ],
          "internalType": "struct Permissions[]",
          "name": "requests",
          "type": "tuple[]"
        }
      ],
      "stateMutability": "view",
      "type": "function"
    },
    {
      "inputs": [
        {
          "internalType": "bool",
          "name": "activate_",
          "type": "bool"
        }
      ],
      "name": "setActiveStatus",
      "outputs": [],
      "stateMutability": "nonpayable",
      "type": "function"
    },
    {
      "inputs": [
        {
          "internalType": "contract Operator",
          "name": "operator_",
          "type": "address"
        }
      ],
      "name": "setOperator",
      "outputs": [],
      "stateMutability": "nonpayable",
      "type": "function"
    },
    {
      "inputs": [
        {
          "internalType": "address",
          "name": "teller_",
          "type": "address"
        },
        {
          "internalType": "uint256",
          "name": "id_",
          "type": "uint256"
        }
      ],
      "name": "whitelist",
      "outputs": [],
      "stateMutability": "nonpayable",
      "type": "function"
    }
  ],
  "bytecode": {
    "object": "0x6080604052600180553480156200001557600080fd5b5060405162001ab638038062001ab6833981016040819052620000389162000094565b600080546001600160a01b039485166001600160a01b031991821617909155600580549385169382169390931790925560098054919093169116179055620000e8565b6001600160a01b03811681146200009157600080fd5b50565b600080600060608486031215620000aa57600080fd5b8351620000b7816200007b565b6020850151909350620000ca816200007b565b6040850151909250620000dd816200007b565b809150509250925092565b6119be80620000f86000396000f3fe608060405234801561001057600080fd5b50600436106101165760003560e01c8063650d6ed6116100a25780639459b875116100715780639459b8751461028f57806398fc55d8146102a4578063b3ab15fb146102b7578063d4aae0c4146102ca578063ec7404b1146102dd57600080fd5b8063650d6ed6146101f857806380cee4ab14610226578063853dc0da146102395780638aeb40fd1461026757600080fd5b80634657b36c116100e95780634657b36c146101975780634b9de77c146101aa578063570ca735146101bd578063577de7d0146101d05780635924be70146101e357600080fd5b806302b1d2391461011b57806309c2c8431461014b57806322f3e2d414610160578063245a7bfc14610184575b600080fd5b60095461012e906001600160a01b031681565b6040516001600160a01b0390911681526020015b60405180910390f35b61015e6101593660046115b7565b6102f0565b005b60005461017490600160a01b900460ff1681565b6040519015158152602001610142565b60055461012e906001600160a01b031681565b61015e6101a536600461167c565b6104e6565b61015e6101b83660046116a0565b610535565b60085461012e906001600160a01b031681565b60075461012e906001600160a01b031681565b6101eb610b1c565b60405161014291906116cc565b61021861020636600461167c565b60046020526000908152604090205481565b604051908152602001610142565b60065461012e906001600160a01b031681565b61017461024736600461172f565b600260209081526000928352604080842090915290825290205460ff1681565b61027a61027536600461175b565b610da8565b60408051928352602083019190915201610142565b610297610e0f565b6040516101429190611774565b61015e6102b236600461172f565b610f3a565b61015e6102c536600461167c565b61117d565b60005461012e906001600160a01b031681565b61015e6102eb3660046117d0565b611271565b6d31b0b6363130b1b5afb0b236b4b760911b60008160005460405163ac4ab3fb60e01b8152336004820152602481018390529192506001600160a01b03169063ac4ab3fb90604401602060405180830381865afa158015610355573d6000803e3d6000fd5b505050506040513d601f19601f8201168201806040525081019061037991906117ed565b61039e576040516371324ef360e11b8152600481018290526024015b60405180910390fd5b82516000908190815b818110156104dd578681815181106103c1576103c161180a565b60209081029190910101516040516370a0823160e01b81523060048201529094506001600160a01b038516906370a0823190602401602060405180830381865afa158015610413573d6000803e3d6000fd5b505050506040513d601f19601f820116820180604052508101906104379190611820565b600654909350610454906001600160a01b038681169116856112bc565b6040516370a0823160e01b81523060048201526001600160a01b038516906370a0823190602401602060405180830381865afa158015610498573d6000803e3d6000fd5b505050506040513d601f19601f820116820180604052508101906104bc9190611820565b6001600160a01b0385166000908152600460205260409020556001016103a7565b50505050505050565b6000546001600160a01b031633146105135760405163053e900f60e21b8152336004820152602401610395565b600080546001600160a01b0319166001600160a01b0392909216919091179055565b6001546001146105745760405162461bcd60e51b815260206004820152600a6024820152695245454e5452414e435960b01b6044820152606401610395565b6002600181905533600090815260209182526040808220868352909252205460ff166105b657604051632c60e16760e01b815260048101849052602401610395565b6005546040516329023ca160e11b81526004810185905260009182916001600160a01b0390911690635204794290602401602060405180830381865afa158015610604573d6000803e3d6000fd5b505050506040513d601f19601f820116820180604052508101906106289190611839565b6001600160a01b031663acc5570c866040518263ffffffff1660e01b815260040161065591815260200190565b60c060405180830381865afa158015610672573d6000803e3d6000fd5b505050506040513d601f19601f820116820180604052508101906106969190611856565b50506001600160a01b03811660009081526004602052604090205491955093506106c392508691506118f4565b6040516370a0823160e01b81523060048201526001600160a01b038316906370a0823190602401602060405180830381865afa158015610707573d6000803e3d6000fd5b505050506040513d601f19601f8201168201806040525081019061072b9190611820565b101561074a57604051638136384960e01b815260040160405180910390fd5b816001600160a01b0316816001600160a01b031614801561077857506009546001600160a01b038281169116145b15610809576000610789858561190c565b600754604051633a56e30760e01b8152306004820152602481018390529192506001600160a01b031690633a56e30790604401600060405180830381600087803b1580156107d657600080fd5b505af11580156107ea573d6000803e3d6000fd5b50610803925050506001600160a01b03841633866112bc565b5061095e565b6009546001600160a01b03908116908216036108f557600654604051632f42aef560e01b81523360048201526001600160a01b0384811660248301526044820186905290911690632f42aef590606401600060405180830381600087803b15801561087357600080fd5b505af1158015610887573d6000803e3d6000fd5b505060075460405163557856ad60e11b8152306004820152602481018890526001600160a01b03909116925063aaf0ad5a91506044015b600060405180830381600087803b1580156108d857600080fd5b505af11580156108ec573d6000803e3d6000fd5b5050505061095e565b6009546001600160a01b039081169083160361094257600754604051633a56e30760e01b8152336004820152602481018590526001600160a01b0390911690633a56e307906044016108be565b604051632c60e16760e01b815260048101869052602401610395565b6040516370a0823160e01b81523060048201526001600160a01b038216906370a0823190602401602060405180830381865afa1580156109a2573d6000803e3d6000fd5b505050506040513d601f19601f820116820180604052508101906109c69190611820565b6001600160a01b0382811660009081526004602081905260409182902093909355516370a0823160e01b815230928101929092528316906370a0823190602401602060405180830381865afa158015610a23573d6000803e3d6000fd5b505050506040513d601f19601f82011682018060405250810190610a479190611820565b6001600160a01b038316600090815260046020908152604080832093909355878252600390529081208054869290610a809084906118f4565b9091555050600085815260036020526040902083906001016000828254610aa791906118f4565b909155505060085460405163ab10477160e01b815260048101879052602481018590526001600160a01b039091169063ab10477190604401600060405180830381600087803b158015610af957600080fd5b505af1158015610b0d573d6000803e3d6000fd5b50506001805550505050505050565b6000546060906001600160a01b03163314610b4c5760405163053e900f60e21b8152336004820152602401610395565b60065460408051630d73f61760e11b815290516000926001600160a01b031691631ae7ec2e9160048083019260209291908290030181865afa158015610b96573d6000803e3d6000fd5b505050506040513d601f19601f82011682018060405250810190610bba9190611923565b90506000600760009054906101000a90046001600160a01b03166001600160a01b0316631ae7ec2e6040518163ffffffff1660e01b8152600401602060405180830381865afa158015610c11573d6000803e3d6000fd5b505050506040513d601f19601f82011682018060405250810190610c359190611923565b60408051600480825260a08201909252919250816020015b6040805180820190915260008082526020820152815260200190600190039081610c4d575050604080518082019091526001600160d81b03198416815263d1b5b47560e01b60208201528151919450908490600090610cae57610cae61180a565b60200260200101819052506040518060400160405280836001600160d81b0319168152602001632f42aef560e01b6001600160e01b03191681525083600181518110610cfc57610cfc61180a565b60200260200101819052506040518060400160405280826001600160d81b0319168152602001633a56e30760e01b6001600160e01b03191681525083600281518110610d4a57610d4a61180a565b60200260200101819052506040518060400160405280826001600160d81b031916815260200163aaf0ad5a60e01b6001600160e01b03191681525083600381518110610d9857610d9861180a565b6020026020010181905250505090565b600081815260036020526040808220815180830192839052839283929060029082845b815481526020019060010190808311610dcb575050505050905080600060028110610df857610df861180a565b602002015181600160200201519250925050915091565b604080516002808252606080830184529260208301908036833701905050905064545253525960d81b81600081518110610e4b57610e4b61180a565b6001600160d81b031990921660209283029190910190910152610e736426a4a72a2960d91b90565b81600181518110610e8657610e8661180a565b60200260200101906001600160d81b03191690816001600160d81b03191681525050610ecb81600081518110610ebe57610ebe61180a565b60200260200101516113c2565b600660006101000a8154816001600160a01b0302191690836001600160a01b03160217905550610f0781600181518110610ebe57610ebe61180a565b600780546001600160a01b0319166001600160a01b03928316908117909155600954610f37921690600019611474565b90565b7118d85b1b189858dad7ddda1a5d195b1a5cdd60721b60008160005460405163ac4ab3fb60e01b8152336004820152602481018390529192506001600160a01b03169063ac4ab3fb90604401602060405180830381865afa158015610fa3573d6000803e3d6000fd5b505050506040513d601f19601f82011682018060405250810190610fc791906117ed565b610fe7576040516371324ef360e11b815260048101829052602401610395565b6001600160a01b038481166000908152600260209081526040808320878452909152808220805460ff1916600117905560055490516329023ca160e11b81526004810187905291921690635204794290602401602060405180830381865afa158015611057573d6000803e3d6000fd5b505050506040513d601f19601f8201168201806040525081019061107b9190611839565b6001600160a01b031663acc5570c856040518263ffffffff1660e01b81526004016110a891815260200190565b60c060405180830381865afa1580156110c5573d6000803e3d6000fd5b505050506040513d601f19601f820116820180604052508101906110e99190611856565b5050600954919450506001600160a01b03808516911614915061117690505760065460405163d1b5b47560e01b81523060048201526001600160a01b03838116602483015260001960448301529091169063d1b5b47590606401600060405180830381600087803b15801561115d57600080fd5b505af1158015611171573d6000803e3d6000fd5b505050505b5050505050565b6d31b0b6363130b1b5afb0b236b4b760911b60008160005460405163ac4ab3fb60e01b8152336004820152602481018390529192506001600160a01b03169063ac4ab3fb90604401602060405180830381865afa1580156111e2573d6000803e3d6000fd5b505050506040513d601f19601f8201168201806040525081019061120691906117ed565b611226576040516371324ef360e11b815260048101829052602401610395565b6001600160a01b03831661124d576040516363d2088f60e11b815260040160405180910390fd5b5050600880546001600160a01b0319166001600160a01b0392909216919091179055565b6000546001600160a01b0316331461129e5760405163053e900f60e21b8152336004820152602401610395565b60008054911515600160a01b0260ff60a01b19909216919091179055565b604080516001600160a01b038481166024830152604480830185905283518084039091018152606490920183526020820180516001600160e01b031663a9059cbb60e01b1790529151600092839290871691611318919061194d565b6000604051808303816000865af19150503d8060008114611355576040519150601f19603f3d011682016040523d82523d6000602084013e61135a565b606091505b509150915081801561138457508051158061138457508080602001905181019061138491906117ed565b6111765760405162461bcd60e51b815260206004820152600f60248201526e1514905394d1915497d19052531151608a1b6044820152606401610395565b60008054604051632d37002d60e21b81526001600160d81b03198416600482015282916001600160a01b03169063b4dc00b490602401602060405180830381865afa158015611415573d6000803e3d6000fd5b505050506040513d601f19601f820116820180604052508101906114399190611839565b90506001600160a01b03811661146e57604051635c3fa9cd60e01b81526001600160d81b031984166004820152602401610395565b92915050565b604080516001600160a01b038481166024830152604480830185905283518084039091018152606490920183526020820180516001600160e01b031663095ea7b360e01b17905291516000928392908716916114d0919061194d565b6000604051808303816000865af19150503d806000811461150d576040519150601f19603f3d011682016040523d82523d6000602084013e611512565b606091505b509150915081801561153c57508051158061153c57508080602001905181019061153c91906117ed565b6111765760405162461bcd60e51b815260206004820152600e60248201526d1054141493d59157d1905253115160921b6044820152606401610395565b634e487b7160e01b600052604160045260246000fd5b6001600160a01b03811681146115a457600080fd5b50565b80356115b28161158f565b919050565b600060208083850312156115ca57600080fd5b823567ffffffffffffffff808211156115e257600080fd5b818501915085601f8301126115f657600080fd5b81358181111561160857611608611579565b8060051b604051601f19603f8301168101818110858211171561162d5761162d611579565b60405291825284820192508381018501918883111561164b57600080fd5b938501935b8285101561167057611661856115a7565b84529385019392850192611650565b98975050505050505050565b60006020828403121561168e57600080fd5b81356116998161158f565b9392505050565b6000806000606084860312156116b557600080fd5b505081359360208301359350604090920135919050565b602080825282518282018190526000919060409081850190868401855b8281101561172257815180516001600160d81b03191685528601516001600160e01b0319168685015292840192908501906001016116e9565b5091979650505050505050565b6000806040838503121561174257600080fd5b823561174d8161158f565b946020939093013593505050565b60006020828403121561176d57600080fd5b5035919050565b6020808252825182820181905260009190848201906040850190845b818110156117b65783516001600160d81b03191683529284019291840191600101611790565b50909695505050505050565b80151581146115a457600080fd5b6000602082840312156117e257600080fd5b8135611699816117c2565b6000602082840312156117ff57600080fd5b8151611699816117c2565b634e487b7160e01b600052603260045260246000fd5b60006020828403121561183257600080fd5b5051919050565b60006020828403121561184b57600080fd5b81516116998161158f565b60008060008060008060c0878903121561186f57600080fd5b865161187a8161158f565b602088015190965061188b8161158f565b604088015190955061189c8161158f565b60608801519094506118ad8161158f565b608088015190935065ffffffffffff811681146118c957600080fd5b8092505060a087015190509295509295509295565b634e487b7160e01b600052601160045260246000fd5b60008219821115611907576119076118de565b500190565b60008282101561191e5761191e6118de565b500390565b60006020828403121561193557600080fd5b81516001600160d81b03198116811461169957600080fd5b6000825160005b8181101561196e5760208186018101518583015201611954565b8181111561197d576000828501525b50919091019291505056fea2646970667358221220be8a06db5d1e5ffbecd42fc0ac6e806deb21bf393c87527308ba76d9e9d0707c64736f6c634300080f0033",
    "linkReferences": {}
  },
  "methodIdentifiers": {
    "MINTR()": "577de7d0",
    "TRSRY()": "80cee4ab",
    "aggregator()": "245a7bfc",
    "amountsForMarket(uint256)": "8aeb40fd",
    "approvedMarkets(address,uint256)": "853dc0da",
    "batchToTreasury(address[])": "09c2c843",
    "callback(uint256,uint256,uint256)": "4b9de77c",
    "changeKernel(address)": "4657b36c",
    "configureDependencies()": "9459b875",
    "isActive()": "22f3e2d4",
    "kernel()": "d4aae0c4",
    "ohm()": "02b1d239",
    "operator()": "570ca735",
    "priorBalances(address)": "650d6ed6",
    "requestPermissions()": "5924be70",
    "setActiveStatus(bool)": "ec7404b1",
    "setOperator(address)": "b3ab15fb",
    "whitelist(address,uint256)": "98fc55d8"
  },
  "id": 27
}