{
  "abi": [
    {
      "inputs": [
        {
          "internalType": "contract IBondTeller",
          "name": "teller_",
          "type": "address"
        },
        {
          "internalType": "contract IBondAggregator",
          "name": "aggregator_",
          "type": "address"
        },
        {
          "internalType": "address",
          "name": "guardian_",
          "type": "address"
        },
        {
          "internalType": "contract Authority",
          "name": "authority_",
          "type": "address"
        }
      ],
      "stateMutability": "nonpayable",
      "type": "constructor"
    },
    {
      "inputs": [],
      "name": "Auctioneer_AmountLessThanMinimum",
      "type": "error"
    },
    {
      "inputs": [],
      "name": "Auctioneer_BadExpiry",
      "type": "error"
    },
    {
      "inputs": [],
      "name": "Auctioneer_InitialPriceLessThanMin",
      "type": "error"
    },
    {
      "inputs": [],
      "name": "Auctioneer_InvalidCallback",
      "type": "error"
    },
    {
      "inputs": [],
      "name": "Auctioneer_InvalidParams",
      "type": "error"
    },
    {
      "inputs": [
        {
          "internalType": "uint256",
          "name": "conclusion_",
          "type": "uint256"
        }
      ],
      "name": "Auctioneer_MarketConcluded",
      "type": "error"
    },
    {
      "inputs": [],
      "name": "Auctioneer_MaxPayoutExceeded",
      "type": "error"
    },
    {
      "inputs": [],
      "name": "Auctioneer_NewMarketsNotAllowed",
      "type": "error"
    },
    {
      "inputs": [],
      "name": "Auctioneer_NotAuthorized",
      "type": "error"
    },
    {
      "inputs": [],
      "name": "Auctioneer_NotEnoughCapacity",
      "type": "error"
    },
    {
      "inputs": [],
      "name": "Auctioneer_OnlyMarketOwner",
      "type": "error"
    },
    {
      "anonymous": false,
      "inputs": [
        {
          "indexed": true,
          "internalType": "address",
          "name": "user",
          "type": "address"
        },
        {
          "indexed": true,
          "internalType": "contract Authority",
          "name": "newAuthority",
          "type": "address"
        }
      ],
      "name": "AuthorityUpdated",
      "type": "event"
    },
    {
      "anonymous": false,
      "inputs": [
        {
          "indexed": true,
          "internalType": "uint256",
          "name": "id",
          "type": "uint256"
        }
      ],
      "name": "MarketClosed",
      "type": "event"
    },
    {
      "anonymous": false,
      "inputs": [
        {
          "indexed": true,
          "internalType": "uint256",
          "name": "id",
          "type": "uint256"
        },
        {
          "indexed": true,
          "internalType": "address",
          "name": "payoutToken",
          "type": "address"
        },
        {
          "indexed": true,
          "internalType": "address",
          "name": "quoteToken",
          "type": "address"
        },
        {
          "indexed": false,
          "internalType": "uint48",
          "name": "vesting",
          "type": "uint48"
        },
        {
          "indexed": false,
          "internalType": "uint256",
          "name": "initialPrice",
          "type": "uint256"
        }
      ],
      "name": "MarketCreated",
      "type": "event"
    },
    {
      "anonymous": false,
      "inputs": [
        {
          "indexed": true,
          "internalType": "address",
          "name": "user",
          "type": "address"
        },
        {
          "indexed": true,
          "internalType": "address",
          "name": "newOwner",
          "type": "address"
        }
      ],
      "name": "OwnerUpdated",
      "type": "event"
    },
    {
      "anonymous": false,
      "inputs": [
        {
          "indexed": true,
          "internalType": "uint256",
          "name": "id",
          "type": "uint256"
        },
        {
          "indexed": false,
          "internalType": "uint256",
          "name": "oldControlVariable",
          "type": "uint256"
        },
        {
          "indexed": false,
          "internalType": "uint256",
          "name": "newControlVariable",
          "type": "uint256"
        }
      ],
      "name": "Tuned",
      "type": "event"
    },
    {
      "inputs": [
        {
          "internalType": "uint256",
          "name": "",
          "type": "uint256"
        }
      ],
      "name": "adjustments",
      "outputs": [
        {
          "internalType": "uint256",
          "name": "change",
          "type": "uint256"
        },
        {
          "internalType": "uint48",
          "name": "lastAdjustment",
          "type": "uint48"
        },
        {
          "internalType": "uint48",
          "name": "timeToAdjusted",
          "type": "uint48"
        },
        {
          "internalType": "bool",
          "name": "active",
          "type": "bool"
        }
      ],
      "stateMutability": "view",
      "type": "function"
    },
    {
      "inputs": [],
      "name": "allowNewMarkets",
      "outputs": [
        {
          "internalType": "bool",
          "name": "",
          "type": "bool"
        }
      ],
      "stateMutability": "view",
      "type": "function"
    },
    {
      "inputs": [],
      "name": "authority",
      "outputs": [
        {
          "internalType": "contract Authority",
          "name": "",
          "type": "address"
        }
      ],
      "stateMutability": "view",
      "type": "function"
    },
    {
      "inputs": [
        {
          "internalType": "address",
          "name": "",
          "type": "address"
        }
      ],
      "name": "callbackAuthorized",
      "outputs": [
        {
          "internalType": "bool",
          "name": "",
          "type": "bool"
        }
      ],
      "stateMutability": "view",
      "type": "function"
    },
    {
      "inputs": [
        {
          "internalType": "uint256",
          "name": "id_",
          "type": "uint256"
        }
      ],
      "name": "closeMarket",
      "outputs": [],
      "stateMutability": "nonpayable",
      "type": "function"
    },
    {
      "inputs": [
        {
          "components": [
            {
              "internalType": "contract ERC20",
              "name": "payoutToken",
              "type": "address"
            },
            {
              "internalType": "contract ERC20",
              "name": "quoteToken",
              "type": "address"
            },
            {
              "internalType": "address",
              "name": "callbackAddr",
              "type": "address"
            },
            {
              "internalType": "bool",
              "name": "capacityInQuote",
              "type": "bool"
            },
            {
              "internalType": "uint256",
              "name": "capacity",
              "type": "uint256"
            },
            {
              "internalType": "uint256",
              "name": "formattedInitialPrice",
              "type": "uint256"
            },
            {
              "internalType": "uint256",
              "name": "formattedMinimumPrice",
              "type": "uint256"
            },
            {
              "internalType": "uint32",
              "name": "debtBuffer",
              "type": "uint32"
            },
            {
              "internalType": "uint48",
              "name": "vesting",
              "type": "uint48"
            },
            {
              "internalType": "uint48",
              "name": "conclusion",
              "type": "uint48"
            },
            {
              "internalType": "uint32",
              "name": "depositInterval",
              "type": "uint32"
            },
            {
              "internalType": "int8",
              "name": "scaleAdjustment",
              "type": "int8"
            }
          ],
          "internalType": "struct IBondAuctioneer.MarketParams",
          "name": "params_",
          "type": "tuple"
        }
      ],
      "name": "createMarket",
      "outputs": [
        {
          "internalType": "uint256",
          "name": "",
          "type": "uint256"
        }
      ],
      "stateMutability": "nonpayable",
      "type": "function"
    },
    {
      "inputs": [
        {
          "internalType": "uint256",
          "name": "id_",
          "type": "uint256"
        }
      ],
      "name": "currentCapacity",
      "outputs": [
        {
          "internalType": "uint256",
          "name": "",
          "type": "uint256"
        }
      ],
      "stateMutability": "view",
      "type": "function"
    },
    {
      "inputs": [
        {
          "internalType": "uint256",
          "name": "id_",
          "type": "uint256"
        }
      ],
      "name": "currentControlVariable",
      "outputs": [
        {
          "internalType": "uint256",
          "name": "",
          "type": "uint256"
        }
      ],
      "stateMutability": "view",
      "type": "function"
    },
    {
      "inputs": [
        {
          "internalType": "uint256",
          "name": "id_",
          "type": "uint256"
        }
      ],
      "name": "currentDebt",
      "outputs": [
        {
          "internalType": "uint256",
          "name": "",
          "type": "uint256"
        }
      ],
      "stateMutability": "view",
      "type": "function"
    },
    {
      "inputs": [],
      "name": "defaultTuneAdjustment",
      "outputs": [
        {
          "internalType": "uint32",
          "name": "",
          "type": "uint32"
        }
      ],
      "stateMutability": "view",
      "type": "function"
    },
    {
      "inputs": [],
      "name": "defaultTuneInterval",
      "outputs": [
        {
          "internalType": "uint32",
          "name": "",
          "type": "uint32"
        }
      ],
      "stateMutability": "view",
      "type": "function"
    },
    {
      "inputs": [],
      "name": "getAggregator",
      "outputs": [
        {
          "internalType": "contract IBondAggregator",
          "name": "",
          "type": "address"
        }
      ],
      "stateMutability": "view",
      "type": "function"
    },
    {
      "inputs": [
        {
          "internalType": "uint256",
          "name": "id_",
          "type": "uint256"
        }
      ],
      "name": "getMarketInfoForPurchase",
      "outputs": [
        {
          "internalType": "address",
          "name": "owner",
          "type": "address"
        },
        {
          "internalType": "address",
          "name": "callbackAddr",
          "type": "address"
        },
        {
          "internalType": "contract ERC20",
          "name": "payoutToken",
          "type": "address"
        },
        {
          "internalType": "contract ERC20",
          "name": "quoteToken",
          "type": "address"
        },
        {
          "internalType": "uint48",
          "name": "vesting",
          "type": "uint48"
        },
        {
          "internalType": "uint256",
          "name": "maxPayout",
          "type": "uint256"
        }
      ],
      "stateMutability": "view",
      "type": "function"
    },
    {
      "inputs": [],
      "name": "getTeller",
      "outputs": [
        {
          "internalType": "contract IBondTeller",
          "name": "",
          "type": "address"
        }
      ],
      "stateMutability": "view",
      "type": "function"
    },
    {
      "inputs": [
        {
          "internalType": "uint256",
          "name": "id_",
          "type": "uint256"
        }
      ],
      "name": "isInstantSwap",
      "outputs": [
        {
          "internalType": "bool",
          "name": "",
          "type": "bool"
        }
      ],
      "stateMutability": "view",
      "type": "function"
    },
    {
      "inputs": [
        {
          "internalType": "uint256",
          "name": "id_",
          "type": "uint256"
        }
      ],
      "name": "isLive",
      "outputs": [
        {
          "internalType": "bool",
          "name": "",
          "type": "bool"
        }
      ],
      "stateMutability": "view",
      "type": "function"
    },
    {
      "inputs": [
        {
          "internalType": "uint256",
          "name": "id_",
          "type": "uint256"
        }
      ],
      "name": "marketPrice",
      "outputs": [
        {
          "internalType": "uint256",
          "name": "",
          "type": "uint256"
        }
      ],
      "stateMutability": "view",
      "type": "function"
    },
    {
      "inputs": [
        {
          "internalType": "uint256",
          "name": "",
          "type": "uint256"
        }
      ],
      "name": "markets",
      "outputs": [
        {
          "internalType": "address",
          "name": "owner",
          "type": "address"
        },
        {
          "internalType": "contract ERC20",
          "name": "payoutToken",
          "type": "address"
        },
        {
          "internalType": "contract ERC20",
          "name": "quoteToken",
          "type": "address"
        },
        {
          "internalType": "address",
          "name": "callbackAddr",
          "type": "address"
        },
        {
          "internalType": "bool",
          "name": "capacityInQuote",
          "type": "bool"
        },
        {
          "internalType": "uint256",
          "name": "capacity",
          "type": "uint256"
        },
        {
          "internalType": "uint256",
          "name": "totalDebt",
          "type": "uint256"
        },
        {
          "internalType": "uint256",
          "name": "minPrice",
          "type": "uint256"
        },
        {
          "internalType": "uint256",
          "name": "maxPayout",
          "type": "uint256"
        },
        {
          "internalType": "uint256",
          "name": "sold",
          "type": "uint256"
        },
        {
          "internalType": "uint256",
          "name": "purchased",
          "type": "uint256"
        },
        {
          "internalType": "uint256",
          "name": "scale",
          "type": "uint256"
        }
      ],
      "stateMutability": "view",
      "type": "function"
    },
    {
      "inputs": [
        {
          "internalType": "uint256",
          "name": "id_",
          "type": "uint256"
        },
        {
          "internalType": "address",
          "name": "referrer_",
          "type": "address"
        }
      ],
      "name": "maxAmountAccepted",
      "outputs": [
        {
          "internalType": "uint256",
          "name": "",
          "type": "uint256"
        }
      ],
      "stateMutability": "view",
      "type": "function"
    },
    {
      "inputs": [
        {
          "internalType": "uint256",
          "name": "",
          "type": "uint256"
        }
      ],
      "name": "metadata",
      "outputs": [
        {
          "internalType": "uint48",
          "name": "lastTune",
          "type": "uint48"
        },
        {
          "internalType": "uint48",
          "name": "lastDecay",
          "type": "uint48"
        },
        {
          "internalType": "uint32",
          "name": "length",
          "type": "uint32"
        },
        {
          "internalType": "uint32",
          "name": "depositInterval",
          "type": "uint32"
        },
        {
          "internalType": "uint32",
          "name": "tuneInterval",
          "type": "uint32"
        },
        {
          "internalType": "uint32",
          "name": "tuneAdjustmentDelay",
          "type": "uint32"
        },
        {
          "internalType": "uint32",
          "name": "debtDecayInterval",
          "type": "uint32"
        },
        {
          "internalType": "uint256",
          "name": "tuneIntervalCapacity",
          "type": "uint256"
        },
        {
          "internalType": "uint256",
          "name": "tuneBelowCapacity",
          "type": "uint256"
        },
        {
          "internalType": "uint256",
          "name": "lastTuneDebt",
          "type": "uint256"
        }
      ],
      "stateMutability": "view",
      "type": "function"
    },
    {
      "inputs": [],
      "name": "minDebtBuffer",
      "outputs": [
        {
          "internalType": "uint32",
          "name": "",
          "type": "uint32"
        }
      ],
      "stateMutability": "view",
      "type": "function"
    },
    {
      "inputs": [],
      "name": "minDebtDecayInterval",
      "outputs": [
        {
          "internalType": "uint32",
          "name": "",
          "type": "uint32"
        }
      ],
      "stateMutability": "view",
      "type": "function"
    },
    {
      "inputs": [],
      "name": "minDepositInterval",
      "outputs": [
        {
          "internalType": "uint32",
          "name": "",
          "type": "uint32"
        }
      ],
      "stateMutability": "view",
      "type": "function"
    },
    {
      "inputs": [],
      "name": "minMarketDuration",
      "outputs": [
        {
          "internalType": "uint32",
          "name": "",
          "type": "uint32"
        }
      ],
      "stateMutability": "view",
      "type": "function"
    },
    {
      "inputs": [
        {
          "internalType": "uint256",
          "name": "",
          "type": "uint256"
        }
      ],
      "name": "newOwners",
      "outputs": [
        {
          "internalType": "address",
          "name": "",
          "type": "address"
        }
      ],
      "stateMutability": "view",
      "type": "function"
    },
    {
      "inputs": [],
      "name": "owner",
      "outputs": [
        {
          "internalType": "address",
          "name": "",
          "type": "address"
        }
      ],
      "stateMutability": "view",
      "type": "function"
    },
    {
      "inputs": [
        {
          "internalType": "uint256",
          "name": "id_",
          "type": "uint256"
        }
      ],
      "name": "ownerOf",
      "outputs": [
        {
          "internalType": "address",
          "name": "",
          "type": "address"
        }
      ],
      "stateMutability": "view",
      "type": "function"
    },
    {
      "inputs": [
        {
          "internalType": "uint256",
          "name": "amount_",
          "type": "uint256"
        },
        {
          "internalType": "uint256",
          "name": "id_",
          "type": "uint256"
        },
        {
          "internalType": "address",
          "name": "referrer_",
          "type": "address"
        }
      ],
      "name": "payoutFor",
      "outputs": [
        {
          "internalType": "uint256",
          "name": "",
          "type": "uint256"
        }
      ],
      "stateMutability": "view",
      "type": "function"
    },
    {
      "inputs": [
        {
          "internalType": "uint256",
          "name": "id_",
          "type": "uint256"
        }
      ],
      "name": "pullOwnership",
      "outputs": [],
      "stateMutability": "nonpayable",
      "type": "function"
    },
    {
      "inputs": [
        {
          "internalType": "uint256",
          "name": "id_",
          "type": "uint256"
        },
        {
          "internalType": "uint256",
          "name": "amount_",
          "type": "uint256"
        },
        {
          "internalType": "uint256",
          "name": "minAmountOut_",
          "type": "uint256"
        }
      ],
      "name": "purchaseBond",
      "outputs": [
        {
          "internalType": "uint256",
          "name": "payout",
          "type": "uint256"
        }
      ],
      "stateMutability": "nonpayable",
      "type": "function"
    },
    {
      "inputs": [
        {
          "internalType": "uint256",
          "name": "id_",
          "type": "uint256"
        },
        {
          "internalType": "address",
          "name": "newOwner_",
          "type": "address"
        }
      ],
      "name": "pushOwnership",
      "outputs": [],
      "stateMutability": "nonpayable",
      "type": "function"
    },
    {
      "inputs": [
        {
          "internalType": "bool",
          "name": "status_",
          "type": "bool"
        }
      ],
      "name": "setAllowNewMarkets",
      "outputs": [],
      "stateMutability": "nonpayable",
      "type": "function"
    },
    {
      "inputs": [
        {
          "internalType": "contract Authority",
          "name": "newAuthority",
          "type": "address"
        }
      ],
      "name": "setAuthority",
      "outputs": [],
      "stateMutability": "nonpayable",
      "type": "function"
    },
    {
      "inputs": [
        {
          "internalType": "address",
          "name": "creator_",
          "type": "address"
        },
        {
          "internalType": "bool",
          "name": "status_",
          "type": "bool"
        }
      ],
      "name": "setCallbackAuthStatus",
      "outputs": [],
      "stateMutability": "nonpayable",
      "type": "function"
    },
    {
      "inputs": [
        {
          "internalType": "uint32[6]",
          "name": "defaults_",
          "type": "uint32[6]"
        }
      ],
      "name": "setDefaults",
      "outputs": [],
      "stateMutability": "nonpayable",
      "type": "function"
    },
    {
      "inputs": [
        {
          "internalType": "uint256",
          "name": "id_",
          "type": "uint256"
        },
        {
          "internalType": "uint32[3]",
          "name": "intervals_",
          "type": "uint32[3]"
        }
      ],
      "name": "setIntervals",
      "outputs": [],
      "stateMutability": "nonpayable",
      "type": "function"
    },
    {
      "inputs": [
        {
          "internalType": "address",
          "name": "newOwner",
          "type": "address"
        }
      ],
      "name": "setOwner",
      "outputs": [],
      "stateMutability": "nonpayable",
      "type": "function"
    },
    {
      "inputs": [
        {
          "internalType": "uint256",
          "name": "",
          "type": "uint256"
        }
      ],
      "name": "terms",
      "outputs": [
        {
          "internalType": "uint256",
          "name": "controlVariable",
          "type": "uint256"
        },
        {
          "internalType": "uint256",
          "name": "maxDebt",
          "type": "uint256"
        },
        {
          "internalType": "uint48",
          "name": "vesting",
          "type": "uint48"
        },
        {
          "internalType": "uint48",
          "name": "conclusion",
          "type": "uint48"
        }
      ],
      "stateMutability": "view",
      "type": "function"
    }
  ],
  "bytecode": {
    "object": "0x60c06040523480156200001157600080fd5b50604051620035713803806200357183398101604081905262000034916200013d565b600080546001600160a01b03199081166001600160a01b0385811691821784556001805490931690851617909155604051869286928692869284928492909133917f8292fce18fa69edf4db7b94ea2e58241df0ae57f97e0a6c9b29067028bf92d769190a36040516001600160a01b0382169033907fa3396fd7f6e0a21b50e5089d2da70d5ac0a3bbbd1f617a93f134b7638998019890600090a3505050506001600160a01b039081166080521660a0525050600980546001600160c01b0319167527100001518000000e100003f48000000e100001518017905550506007805460ff19166001179055620001a5565b6001600160a01b03811681146200013a57600080fd5b50565b600080600080608085870312156200015457600080fd5b8451620001618162000124565b6020860151909450620001748162000124565b6040860151909350620001878162000124565b60608601519092506200019a8162000124565b939692955090935050565b60805160a05161338a620001e76000396000818161042d015281816111d20152818161140001526114a60152600081816102e00152611a50015261338a6000f3fe608060405234801561001057600080fd5b50600436106102325760003560e01c8063ae41809511610130578063bf7e214f116100b8578063d9ccdc931161007c578063d9ccdc9314610821578063e007fa9714610831578063e3684e3914610844578063e92206731461092a578063ea0aca331461094157600080fd5b8063bf7e214f1461075d578063c0aa0e8a14610770578063c7bf8ca0146107e0578063d2040687146107f3578063d2bee3231461080a57600080fd5b8063bc3b2b12116100ff578063bc3b2b1214610699578063bcb2966714610711578063bcf6cde814610724578063bd1f3a5e14610737578063bf48582b1461074a57600080fd5b8063ae41809514610580578063afa9d3b014610593578063b1283e77146105a0578063bbbdd95a1461068657600080fd5b80635f77274e116101be5780638973082c116101825780638973082c146103d95780638b098db3146104055780638da5cb5b146104185780639787d1071461042b578063acc5570c1461045157600080fd5b80635f77274e1461034e5780636352211e146103615780636729a41e1461038a578063699e17d9146103b35780637a9e5e4b146103c657600080fd5b8063275074581161020557806327507458146102a8578063380b5bb1146102cb5780633ad59dbc146102de5780633adec5a7146103185780635dc4d16b1461032b57600080fd5b80630a9d85eb1461023757806310b053171461025d57806313af4035146102725780631c063a6c14610285575b600080fd5b61024a610245366004612e30565b610959565b6040519081526020015b60405180910390f35b61027061026b366004612e30565b61098b565b005b610270610280366004612e6e565b6109fb565b61024a610293366004612e30565b60009081526002602052604090206004015490565b6102bb6102b6366004612e30565b610a81565b6040519015158152602001610254565b61024a6102d9366004612f29565b610ac7565b7f00000000000000000000000000000000000000000000000000000000000000005b6040516001600160a01b039091168152602001610254565b61024a610326366004612e30565b610ad2565b6102bb610339366004612e6e565b60086020526000908152604090205460ff1681565b61027061035c366004613000565b610b35565b61030061036f366004612e30565b6000908152600260205260409020546001600160a01b031690565b610300610398366004612e30565b6006602052600090815260409020546001600160a01b031681565b6102706103c136600461301d565b610b7a565b6102706103d4366004612e6e565b610e82565b6009546103f090600160a01b900463ffffffff1681565b60405163ffffffff9091168152602001610254565b6102bb610413366004612e30565b610f6c565b600054610300906001600160a01b031681565b7f0000000000000000000000000000000000000000000000000000000000000000610300565b61053761045f366004612e30565b600081815260026020818152604080842081516101808101835281546001600160a01b039081168083526001840154821683870181905284880154831684870181905260038087015494851660608701819052600160a01b90950460ff1615156080870152600487015460a0870152600587015460c0870152600687015460e08701526007870154610100870190815260088801546101208801526009880154610140880152600a90970154610160909601959095529989529290955292909520909301549251919590949265ffffffffffff169190565b604080516001600160a01b0397881681529587166020870152938616938501939093529316606083015265ffffffffffff909216608082015260a081019190915260c001610254565b61027061058e366004612e30565b610fa2565b6007546102bb9060ff1681565b6106196105ae366004612e30565b600260208190526000918252604090912080546001820154928201546003830154600484015460058501546006860154600787015460088801546009890154600a909901546001600160a01b039889169a89169997891698871697600160a01b90970460ff1696908c565b604080516001600160a01b039d8e1681529b8d1660208d0152998c16998b0199909952999096166060890152931515608088015260a087019290925260c086015260e085015261010084015261012083015261014082019290925261016081019190915261018001610254565b610270610694366004613050565b610fe5565b6106e06106a7366004612e30565b6005602052600090815260409020805460019091015465ffffffffffff80821691600160301b810490911690600160601b900460ff1684565b604051610254949392919093845265ffffffffffff9283166020850152911660408301521515606082015260800190565b61024a61071f366004612e30565b611042565b610270610732366004613089565b611069565b6102706107453660046130ae565b6110ce565b61024a610758366004613133565b6111aa565b600154610300906001600160a01b031681565b6107b261077e366004612e30565b60036020526000908152604090208054600182015460029092015490919065ffffffffffff80821691600160301b90041684565b60408051948552602085019390935265ffffffffffff91821692840192909252166060820152608001610254565b61024a6107ee366004613089565b6112bd565b6009546103f090600160601b900463ffffffff1681565b6009546103f090600160801b900463ffffffff1681565b6009546103f09063ffffffff1681565b61024a61083f36600461316c565b611499565b6108c4610852366004612e30565b600460205260009081526040902080546001820154600283015460039093015465ffffffffffff80841694600160301b85049091169363ffffffff600160601b8204811694600160801b8304821694600160a01b8404831694600160c01b8504841694600160e01b900490931692908a565b6040805165ffffffffffff9b8c1681529a90991660208b015263ffffffff978816988a01989098529486166060890152928516608088015290841660a08701529290921660c085015260e084019190915261010083015261012082015261014001610254565b6009546103f090600160401b900463ffffffff1681565b6009546103f090640100000000900463ffffffff1681565b60008061096583611680565b50506000848152600360205260409020549091506109849082906131ae565b9392505050565b6000818152600660205260409020546001600160a01b031633146109c257604051631623b81960e11b815260040160405180910390fd5b600090815260066020908152604080832054600290925290912080546001600160a01b0319166001600160a01b03909216919091179055565b610a11336000356001600160e01b03191661174f565b610a365760405162461bcd60e51b8152600401610a2d906131c5565b60405180910390fd5b600080546001600160a01b0319166001600160a01b0383169081178255604051909133917f8292fce18fa69edf4db7b94ea2e58241df0ae57f97e0a6c9b29067028bf92d769190a350565b60008181526002602052604081206004015415801590610ac1575060008281526003602052604090206002015442600160301b90910465ffffffffffff16115b92915050565b6000610ac1826117f9565b600080610b03610ae184611042565b6000858152600260205260409020600a0154610afc86610959565b91906121ee565b6000848152600260205260409020600601549091508111610ac157600083815260026020526040902060060154610984565b610b4b336000356001600160e01b03191661174f565b610b675760405162461bcd60e51b8152600401610a2d906131c5565b6007805460ff1916911515919091179055565b610b8760208201826131eb565b63ffffffff161580610bac5750610ba460408201602083016131eb565b63ffffffff16155b80610bca5750610bc260608201604083016131eb565b63ffffffff16155b15610be857604051633b596f5f60e01b815260040160405180910390fd5b610bf860408201602083016131eb565b63ffffffff16610c0b60208301836131eb565b63ffffffff161015610c3057604051633b596f5f60e01b815260040160405180910390fd5b600082815260046020908152604090912080549091600160801b90910463ffffffff1690610c60908401846131eb565b63ffffffff161015610c8557604051633b596f5f60e01b815260040160405180910390fd5b600954600160401b900463ffffffff16610ca560608401604085016131eb565b63ffffffff161015610cca57604051633b596f5f60e01b815260040160405180910390fd5b60008381526002602081815260409283902083516101808101855281546001600160a01b0390811680835260018401548216948301949094529382015484169481019490945260038101549283166060850152600160a01b90920460ff1615156080840152600482015460a0840152600582015460c0840152600682015460e0840152600782015461010084015260088201546101208401526009820154610140840152600a909101546101608301523314610d9957604051634e1c8b5d60e01b815260040160405180910390fd5b610da660208401846131eb565b825463ffffffff91909116600160a01b0263ffffffff60a01b19909116178255610e18610dd660208501856131eb565b60008681526003602052604090206002015463ffffffff9190911690610e0c904290600160301b900465ffffffffffff166131ae565b60a084015191906121ee565b6001830155610e2d60408401602085016131eb565b825463ffffffff91909116600160c01b0263ffffffff60c01b19909116178255610e5d60608401604085016131eb565b825463ffffffff91909116600160e01b026001600160e01b0390911617909155505050565b6000546001600160a01b0316331480610f17575060015460405163b700961360e01b81526001600160a01b039091169063b700961390610ed690339030906001600160e01b03196000351690600401613206565b602060405180830381865afa158015610ef3573d6000803e3d6000fd5b505050506040513d601f19601f82011682018060405250810190610f179190613233565b610f2057600080fd5b600180546001600160a01b0319166001600160a01b03831690811790915560405133907fa3396fd7f6e0a21b50e5089d2da70d5ac0a3bbbd1f617a93f134b7638998019890600090a350565b60008181526003602052604081206002015465ffffffffffff16635dba2400811115610f9b5742811115610984565b1592915050565b6000818152600260205260409020546001600160a01b03163314610fd957604051634e1c8b5d60e01b815260040160405180910390fd5b610fe28161229c565b50565b610ffb336000356001600160e01b03191661174f565b6110175760405162461bcd60e51b8152600401610a2d906131c5565b6001600160a01b03919091166000908152600860205260409020805460ff1916911515919091179055565b600061104d8261230a565b600083815260026020526040902060050154610ac191906131ae565b6000828152600260205260409020546001600160a01b031633146110a057604051634e1c8b5d60e01b815260040160405180910390fd5b60009182526006602052604090912080546001600160a01b0319166001600160a01b03909216919091179055565b6110e4336000356001600160e01b03191661174f565b6111005760405162461bcd60e51b8152600401610a2d906131c5565b805160098054602084015160408501516060860151608087015160a09097015163ffffffff908116600160a01b02918116600160601b029381166401000000000296811667ffffffffffffffff1990951694909417959095176fffffffffffffffff00000000000000001916908316600160401b0263ffffffff60601b1916171767ffffffffffffffff60801b19169316600160801b0263ffffffff60a01b191692909217179055565b604051631711922960e31b81526001600160a01b0382811660048301526000918291611252917f00000000000000000000000000000000000000000000000000000000000000009091169063b88c914890602401602060405180830381865afa15801561121b573d6000803e3d6000fd5b505050506040513d601f19601f8201168201806040525081019061123f9190613250565b869065ffffffffffff16620186a06121ee565b6000858152600260205260408120600a01549192509061127f9061127587610ad2565b610afc858a6131ae565b6000868152600260205260409020600701549091508111156112b457604051632e21875760e11b815260040160405180910390fd5b91506109849050565b600082815260026020818152604080842081516101808101835281546001600160a01b03908116825260018301548116948201949094529381015483169184019190915260038101549182166060840152600160a01b90910460ff1615156080830152600481015460a0830152600581015460c0830152600681015460e0830152600781015461010083015260088101546101208301526009810154610140830152600a01546101608201528161137385610ad2565b90506000826080015161139b5761016083015160a08401516113969184906121ee565b6113a1565b8260a001515b905060006113c4838561016001518661010001516121ee9092919063ffffffff16565b905060008183106113d557816113d7565b825b604051631711922960e31b81526001600160a01b038981166004830152919250600091611480917f00000000000000000000000000000000000000000000000000000000000000009091169063b88c914890602401602060405180830381865afa158015611449573d6000803e3d6000fd5b505050506040513d601f19601f8201168201806040525081019061146d9190613250565b839065ffffffffffff16620186a06121ee565b905061148c818361326d565b9998505050505050505050565b6000336001600160a01b037f000000000000000000000000000000000000000000000000000000000000000016146114e457604051631623b81960e11b815260040160405180910390fd5b600084815260026020818152604080842060038352938190208151608081018352815481526001820154938101939093529092015465ffffffffffff80821693830193909352600160301b9004821660608201819052909142919082161061156e576060820151604051627fc4a760e41b815265ffffffffffff9091166004820152602401610a2d565b600061157b888842612423565b95509050858510156115a0576040516374ec9d5b60e01b815260040160405180910390fd5b83600701548511156115c557604051632e21875760e11b815260040160405180910390fd5b6003840154600160a01b900460ff166115e457836004015485116115ec565b836004015487115b1561160a5760405163f3383dc960e01b815260040160405180910390fd5b6003840154600160a01b900460ff166116235784611625565b865b60048501805491909103905560058401805486019081905560098501805489019055600885018054870190556020840151101561166a576116658861229c565b611675565b611675888383612707565b505050509392505050565b600081815260056020908152604080832081516080810183528154815260019091015465ffffffffffff80821694830194909452600160301b810490931691810191909152600160601b90910460ff16151560608201819052829182916116f257600080600093509350935050611748565b60208101516117019042613285565b9250806040015165ffffffffffff168365ffffffffffff1610915081611728578051611744565b604081015181516117449165ffffffffffff80871691166121ee565b9350505b9193909250565b6001546000906001600160a01b031680158015906117d9575060405163b700961360e01b81526001600160a01b0382169063b70096139061179890879030908890600401613206565b602060405180830381865afa1580156117b5573d6000803e3d6000fd5b505050506040513d601f19601f820116820180604052508101906117d99190613233565b806117f157506000546001600160a01b038581169116145b949350505050565b60075460009060ff1661181f5760405163325f1ffd60e11b815260040160405180910390fd5b600082600001516001600160a01b031663313ce5676040518163ffffffff1660e01b8152600401602060405180830381865afa158015611863573d6000803e3d6000fd5b505050506040513d601f19601f8201168201806040525081019061188791906132ac565b9050600083602001516001600160a01b031663313ce5676040518163ffffffff1660e01b8152600401602060405180830381865afa1580156118cd573d6000803e3d6000fd5b505050506040513d601f19601f820116820180604052508101906118f191906132ac565b905060068260ff161080611908575060128260ff16115b1561192657604051633b596f5f60e01b815260040160405180910390fd5b60068160ff16108061193b575060128160ff16115b1561195957604051633b596f5f60e01b815260040160405180910390fd5b60171984610160015160000b12806119795750601884610160015160000b135b1561199757604051633b596f5f60e01b815260040160405180910390fd5b3360009081526008602052604090205460ff161580156119c3575060408401516001600160a01b031615155b156119e157604051631623b81960e11b815260040160405180910390fd5b5050600082610160015160240160ff16600a0a90508260c001518360a001511015611a1f57604051634496547d60e01b815260040160405180910390fd5b8251602084015160405163b435914360e01b81526001600160a01b03928316600482015290821660248201526000917f0000000000000000000000000000000000000000000000000000000000000000169063b4359143906044016020604051808303816000875af1158015611a99573d6000803e3d6000fd5b505050506040513d601f19601f82011682018060405250810190611abd91906132cf565b90506000804286610120015165ffffffffffff16611adb91906131ae565b60095490925063ffffffff600160801b90910481169083161080611b16575060095461014087015163ffffffff600160601b90920482169116105b15611b3457604051633b596f5f60e01b815260040160405180910390fd5b60008661014001516005611b4891906132e8565b60095490915063ffffffff808316600160401b9092041611611b6a5780611b7b565b600954600160401b900463ffffffff165b600954610140890151919350600091611bd39163ffffffff908116911611611bab5760095463ffffffff16611bb2565b8861014001515b63ffffffff168563ffffffff168a608001516121ee9092919063ffffffff16565b60408051610140808201835265ffffffffffff4216808352602083015263ffffffff808916938301939093528b01805183166060830152600954905193945090926080840192918216911611611c315760095463ffffffff16611c38565b8961014001515b63ffffffff9081168252600954640100000000900481166020830152851660408201526060810183905260808a810151910190611c769084906131ae565b8152602001611cb48563ffffffff168763ffffffff168c60600151611c9f578c60800151610afc565b60a08d015160808e0151610afc918d906121ee565b90526000868152600460209081526040808320845181549386015192860151606080880151608089015160a08a015160c08b015165ffffffffffff9687166bffffffffffffffffffffffff19909a1699909917600160301b96909816959095029690961767ffffffffffffffff60601b1916600160601b63ffffffff9485160263ffffffff60801b191617600160801b918416919091021767ffffffffffffffff60a01b1916600160a01b9583169590950263ffffffff60c01b191694909417600160c01b92821692909202919091176001600160e01b0316600160e01b919094160292909217825560e08401516001830155610100840151600283015561012090930151600390910155908901519092508291508190611dd9578860800151611dee565b60a089015160808a0151611dee9189906121ee565b9050611e078163ffffffff80871690888116906121ee16565b9250611e2f89610140015163ffffffff168663ffffffff16836121ee9092919063ffffffff16565b915050604051806101800160405280336001600160a01b0316815260200189600001516001600160a01b0316815260200189602001516001600160a01b0316815260200189604001516001600160a01b03168152602001896060015115158152602001896080015181526020018381526020018960c0015181526020018281526020016000815260200160008152602001878152506002600087815260200190815260200160002060008201518160000160006101000a8154816001600160a01b0302191690836001600160a01b0316021790555060208201518160010160006101000a8154816001600160a01b0302191690836001600160a01b0316021790555060408201518160020160006101000a8154816001600160a01b0302191690836001600160a01b0316021790555060608201518160030160006101000a8154816001600160a01b0302191690836001600160a01b0316021790555060808201518160030160146101000a81548160ff02191690831515021790555060a0820151816004015560c0820151816005015560e0820151816006015561010082015181600701556101208201518160080155610140820151816009015561016082015181600a01559050506000600960149054906101000a900463ffffffff1663ffffffff16612033620186a065ffffffffffff1685856121ee9092919063ffffffff16565b1161204d57600954600160a01b900463ffffffff1661205b565b61205b82620186a0856121ee565b90506000612090828b60e0015163ffffffff16116120795782612085565b8a60e0015163ffffffff165b8590620186a06121ee565b61209a908561326d565b60a08b01519091506000906120b0908a87612d2b565b905060405180608001604052808281526020018381526020018c610100015165ffffffffffff1681526020018c610120015165ffffffffffff16815250600360008a8152602001908152602001600020600082015181600001556020820151816001015560408201518160020160006101000a81548165ffffffffffff021916908365ffffffffffff16021790555060608201518160020160066101000a81548165ffffffffffff021916908365ffffffffffff1602179055509050508a602001516001600160a01b03168b600001516001600160a01b0316897f8235b14cd272b4e791960fe1118559bb7fed86934fcffeeae9b1175103b0756d8e61010001518f60a001516040516121d792919065ffffffffffff929092168252602082015260400190565b60405180910390a450959998505050505050505050565b6000808060001985870985870292508281108382030391505080600003612227576000841161221c57600080fd5b508290049050610984565b80841161223357600080fd5b60008486880960026001871981018816978890046003810283188082028403028082028403028082028403028082028403028082028403029081029092039091026000889003889004909101858311909403939093029303949094049190911702949350505050565b6000818152600360209081526040808320600290810180546bffffffffffff0000000000001916600160301b4265ffffffffffff16021790559091528082206004018290555182917f9dc30b8eda31a6a144e092e5de600955523a6a925cc15cc1d1b9b4872cfa615591a250565b6000818152600460209081526040808320815161014081018352815465ffffffffffff8082168352600160301b82041694820185905263ffffffff600160601b8204811694830194909452600160801b810484166060830152600160a01b810484166080830152600160c01b8104841660a0830152600160e01b900490921660c0830152600181015460e08301526002810154610100830152600301546101208201529042838282116123be5760006123c2565b8282035b90508360c0015163ffffffff1681116124065760c084015160008781526002602052604090206005015461240191839063ffffffff908116906121ee16565b612419565b6000868152600260205260409020600501545b9695505050505050565b600083815260026020818152604080842081516101808101835281546001600160a01b03908116825260018301548116828601529482015485168184015260038201549485166060820152600160a01b90940460ff161515608085015260048082015460a0860152600582015460c0860152600682015460e0860152600782015461010086015260088201546101208601526009820154610140860152600a9091015461016085015287855290915282205482919042600160301b90910465ffffffffffff161161251e576124f78661230a565b600087815260026020526040812060050180549091906125189084906131ae565b90915550505b600086815260056020526040902060010154600160601b900460ff161561262c5760008681526005602052604081209080806125598a611680565b60008d81526003602052604081208054949750929550909350859261257f9084906131ae565b90915550508015612617578284600001600082825461259e91906131ae565b90915550506001840180548391906006906125c9908490600160301b900465ffffffffffff16613285565b92506101000a81548165ffffffffffff021916908365ffffffffffff160217905550878460010160006101000a81548165ffffffffffff021916908365ffffffffffff160217905550612627565b60018401805460ff60601b191690555b505050505b61263586612d6b565b60e082015190935080841015612649578093505b61016082015161265b908790866121ee565b61016083015160008981526004602052604081208054600390910154939650909261269892909163ffffffff600160e01b9091048116906121ee16565b6101608401519091506126ad90859083612d2b565b600089815260046020526040902080546006906126da908490600160301b900465ffffffffffff16613314565b92506101000a81548165ffffffffffff021916908365ffffffffffff160217905550505050935093915050565b600060046000858152602001908152602001600020604051806101400160405290816000820160009054906101000a900465ffffffffffff1665ffffffffffff1665ffffffffffff1681526020016000820160069054906101000a900465ffffffffffff1665ffffffffffff1665ffffffffffff16815260200160008201600c9054906101000a900463ffffffff1663ffffffff1663ffffffff1681526020016000820160109054906101000a900463ffffffff1663ffffffff1663ffffffff1681526020016000820160149054906101000a900463ffffffff1663ffffffff1663ffffffff1681526020016000820160189054906101000a900463ffffffff1663ffffffff1663ffffffff16815260200160008201601c9054906101000a900463ffffffff1663ffffffff1663ffffffff16815260200160018201548152602001600282015481526020016003820154815250509050600060026000868152602001908152602001600020604051806101800160405290816000820160009054906101000a90046001600160a01b03166001600160a01b03166001600160a01b031681526020016001820160009054906101000a90046001600160a01b03166001600160a01b03166001600160a01b031681526020016002820160009054906101000a90046001600160a01b03166001600160a01b03166001600160a01b031681526020016003820160009054906101000a90046001600160a01b03166001600160a01b03166001600160a01b031681526020016003820160149054906101000a900460ff16151515158152602001600482015481526020016005820154815260200160068201548152602001600782015481526020016008820154815260200160098201548152602001600a8201548152505090506000846003600088815260200190815260200160002060020160069054906101000a900465ffffffffffff166129d49190613285565b65ffffffffffff169050600082608001516129f3578260a00151612a08565b61016083015160a0840151612a0891876121ee565b905060008360800151612a2057836101200151612a36565b610160840151610140850151612a3691886121ee565b612a40908361326d565b9050600082612a7985886040015163ffffffff16612a5e91906131ae565b886040015163ffffffff16856121ee9092919063ffffffff16565b612a83919061326d565b90508561010001518560a00151108015612a9c57508181105b80612ad7575060808601518651612ab99163ffffffff1690613314565b65ffffffffffff168865ffffffffffff1610158015612ad757508181115b15612d2057612afb866060015163ffffffff1685856121ee9092919063ffffffff16565b60008a8152600260205260408082206007019290925560c0880151918801519091612b3491849163ffffffff908116918116906121ee16565b60008b81526003602052604081205461016089015192935091612b59908b9085612d2b565b60408051848152602081018390529192508d917f78f9c01d72705dba80d6ce051d36a1f987bf2a3800fee938c111a2ae741e57d1910160405180910390a281811015612c87576000612bab82846131ae565b905060405180608001604052808281526020018d65ffffffffffff1681526020018b60a0015163ffffffff1665ffffffffffff16815260200160011515815250600560008f81526020019081526020016000206000820151816000015560208201518160010160006101000a81548165ffffffffffff021916908365ffffffffffff16021790555060408201518160010160066101000a81548165ffffffffffff021916908365ffffffffffff160217905550606082015181600101600c6101000a81548160ff02191690831515021790555090505050612cb1565b60008c815260036020908152604080832084905560059091529020600101805460ff60601b191690555b60008c8152600460205260409020805465ffffffffffff191665ffffffffffff8d1617905560e089015160a089015111612cec576000612d00565b8860e001518860a00151612d0091906131ae565b60008d815260046020526040902060028101919091556003019290925550505b505050505050505050565b6000612d388484846121ee565b905060008280612d4a57612d4a61333e565b8486091115610984576000198110612d6157600080fd5b6001019392505050565b600081815260026020818152604080842081516101808101835281546001600160a01b0390811682526001830154811682860152948201548516818401526003808301549586166060830152600160a01b90950460ff1615156080820152600482015460a0820152600582015460c08201819052600683015460e0830152600783015461010083015260088301546101208301526009830154610140830152600a909201546101608201819052878752949093529084205491926109849291906121ee565b600060208284031215612e4257600080fd5b5035919050565b6001600160a01b0381168114610fe257600080fd5b8035612e6981612e49565b919050565b600060208284031215612e8057600080fd5b813561098481612e49565b634e487b7160e01b600052604160045260246000fd5b604051610180810167ffffffffffffffff81118282101715612ec557612ec5612e8b565b60405290565b8015158114610fe257600080fd5b8035612e6981612ecb565b803563ffffffff81168114612e6957600080fd5b65ffffffffffff81168114610fe257600080fd5b8035612e6981612ef8565b8035600081900b8114612e6957600080fd5b60006101808284031215612f3c57600080fd5b612f44612ea1565b612f4d83612e5e565b8152612f5b60208401612e5e565b6020820152612f6c60408401612e5e565b6040820152612f7d60608401612ed9565b60608201526080830135608082015260a083013560a082015260c083013560c0820152612fac60e08401612ee4565b60e0820152610100612fbf818501612f0c565b90820152610120612fd1848201612f0c565b90820152610140612fe3848201612ee4565b90820152610160612ff5848201612f17565b908201529392505050565b60006020828403121561301257600080fd5b813561098481612ecb565b6000806080838503121561303057600080fd5b823591508360808401111561304457600080fd5b50926020919091019150565b6000806040838503121561306357600080fd5b823561306e81612e49565b9150602083013561307e81612ecb565b809150509250929050565b6000806040838503121561309c57600080fd5b82359150602083013561307e81612e49565b600060c082840312156130c057600080fd5b82601f8301126130cf57600080fd5b60405160c0810181811067ffffffffffffffff821117156130f2576130f2612e8b565b6040528060c084018581111561310757600080fd5b845b818110156131285761311a81612ee4565b835260209283019201613109565b509195945050505050565b60008060006060848603121561314857600080fd5b8335925060208401359150604084013561316181612e49565b809150509250925092565b60008060006060848603121561318157600080fd5b505081359360208301359350604090920135919050565b634e487b7160e01b600052601160045260246000fd5b6000828210156131c0576131c0613198565b500390565b6020808252600c908201526b15539055551213d49256915160a21b604082015260600190565b6000602082840312156131fd57600080fd5b61098482612ee4565b6001600160a01b0393841681529190921660208201526001600160e01b0319909116604082015260600190565b60006020828403121561324557600080fd5b815161098481612ecb565b60006020828403121561326257600080fd5b815161098481612ef8565b6000821982111561328057613280613198565b500190565b600065ffffffffffff838116908316818110156132a4576132a4613198565b039392505050565b6000602082840312156132be57600080fd5b815160ff8116811461098457600080fd5b6000602082840312156132e157600080fd5b5051919050565b600063ffffffff8083168185168183048111821515161561330b5761330b613198565b02949350505050565b600065ffffffffffff80831681851680830382111561333557613335613198565b01949350505050565b634e487b7160e01b600052601260045260246000fdfea2646970667358221220d83a9ceef9b39f79617da235e38931b9e00817b815457b9b2ec60d1d9575af6a64736f6c634300080f0033",
    "linkReferences": {}
  },
  "methodIdentifiers": {
    "adjustments(uint256)": "bc3b2b12",
    "allowNewMarkets()": "afa9d3b0",
    "authority()": "bf7e214f",
    "callbackAuthorized(address)": "5dc4d16b",
    "closeMarket(uint256)": "ae418095",
    "createMarket((address,address,address,bool,uint256,uint256,uint256,uint32,uint48,uint48,uint32,int8))": "380b5bb1",
    "currentCapacity(uint256)": "1c063a6c",
    "currentControlVariable(uint256)": "0a9d85eb",
    "currentDebt(uint256)": "bcb29667",
    "defaultTuneAdjustment()": "ea0aca33",
    "defaultTuneInterval()": "d9ccdc93",
    "getAggregator()": "3ad59dbc",
    "getMarketInfoForPurchase(uint256)": "acc5570c",
    "getTeller()": "9787d107",
    "isInstantSwap(uint256)": "8b098db3",
    "isLive(uint256)": "27507458",
    "marketPrice(uint256)": "3adec5a7",
    "markets(uint256)": "b1283e77",
    "maxAmountAccepted(uint256,address)": "c7bf8ca0",
    "metadata(uint256)": "e3684e39",
    "minDebtBuffer()": "8973082c",
    "minDebtDecayInterval()": "e9220673",
    "minDepositInterval()": "d2040687",
    "minMarketDuration()": "d2bee323",
    "newOwners(uint256)": "6729a41e",
    "owner()": "8da5cb5b",
    "ownerOf(uint256)": "6352211e",
    "payoutFor(uint256,uint256,address)": "bf48582b",
    "pullOwnership(uint256)": "10b05317",
    "purchaseBond(uint256,uint256,uint256)": "e007fa97",
    "pushOwnership(uint256,address)": "bcf6cde8",
    "setAllowNewMarkets(bool)": "5f77274e",
    "setAuthority(address)": "7a9e5e4b",
    "setCallbackAuthStatus(address,bool)": "bbbdd95a",
    "setDefaults(uint32[6])": "bd1f3a5e",
    "setIntervals(uint256,uint32[3])": "699e17d9",
    "setOwner(address)": "13af4035",
    "terms(uint256)": "c0aa0e8a"
  },
  "id": 41
}