{
  "abi": [
    {
      "inputs": [
        {
          "internalType": "contract Kernel",
          "name": "kernel_",
          "type": "address"
        },
        {
          "internalType": "contract Module",
          "name": "module_",
          "type": "address"
        },
        {
          "components": [
            {
              "internalType": "Keycode",
              "name": "keycode",
              "type": "bytes5"
            },
            {
              "internalType": "bytes4",
              "name": "funcSelector",
              "type": "bytes4"
            }
          ],
          "internalType": "struct Permissions[]",
          "name": "requests_",
          "type": "tuple[]"
        }
      ],
      "stateMutability": "nonpayable",
      "type": "constructor"
    },
    {
      "inputs": [
        {
          "internalType": "address",
          "name": "caller_",
          "type": "address"
        }
      ],
      "name": "KernelAdapter_OnlyKernel",
      "type": "error"
    },
    {
      "inputs": [
        {
          "internalType": "contract Kernel",
          "name": "newKernel_",
          "type": "address"
        }
      ],
      "name": "changeKernel",
      "outputs": [],
      "stateMutability": "nonpayable",
      "type": "function"
    },
    {
      "inputs": [],
      "name": "configureDependencies",
      "outputs": [
        {
          "internalType": "Keycode[]",
          "name": "dependencies",
          "type": "bytes5[]"
        }
      ],
      "stateMutability": "view",
      "type": "function"
    },
    {
      "inputs": [],
      "name": "isActive",
      "outputs": [
        {
          "internalType": "bool",
          "name": "",
          "type": "bool"
        }
      ],
      "stateMutability": "view",
      "type": "function"
    },
    {
      "inputs": [],
      "name": "kernel",
      "outputs": [
        {
          "internalType": "contract Kernel",
          "name": "",
          "type": "address"
        }
      ],
      "stateMutability": "view",
      "type": "function"
    },
    {
      "inputs": [],
      "name": "requestPermissions",
      "outputs": [
        {
          "components": [
            {
              "internalType": "Keycode",
              "name": "keycode",
              "type": "bytes5"
            },
            {
              "internalType": "bytes4",
              "name": "funcSelector",
              "type": "bytes4"
            }
          ],
          "internalType": "struct Permissions[]",
          "name": "requests",
          "type": "tuple[]"
        }
      ],
      "stateMutability": "view",
      "type": "function"
    },
    {
      "inputs": [
        {
          "internalType": "bool",
          "name": "activate_",
          "type": "bool"
        }
      ],
      "name": "setActiveStatus",
      "outputs": [],
      "stateMutability": "nonpayable",
      "type": "function"
    }
  ],
  "bytecode": {
    "object": "0x608060405234801561001057600080fd5b506040516107fe3803806107fe83398101604081905261002f9161016c565b600080546001600160a01b038086166001600160a01b031992831617835560018054918616919092161790558151905b818110156100dc57600283828151811061007b5761007b610290565b6020908102919091018101518254600181018455600093845292829020815193018054919092015160e01c65010000000000026001600160481b031990911660d89390931c92909217919091179055806100d4816102a6565b91505061005f565b50505050506102cd565b6001600160a01b03811681146100fb57600080fd5b50565b634e487b7160e01b600052604160045260246000fd5b604080519081016001600160401b0381118282101715610136576101366100fe565b60405290565b604051601f8201601f191681016001600160401b0381118282101715610164576101646100fe565b604052919050565b60008060006060848603121561018157600080fd5b835161018c816100e6565b8093505060208085015161019f816100e6565b604086810151919450906001600160401b03808211156101be57600080fd5b818801915088601f8301126101d257600080fd5b8151818111156101e4576101e46100fe565b6101f2858260051b0161013c565b818152858101925060069190911b83018501908a82111561021257600080fd5b928501925b818410156102805784848c03121561022f5760008081fd5b610237610114565b84516001600160d81b0319811681146102505760008081fd5b8152848701516001600160e01b03198116811461026d5760008081fd5b8188015283529284019291850191610217565b8096505050505050509250925092565b634e487b7160e01b600052603260045260246000fd5b6000600182016102c657634e487b7160e01b600052601160045260246000fd5b5060010190565b610522806102dc6000396000f3fe608060405234801561001057600080fd5b50600436106100625760003560e01c806322f3e2d4146100675780634657b36c146100905780635924be70146100a55780639459b875146100ba578063d4aae0c4146100cf578063ec7404b1146100fa575b600080fd5b60005461007b90600160a01b900460ff1681565b60405190151581526020015b60405180910390f35b6100a361009e36600461036c565b61010d565b005b6100ad610161565b604051610087919061039c565b6100c2610263565b60405161008791906103ff565b6000546100e2906001600160a01b031681565b6040516001600160a01b039091168152602001610087565b6100a361010836600461044d565b610321565b6000546001600160a01b0316331461013f5760405163053e900f60e21b81523360048201526024015b60405180910390fd5b600080546001600160a01b0319166001600160a01b0392909216919091179055565b6002546060908067ffffffffffffffff8111156101805761018061046f565b6040519080825280602002602001820160405280156101c557816020015b604080518082019091526000808252602082015281526020019060019003908161019e5790505b50915060005b8181101561025e57600281815481106101e6576101e6610485565b60009182526020918290206040805180820190915291015460d881901b6001600160d81b031916825265010000000000900460e01b6001600160e01b03191691810191909152835184908390811061024057610240610485565b602002602001018190525080806102569061049b565b9150506101cb565b505090565b60408051600180825281830190925260609160208083019080368337505060015460408051630d73f61760e11b815290519394506001600160a01b0390911692631ae7ec2e925060048083019260209291908290030181865afa1580156102ce573d6000803e3d6000fd5b505050506040513d601f19601f820116820180604052508101906102f291906104c2565b8160008151811061030557610305610485565b6001600160d81b03199092166020928302919091019091015290565b6000546001600160a01b0316331461034e5760405163053e900f60e21b8152336004820152602401610136565b60008054911515600160a01b0260ff60a01b19909216919091179055565b60006020828403121561037e57600080fd5b81356001600160a01b038116811461039557600080fd5b9392505050565b602080825282518282018190526000919060409081850190868401855b828110156103f257815180516001600160d81b03191685528601516001600160e01b0319168685015292840192908501906001016103b9565b5091979650505050505050565b6020808252825182820181905260009190848201906040850190845b818110156104415783516001600160d81b0319168352928401929184019160010161041b565b50909695505050505050565b60006020828403121561045f57600080fd5b8135801515811461039557600080fd5b634e487b7160e01b600052604160045260246000fd5b634e487b7160e01b600052603260045260246000fd5b6000600182016104bb57634e487b7160e01b600052601160045260246000fd5b5060010190565b6000602082840312156104d457600080fd5b81516001600160d81b03198116811461039557600080fdfea26469706673582212204846af1890b9491e1d13028db4282b13cb0cf0c613fb3f7bedf343b875ee993164736f6c634300080f0033",
    "linkReferences": {}
  },
  "methodIdentifiers": {
    "changeKernel(address)": "4657b36c",
    "configureDependencies()": "9459b875",
    "isActive()": "22f3e2d4",
    "kernel()": "d4aae0c4",
    "requestPermissions()": "5924be70",
    "setActiveStatus(bool)": "ec7404b1"
  },
  "id": 38
}