{
  "abi": [
    {
      "inputs": [
        {
          "internalType": "contract Kernel",
          "name": "kernel_",
          "type": "address"
        }
      ],
      "stateMutability": "nonpayable",
      "type": "constructor"
    },
    {
      "inputs": [
        {
          "internalType": "address",
          "name": "caller_",
          "type": "address"
        }
      ],
      "name": "KernelAdapter_OnlyKernel",
      "type": "error"
    },
    {
      "inputs": [
        {
          "internalType": "address",
          "name": "policy_",
          "type": "address"
        }
      ],
      "name": "Module_PolicyNotPermitted",
      "type": "error"
    },
    {
      "inputs": [],
      "name": "VOTES_TransferDisabled",
      "type": "error"
    },
    {
      "anonymous": false,
      "inputs": [
        {
          "indexed": true,
          "internalType": "address",
          "name": "owner",
          "type": "address"
        },
        {
          "indexed": true,
          "internalType": "address",
          "name": "spender",
          "type": "address"
        },
        {
          "indexed": false,
          "internalType": "uint256",
          "name": "amount",
          "type": "uint256"
        }
      ],
      "name": "Approval",
      "type": "event"
    },
    {
      "anonymous": false,
      "inputs": [
        {
          "indexed": true,
          "internalType": "address",
          "name": "from",
          "type": "address"
        },
        {
          "indexed": true,
          "internalType": "address",
          "name": "to",
          "type": "address"
        },
        {
          "indexed": false,
          "internalType": "uint256",
          "name": "amount",
          "type": "uint256"
        }
      ],
      "name": "Transfer",
      "type": "event"
    },
    {
      "inputs": [],
      "name": "DOMAIN_SEPARATOR",
      "outputs": [
        {
          "internalType": "bytes32",
          "name": "",
          "type": "bytes32"
        }
      ],
      "stateMutability": "view",
      "type": "function"
    },
    {
      "inputs": [],
      "name": "INIT",
      "outputs": [],
      "stateMutability": "nonpayable",
      "type": "function"
    },
    {
      "inputs": [],
      "name": "KEYCODE",
      "outputs": [
        {
          "internalType": "Keycode",
          "name": "",
          "type": "bytes5"
        }
      ],
      "stateMutability": "pure",
      "type": "function"
    },
    {
      "inputs": [],
      "name": "VERSION",
      "outputs": [
        {
          "internalType": "uint8",
          "name": "major",
          "type": "uint8"
        },
        {
          "internalType": "uint8",
          "name": "minor",
          "type": "uint8"
        }
      ],
      "stateMutability": "pure",
      "type": "function"
    },
    {
      "inputs": [
        {
          "internalType": "address",
          "name": "",
          "type": "address"
        },
        {
          "internalType": "address",
          "name": "",
          "type": "address"
        }
      ],
      "name": "allowance",
      "outputs": [
        {
          "internalType": "uint256",
          "name": "",
          "type": "uint256"
        }
      ],
      "stateMutability": "view",
      "type": "function"
    },
    {
      "inputs": [
        {
          "internalType": "address",
          "name": "spender",
          "type": "address"
        },
        {
          "internalType": "uint256",
          "name": "amount",
          "type": "uint256"
        }
      ],
      "name": "approve",
      "outputs": [
        {
          "internalType": "bool",
          "name": "",
          "type": "bool"
        }
      ],
      "stateMutability": "nonpayable",
      "type": "function"
    },
    {
      "inputs": [
        {
          "internalType": "address",
          "name": "",
          "type": "address"
        }
      ],
      "name": "balanceOf",
      "outputs": [
        {
          "internalType": "uint256",
          "name": "",
          "type": "uint256"
        }
      ],
      "stateMutability": "view",
      "type": "function"
    },
    {
      "inputs": [
        {
          "internalType": "address",
          "name": "wallet_",
          "type": "address"
        },
        {
          "internalType": "uint256",
          "name": "amount_",
          "type": "uint256"
        }
      ],
      "name": "burnFrom",
      "outputs": [],
      "stateMutability": "nonpayable",
      "type": "function"
    },
    {
      "inputs": [
        {
          "internalType": "contract Kernel",
          "name": "newKernel_",
          "type": "address"
        }
      ],
      "name": "changeKernel",
      "outputs": [],
      "stateMutability": "nonpayable",
      "type": "function"
    },
    {
      "inputs": [],
      "name": "decimals",
      "outputs": [
        {
          "internalType": "uint8",
          "name": "",
          "type": "uint8"
        }
      ],
      "stateMutability": "view",
      "type": "function"
    },
    {
      "inputs": [],
      "name": "kernel",
      "outputs": [
        {
          "internalType": "contract Kernel",
          "name": "",
          "type": "address"
        }
      ],
      "stateMutability": "view",
      "type": "function"
    },
    {
      "inputs": [
        {
          "internalType": "address",
          "name": "wallet_",
          "type": "address"
        },
        {
          "internalType": "uint256",
          "name": "amount_",
          "type": "uint256"
        }
      ],
      "name": "mintTo",
      "outputs": [],
      "stateMutability": "nonpayable",
      "type": "function"
    },
    {
      "inputs": [],
      "name": "name",
      "outputs": [
        {
          "internalType": "string",
          "name": "",
          "type": "string"
        }
      ],
      "stateMutability": "view",
      "type": "function"
    },
    {
      "inputs": [
        {
          "internalType": "address",
          "name": "",
          "type": "address"
        }
      ],
      "name": "nonces",
      "outputs": [
        {
          "internalType": "uint256",
          "name": "",
          "type": "uint256"
        }
      ],
      "stateMutability": "view",
      "type": "function"
    },
    {
      "inputs": [
        {
          "internalType": "address",
          "name": "owner",
          "type": "address"
        },
        {
          "internalType": "address",
          "name": "spender",
          "type": "address"
        },
        {
          "internalType": "uint256",
          "name": "value",
          "type": "uint256"
        },
        {
          "internalType": "uint256",
          "name": "deadline",
          "type": "uint256"
        },
        {
          "internalType": "uint8",
          "name": "v",
          "type": "uint8"
        },
        {
          "internalType": "bytes32",
          "name": "r",
          "type": "bytes32"
        },
        {
          "internalType": "bytes32",
          "name": "s",
          "type": "bytes32"
        }
      ],
      "name": "permit",
      "outputs": [],
      "stateMutability": "nonpayable",
      "type": "function"
    },
    {
      "inputs": [],
      "name": "symbol",
      "outputs": [
        {
          "internalType": "string",
          "name": "",
          "type": "string"
        }
      ],
      "stateMutability": "view",
      "type": "function"
    },
    {
      "inputs": [],
      "name": "totalSupply",
      "outputs": [
        {
          "internalType": "uint256",
          "name": "",
          "type": "uint256"
        }
      ],
      "stateMutability": "view",
      "type": "function"
    },
    {
      "inputs": [
        {
          "internalType": "address",
          "name": "to_",
          "type": "address"
        },
        {
          "internalType": "uint256",
          "name": "amount_",
          "type": "uint256"
        }
      ],
      "name": "transfer",
      "outputs": [
        {
          "internalType": "bool",
          "name": "",
          "type": "bool"
        }
      ],
      "stateMutability": "pure",
      "type": "function"
    },
    {
      "inputs": [
        {
          "internalType": "address",
          "name": "from_",
          "type": "address"
        },
        {
          "internalType": "address",
          "name": "to_",
          "type": "address"
        },
        {
          "internalType": "uint256",
          "name": "amount_",
          "type": "uint256"
        }
      ],
      "name": "transferFrom",
      "outputs": [
        {
          "internalType": "bool",
          "name": "",
          "type": "bool"
        }
      ],
      "stateMutability": "nonpayable",
      "type": "function"
    }
  ],
  "bytecode": {
    "object": "0x60e06040523480156200001157600080fd5b506040516200128b3803806200128b83398101604081905262000034916200017f565b604080518082018252601e81527f4f6c796d70757344414f2044756d6d7920566f74696e6720546f6b656e73000060208083019190915282518084019093526005835264564f54455360d81b90830152600080546001600160a01b0319166001600160a01b0385161781559091906001620000b0848262000256565b506002620000bf838262000256565b5060ff81166080524660a052620000d5620000e3565b60c05250620003a092505050565b60007f8b73c3c69bb8fe3d512ecc4cf759cc79239f7b179b0ffacaa9a75d522b39400f600160405162000117919062000322565b6040805191829003822060208301939093528101919091527fc89efdaa54c0f20c7adf612882df0950f5a951637e0307cdcb4c672f298b8bc660608201524660808201523060a082015260c00160405160208183030381529060405280519060200120905090565b6000602082840312156200019257600080fd5b81516001600160a01b0381168114620001aa57600080fd5b9392505050565b634e487b7160e01b600052604160045260246000fd5b600181811c90821680620001dc57607f821691505b602082108103620001fd57634e487b7160e01b600052602260045260246000fd5b50919050565b601f8211156200025157600081815260208120601f850160051c810160208610156200022c5750805b601f850160051c820191505b818110156200024d5782815560010162000238565b5050505b505050565b81516001600160401b03811115620002725762000272620001b1565b6200028a81620002838454620001c7565b8462000203565b602080601f831160018114620002c25760008415620002a95750858301515b600019600386901b1c1916600185901b1785556200024d565b600085815260208120601f198616915b82811015620002f357888601518255948401946001909101908401620002d2565b5085821015620003125787850151600019600388901b60f8161c191681555b5050505050600190811b01905550565b60008083546200033281620001c7565b600182811680156200034d5760018114620003635762000394565b60ff198416875282151583028701945062000394565b8760005260208060002060005b858110156200038b5781548a82015290840190820162000370565b50505082870194505b50929695505050505050565b60805160a05160c051610ebb620003d0600039600061057801526000610548015260006101ac0152610ebb6000f3fe608060405234801561001057600080fd5b50600436106101215760003560e01c806370a08231116100ad578063d4aae0c411610071578063d4aae0c41461027e578063d505accf146102a9578063dd62ed3e146102bc578063ea643914146102e7578063ffa1ad74146102ef57600080fd5b806370a082311461021057806379cc6790146102305780637ecebe001461024357806395d89b4114610263578063a9059cbb1461026b57600080fd5b806323b872dd116100f457806323b872dd14610194578063313ce567146101a75780633644e515146101e0578063449a52f8146101e85780634657b36c146101fd57600080fd5b806306fdde0314610126578063095ea7b31461014457806318160ddd146101675780631ae7ec2e1461017e575b600080fd5b61012e610304565b60405161013b9190610b62565b60405180910390f35b610157610152366004610bcf565b610392565b604051901515815260200161013b565b61017060035481565b60405190815260200161013b565b60405164564f54455360d81b815260200161013b565b6101576101a2366004610bfb565b610403565b6101ce7f000000000000000000000000000000000000000000000000000000000000000081565b60405160ff909116815260200161013b565b610170610544565b6101fb6101f6366004610bcf565b61059a565b005b6101fb61020b366004610c3c565b61064e565b61017061021e366004610c3c565b60046020526000908152604090205481565b6101fb61023e366004610bcf565b61069d565b610170610251366004610c3c565b60066020526000908152604090205481565b61012e61074d565b610157610279366004610bcf565b61075a565b600054610291906001600160a01b031681565b6040516001600160a01b03909116815260200161013b565b6101fb6102b7366004610c60565b610775565b6101706102ca366004610cd7565b600560209081526000928352604080842090915290825290205481565b6101fb6109b9565b6040805160018152600060208201520161013b565b6001805461031190610d10565b80601f016020809104026020016040519081016040528092919081815260200182805461033d90610d10565b801561038a5780601f1061035f5761010080835404028352916020019161038a565b820191906000526020600020905b81548152906001019060200180831161036d57829003601f168201915b505050505081565b3360008181526005602090815260408083206001600160a01b038716808552925280832085905551919290917f8c5be1e5ebec7d5bd14f71427d1e84f3dd0314c0f7b2291e5b200ac8c7c3b925906103ed9086815260200190565b60405180910390a350600192915050565b905090565b600080546001600160a01b031663f166d9eb64564f54455360d81b336000356001600160e01b0319166040518463ffffffff1660e01b815260040161044a93929190610d4a565b602060405180830381865afa158015610467573d6000803e3d6000fd5b505050506040513d601f19601f8201168201806040525081019061048b9190610d7f565b6104af576040516311bf00c960e01b81523360048201526024015b60405180910390fd5b6001600160a01b038416600090815260046020526040812080548492906104d7908490610db7565b90915550506001600160a01b03808416600081815260046020526040908190208054860190555190918616907fddf252ad1be2c89b69c2b068fc378daa952ba7f163c4a11628f55a4df523b3ef906105329086815260200190565b60405180910390a35060019392505050565b60007f00000000000000000000000000000000000000000000000000000000000000004614610575576103fe6109e8565b507f000000000000000000000000000000000000000000000000000000000000000090565b6000546001600160a01b031663f166d9eb64564f54455360d81b336000356001600160e01b0319166040518463ffffffff1660e01b81526004016105e093929190610d4a565b602060405180830381865afa1580156105fd573d6000803e3d6000fd5b505050506040513d601f19601f820116820180604052508101906106219190610d7f565b610640576040516311bf00c960e01b81523360048201526024016104a6565b61064a8282610a82565b5050565b6000546001600160a01b0316331461067b5760405163053e900f60e21b81523360048201526024016104a6565b600080546001600160a01b0319166001600160a01b0392909216919091179055565b6000546001600160a01b031663f166d9eb64564f54455360d81b336000356001600160e01b0319166040518463ffffffff1660e01b81526004016106e393929190610d4a565b602060405180830381865afa158015610700573d6000803e3d6000fd5b505050506040513d601f19601f820116820180604052508101906107249190610d7f565b610743576040516311bf00c960e01b81523360048201526024016104a6565b61064a8282610aee565b6002805461031190610d10565b600060405163e4f21d4f60e01b815260040160405180910390fd5b428410156107c55760405162461bcd60e51b815260206004820152601760248201527f5045524d49545f444541444c494e455f4558504952454400000000000000000060448201526064016104a6565b600060016107d1610544565b6001600160a01b038a811660008181526006602090815260409182902080546001810190915582517f6e71edae12b1b97f4d1f60370fef10105fa2faae0126114a169c64845d6126c98184015280840194909452938d166060840152608083018c905260a083019390935260c08083018b90528151808403909101815260e08301909152805192019190912061190160f01b6101008301526101028201929092526101228101919091526101420160408051601f198184030181528282528051602091820120600084529083018083525260ff871690820152606081018590526080810184905260a0016020604051602081039080840390855afa1580156108dd573d6000803e3d6000fd5b5050604051601f1901519150506001600160a01b038116158015906109135750876001600160a01b0316816001600160a01b0316145b6109505760405162461bcd60e51b815260206004820152600e60248201526d24a72b20a624a22fa9a4a3a722a960911b60448201526064016104a6565b6001600160a01b0390811660009081526005602090815260408083208a8516808552908352928190208990555188815291928a16917f8c5be1e5ebec7d5bd14f71427d1e84f3dd0314c0f7b2291e5b200ac8c7c3b925910160405180910390a350505050505050565b6000546001600160a01b031633146109e65760405163053e900f60e21b81523360048201526024016104a6565b565b60007f8b73c3c69bb8fe3d512ecc4cf759cc79239f7b179b0ffacaa9a75d522b39400f6001604051610a1a9190610dce565b6040805191829003822060208301939093528101919091527fc89efdaa54c0f20c7adf612882df0950f5a951637e0307cdcb4c672f298b8bc660608201524660808201523060a082015260c00160405160208183030381529060405280519060200120905090565b8060036000828254610a949190610e6d565b90915550506001600160a01b0382166000818152600460209081526040808320805486019055518481527fddf252ad1be2c89b69c2b068fc378daa952ba7f163c4a11628f55a4df523b3ef91015b60405180910390a35050565b6001600160a01b03821660009081526004602052604081208054839290610b16908490610db7565b90915550506003805482900390556040518181526000906001600160a01b038416907fddf252ad1be2c89b69c2b068fc378daa952ba7f163c4a11628f55a4df523b3ef90602001610ae2565b600060208083528351808285015260005b81811015610b8f57858101830151858201604001528201610b73565b81811115610ba1576000604083870101525b50601f01601f1916929092016040019392505050565b6001600160a01b0381168114610bcc57600080fd5b50565b60008060408385031215610be257600080fd5b8235610bed81610bb7565b946020939093013593505050565b600080600060608486031215610c1057600080fd5b8335610c1b81610bb7565b92506020840135610c2b81610bb7565b929592945050506040919091013590565b600060208284031215610c4e57600080fd5b8135610c5981610bb7565b9392505050565b600080600080600080600060e0888a031215610c7b57600080fd5b8735610c8681610bb7565b96506020880135610c9681610bb7565b95506040880135945060608801359350608088013560ff81168114610cba57600080fd5b9699959850939692959460a0840135945060c09093013592915050565b60008060408385031215610cea57600080fd5b8235610cf581610bb7565b91506020830135610d0581610bb7565b809150509250929050565b600181811c90821680610d2457607f821691505b602082108103610d4457634e487b7160e01b600052602260045260246000fd5b50919050565b6001600160d81b03199390931683526001600160a01b039190911660208301526001600160e01b031916604082015260600190565b600060208284031215610d9157600080fd5b81518015158114610c5957600080fd5b634e487b7160e01b600052601160045260246000fd5b600082821015610dc957610dc9610da1565b500390565b600080835481600182811c915080831680610dea57607f831692505b60208084108203610e0957634e487b7160e01b86526022600452602486fd5b818015610e1d5760018114610e3257610e5f565b60ff1986168952841515850289019650610e5f565b60008a81526020902060005b86811015610e575781548b820152908501908301610e3e565b505084890196505b509498975050505050505050565b60008219821115610e8057610e80610da1565b50019056fea26469706673582212200dd25a1a1b3eee45f458b662076e339ff2d6942d869844acf7eb8aca38a10f0f64736f6c634300080f0033",
    "linkReferences": {}
  },
  "methodIdentifiers": {
    "DOMAIN_SEPARATOR()": "3644e515",
    "INIT()": "ea643914",
    "KEYCODE()": "1ae7ec2e",
    "VERSION()": "ffa1ad74",
    "allowance(address,address)": "dd62ed3e",
    "approve(address,uint256)": "095ea7b3",
    "balanceOf(address)": "70a08231",
    "burnFrom(address,uint256)": "79cc6790",
    "changeKernel(address)": "4657b36c",
    "decimals()": "313ce567",
    "kernel()": "d4aae0c4",
    "mintTo(address,uint256)": "449a52f8",
    "name()": "06fdde03",
    "nonces(address)": "7ecebe00",
    "permit(address,address,uint256,uint256,uint8,bytes32,bytes32)": "d505accf",
    "symbol()": "95d89b41",
    "totalSupply()": "18160ddd",
    "transfer(address,uint256)": "a9059cbb",
    "transferFrom(address,address,uint256)": "23b872dd"
  },
  "id": 26
}