{
  "abi": [
    {
      "inputs": [
        {
          "internalType": "contract Kernel",
          "name": "kernel_",
          "type": "address"
        }
      ],
      "stateMutability": "nonpayable",
      "type": "constructor"
    },
    {
      "inputs": [
        {
          "internalType": "address",
          "name": "caller_",
          "type": "address"
        }
      ],
      "name": "KernelAdapter_OnlyKernel",
      "type": "error"
    },
    {
      "inputs": [
        {
          "internalType": "address",
          "name": "policy_",
          "type": "address"
        }
      ],
      "name": "Module_PolicyNotPermitted",
      "type": "error"
    },
    {
      "inputs": [],
      "name": "TRSRY_NoDebtOutstanding",
      "type": "error"
    },
    {
      "inputs": [],
      "name": "TRSRY_NotApproved",
      "type": "error"
    },
    {
      "anonymous": false,
      "inputs": [
        {
          "indexed": true,
          "internalType": "address",
          "name": "policy_",
          "type": "address"
        },
        {
          "indexed": true,
          "internalType": "contract ERC20",
          "name": "token_",
          "type": "address"
        },
        {
          "indexed": false,
          "internalType": "uint256",
          "name": "amount_",
          "type": "uint256"
        }
      ],
      "name": "ApprovedForWithdrawal",
      "type": "event"
    },
    {
      "anonymous": false,
      "inputs": [
        {
          "indexed": true,
          "internalType": "contract ERC20",
          "name": "token_",
          "type": "address"
        },
        {
          "indexed": true,
          "internalType": "address",
          "name": "policy_",
          "type": "address"
        },
        {
          "indexed": false,
          "internalType": "uint256",
          "name": "amount_",
          "type": "uint256"
        }
      ],
      "name": "DebtIncurred",
      "type": "event"
    },
    {
      "anonymous": false,
      "inputs": [
        {
          "indexed": true,
          "internalType": "contract ERC20",
          "name": "token_",
          "type": "address"
        },
        {
          "indexed": true,
          "internalType": "address",
          "name": "policy_",
          "type": "address"
        },
        {
          "indexed": false,
          "internalType": "uint256",
          "name": "amount_",
          "type": "uint256"
        }
      ],
      "name": "DebtRepaid",
      "type": "event"
    },
    {
      "anonymous": false,
      "inputs": [
        {
          "indexed": true,
          "internalType": "contract ERC20",
          "name": "token_",
          "type": "address"
        },
        {
          "indexed": true,
          "internalType": "address",
          "name": "policy_",
          "type": "address"
        },
        {
          "indexed": false,
          "internalType": "uint256",
          "name": "amount_",
          "type": "uint256"
        }
      ],
      "name": "DebtSet",
      "type": "event"
    },
    {
      "anonymous": false,
      "inputs": [
        {
          "indexed": true,
          "internalType": "address",
          "name": "policy_",
          "type": "address"
        },
        {
          "indexed": true,
          "internalType": "address",
          "name": "withdrawer_",
          "type": "address"
        },
        {
          "indexed": true,
          "internalType": "contract ERC20",
          "name": "token_",
          "type": "address"
        },
        {
          "indexed": false,
          "internalType": "uint256",
          "name": "amount_",
          "type": "uint256"
        }
      ],
      "name": "Withdrawal",
      "type": "event"
    },
    {
      "inputs": [],
      "name": "INIT",
      "outputs": [],
      "stateMutability": "nonpayable",
      "type": "function"
    },
    {
      "inputs": [],
      "name": "KEYCODE",
      "outputs": [
        {
          "internalType": "Keycode",
          "name": "",
          "type": "bytes5"
        }
      ],
      "stateMutability": "pure",
      "type": "function"
    },
    {
      "inputs": [],
      "name": "VERSION",
      "outputs": [
        {
          "internalType": "uint8",
          "name": "major",
          "type": "uint8"
        },
        {
          "internalType": "uint8",
          "name": "minor",
          "type": "uint8"
        }
      ],
      "stateMutability": "pure",
      "type": "function"
    },
    {
      "inputs": [
        {
          "internalType": "contract Kernel",
          "name": "newKernel_",
          "type": "address"
        }
      ],
      "name": "changeKernel",
      "outputs": [],
      "stateMutability": "nonpayable",
      "type": "function"
    },
    {
      "inputs": [
        {
          "internalType": "contract ERC20",
          "name": "token_",
          "type": "address"
        },
        {
          "internalType": "uint256",
          "name": "amount_",
          "type": "uint256"
        }
      ],
      "name": "getLoan",
      "outputs": [],
      "stateMutability": "nonpayable",
      "type": "function"
    },
    {
      "inputs": [
        {
          "internalType": "contract ERC20",
          "name": "token_",
          "type": "address"
        }
      ],
      "name": "getReserveBalance",
      "outputs": [
        {
          "internalType": "uint256",
          "name": "",
          "type": "uint256"
        }
      ],
      "stateMutability": "view",
      "type": "function"
    },
    {
      "inputs": [],
      "name": "kernel",
      "outputs": [
        {
          "internalType": "contract Kernel",
          "name": "",
          "type": "address"
        }
      ],
      "stateMutability": "view",
      "type": "function"
    },
    {
      "inputs": [
        {
          "internalType": "contract ERC20",
          "name": "token_",
          "type": "address"
        },
        {
          "internalType": "uint256",
          "name": "amount_",
          "type": "uint256"
        }
      ],
      "name": "repayLoan",
      "outputs": [],
      "stateMutability": "nonpayable",
      "type": "function"
    },
    {
      "inputs": [
        {
          "internalType": "contract ERC20",
          "name": "",
          "type": "address"
        },
        {
          "internalType": "address",
          "name": "",
          "type": "address"
        }
      ],
      "name": "reserveDebt",
      "outputs": [
        {
          "internalType": "uint256",
          "name": "",
          "type": "uint256"
        }
      ],
      "stateMutability": "view",
      "type": "function"
    },
    {
      "inputs": [
        {
          "internalType": "address",
          "name": "withdrawer_",
          "type": "address"
        },
        {
          "internalType": "contract ERC20",
          "name": "token_",
          "type": "address"
        },
        {
          "internalType": "uint256",
          "name": "amount_",
          "type": "uint256"
        }
      ],
      "name": "setApprovalFor",
      "outputs": [],
      "stateMutability": "nonpayable",
      "type": "function"
    },
    {
      "inputs": [
        {
          "internalType": "contract ERC20",
          "name": "token_",
          "type": "address"
        },
        {
          "internalType": "address",
          "name": "debtor_",
          "type": "address"
        },
        {
          "internalType": "uint256",
          "name": "amount_",
          "type": "uint256"
        }
      ],
      "name": "setDebt",
      "outputs": [],
      "stateMutability": "nonpayable",
      "type": "function"
    },
    {
      "inputs": [
        {
          "internalType": "contract ERC20",
          "name": "",
          "type": "address"
        }
      ],
      "name": "totalDebt",
      "outputs": [
        {
          "internalType": "uint256",
          "name": "",
          "type": "uint256"
        }
      ],
      "stateMutability": "view",
      "type": "function"
    },
    {
      "inputs": [
        {
          "internalType": "address",
          "name": "",
          "type": "address"
        },
        {
          "internalType": "contract ERC20",
          "name": "",
          "type": "address"
        }
      ],
      "name": "withdrawApproval",
      "outputs": [
        {
          "internalType": "uint256",
          "name": "",
          "type": "uint256"
        }
      ],
      "stateMutability": "view",
      "type": "function"
    },
    {
      "inputs": [
        {
          "internalType": "address",
          "name": "to_",
          "type": "address"
        },
        {
          "internalType": "contract ERC20",
          "name": "token_",
          "type": "address"
        },
        {
          "internalType": "uint256",
          "name": "amount_",
          "type": "uint256"
        }
      ],
      "name": "withdrawReserves",
      "outputs": [],
      "stateMutability": "nonpayable",
      "type": "function"
    }
  ],
  "bytecode": {
    "object": "0x60806040526001805534801561001457600080fd5b50604051610f78380380610f7883398101604081905261003391610058565b600080546001600160a01b0319166001600160a01b0392909216919091179055610088565b60006020828403121561006a57600080fd5b81516001600160a01b038116811461008157600080fd5b9392505050565b610ee1806100976000396000f3fe608060405234801561001057600080fd5b50600436106100ea5760003560e01c80635f0736a11161008c578063d1b5b47511610066578063d1b5b47514610202578063d4aae0c414610215578063ea64391414610240578063ffa1ad741461024857600080fd5b80635f0736a1146101b157806393a595f5146101dc578063a1c51586146101ef57600080fd5b806328a4ace5116100c857806328a4ace51461014b5780632f42aef5146101765780634657b36c1461018b5780634aae164b1461019e57600080fd5b806315226b54146100ef5780631ae7ec2e146101155780631ff517ff1461012b575b600080fd5b6101026100fd366004610cf1565b61025d565b6040519081526020015b60405180910390f35b60405164545253525960d81b815260200161010c565b610102610139366004610cf1565b60036020526000908152604090205481565b610102610159366004610d15565b600460209081526000928352604080842090915290825290205481565b610189610184366004610d4e565b6102e7565b005b610189610199366004610cf1565b610362565b6101896101ac366004610d4e565b6103b6565b6101026101bf366004610d15565b600260209081526000928352604080842090915290825290205481565b6101896101ea366004610d8f565b610557565b6101896101fd366004610d8f565b61078b565b610189610210366004610d4e565b6108fa565b600054610228906001600160a01b031681565b6040516001600160a01b03909116815260200161010c565b610189610a01565b6040805160018152600060208201520161010c565b6001600160a01b0381166000818152600360205260408082205490516370a0823160e01b8152306004820152919290916370a0823190602401602060405180830381865afa1580156102b3573d6000803e3d6000fd5b505050506040513d601f19601f820116820180604052508101906102d79190610dbb565b6102e19190610dea565b92915050565b6102f2338383610a30565b6103066001600160a01b0383168483610ab1565b816001600160a01b0316836001600160a01b0316336001600160a01b03167f342e7ff505a8a0364cd0dc2ff195c315e43bce86b204846ecd36913e117b109e8460405161035591815260200190565b60405180910390a4505050565b6000546001600160a01b031633146103945760405163053e900f60e21b81523360048201526024015b60405180910390fd5b600080546001600160a01b0319166001600160a01b0392909216919091179055565b6000546001600160a01b031663f166d9eb64545253525960d81b336000356001600160e01b0319166040518463ffffffff1660e01b81526004016103fc93929190610e02565b602060405180830381865afa158015610419573d6000803e3d6000fd5b505050506040513d601f19601f8201168201806040525081019061043d9190610e37565b61045c576040516311bf00c960e01b815233600482015260240161038b565b6001600160a01b038381166000908152600460209081526040808320938616835292905220805490829055818110156104cc576104998183610e59565b6001600160a01b038516600090815260036020526040812080549091906104c1908490610dea565b909155506105049050565b6104d68282610e59565b6001600160a01b038516600090815260036020526040812080549091906104fe908490610e59565b90915550505b826001600160a01b0316846001600160a01b03167f4417d205f6349e66a581332b36195e74d10f878e80db907b4fd3a814aad4049d8460405161054991815260200190565b60405180910390a350505050565b6001546001146105965760405162461bcd60e51b815260206004820152600a6024820152695245454e5452414e435960b01b604482015260640161038b565b60026001556001600160a01b038216600090815260046020908152604080832033845290915281205490036105de5760405163a4255dc560e01b815260040160405180910390fd5b6040516370a0823160e01b81523060048201526000906001600160a01b038416906370a0823190602401602060405180830381865afa158015610625573d6000803e3d6000fd5b505050506040513d601f19601f820116820180604052508101906106499190610dbb565b90506106606001600160a01b038416333085610bbe565b6040516370a0823160e01b815230600482015260009082906001600160a01b038616906370a0823190602401602060405180830381865afa1580156106a9573d6000803e3d6000fd5b505050506040513d601f19601f820116820180604052508101906106cd9190610dbb565b6106d79190610e59565b6001600160a01b038516600090815260046020908152604080832033845290915281208054929350839290919061070f908490610e59565b90915550506001600160a01b0384166000908152600360205260408120805483929061073c908490610e59565b909155505060405181815233906001600160a01b038616907feef1a28252f7c3266ccea3202ee9693f0834485bc3551310a406e04829c7e2cf9060200160405180910390a35050600180555050565b6000546001600160a01b031663f166d9eb64545253525960d81b336000356001600160e01b0319166040518463ffffffff1660e01b81526004016107d193929190610e02565b602060405180830381865afa1580156107ee573d6000803e3d6000fd5b505050506040513d601f19601f820116820180604052508101906108129190610e37565b610831576040516311bf00c960e01b815233600482015260240161038b565b61083c338383610a30565b6001600160a01b03821660009081526004602090815260408083203384529091528120805483929061086f908490610dea565b90915550506001600160a01b0382166000908152600360205260408120805483929061089c908490610dea565b909155506108b690506001600160a01b0383163383610ab1565b60405181815233906001600160a01b038416907f7f04a714958851e1d87b504651ba77ab02f62bae8879f577bf3e07cf8567aba29060200160405180910390a35050565b6000546001600160a01b031663f166d9eb64545253525960d81b336000356001600160e01b0319166040518463ffffffff1660e01b815260040161094093929190610e02565b602060405180830381865afa15801561095d573d6000803e3d6000fd5b505050506040513d601f19601f820116820180604052508101906109819190610e37565b6109a0576040516311bf00c960e01b815233600482015260240161038b565b6001600160a01b0383811660008181526002602090815260408083209487168084529482529182902085905590518481527f51e1070ccb07483325e7ef1cf9dc7a9bac0598f2f9f316ad056a73d175c14bcc910160405180910390a3505050565b6000546001600160a01b03163314610a2e5760405163053e900f60e21b815233600482015260240161038b565b565b6001600160a01b0380841660009081526002602090815260408083209386168352929052205481811015610a775760405163b4734a4560e01b815260040160405180910390fd5b6000198114610aab576001600160a01b03808516600090815260026020908152604080832093871683529290522082820390555b50505050565b604080516001600160a01b038481166024830152604480830185905283518084039091018152606490920183526020820180516001600160e01b031663a9059cbb60e01b1790529151600092839290871691610b0d9190610e70565b6000604051808303816000865af19150503d8060008114610b4a576040519150601f19603f3d011682016040523d82523d6000602084013e610b4f565b606091505b5091509150818015610b79575080511580610b79575080806020019051810190610b799190610e37565b610bb75760405162461bcd60e51b815260206004820152600f60248201526e1514905394d1915497d19052531151608a1b604482015260640161038b565b5050505050565b604080516001600160a01b0385811660248301528481166044830152606480830185905283518084039091018152608490920183526020820180516001600160e01b03166323b872dd60e01b1790529151600092839290881691610c229190610e70565b6000604051808303816000865af19150503d8060008114610c5f576040519150601f19603f3d011682016040523d82523d6000602084013e610c64565b606091505b5091509150818015610c8e575080511580610c8e575080806020019051810190610c8e9190610e37565b610cd15760405162461bcd60e51b81526020600482015260146024820152731514905394d1915497d19493d357d1905253115160621b604482015260640161038b565b505050505050565b6001600160a01b0381168114610cee57600080fd5b50565b600060208284031215610d0357600080fd5b8135610d0e81610cd9565b9392505050565b60008060408385031215610d2857600080fd5b8235610d3381610cd9565b91506020830135610d4381610cd9565b809150509250929050565b600080600060608486031215610d6357600080fd5b8335610d6e81610cd9565b92506020840135610d7e81610cd9565b929592945050506040919091013590565b60008060408385031215610da257600080fd5b8235610dad81610cd9565b946020939093013593505050565b600060208284031215610dcd57600080fd5b5051919050565b634e487b7160e01b600052601160045260246000fd5b60008219821115610dfd57610dfd610dd4565b500190565b6001600160d81b03199390931683526001600160a01b039190911660208301526001600160e01b031916604082015260600190565b600060208284031215610e4957600080fd5b81518015158114610d0e57600080fd5b600082821015610e6b57610e6b610dd4565b500390565b6000825160005b81811015610e915760208186018101518583015201610e77565b81811115610ea0576000828501525b50919091019291505056fea2646970667358221220952da73018d87d66e4cdd67902eaba608da5167f4442f795f5dc440447c9719d64736f6c634300080f0033",
    "linkReferences": {}
  },
  "methodIdentifiers": {
    "INIT()": "ea643914",
    "KEYCODE()": "1ae7ec2e",
    "VERSION()": "ffa1ad74",
    "changeKernel(address)": "4657b36c",
    "getLoan(address,uint256)": "a1c51586",
    "getReserveBalance(address)": "15226b54",
    "kernel()": "d4aae0c4",
    "repayLoan(address,uint256)": "93a595f5",
    "reserveDebt(address,address)": "28a4ace5",
    "setApprovalFor(address,address,uint256)": "d1b5b475",
    "setDebt(address,address,uint256)": "4aae164b",
    "totalDebt(address)": "1ff517ff",
    "withdrawApproval(address,address)": "5f0736a1",
    "withdrawReserves(address,address,uint256)": "2f42aef5"
  },
  "id": 25
}