{
  "abi": [
    {
      "inputs": [
        {
          "internalType": "contract Kernel",
          "name": "kernel_",
          "type": "address"
        }
      ],
      "stateMutability": "nonpayable",
      "type": "constructor"
    },
    {
      "inputs": [
        {
          "internalType": "address",
          "name": "caller_",
          "type": "address"
        }
      ],
      "name": "KernelAdapter_OnlyKernel",
      "type": "error"
    },
    {
      "inputs": [
        {
          "internalType": "address",
          "name": "policy_",
          "type": "address"
        }
      ],
      "name": "Module_PolicyNotPermitted",
      "type": "error"
    },
    {
      "inputs": [],
      "name": "INIT",
      "outputs": [],
      "stateMutability": "nonpayable",
      "type": "function"
    },
    {
      "inputs": [],
      "name": "KEYCODE",
      "outputs": [
        {
          "internalType": "Keycode",
          "name": "",
          "type": "bytes5"
        }
      ],
      "stateMutability": "pure",
      "type": "function"
    },
    {
      "inputs": [],
      "name": "VERSION",
      "outputs": [
        {
          "internalType": "uint8",
          "name": "major",
          "type": "uint8"
        },
        {
          "internalType": "uint8",
          "name": "minor",
          "type": "uint8"
        }
      ],
      "stateMutability": "pure",
      "type": "function"
    },
    {
      "inputs": [
        {
          "internalType": "contract Kernel",
          "name": "newKernel_",
          "type": "address"
        }
      ],
      "name": "changeKernel",
      "outputs": [],
      "stateMutability": "nonpayable",
      "type": "function"
    },
    {
      "inputs": [],
      "name": "counter",
      "outputs": [
        {
          "internalType": "uint256",
          "name": "",
          "type": "uint256"
        }
      ],
      "stateMutability": "view",
      "type": "function"
    },
    {
      "inputs": [],
      "name": "kernel",
      "outputs": [
        {
          "internalType": "contract Kernel",
          "name": "",
          "type": "address"
        }
      ],
      "stateMutability": "view",
      "type": "function"
    },
    {
      "inputs": [],
      "name": "permissionedCall",
      "outputs": [],
      "stateMutability": "nonpayable",
      "type": "function"
    }
  ],
  "bytecode": {
    "object": "0x608060405234801561001057600080fd5b506040516103a83803806103a883398101604081905261002f91610054565b600080546001600160a01b0319166001600160a01b0392909216919091179055610084565b60006020828403121561006657600080fd5b81516001600160a01b038116811461007d57600080fd5b9392505050565b610315806100936000396000f3fe608060405234801561001057600080fd5b506004361061007d5760003560e01c8063a7167caf1161005b578063a7167caf146100c9578063d4aae0c4146100d1578063ea643914146100fc578063ffa1ad741461010457600080fd5b80631ae7ec2e146100825780634657b36c1461009d57806361bc221a146100b2575b600080fd5b604051644d4f434b5960d81b81526020015b60405180910390f35b6100b06100ab366004610266565b610119565b005b6100bb60015481565b604051908152602001610094565b6100b061016d565b6000546100e4906001600160a01b031681565b6040516001600160a01b039091168152602001610094565b6100b0610237565b60408051600181526000602082015201610094565b6000546001600160a01b0316331461014b5760405163053e900f60e21b81523360048201526024015b60405180910390fd5b600080546001600160a01b0319166001600160a01b0392909216919091179055565b6000546001600160a01b031663f166d9eb644d4f434b5960d81b6040516001600160e01b031960e084901b811682526001600160d81b03199290921660048201523360248201526000359091166044820152606401602060405180830381865afa1580156101df573d6000803e3d6000fd5b505050506040513d601f19601f820116820180604052508101906102039190610296565b610222576040516311bf00c960e01b8152336004820152602401610142565b600160008154610231906102b8565b90915550565b6000546001600160a01b031633146102645760405163053e900f60e21b8152336004820152602401610142565b565b60006020828403121561027857600080fd5b81356001600160a01b038116811461028f57600080fd5b9392505050565b6000602082840312156102a857600080fd5b8151801515811461028f57600080fd5b6000600182016102d857634e487b7160e01b600052601160045260246000fd5b506001019056fea26469706673582212207bb84a7255981b74d0e3c6d37937d8151276b2b615cd5bcbf4e93ffa955de76564736f6c634300080f0033",
    "linkReferences": {}
  },
  "methodIdentifiers": {
    "INIT()": "ea643914",
    "KEYCODE()": "1ae7ec2e",
    "VERSION()": "ffa1ad74",
    "changeKernel(address)": "4657b36c",
    "counter()": "61bc221a",
    "kernel()": "d4aae0c4",
    "permissionedCall()": "a7167caf"
  },
  "id": 60
}