{
  "abi": [
    {
      "inputs": [
        {
          "internalType": "address",
          "name": "guardian_",
          "type": "address"
        },
        {
          "internalType": "contract Authority",
          "name": "authority_",
          "type": "address"
        }
      ],
      "stateMutability": "nonpayable",
      "type": "constructor"
    },
    {
      "inputs": [],
      "name": "Aggregator_OnlyAuctioneer",
      "type": "error"
    },
    {
      "anonymous": false,
      "inputs": [
        {
          "indexed": true,
          "internalType": "address",
          "name": "user",
          "type": "address"
        },
        {
          "indexed": true,
          "internalType": "contract Authority",
          "name": "newAuthority",
          "type": "address"
        }
      ],
      "name": "AuthorityUpdated",
      "type": "event"
    },
    {
      "anonymous": false,
      "inputs": [
        {
          "indexed": true,
          "internalType": "address",
          "name": "user",
          "type": "address"
        },
        {
          "indexed": true,
          "internalType": "address",
          "name": "newOwner",
          "type": "address"
        }
      ],
      "name": "OwnerUpdated",
      "type": "event"
    },
    {
      "inputs": [
        {
          "internalType": "uint256",
          "name": "",
          "type": "uint256"
        }
      ],
      "name": "auctioneers",
      "outputs": [
        {
          "internalType": "contract IBondAuctioneer",
          "name": "",
          "type": "address"
        }
      ],
      "stateMutability": "view",
      "type": "function"
    },
    {
      "inputs": [],
      "name": "authority",
      "outputs": [
        {
          "internalType": "contract Authority",
          "name": "",
          "type": "address"
        }
      ],
      "stateMutability": "view",
      "type": "function"
    },
    {
      "inputs": [
        {
          "internalType": "uint256",
          "name": "id_",
          "type": "uint256"
        }
      ],
      "name": "currentCapacity",
      "outputs": [
        {
          "internalType": "uint256",
          "name": "",
          "type": "uint256"
        }
      ],
      "stateMutability": "view",
      "type": "function"
    },
    {
      "inputs": [
        {
          "internalType": "address",
          "name": "payout_",
          "type": "address"
        },
        {
          "internalType": "address",
          "name": "quote_",
          "type": "address"
        },
        {
          "internalType": "uint256",
          "name": "amountIn_",
          "type": "uint256"
        },
        {
          "internalType": "uint256",
          "name": "minAmountOut_",
          "type": "uint256"
        },
        {
          "internalType": "uint256",
          "name": "maxExpiry_",
          "type": "uint256"
        }
      ],
      "name": "findMarketFor",
      "outputs": [
        {
          "internalType": "uint256",
          "name": "",
          "type": "uint256"
        }
      ],
      "stateMutability": "view",
      "type": "function"
    },
    {
      "inputs": [
        {
          "internalType": "uint256",
          "name": "id_",
          "type": "uint256"
        }
      ],
      "name": "getAuctioneer",
      "outputs": [
        {
          "internalType": "contract IBondAuctioneer",
          "name": "",
          "type": "address"
        }
      ],
      "stateMutability": "view",
      "type": "function"
    },
    {
      "inputs": [
        {
          "internalType": "uint256",
          "name": "id_",
          "type": "uint256"
        }
      ],
      "name": "getTeller",
      "outputs": [
        {
          "internalType": "contract IBondTeller",
          "name": "",
          "type": "address"
        }
      ],
      "stateMutability": "view",
      "type": "function"
    },
    {
      "inputs": [
        {
          "internalType": "uint256",
          "name": "id_",
          "type": "uint256"
        }
      ],
      "name": "isInstantSwap",
      "outputs": [
        {
          "internalType": "bool",
          "name": "",
          "type": "bool"
        }
      ],
      "stateMutability": "view",
      "type": "function"
    },
    {
      "inputs": [
        {
          "internalType": "uint256",
          "name": "id_",
          "type": "uint256"
        }
      ],
      "name": "isLive",
      "outputs": [
        {
          "internalType": "bool",
          "name": "",
          "type": "bool"
        }
      ],
      "stateMutability": "view",
      "type": "function"
    },
    {
      "inputs": [
        {
          "internalType": "uint256",
          "name": "firstIndex_",
          "type": "uint256"
        },
        {
          "internalType": "uint256",
          "name": "lastIndex_",
          "type": "uint256"
        }
      ],
      "name": "liveMarketsBetween",
      "outputs": [
        {
          "internalType": "uint256[]",
          "name": "",
          "type": "uint256[]"
        }
      ],
      "stateMutability": "view",
      "type": "function"
    },
    {
      "inputs": [
        {
          "internalType": "address",
          "name": "owner_",
          "type": "address"
        }
      ],
      "name": "liveMarketsBy",
      "outputs": [
        {
          "internalType": "uint256[]",
          "name": "",
          "type": "uint256[]"
        }
      ],
      "stateMutability": "view",
      "type": "function"
    },
    {
      "inputs": [
        {
          "internalType": "address",
          "name": "token_",
          "type": "address"
        },
        {
          "internalType": "bool",
          "name": "isPayout_",
          "type": "bool"
        }
      ],
      "name": "liveMarketsFor",
      "outputs": [
        {
          "internalType": "uint256[]",
          "name": "",
          "type": "uint256[]"
        }
      ],
      "stateMutability": "view",
      "type": "function"
    },
    {
      "inputs": [],
      "name": "marketCounter",
      "outputs": [
        {
          "internalType": "uint256",
          "name": "",
          "type": "uint256"
        }
      ],
      "stateMutability": "view",
      "type": "function"
    },
    {
      "inputs": [
        {
          "internalType": "uint256",
          "name": "id_",
          "type": "uint256"
        }
      ],
      "name": "marketPrice",
      "outputs": [
        {
          "internalType": "uint256",
          "name": "",
          "type": "uint256"
        }
      ],
      "stateMutability": "view",
      "type": "function"
    },
    {
      "inputs": [
        {
          "internalType": "address",
          "name": "payout_",
          "type": "address"
        },
        {
          "internalType": "address",
          "name": "quote_",
          "type": "address"
        }
      ],
      "name": "marketsFor",
      "outputs": [
        {
          "internalType": "uint256[]",
          "name": "",
          "type": "uint256[]"
        }
      ],
      "stateMutability": "view",
      "type": "function"
    },
    {
      "inputs": [
        {
          "internalType": "address",
          "name": "",
          "type": "address"
        },
        {
          "internalType": "uint256",
          "name": "",
          "type": "uint256"
        }
      ],
      "name": "marketsForPayout",
      "outputs": [
        {
          "internalType": "uint256",
          "name": "",
          "type": "uint256"
        }
      ],
      "stateMutability": "view",
      "type": "function"
    },
    {
      "inputs": [
        {
          "internalType": "address",
          "name": "",
          "type": "address"
        },
        {
          "internalType": "uint256",
          "name": "",
          "type": "uint256"
        }
      ],
      "name": "marketsForQuote",
      "outputs": [
        {
          "internalType": "uint256",
          "name": "",
          "type": "uint256"
        }
      ],
      "stateMutability": "view",
      "type": "function"
    },
    {
      "inputs": [
        {
          "internalType": "uint256",
          "name": "",
          "type": "uint256"
        }
      ],
      "name": "marketsToAuctioneers",
      "outputs": [
        {
          "internalType": "contract IBondAuctioneer",
          "name": "",
          "type": "address"
        }
      ],
      "stateMutability": "view",
      "type": "function"
    },
    {
      "inputs": [
        {
          "internalType": "uint256",
          "name": "id_",
          "type": "uint256"
        },
        {
          "internalType": "address",
          "name": "referrer_",
          "type": "address"
        }
      ],
      "name": "maxAmountAccepted",
      "outputs": [
        {
          "internalType": "uint256",
          "name": "",
          "type": "uint256"
        }
      ],
      "stateMutability": "view",
      "type": "function"
    },
    {
      "inputs": [],
      "name": "owner",
      "outputs": [
        {
          "internalType": "address",
          "name": "",
          "type": "address"
        }
      ],
      "stateMutability": "view",
      "type": "function"
    },
    {
      "inputs": [
        {
          "internalType": "uint256",
          "name": "amount_",
          "type": "uint256"
        },
        {
          "internalType": "uint256",
          "name": "id_",
          "type": "uint256"
        },
        {
          "internalType": "address",
          "name": "referrer_",
          "type": "address"
        }
      ],
      "name": "payoutFor",
      "outputs": [
        {
          "internalType": "uint256",
          "name": "",
          "type": "uint256"
        }
      ],
      "stateMutability": "view",
      "type": "function"
    },
    {
      "inputs": [
        {
          "internalType": "contract IBondAuctioneer",
          "name": "auctioneer_",
          "type": "address"
        }
      ],
      "name": "registerAuctioneer",
      "outputs": [],
      "stateMutability": "nonpayable",
      "type": "function"
    },
    {
      "inputs": [
        {
          "internalType": "contract ERC20",
          "name": "payoutToken_",
          "type": "address"
        },
        {
          "internalType": "contract ERC20",
          "name": "quoteToken_",
          "type": "address"
        }
      ],
      "name": "registerMarket",
      "outputs": [
        {
          "internalType": "uint256",
          "name": "marketId",
          "type": "uint256"
        }
      ],
      "stateMutability": "nonpayable",
      "type": "function"
    },
    {
      "inputs": [
        {
          "internalType": "contract Authority",
          "name": "newAuthority",
          "type": "address"
        }
      ],
      "name": "setAuthority",
      "outputs": [],
      "stateMutability": "nonpayable",
      "type": "function"
    },
    {
      "inputs": [
        {
          "internalType": "address",
          "name": "newOwner",
          "type": "address"
        }
      ],
      "name": "setOwner",
      "outputs": [],
      "stateMutability": "nonpayable",
      "type": "function"
    }
  ],
  "bytecode": {
    "object": "0x60806040523480156200001157600080fd5b5060405162001a5c38038062001a5c8339810160408190526200003491620000e8565b600080546001600160a01b03199081166001600160a01b0385811691821784556001805490931690851617909155604051849284929133917f8292fce18fa69edf4db7b94ea2e58241df0ae57f97e0a6c9b29067028bf92d7691a36040516001600160a01b0382169033907fa3396fd7f6e0a21b50e5089d2da70d5ac0a3bbbd1f617a93f134b7638998019890600090a35050505062000127565b6001600160a01b0381168114620000e557600080fd5b50565b60008060408385031215620000fc57600080fd5b82516200010981620000cf565b60208401519092506200011c81620000cf565b809150509250929050565b61192580620001376000396000f3fe608060405234801561001057600080fd5b50600436106101585760003560e01c80639a0fae9b116100c3578063c0680e201161007c578063c0680e2014610309578063c3b7b1361461031c578063c7bf8ca01461032f578063ea5e0c6014610342578063f3771f781461036b578063f9e709df1461037e57600080fd5b80639a0fae9b1461028a578063b43591431461029d578063bb6e75de146102b0578063bbfe3a32146102d0578063bf48582b146102e3578063bf7e214f146102f657600080fd5b8063520479421161011557806352047942146101ea57806366b382ee1461022b57806378b5a87a1461023e5780637a9e5e4b146102515780638b098db3146102645780638da5cb5b1461027757600080fd5b806306b40ea31461015d57806313af4035146101835780631c063a6c1461019857806324760807146101ab57806327507458146101b45780633adec5a7146101d7575b600080fd5b61017061016b366004611588565b610391565b6040519081526020015b60405180910390f35b6101966101913660046115b4565b6103c2565b005b6101706101a63660046115d1565b610463565b61017060025481565b6101c76101c23660046115d1565b6104e6565b604051901515815260200161017a565b6101706101e53660046115d1565b610562565b6102136101f83660046115d1565b6000908152600560205260409020546001600160a01b031690565b6040516001600160a01b03909116815260200161017a565b6101966102393660046115b4565b6105a1565b61021361024c3660046115d1565b610659565b61019661025f3660046115b4565b6106d1565b6101c76102723660046115d1565b6107bb565b600054610213906001600160a01b031681565b6101706102983660046115ea565b6107fa565b6101706102ab36600461163b565b610a49565b6102c36102be366004611674565b610afa565b60405161017a9190611696565b6102c36102de36600461163b565b610bd9565b6101706102f13660046116da565b610ef7565b600154610213906001600160a01b031681565b610170610317366004611588565b610f8a565b61021361032a3660046115d1565b610fa6565b61017061033d366004611713565b610fd0565b6102136103503660046115d1565b6005602052600090815260409020546001600160a01b031681565b6102c36103793660046115b4565b61105b565b6102c361038c366004611746565b611320565b600660205281600052604060002081815481106103ad57600080fd5b90600052602060002001600091509150505481565b6103d8336000356001600160e01b0319166114c6565b6104185760405162461bcd60e51b815260206004820152600c60248201526b15539055551213d49256915160a21b60448201526064015b60405180910390fd5b600080546001600160a01b0319166001600160a01b0383169081178255604051909133917f8292fce18fa69edf4db7b94ea2e58241df0ae57f97e0a6c9b29067028bf92d769190a350565b6000818152600560205260408082205490516307018e9b60e21b8152600481018490526001600160a01b03909116908190631c063a6c906024015b602060405180830381865afa1580156104bb573d6000803e3d6000fd5b505050506040513d601f19601f820116820180604052508101906104df9190611774565b9392505050565b6000818152600560205260408082205490516304ea0e8b60e31b8152600481018490526001600160a01b039091169081906327507458906024015b602060405180830381865afa15801561053e573d6000803e3d6000fd5b505050506040513d601f19601f820116820180604052508101906104df919061178d565b600081815260056020526040808220549051633adec5a760e01b8152600481018490526001600160a01b03909116908190633adec5a79060240161049e565b6105b7336000356001600160e01b0319166114c6565b6105f25760405162461bcd60e51b815260206004820152600c60248201526b15539055551213d49256915160a21b604482015260640161040f565b6003805460018181019092557fc2575a0e9e593c00f959f8c92f12db2869c3395a3b0502d05e2516446f71f85b0180546001600160a01b039093166001600160a01b031990931683179055600091825260046020526040909120805460ff19169091179055565b6000818152600560209081526040808320548151639787d10760e01b815291516001600160a01b03909116928392639787d10792600480830193928290030181865afa1580156106ad573d6000803e3d6000fd5b505050506040513d601f19601f820116820180604052508101906104df91906117aa565b6000546001600160a01b0316331480610766575060015460405163b700961360e01b81526001600160a01b039091169063b70096139061072590339030906001600160e01b031960003516906004016117c7565b602060405180830381865afa158015610742573d6000803e3d6000fd5b505050506040513d601f19601f82011682018060405250810190610766919061178d565b61076f57600080fd5b600180546001600160a01b0319166001600160a01b03831690811790915560405133907fa3396fd7f6e0a21b50e5089d2da70d5ac0a3bbbd1f617a93f134b7638998019890600090a350565b600081815260056020526040808220549051638b098db360e01b8152600481018490526001600160a01b03909116908190638b098db390602401610521565b6000806108078787610bd9565b805190915060008167ffffffffffffffff811115610827576108276117f4565b604051908082528060200260200182016040528015610850578160200160208202803683370190505b5090506000600019818080805b87811015610a3657600560008a838151811061087b5761087b61180a565b6020026020010151815260200190815260200160002060009054906101000a90046001600160a01b03169150816001600160a01b031663acc5570c8a83815181106108c8576108c861180a565b60200260200101516040518263ffffffff1660e01b81526004016108ee91815260200190565b60c060405180830381865afa15801561090b573d6000803e3d6000fd5b505050506040513d601f19601f8201168201806040525081019061092f9190611820565b9098509650600093505050635dba240065ffffffffffff87161115905061095e578465ffffffffffff16610970565b61097065ffffffffffff8616426118be565b90508b8111610a2557838d11156109885760006109ad565b6109ad8e8b848151811061099e5761099e61180a565b60200260200101516000610ef7565b8883815181106109bf576109bf61180a565b602002602001018181525050868883815181106109de576109de61180a565b60200260200101511115610a25578782815181106109fe576109fe61180a565b60200260200101519650898281518110610a1a57610a1a61180a565b602002602001015195505b50610a2f816118d6565b905061085d565b50929d9c50505050505050505050505050565b3360009081526004602052604081205460ff16610a79576040516323fbaaa960e21b815260040160405180910390fd5b5060028054600081815260056020908152604080832080546001600160a01b031916331790556001600160a01b0387811684526006835281842080546001818101835591865284862001869055908716845260078352908320805491820181558352908220018290558254919291610af0906118d6565b9091555092915050565b60606000835b83811015610b3257610b11816104e6565b15610b2257610b1f826118d6565b91505b610b2b816118d6565b9050610b00565b5060008167ffffffffffffffff811115610b4e57610b4e6117f4565b604051908082528060200260200182016040528015610b77578160200160208202803683370190505b50600092509050845b84811015610bd057610b91816104e6565b15610bc05780828481518110610ba957610ba961180a565b6020908102919091010152610bbd836118d6565b92505b610bc9816118d6565b9050610b80565b50949350505050565b60606000610be8846001611320565b90506000806000808451905060005b81811015610d345760056000878381518110610c1557610c1561180a565b6020026020010151815260200190815260200160002060009054906101000a90046001600160a01b03169250826001600160a01b031663acc5570c878381518110610c6257610c6261180a565b60200260200101516040518263ffffffff1660e01b8152600401610c8891815260200190565b60c060405180830381865afa158015610ca5573d6000803e3d6000fd5b505050506040513d601f19601f82011682018060405250810190610cc99190611820565b50508951909750610cf693508992508491508110610ce957610ce961180a565b60200260200101516104e6565b8015610d135750876001600160a01b0316846001600160a01b0316145b15610d2457610d21856118d6565b94505b610d2d816118d6565b9050610bf7565b5060008467ffffffffffffffff811115610d5057610d506117f4565b604051908082528060200260200182016040528015610d79578160200160208202803683370190505b5090506000945060005b82811015610eea5760056000888381518110610da157610da161180a565b6020026020010151815260200190815260200160002060009054906101000a90046001600160a01b03169350836001600160a01b031663acc5570c888381518110610dee57610dee61180a565b60200260200101516040518263ffffffff1660e01b8152600401610e1491815260200190565b60c060405180830381865afa158015610e31573d6000803e3d6000fd5b505050506040513d601f19601f82011682018060405250810190610e559190611820565b50508a51909850610e7593508a92508491508110610ce957610ce961180a565b8015610e925750886001600160a01b0316856001600160a01b0316145b15610eda57868181518110610ea957610ea961180a565b6020026020010151828781518110610ec357610ec361180a565b6020908102919091010152610ed7866118d6565b95505b610ee3816118d6565b9050610d83565b5098975050505050505050565b60008281526005602052604080822054905163bf48582b60e01b815260048101869052602481018590526001600160a01b03848116604483015290911690819063bf48582b90606401602060405180830381865afa158015610f5d573d6000803e3d6000fd5b505050506040513d601f19601f82011682018060405250810190610f819190611774565b95945050505050565b600760205281600052604060002081815481106103ad57600080fd5b60038181548110610fb657600080fd5b6000918252602090912001546001600160a01b0316905081565b60008281526005602052604080822054905163063dfc6560e51b8152600481018590526001600160a01b03848116602483015290911690819063c7bf8ca090604401602060405180830381865afa15801561102f573d6000803e3d6000fd5b505050506040513d601f19601f820116820180604052508101906110539190611774565b949350505050565b606060008060005b60025481101561118b57600081815260056020526040908190205490516304ea0e8b60e31b8152600481018390526001600160a01b0390911692508290632750745890602401602060405180830381865afa1580156110c6573d6000803e3d6000fd5b505050506040513d601f19601f820116820180604052508101906110ea919061178d565b801561116a57506040516331a9108f60e11b8152600481018290526001600160a01b038087169190841690636352211e90602401602060405180830381865afa15801561113b573d6000803e3d6000fd5b505050506040513d601f19601f8201168201806040525081019061115f91906117aa565b6001600160a01b0316145b1561117b57611178836118d6565b92505b611184816118d6565b9050611063565b5060008267ffffffffffffffff8111156111a7576111a76117f4565b6040519080825280602002602001820160405280156111d0578160200160208202803683370190505b5090506000925060005b600254811015610bd057600081815260056020526040908190205490516304ea0e8b60e31b8152600481018390526001600160a01b0390911693508390632750745890602401602060405180830381865afa15801561123d573d6000803e3d6000fd5b505050506040513d601f19601f82011682018060405250810190611261919061178d565b80156112e157506040516331a9108f60e11b8152600481018290526001600160a01b038088169190851690636352211e90602401602060405180830381865afa1580156112b2573d6000803e3d6000fd5b505050506040513d601f19601f820116820180604052508101906112d691906117aa565b6001600160a01b0316145b1561131057808285815181106112f9576112f961180a565b602090810291909101015261130d846118d6565b93505b611319816118d6565b90506111da565b60608082611345576001600160a01b038416600090815260076020526040902061135e565b6001600160a01b03841660009081526006602052604090205b8054806020026020016040519081016040528092919081815260200182805480156113a857602002820191906000526020600020905b815481526020019060010190808311611394575b505050505090506000808251905060005b818110156113f7576113d6848281518110610ce957610ce961180a565b156113e7576113e4836118d6565b92505b6113f0816118d6565b90506113b9565b5060008267ffffffffffffffff811115611413576114136117f4565b60405190808252806020026020018201604052801561143c578160200160208202803683370190505b5090506000925060005b828110156114bb57611463858281518110610ce957610ce961180a565b156114ab5784818151811061147a5761147a61180a565b60200260200101518285815181106114945761149461180a565b60209081029190910101526114a8846118d6565b93505b6114b4816118d6565b9050611446565b509695505050505050565b6001546000906001600160a01b03168015801590611550575060405163b700961360e01b81526001600160a01b0382169063b70096139061150f908790309088906004016117c7565b602060405180830381865afa15801561152c573d6000803e3d6000fd5b505050506040513d601f19601f82011682018060405250810190611550919061178d565b8061105357506000546001600160a01b0385811691161491505092915050565b6001600160a01b038116811461158557600080fd5b50565b6000806040838503121561159b57600080fd5b82356115a681611570565b946020939093013593505050565b6000602082840312156115c657600080fd5b81356104df81611570565b6000602082840312156115e357600080fd5b5035919050565b600080600080600060a0868803121561160257600080fd5b853561160d81611570565b9450602086013561161d81611570565b94979496505050506040830135926060810135926080909101359150565b6000806040838503121561164e57600080fd5b823561165981611570565b9150602083013561166981611570565b809150509250929050565b6000806040838503121561168757600080fd5b50508035926020909101359150565b6020808252825182820181905260009190848201906040850190845b818110156116ce578351835292840192918401916001016116b2565b50909695505050505050565b6000806000606084860312156116ef57600080fd5b8335925060208401359150604084013561170881611570565b809150509250925092565b6000806040838503121561172657600080fd5b82359150602083013561166981611570565b801515811461158557600080fd5b6000806040838503121561175957600080fd5b823561176481611570565b9150602083013561166981611738565b60006020828403121561178657600080fd5b5051919050565b60006020828403121561179f57600080fd5b81516104df81611738565b6000602082840312156117bc57600080fd5b81516104df81611570565b6001600160a01b0393841681529190921660208201526001600160e01b0319909116604082015260600190565b634e487b7160e01b600052604160045260246000fd5b634e487b7160e01b600052603260045260246000fd5b60008060008060008060c0878903121561183957600080fd5b865161184481611570565b602088015190965061185581611570565b604088015190955061186681611570565b606088015190945061187781611570565b608088015190935065ffffffffffff8116811461189357600080fd5b8092505060a087015190509295509295509295565b634e487b7160e01b600052601160045260246000fd5b600082198211156118d1576118d16118a8565b500190565b6000600182016118e8576118e86118a8565b506001019056fea2646970667358221220e7eaf1329fdcb38c1986c32f1469094729deb5b1a3da36f08ca11082a28565cd64736f6c634300080f0033",
    "linkReferences": {}
  },
  "methodIdentifiers": {
    "auctioneers(uint256)": "c3b7b136",
    "authority()": "bf7e214f",
    "currentCapacity(uint256)": "1c063a6c",
    "findMarketFor(address,address,uint256,uint256,uint256)": "9a0fae9b",
    "getAuctioneer(uint256)": "52047942",
    "getTeller(uint256)": "78b5a87a",
    "isInstantSwap(uint256)": "8b098db3",
    "isLive(uint256)": "27507458",
    "liveMarketsBetween(uint256,uint256)": "bb6e75de",
    "liveMarketsBy(address)": "f3771f78",
    "liveMarketsFor(address,bool)": "f9e709df",
    "marketCounter()": "24760807",
    "marketPrice(uint256)": "3adec5a7",
    "marketsFor(address,address)": "bbfe3a32",
    "marketsForPayout(address,uint256)": "06b40ea3",
    "marketsForQuote(address,uint256)": "c0680e20",
    "marketsToAuctioneers(uint256)": "ea5e0c60",
    "maxAmountAccepted(uint256,address)": "c7bf8ca0",
    "owner()": "8da5cb5b",
    "payoutFor(uint256,uint256,address)": "bf48582b",
    "registerAuctioneer(address)": "66b382ee",
    "registerMarket(address,address)": "b4359143",
    "setAuthority(address)": "7a9e5e4b",
    "setOwner(address)": "13af4035"
  },
  "id": 40
}