{
  "abi": [
    {
      "inputs": [
        {
          "internalType": "contract Kernel",
          "name": "kernel_",
          "type": "address"
        }
      ],
      "stateMutability": "nonpayable",
      "type": "constructor"
    },
    {
      "inputs": [
        {
          "internalType": "address",
          "name": "caller_",
          "type": "address"
        }
      ],
      "name": "KernelAdapter_OnlyKernel",
      "type": "error"
    },
    {
      "inputs": [
        {
          "internalType": "Keycode",
          "name": "keycode_",
          "type": "bytes5"
        }
      ],
      "name": "Policy_ModuleDoesNotExist",
      "type": "error"
    },
    {
      "inputs": [
        {
          "internalType": "Role",
          "name": "role_",
          "type": "bytes32"
        }
      ],
      "name": "Policy_OnlyRole",
      "type": "error"
    },
    {
      "inputs": [
        {
          "internalType": "contract Kernel",
          "name": "newKernel_",
          "type": "address"
        }
      ],
      "name": "changeKernel",
      "outputs": [],
      "stateMutability": "nonpayable",
      "type": "function"
    },
    {
      "inputs": [
        {
          "internalType": "uint48",
          "name": "movingAverageDuration_",
          "type": "uint48"
        }
      ],
      "name": "changeMovingAverageDuration",
      "outputs": [],
      "stateMutability": "nonpayable",
      "type": "function"
    },
    {
      "inputs": [
        {
          "internalType": "uint48",
          "name": "observationFrequency_",
          "type": "uint48"
        }
      ],
      "name": "changeObservationFrequency",
      "outputs": [],
      "stateMutability": "nonpayable",
      "type": "function"
    },
    {
      "inputs": [],
      "name": "configureDependencies",
      "outputs": [
        {
          "internalType": "Keycode[]",
          "name": "dependencies",
          "type": "bytes5[]"
        }
      ],
      "stateMutability": "nonpayable",
      "type": "function"
    },
    {
      "inputs": [
        {
          "internalType": "uint256[]",
          "name": "startObservations_",
          "type": "uint256[]"
        },
        {
          "internalType": "uint48",
          "name": "lastObservationTime_",
          "type": "uint48"
        }
      ],
      "name": "initialize",
      "outputs": [],
      "stateMutability": "nonpayable",
      "type": "function"
    },
    {
      "inputs": [],
      "name": "isActive",
      "outputs": [
        {
          "internalType": "bool",
          "name": "",
          "type": "bool"
        }
      ],
      "stateMutability": "view",
      "type": "function"
    },
    {
      "inputs": [],
      "name": "kernel",
      "outputs": [
        {
          "internalType": "contract Kernel",
          "name": "",
          "type": "address"
        }
      ],
      "stateMutability": "view",
      "type": "function"
    },
    {
      "inputs": [],
      "name": "requestPermissions",
      "outputs": [
        {
          "components": [
            {
              "internalType": "Keycode",
              "name": "keycode",
              "type": "bytes5"
            },
            {
              "internalType": "bytes4",
              "name": "funcSelector",
              "type": "bytes4"
            }
          ],
          "internalType": "struct Permissions[]",
          "name": "permissions",
          "type": "tuple[]"
        }
      ],
      "stateMutability": "view",
      "type": "function"
    },
    {
      "inputs": [
        {
          "internalType": "bool",
          "name": "activate_",
          "type": "bool"
        }
      ],
      "name": "setActiveStatus",
      "outputs": [],
      "stateMutability": "nonpayable",
      "type": "function"
    }
  ],
  "bytecode": {
    "object": "0x608060405234801561001057600080fd5b50604051610c9e380380610c9e83398101604081905261002f91610054565b600080546001600160a01b0319166001600160a01b0392909216919091179055610084565b60006020828403121561006657600080fd5b81516001600160a01b038116811461007d57600080fd5b9392505050565b610c0b806100936000396000f3fe608060405234801561001057600080fd5b50600436106100935760003560e01c80638a157337116100665780638a157337146100fe578063902a35b9146101115780639459b87514610124578063d4aae0c414610139578063ec7404b11461016457600080fd5b806322f3e2d4146100985780634657b36c146100c15780635924be70146100d65780637d4dce76146100eb575b600080fd5b6000546100ac90600160a01b900460ff1681565b60405190151581526020015b60405180910390f35b6100d46100cf3660046108ec565b610177565b005b6100de6101cb565b6040516100b89190610910565b6100d46100f936600461098e565b610432565b6100d461010c36600461098e565b610543565b6100d461011f3660046109bf565b610621565b61012c610731565b6040516100b89190610a8f565b60005461014c906001600160a01b031681565b6040516001600160a01b0390911681526020016100b8565b6100d4610172366004610aeb565b6107d7565b6000546001600160a01b031633146101a95760405163053e900f60e21b81523360048201526024015b60405180910390fd5b600080546001600160a01b0319166001600160a01b0392909216919091179055565b60408051600380825260808201909252606091816020015b60408051808201909152600080825260208201528152602001906001900390816101e357505060408051808201808352600154630d73f61760e11b90915291519293509182916001600160a01b031690631ae7ec2e906044808501916020918187030181865afa15801561025b573d6000803e3d6000fd5b505050506040513d601f19601f8201168201806040525081019061027f9190610b08565b6001600160d81b031916815263902a35b960e01b602090910152815182906000906102ac576102ac610b32565b60200260200101819052506040518060400160405280600160009054906101000a90046001600160a01b03166001600160a01b0316631ae7ec2e6040518163ffffffff1660e01b8152600401602060405180830381865afa158015610315573d6000803e3d6000fd5b505050506040513d601f19601f820116820180604052508101906103399190610b08565b6001600160d81b0319168152638a15733760e01b60209091015281518290600190811061036857610368610b32565b60200260200101819052506040518060400160405280600160009054906101000a90046001600160a01b03166001600160a01b0316631ae7ec2e6040518163ffffffff1660e01b8152600401602060405180830381865afa1580156103d1573d6000803e3d6000fd5b505050506040513d601f19601f820116820180604052508101906103f59190610b08565b6001600160d81b0319168152633ea6e73b60e11b60209091015281518290600290811061042457610424610b32565b602002602001018190525090565b6a383934b1b2afb0b236b4b760a91b60008160005460405163ac4ab3fb60e01b8152336004820152602481018390529192506001600160a01b03169063ac4ab3fb90604401602060405180830381865afa158015610494573d6000803e3d6000fd5b505050506040513d601f19601f820116820180604052508101906104b89190610b48565b6104d8576040516371324ef360e11b8152600481018290526024016101a0565b600154604051633ea6e73b60e11b815265ffffffffffff851660048201526001600160a01b0390911690637d4dce76906024015b600060405180830381600087803b15801561052657600080fd5b505af115801561053a573d6000803e3d6000fd5b50505050505050565b6a383934b1b2afb0b236b4b760a91b60008160005460405163ac4ab3fb60e01b8152336004820152602481018390529192506001600160a01b03169063ac4ab3fb90604401602060405180830381865afa1580156105a5573d6000803e3d6000fd5b505050506040513d601f19601f820116820180604052508101906105c99190610b48565b6105e9576040516371324ef360e11b8152600481018290526024016101a0565b600154604051638a15733760e01b815265ffffffffffff851660048201526001600160a01b0390911690638a1573379060240161050c565b6a383934b1b2afb0b236b4b760a91b60008160005460405163ac4ab3fb60e01b8152336004820152602481018390529192506001600160a01b03169063ac4ab3fb90604401602060405180830381865afa158015610683573d6000803e3d6000fd5b505050506040513d601f19601f820116820180604052508101906106a79190610b48565b6106c7576040516371324ef360e11b8152600481018290526024016101a0565b60015460405163902a35b960e01b81526001600160a01b039091169063902a35b9906106f99087908790600401610b65565b600060405180830381600087803b15801561071357600080fd5b505af1158015610727573d6000803e3d6000fd5b5050505050505050565b6040805160018082528183019092526060916020808301908036833701905050905064505249434560d81b8160008151811061076f5761076f610b32565b60200260200101906001600160d81b03191690816001600160d81b031916815250506107b4816000815181106107a7576107a7610b32565b6020026020010151610822565b600180546001600160a01b0319166001600160a01b039290921691909117905590565b6000546001600160a01b031633146108045760405163053e900f60e21b81523360048201526024016101a0565b60008054911515600160a01b0260ff60a01b19909216919091179055565b60008054604051632d37002d60e21b81526001600160d81b03198416600482015282916001600160a01b03169063b4dc00b490602401602060405180830381865afa158015610875573d6000803e3d6000fd5b505050506040513d601f19601f820116820180604052508101906108999190610bb8565b90506001600160a01b0381166108ce57604051635c3fa9cd60e01b81526001600160d81b0319841660048201526024016101a0565b92915050565b6001600160a01b03811681146108e957600080fd5b50565b6000602082840312156108fe57600080fd5b8135610909816108d4565b9392505050565b602080825282518282018190526000919060409081850190868401855b8281101561096657815180516001600160d81b03191685528601516001600160e01b03191686850152928401929085019060010161092d565b5091979650505050505050565b803565ffffffffffff8116811461098957600080fd5b919050565b6000602082840312156109a057600080fd5b61090982610973565b634e487b7160e01b600052604160045260246000fd5b600080604083850312156109d257600080fd5b823567ffffffffffffffff808211156109ea57600080fd5b818501915085601f8301126109fe57600080fd5b8135602082821115610a1257610a126109a9565b8160051b604051601f19603f83011681018181108682111715610a3757610a376109a9565b604052928352818301935084810182019289841115610a5557600080fd5b948201945b83861015610a7357853585529482019493820193610a5a565b9650610a829050878201610973565b9450505050509250929050565b6020808252825182820181905260009190848201906040850190845b81811015610ad15783516001600160d81b03191683529284019291840191600101610aab565b50909695505050505050565b80151581146108e957600080fd5b600060208284031215610afd57600080fd5b813561090981610add565b600060208284031215610b1a57600080fd5b81516001600160d81b03198116811461090957600080fd5b634e487b7160e01b600052603260045260246000fd5b600060208284031215610b5a57600080fd5b815161090981610add565b604080825283519082018190526000906020906060840190828701845b82811015610b9e57815184529284019290840190600101610b82565b50505065ffffffffffff9490941692019190915250919050565b600060208284031215610bca57600080fd5b8151610909816108d456fea2646970667358221220bf396164340a9c7637733bb83e69527c34084a53e4bd5ed0e72e79cd46d21df964736f6c634300080f0033",
    "linkReferences": {}
  },
  "methodIdentifiers": {
    "changeKernel(address)": "4657b36c",
    "changeMovingAverageDuration(uint48)": "8a157337",
    "changeObservationFrequency(uint48)": "7d4dce76",
    "configureDependencies()": "9459b875",
    "initialize(uint256[],uint48)": "902a35b9",
    "isActive()": "22f3e2d4",
    "kernel()": "d4aae0c4",
    "requestPermissions()": "5924be70",
    "setActiveStatus(bool)": "ec7404b1"
  },
  "id": 31
}