{
  "abi": [
    {
      "inputs": [
        {
          "internalType": "contract Kernel",
          "name": "kernel_",
          "type": "address"
        }
      ],
      "stateMutability": "nonpayable",
      "type": "constructor"
    },
    {
      "inputs": [],
      "name": "ActiveProposalNotExpired",
      "type": "error"
    },
    {
      "inputs": [],
      "name": "CannotEndorseInvalidProposal",
      "type": "error"
    },
    {
      "inputs": [],
      "name": "CannotEndorseNullProposal",
      "type": "error"
    },
    {
      "inputs": [],
      "name": "CannotReclaimTokensForActiveVote",
      "type": "error"
    },
    {
      "inputs": [],
      "name": "CannotReclaimZeroVotes",
      "type": "error"
    },
    {
      "inputs": [],
      "name": "ExecutionTimelockStillActive",
      "type": "error"
    },
    {
      "inputs": [
        {
          "internalType": "address",
          "name": "caller_",
          "type": "address"
        }
      ],
      "name": "KernelAdapter_OnlyKernel",
      "type": "error"
    },
    {
      "inputs": [],
      "name": "NoActiveProposalDetected",
      "type": "error"
    },
    {
      "inputs": [],
      "name": "NotAuthorizedToActivateProposal",
      "type": "error"
    },
    {
      "inputs": [],
      "name": "NotEnoughEndorsementsToActivateProposal",
      "type": "error"
    },
    {
      "inputs": [],
      "name": "NotEnoughVotesToExecute",
      "type": "error"
    },
    {
      "inputs": [],
      "name": "NotEnoughVotesToPropose",
      "type": "error"
    },
    {
      "inputs": [
        {
          "internalType": "Keycode",
          "name": "keycode_",
          "type": "bytes5"
        }
      ],
      "name": "Policy_ModuleDoesNotExist",
      "type": "error"
    },
    {
      "inputs": [],
      "name": "ProposalAlreadyActivated",
      "type": "error"
    },
    {
      "inputs": [],
      "name": "SubmittedProposalHasExpired",
      "type": "error"
    },
    {
      "inputs": [],
      "name": "UserAlreadyVoted",
      "type": "error"
    },
    {
      "inputs": [],
      "name": "VotingTokensAlreadyReclaimed",
      "type": "error"
    },
    {
      "anonymous": false,
      "inputs": [
        {
          "indexed": false,
          "internalType": "uint256",
          "name": "proposalId",
          "type": "uint256"
        },
        {
          "indexed": false,
          "internalType": "uint256",
          "name": "timestamp",
          "type": "uint256"
        }
      ],
      "name": "ProposalActivated",
      "type": "event"
    },
    {
      "anonymous": false,
      "inputs": [
        {
          "indexed": false,
          "internalType": "uint256",
          "name": "proposalId",
          "type": "uint256"
        },
        {
          "indexed": false,
          "internalType": "address",
          "name": "voter",
          "type": "address"
        },
        {
          "indexed": false,
          "internalType": "uint256",
          "name": "amount",
          "type": "uint256"
        }
      ],
      "name": "ProposalEndorsed",
      "type": "event"
    },
    {
      "anonymous": false,
      "inputs": [
        {
          "indexed": false,
          "internalType": "uint256",
          "name": "proposalId",
          "type": "uint256"
        }
      ],
      "name": "ProposalExecuted",
      "type": "event"
    },
    {
      "anonymous": false,
      "inputs": [
        {
          "indexed": false,
          "internalType": "uint256",
          "name": "proposalId",
          "type": "uint256"
        }
      ],
      "name": "ProposalSubmitted",
      "type": "event"
    },
    {
      "anonymous": false,
      "inputs": [
        {
          "indexed": false,
          "internalType": "uint256",
          "name": "proposalId",
          "type": "uint256"
        },
        {
          "indexed": false,
          "internalType": "address",
          "name": "voter",
          "type": "address"
        },
        {
          "indexed": false,
          "internalType": "bool",
          "name": "for_",
          "type": "bool"
        },
        {
          "indexed": false,
          "internalType": "uint256",
          "name": "userVotes",
          "type": "uint256"
        }
      ],
      "name": "WalletVoted",
      "type": "event"
    },
    {
      "inputs": [],
      "name": "ACTIVATION_DEADLINE",
      "outputs": [
        {
          "internalType": "uint256",
          "name": "",
          "type": "uint256"
        }
      ],
      "stateMutability": "view",
      "type": "function"
    },
    {
      "inputs": [],
      "name": "ENDORSEMENT_THRESHOLD",
      "outputs": [
        {
          "internalType": "uint256",
          "name": "",
          "type": "uint256"
        }
      ],
      "stateMutability": "view",
      "type": "function"
    },
    {
      "inputs": [],
      "name": "EXECUTION_THRESHOLD",
      "outputs": [
        {
          "internalType": "uint256",
          "name": "",
          "type": "uint256"
        }
      ],
      "stateMutability": "view",
      "type": "function"
    },
    {
      "inputs": [],
      "name": "EXECUTION_TIMELOCK",
      "outputs": [
        {
          "internalType": "uint256",
          "name": "",
          "type": "uint256"
        }
      ],
      "stateMutability": "view",
      "type": "function"
    },
    {
      "inputs": [],
      "name": "GRACE_PERIOD",
      "outputs": [
        {
          "internalType": "uint256",
          "name": "",
          "type": "uint256"
        }
      ],
      "stateMutability": "view",
      "type": "function"
    },
    {
      "inputs": [],
      "name": "INSTR",
      "outputs": [
        {
          "internalType": "contract OlympusInstructions",
          "name": "",
          "type": "address"
        }
      ],
      "stateMutability": "view",
      "type": "function"
    },
    {
      "inputs": [],
      "name": "SUBMISSION_REQUIREMENT",
      "outputs": [
        {
          "internalType": "uint256",
          "name": "",
          "type": "uint256"
        }
      ],
      "stateMutability": "view",
      "type": "function"
    },
    {
      "inputs": [],
      "name": "VOTES",
      "outputs": [
        {
          "internalType": "contract OlympusVotes",
          "name": "",
          "type": "address"
        }
      ],
      "stateMutability": "view",
      "type": "function"
    },
    {
      "inputs": [
        {
          "internalType": "uint256",
          "name": "proposalId_",
          "type": "uint256"
        }
      ],
      "name": "activateProposal",
      "outputs": [],
      "stateMutability": "nonpayable",
      "type": "function"
    },
    {
      "inputs": [],
      "name": "activeProposal",
      "outputs": [
        {
          "internalType": "uint256",
          "name": "proposalId",
          "type": "uint256"
        },
        {
          "internalType": "uint256",
          "name": "activationTimestamp",
          "type": "uint256"
        }
      ],
      "stateMutability": "view",
      "type": "function"
    },
    {
      "inputs": [
        {
          "internalType": "contract Kernel",
          "name": "newKernel_",
          "type": "address"
        }
      ],
      "name": "changeKernel",
      "outputs": [],
      "stateMutability": "nonpayable",
      "type": "function"
    },
    {
      "inputs": [],
      "name": "configureDependencies",
      "outputs": [
        {
          "internalType": "Keycode[]",
          "name": "dependencies",
          "type": "bytes5[]"
        }
      ],
      "stateMutability": "nonpayable",
      "type": "function"
    },
    {
      "inputs": [
        {
          "internalType": "uint256",
          "name": "proposalId_",
          "type": "uint256"
        }
      ],
      "name": "endorseProposal",
      "outputs": [],
      "stateMutability": "nonpayable",
      "type": "function"
    },
    {
      "inputs": [],
      "name": "executeProposal",
      "outputs": [],
      "stateMutability": "nonpayable",
      "type": "function"
    },
    {
      "inputs": [],
      "name": "getActiveProposal",
      "outputs": [
        {
          "components": [
            {
              "internalType": "uint256",
              "name": "proposalId",
              "type": "uint256"
            },
            {
              "internalType": "uint256",
              "name": "activationTimestamp",
              "type": "uint256"
            }
          ],
          "internalType": "struct ActivatedProposal",
          "name": "",
          "type": "tuple"
        }
      ],
      "stateMutability": "view",
      "type": "function"
    },
    {
      "inputs": [
        {
          "internalType": "uint256",
          "name": "proposalId_",
          "type": "uint256"
        }
      ],
      "name": "getMetadata",
      "outputs": [
        {
          "components": [
            {
              "internalType": "bytes32",
              "name": "title",
              "type": "bytes32"
            },
            {
              "internalType": "address",
              "name": "submitter",
              "type": "address"
            },
            {
              "internalType": "uint256",
              "name": "submissionTimestamp",
              "type": "uint256"
            },
            {
              "internalType": "string",
              "name": "proposalURI",
              "type": "string"
            }
          ],
          "internalType": "struct ProposalMetadata",
          "name": "",
          "type": "tuple"
        }
      ],
      "stateMutability": "view",
      "type": "function"
    },
    {
      "inputs": [
        {
          "internalType": "uint256",
          "name": "",
          "type": "uint256"
        }
      ],
      "name": "getProposalMetadata",
      "outputs": [
        {
          "internalType": "bytes32",
          "name": "title",
          "type": "bytes32"
        },
        {
          "internalType": "address",
          "name": "submitter",
          "type": "address"
        },
        {
          "internalType": "uint256",
          "name": "submissionTimestamp",
          "type": "uint256"
        },
        {
          "internalType": "string",
          "name": "proposalURI",
          "type": "string"
        }
      ],
      "stateMutability": "view",
      "type": "function"
    },
    {
      "inputs": [],
      "name": "isActive",
      "outputs": [
        {
          "internalType": "bool",
          "name": "",
          "type": "bool"
        }
      ],
      "stateMutability": "view",
      "type": "function"
    },
    {
      "inputs": [],
      "name": "kernel",
      "outputs": [
        {
          "internalType": "contract Kernel",
          "name": "",
          "type": "address"
        }
      ],
      "stateMutability": "view",
      "type": "function"
    },
    {
      "inputs": [
        {
          "internalType": "uint256",
          "name": "",
          "type": "uint256"
        }
      ],
      "name": "noVotesForProposal",
      "outputs": [
        {
          "internalType": "uint256",
          "name": "",
          "type": "uint256"
        }
      ],
      "stateMutability": "view",
      "type": "function"
    },
    {
      "inputs": [
        {
          "internalType": "uint256",
          "name": "",
          "type": "uint256"
        }
      ],
      "name": "proposalHasBeenActivated",
      "outputs": [
        {
          "internalType": "bool",
          "name": "",
          "type": "bool"
        }
      ],
      "stateMutability": "view",
      "type": "function"
    },
    {
      "inputs": [
        {
          "internalType": "uint256",
          "name": "proposalId_",
          "type": "uint256"
        }
      ],
      "name": "reclaimVotes",
      "outputs": [],
      "stateMutability": "nonpayable",
      "type": "function"
    },
    {
      "inputs": [],
      "name": "requestPermissions",
      "outputs": [
        {
          "components": [
            {
              "internalType": "Keycode",
              "name": "keycode",
              "type": "bytes5"
            },
            {
              "internalType": "bytes4",
              "name": "funcSelector",
              "type": "bytes4"
            }
          ],
          "internalType": "struct Permissions[]",
          "name": "requests",
          "type": "tuple[]"
        }
      ],
      "stateMutability": "view",
      "type": "function"
    },
    {
      "inputs": [
        {
          "internalType": "bool",
          "name": "activate_",
          "type": "bool"
        }
      ],
      "name": "setActiveStatus",
      "outputs": [],
      "stateMutability": "nonpayable",
      "type": "function"
    },
    {
      "inputs": [
        {
          "components": [
            {
              "internalType": "enum Actions",
              "name": "action",
              "type": "uint8"
            },
            {
              "internalType": "address",
              "name": "target",
              "type": "address"
            }
          ],
          "internalType": "struct Instruction[]",
          "name": "instructions_",
          "type": "tuple[]"
        },
        {
          "internalType": "bytes32",
          "name": "title_",
          "type": "bytes32"
        },
        {
          "internalType": "string",
          "name": "proposalURI_",
          "type": "string"
        }
      ],
      "name": "submitProposal",
      "outputs": [],
      "stateMutability": "nonpayable",
      "type": "function"
    },
    {
      "inputs": [
        {
          "internalType": "uint256",
          "name": "",
          "type": "uint256"
        },
        {
          "internalType": "address",
          "name": "",
          "type": "address"
        }
      ],
      "name": "tokenClaimsForProposal",
      "outputs": [
        {
          "internalType": "bool",
          "name": "",
          "type": "bool"
        }
      ],
      "stateMutability": "view",
      "type": "function"
    },
    {
      "inputs": [
        {
          "internalType": "uint256",
          "name": "",
          "type": "uint256"
        }
      ],
      "name": "totalEndorsementsForProposal",
      "outputs": [
        {
          "internalType": "uint256",
          "name": "",
          "type": "uint256"
        }
      ],
      "stateMutability": "view",
      "type": "function"
    },
    {
      "inputs": [
        {
          "internalType": "uint256",
          "name": "",
          "type": "uint256"
        },
        {
          "internalType": "address",
          "name": "",
          "type": "address"
        }
      ],
      "name": "userEndorsementsForProposal",
      "outputs": [
        {
          "internalType": "uint256",
          "name": "",
          "type": "uint256"
        }
      ],
      "stateMutability": "view",
      "type": "function"
    },
    {
      "inputs": [
        {
          "internalType": "uint256",
          "name": "",
          "type": "uint256"
        },
        {
          "internalType": "address",
          "name": "",
          "type": "address"
        }
      ],
      "name": "userVotesForProposal",
      "outputs": [
        {
          "internalType": "uint256",
          "name": "",
          "type": "uint256"
        }
      ],
      "stateMutability": "view",
      "type": "function"
    },
    {
      "inputs": [
        {
          "internalType": "bool",
          "name": "for_",
          "type": "bool"
        }
      ],
      "name": "vote",
      "outputs": [],
      "stateMutability": "nonpayable",
      "type": "function"
    },
    {
      "inputs": [
        {
          "internalType": "uint256",
          "name": "",
          "type": "uint256"
        }
      ],
      "name": "yesVotesForProposal",
      "outputs": [
        {
          "internalType": "uint256",
          "name": "",
          "type": "uint256"
        }
      ],
      "stateMutability": "view",
      "type": "function"
    }
  ],
  "bytecode": {
    "object": "0x608060405234801561001057600080fd5b5060405161201a38038061201a83398101604081905261002f91610054565b600080546001600160a01b0319166001600160a01b0392909216919091179055610084565b60006020828403121561006657600080fd5b81516001600160a01b038116811461007d57600080fd5b9392505050565b611f87806100936000396000f3fe608060405234801561001057600080fd5b50600436106101e55760003560e01c80637b5eb27b1161010f578063d419cf48116100a2578063e545739411610071578063e5457394146104bb578063eb9b9838146104c3578063ec7404b1146104e6578063ee1e9a0c146104f957600080fd5b8063d419cf4814610434578063d4aae0c414610457578063d7335d031461046a578063e4b4a727146104a857600080fd5b8063c1a287e2116100de578063c1a287e2146103ef578063d034d802146103f9578063d175506714610401578063d2aaa8eb1461041457600080fd5b80637b5eb27b146103905780638e7e29cf1461039a5780639459b875146103ba578063a574cea4146103cf57600080fd5b80633d4cc958116101875780634b9f5c98116101565780634b9f5c981461030f5780634d4b7577146103225780635924be7014610350578063742c9fe61461036557600080fd5b80633d4cc958146102d757806345ac5955146102df5780634657b36c146102f25780634a0323a91461030557600080fd5b8063179d8bb6116101c3578063179d8bb61461027b57806322f3e2d4146102a6578063373058b8146102ba578063387e1c8c146102c457600080fd5b806301153876146101ea57806309fd0d8314610222578063137516d81461024d575b600080fd5b61020d6101f83660046117c3565b60086020526000908152604090205460ff1681565b60405190151581526020015b60405180910390f35b600154610235906001600160a01b031681565b6040516001600160a01b039091168152602001610219565b61026d61025b3660046117c3565b60066020526000908152604090205481565b604051908152602001610219565b61026d6102893660046117f4565b600b60209081526000928352604080842090915290825290205481565b60005461020d90600160a01b900460ff1681565b6102c261050c565b005b6102c26102d23660046117c3565b61079e565b61026d602181565b6102c26102ed3660046117c3565b6108e1565b6102c2610300366004611824565b610ba6565b61026d6203f48081565b6102c261031d366004611856565b610bfa565b61020d6103303660046117f4565b600c60209081526000928352604080842090915290825290205460ff1681565b610358610e07565b6040516102199190611873565b61026d6103733660046117f4565b600760209081526000928352604080842090915290825290205481565b61026d6212750081565b61026d6103a83660046117c3565b60096020526000908152604090205481565b6103c2610fe0565b60405161021991906118d6565b6103e26103dd3660046117c3565b6110f5565b6040516102199190611971565b61026d62093a8081565b61026d606481565b6102c261040f3660046117c3565b6111f2565b61026d6104223660046117c3565b600a6020526000908152604090205481565b600354600454610442919082565b60408051928352602083019190915201610219565b600054610235906001600160a01b031681565b604080518082018252600080825260209182015281518083018352600354808252600454918301918252835190815290519181019190915201610219565b600254610235906001600160a01b031681565b61026d601481565b6104d66104d13660046117c3565b6113d3565b60405161021994939291906119ba565b6102c26104f4366004611856565b611490565b6102c2610507366004611ad1565b6114db565b6003546000908152600a602090815260408083205460099092528220546105339190611b88565b90506021600260009054906101000a90046001600160a01b03166001600160a01b03166318160ddd6040518163ffffffff1660e01b8152600401602060405180830381865afa15801561058a573d6000803e3d6000fd5b505050506040513d601f19601f820116820180604052508101906105ae9190611b9f565b6105b89190611bb8565b6105c3826064611bb8565b10156105e257604051639831686f60e01b815260040160405180910390fd5b6004546105f3906203f48090611bd7565b4210156106135760405163384e34d960e11b815260040160405180910390fd5b6001546003546040516303c664a360e61b815260048101919091526000916001600160a01b03169063f19928c090602401600060405180830381865afa158015610661573d6000803e3d6000fd5b505050506040513d6000823e601f3d908101601f191682016040526106899190810190611bfc565b905060005b81518110156107445760005482516001600160a01b039091169063c4d1f8f1908490849081106106c0576106c0611cdc565b6020026020010151600001518484815181106106de576106de611cdc565b6020026020010151602001516040518363ffffffff1660e01b8152600401610707929190611d14565b600060405180830381600087803b15801561072157600080fd5b505af1158015610735573d6000803e3d6000fd5b5050505080600101905061068e565b506003546040519081527f712ae1383f79ac853f8d882153778e0260ef8f03b504e2866e0593e04d2b291f9060200160405180910390a1505060408051808201909152600080825260209091018190526003819055600455565b6000818152600b60209081526040808320338452909152812054908190036107d957604051636bd7abe360e01b815260040160405180910390fd5b60035482036107fb57604051630de3e4c160e01b815260040160405180910390fd5b6000828152600c6020908152604080832033845290915290205460ff16151560010361083a57604051636118b8eb60e11b815260040160405180910390fd5b6000828152600c6020908152604080832033808552925291829020805460ff1916600117905560025491516323b872dd60e01b81523060048201526024810191909152604481018390526001600160a01b03909116906323b872dd906064016020604051808303816000875af11580156108b8573d6000803e3d6000fd5b505050506040513d601f19601f820116820180604052508101906108dc9190611d3a565b505050565b600081815260056020908152604080832081516080810183528154815260018201546001600160a01b03169381019390935260028101549183019190915260038101805460608401919061093490611d57565b80601f016020809104026020016040519081016040528092919081815260200182805461096090611d57565b80156109ad5780601f10610982576101008083540402835291602001916109ad565b820191906000526020600020905b81548152906001019060200180831161099057829003601f168201915b505050505081525050905080602001516001600160a01b0316336001600160a01b0316146109ee57604051634de79f0b60e01b815260040160405180910390fd5b621275008160400151610a019190611bd7565b421115610a21576040516396baca5160e01b815260040160405180910390fd5b600254604080516318160ddd60e01b815290516014926001600160a01b0316916318160ddd9160048083019260209291908290030181865afa158015610a6b573d6000803e3d6000fd5b505050506040513d601f19601f82011682018060405250810190610a8f9190611b9f565b610a999190611bb8565b600083815260066020526040902054610ab3906064611bb8565b1015610ad25760405163688c859b60e01b815260040160405180910390fd5b60008281526008602052604090205460ff161515600103610b0657604051639d4b96f560e01b815260040160405180910390fd5b600454610b179062093a8090611bd7565b421015610b375760405163dd095e8d60e01b815260040160405180910390fd5b60408051808201825283815242602091820181905260038590556004819055600085815260088352839020805460ff191660011790558251858152918201527f2b806fd287b9b5a02303f4209a6276f6fc3c57a7081780b1862a1da3ae24d15e91015b60405180910390a15050565b6000546001600160a01b03163314610bd85760405163053e900f60e21b81523360048201526024015b60405180910390fd5b600080546001600160a01b0319166001600160a01b0392909216919091179055565b6002546040516370a0823160e01b81523360048201526000916001600160a01b0316906370a0823190602401602060405180830381865afa158015610c43573d6000803e3d6000fd5b505050506040513d601f19601f82011682018060405250810190610c679190611b9f565b600354909150600003610c8d57604051630f6b9a5160e41b815260040160405180910390fd5b6003546000908152600b6020908152604080832033845290915290205415610cc8576040516338ec521360e01b815260040160405180910390fd5b8115610cfa5760035460009081526009602052604081208054839290610cef908490611bd7565b90915550610d219050565b6003546000908152600a602052604081208054839290610d1b908490611bd7565b90915550505b6003546000908152600b602090815260408083203380855292529182902083905560025491516323b872dd60e01b81526004810191909152306024820152604481018390526001600160a01b03909116906323b872dd906064016020604051808303816000875af1158015610d9a573d6000803e3d6000fd5b505050506040513d601f19601f82011682018060405250810190610dbe9190611d3a565b506003546040805191825233602083015283151590820152606081018290527f1954f7e73fcf13e5923622fa4857346300f0edfaf363fb5da7a72eaf13d7c51690608001610b9a565b6000546060906001600160a01b03163314610e375760405163053e900f60e21b8152336004820152602401610bcf565b6040805160028082526060820190925290816020015b6040805180820190915260008082526020820152815260200190600190039081610e4d57505060408051808201808352600154630d73f61760e11b90915291519293509182916001600160a01b031690631ae7ec2e906044808501916020918187030181865afa158015610ec5573d6000803e3d6000fd5b505050506040513d601f19601f82011682018060405250810190610ee99190611d91565b6001600160d81b0319168152632c7617bb60e21b60209091015281518290600090610f1657610f16611cdc565b60200260200101819052506040518060400160405280600260009054906101000a90046001600160a01b03166001600160a01b0316631ae7ec2e6040518163ffffffff1660e01b8152600401602060405180830381865afa158015610f7f573d6000803e3d6000fd5b505050506040513d601f19601f82011682018060405250810190610fa39190611d91565b6001600160d81b03191681526323b872dd60e01b602090910152815182906001908110610fd257610fd2611cdc565b602002602001018190525090565b60408051600280825260608083018452926020830190803683370190505090506424a729aa2960d91b8160008151811061101c5761101c611cdc565b6001600160d81b03199092166020928302919091019091015261104464564f54455360d81b90565b8160018151811061105757611057611cdc565b60200260200101906001600160d81b03191690816001600160d81b0319168152505061109c8160008151811061108f5761108f611cdc565b6020026020010151611711565b600180546001600160a01b0319166001600160a01b039290921691909117815581516110d2918391811061108f5761108f611cdc565b600280546001600160a01b0319166001600160a01b039290921691909117905590565b60408051608080820183526000808352602080840182905283850182905260608085018190528683526005825291859020855193840186528054845260018101546001600160a01b031691840191909152600281015494830194909452600384018054939492939184019161116990611d57565b80601f016020809104026020016040519081016040528092919081815260200182805461119590611d57565b80156111e25780601f106111b7576101008083540402835291602001916111e2565b820191906000526020600020905b8154815290600101906020018083116111c557829003601f168201915b5050505050815250509050919050565b6002546040516370a0823160e01b81523360048201526000916001600160a01b0316906370a0823190602401602060405180830381865afa15801561123b573d6000803e3d6000fd5b505050506040513d601f19601f8201168201806040525081019061125f9190611b9f565b90508160000361128257604051631ecaba3560e31b815260040160405180910390fd5b6001546040516303c664a360e61b8152600481018490526000916001600160a01b03169063f19928c090602401600060405180830381865afa1580156112cc573d6000803e3d6000fd5b505050506040513d6000823e601f3d908101601f191682016040526112f49190810190611bfc565b905080516000036113185760405163786d51dd60e01b815260040160405180910390fd5b60008381526007602090815260408083203384528252808320548684526006909252822080549192839261134d908490611b88565b909155505060008481526007602090815260408083203384528252808320869055868352600690915281208054859290611388908490611bd7565b9091555050604080518581523360208201529081018490527ff639be31b4468db993d6fb19466ffbcda6a9a93d5015525821eadb0c90e9938b9060600160405180910390a150505050565b600560205260009081526040902080546001820154600283015460038401805493946001600160a01b039093169391929161140d90611d57565b80601f016020809104026020016040519081016040528092919081815260200182805461143990611d57565b80156114865780601f1061145b57610100808354040283529160200191611486565b820191906000526020600020905b81548152906001019060200180831161146957829003601f168201915b5050505050905084565b6000546001600160a01b031633146114bd5760405163053e900f60e21b8152336004820152602401610bcf565b60008054911515600160a01b0260ff60a01b19909216919091179055565b600254604080516318160ddd60e01b815290516064926001600160a01b0316916318160ddd9160048083019260209291908290030181865afa158015611525573d6000803e3d6000fd5b505050506040513d601f19601f820116820180604052508101906115499190611b9f565b6115539190611bb8565b6002546040516370a0823160e01b81523360048201526001600160a01b03909116906370a0823190602401602060405180830381865afa15801561159b573d6000803e3d6000fd5b505050506040513d601f19601f820116820180604052508101906115bf9190611b9f565b6115cb90612710611bb8565b10156115ea576040516397ba73bf60e01b815260040160405180910390fd5b600154604051632c7617bb60e21b81526000916001600160a01b03169063b1d85eec9061161d9088908890600401611dbb565b6020604051808303816000875af115801561163c573d6000803e3d6000fd5b505050506040513d601f19601f820116820180604052508101906116609190611b9f565b60408051608081018252858152336020808301918252428385019081526060840188815260008781526005909352949091208351815591516001830180546001600160a01b0319166001600160a01b0390921691909117905551600282015591519293509160038201906116d49082611e74565b50506040518281527f05aed0f9e08bd59568a150f02aa524912356d7109fd145147712dc2782d83b63915060200160405180910390a15050505050565b60008054604051632d37002d60e21b81526001600160d81b03198416600482015282916001600160a01b03169063b4dc00b490602401602060405180830381865afa158015611764573d6000803e3d6000fd5b505050506040513d601f19601f820116820180604052508101906117889190611f34565b90506001600160a01b0381166117bd57604051635c3fa9cd60e01b81526001600160d81b031984166004820152602401610bcf565b92915050565b6000602082840312156117d557600080fd5b5035919050565b6001600160a01b03811681146117f157600080fd5b50565b6000806040838503121561180757600080fd5b823591506020830135611819816117dc565b809150509250929050565b60006020828403121561183657600080fd5b8135611841816117dc565b9392505050565b80151581146117f157600080fd5b60006020828403121561186857600080fd5b813561184181611848565b602080825282518282018190526000919060409081850190868401855b828110156118c957815180516001600160d81b03191685528601516001600160e01b031916868501529284019290850190600101611890565b5091979650505050505050565b6020808252825182820181905260009190848201906040850190845b818110156119185783516001600160d81b031916835292840192918401916001016118f2565b50909695505050505050565b6000815180845260005b8181101561194a5760208185018101518683018201520161192e565b8181111561195c576000602083870101525b50601f01601f19169290920160200192915050565b602081528151602082015260018060a01b03602083015116604082015260408201516060820152600060608301516080808401526119b260a0840182611924565b949350505050565b84815260018060a01b03841660208201528260408201526080606082015260006119e76080830184611924565b9695505050505050565b634e487b7160e01b600052604160045260246000fd5b6040805190810167ffffffffffffffff81118282101715611a2a57611a2a6119f1565b60405290565b604051601f8201601f1916810167ffffffffffffffff81118282101715611a5957611a596119f1565b604052919050565b600082601f830112611a7257600080fd5b813567ffffffffffffffff811115611a8c57611a8c6119f1565b611a9f601f8201601f1916602001611a30565b818152846020838601011115611ab457600080fd5b816020850160208301376000918101602001919091529392505050565b60008060008060608587031215611ae757600080fd5b843567ffffffffffffffff80821115611aff57600080fd5b818701915087601f830112611b1357600080fd5b813581811115611b2257600080fd5b8860208260061b8501011115611b3757600080fd5b60209283019650945090860135925060408601359080821115611b5957600080fd5b50611b6687828801611a61565b91505092959194509250565b634e487b7160e01b600052601160045260246000fd5b600082821015611b9a57611b9a611b72565b500390565b600060208284031215611bb157600080fd5b5051919050565b6000816000190483118215151615611bd257611bd2611b72565b500290565b60008219821115611bea57611bea611b72565b500190565b600781106117f157600080fd5b60006020808385031215611c0f57600080fd5b825167ffffffffffffffff80821115611c2757600080fd5b818501915085601f830112611c3b57600080fd5b815181811115611c4d57611c4d6119f1565b611c5b848260051b01611a30565b818152848101925060069190911b830184019087821115611c7b57600080fd5b928401925b81841015611cd15760408489031215611c995760008081fd5b611ca1611a07565b8451611cac81611bef565b815284860151611cbb816117dc565b8187015283526040939093019291840191611c80565b979650505050505050565b634e487b7160e01b600052603260045260246000fd5b60078110611d1057634e487b7160e01b600052602160045260246000fd5b9052565b60408101611d228285611cf2565b6001600160a01b039290921660209190910152919050565b600060208284031215611d4c57600080fd5b815161184181611848565b600181811c90821680611d6b57607f821691505b602082108103611d8b57634e487b7160e01b600052602260045260246000fd5b50919050565b600060208284031215611da357600080fd5b81516001600160d81b03198116811461184157600080fd5b6020808252818101839052600090604080840186845b87811015611e19578135611de481611bef565b611dee8482611cf2565b5084820135611dfc816117dc565b6001600160a01b0316838601529183019190830190600101611dd1565b5090979650505050505050565b601f8211156108dc57600081815260208120601f850160051c81016020861015611e4d5750805b601f850160051c820191505b81811015611e6c57828155600101611e59565b505050505050565b815167ffffffffffffffff811115611e8e57611e8e6119f1565b611ea281611e9c8454611d57565b84611e26565b602080601f831160018114611ed75760008415611ebf5750858301515b600019600386901b1c1916600185901b178555611e6c565b600085815260208120601f198616915b82811015611f0657888601518255948401946001909101908401611ee7565b5085821015611f245787850151600019600388901b60f8161c191681555b5050505050600190811b01905550565b600060208284031215611f4657600080fd5b8151611841816117dc56fea2646970667358221220f54b5de7e6d32d27ed2c5d196e48991d2c5755880fa8bd25681d76c1a993851664736f6c634300080f0033",
    "linkReferences": {}
  },
  "methodIdentifiers": {
    "ACTIVATION_DEADLINE()": "7b5eb27b",
    "ENDORSEMENT_THRESHOLD()": "e5457394",
    "EXECUTION_THRESHOLD()": "3d4cc958",
    "EXECUTION_TIMELOCK()": "4a0323a9",
    "GRACE_PERIOD()": "c1a287e2",
    "INSTR()": "09fd0d83",
    "SUBMISSION_REQUIREMENT()": "d034d802",
    "VOTES()": "e4b4a727",
    "activateProposal(uint256)": "45ac5955",
    "activeProposal()": "d419cf48",
    "changeKernel(address)": "4657b36c",
    "configureDependencies()": "9459b875",
    "endorseProposal(uint256)": "d1755067",
    "executeProposal()": "373058b8",
    "getActiveProposal()": "d7335d03",
    "getMetadata(uint256)": "a574cea4",
    "getProposalMetadata(uint256)": "eb9b9838",
    "isActive()": "22f3e2d4",
    "kernel()": "d4aae0c4",
    "noVotesForProposal(uint256)": "d2aaa8eb",
    "proposalHasBeenActivated(uint256)": "01153876",
    "reclaimVotes(uint256)": "387e1c8c",
    "requestPermissions()": "5924be70",
    "setActiveStatus(bool)": "ec7404b1",
    "submitProposal((uint8,address)[],bytes32,string)": "ee1e9a0c",
    "tokenClaimsForProposal(uint256,address)": "4d4b7577",
    "totalEndorsementsForProposal(uint256)": "137516d8",
    "userEndorsementsForProposal(uint256,address)": "742c9fe6",
    "userVotesForProposal(uint256,address)": "179d8bb6",
    "vote(bool)": "4b9f5c98",
    "yesVotesForProposal(uint256)": "8e7e29cf"
  },
  "id": 28
}