{
  "abi": [
    {
      "inputs": [
        {
          "internalType": "address",
          "name": "protocol_",
          "type": "address"
        },
        {
          "internalType": "contract IBondAggregator",
          "name": "aggregator_",
          "type": "address"
        },
        {
          "internalType": "address",
          "name": "guardian_",
          "type": "address"
        },
        {
          "internalType": "contract Authority",
          "name": "authority_",
          "type": "address"
        }
      ],
      "stateMutability": "nonpayable",
      "type": "constructor"
    },
    {
      "inputs": [],
      "name": "Teller_InvalidCallback",
      "type": "error"
    },
    {
      "inputs": [],
      "name": "Teller_InvalidParams",
      "type": "error"
    },
    {
      "inputs": [],
      "name": "Teller_NotAuthorized",
      "type": "error"
    },
    {
      "inputs": [
        {
          "internalType": "contract ERC20",
          "name": "underlying",
          "type": "address"
        },
        {
          "internalType": "uint48",
          "name": "expiry",
          "type": "uint48"
        }
      ],
      "name": "Teller_TokenDoesNotExist",
      "type": "error"
    },
    {
      "inputs": [
        {
          "internalType": "uint48",
          "name": "maturesOn",
          "type": "uint48"
        }
      ],
      "name": "Teller_TokenNotMatured",
      "type": "error"
    },
    {
      "inputs": [],
      "name": "Teller_UnsupportedToken",
      "type": "error"
    },
    {
      "anonymous": false,
      "inputs": [
        {
          "indexed": true,
          "internalType": "address",
          "name": "owner",
          "type": "address"
        },
        {
          "indexed": true,
          "internalType": "address",
          "name": "operator",
          "type": "address"
        },
        {
          "indexed": false,
          "internalType": "bool",
          "name": "approved",
          "type": "bool"
        }
      ],
      "name": "ApprovalForAll",
      "type": "event"
    },
    {
      "anonymous": false,
      "inputs": [
        {
          "indexed": true,
          "internalType": "address",
          "name": "user",
          "type": "address"
        },
        {
          "indexed": true,
          "internalType": "contract Authority",
          "name": "newAuthority",
          "type": "address"
        }
      ],
      "name": "AuthorityUpdated",
      "type": "event"
    },
    {
      "anonymous": false,
      "inputs": [
        {
          "indexed": true,
          "internalType": "uint256",
          "name": "id",
          "type": "uint256"
        },
        {
          "indexed": true,
          "internalType": "address",
          "name": "referrer",
          "type": "address"
        },
        {
          "indexed": false,
          "internalType": "uint256",
          "name": "amount",
          "type": "uint256"
        },
        {
          "indexed": false,
          "internalType": "uint256",
          "name": "payout",
          "type": "uint256"
        }
      ],
      "name": "Bonded",
      "type": "event"
    },
    {
      "anonymous": false,
      "inputs": [
        {
          "indexed": false,
          "internalType": "uint256",
          "name": "tokenId",
          "type": "uint256"
        },
        {
          "indexed": true,
          "internalType": "contract ERC20",
          "name": "payoutToken",
          "type": "address"
        },
        {
          "indexed": true,
          "internalType": "uint48",
          "name": "expiry",
          "type": "uint48"
        }
      ],
      "name": "ERC1155BondTokenCreated",
      "type": "event"
    },
    {
      "anonymous": false,
      "inputs": [
        {
          "indexed": true,
          "internalType": "address",
          "name": "user",
          "type": "address"
        },
        {
          "indexed": true,
          "internalType": "address",
          "name": "newOwner",
          "type": "address"
        }
      ],
      "name": "OwnerUpdated",
      "type": "event"
    },
    {
      "anonymous": false,
      "inputs": [
        {
          "indexed": true,
          "internalType": "address",
          "name": "operator",
          "type": "address"
        },
        {
          "indexed": true,
          "internalType": "address",
          "name": "from",
          "type": "address"
        },
        {
          "indexed": true,
          "internalType": "address",
          "name": "to",
          "type": "address"
        },
        {
          "indexed": false,
          "internalType": "uint256[]",
          "name": "ids",
          "type": "uint256[]"
        },
        {
          "indexed": false,
          "internalType": "uint256[]",
          "name": "amounts",
          "type": "uint256[]"
        }
      ],
      "name": "TransferBatch",
      "type": "event"
    },
    {
      "anonymous": false,
      "inputs": [
        {
          "indexed": true,
          "internalType": "address",
          "name": "operator",
          "type": "address"
        },
        {
          "indexed": true,
          "internalType": "address",
          "name": "from",
          "type": "address"
        },
        {
          "indexed": true,
          "internalType": "address",
          "name": "to",
          "type": "address"
        },
        {
          "indexed": false,
          "internalType": "uint256",
          "name": "id",
          "type": "uint256"
        },
        {
          "indexed": false,
          "internalType": "uint256",
          "name": "amount",
          "type": "uint256"
        }
      ],
      "name": "TransferSingle",
      "type": "event"
    },
    {
      "inputs": [],
      "name": "FEE_DECIMALS",
      "outputs": [
        {
          "internalType": "uint48",
          "name": "",
          "type": "uint48"
        }
      ],
      "stateMutability": "view",
      "type": "function"
    },
    {
      "inputs": [],
      "name": "authority",
      "outputs": [
        {
          "internalType": "contract Authority",
          "name": "",
          "type": "address"
        }
      ],
      "stateMutability": "view",
      "type": "function"
    },
    {
      "inputs": [
        {
          "internalType": "address",
          "name": "",
          "type": "address"
        },
        {
          "internalType": "uint256",
          "name": "",
          "type": "uint256"
        }
      ],
      "name": "balanceOf",
      "outputs": [
        {
          "internalType": "uint256",
          "name": "",
          "type": "uint256"
        }
      ],
      "stateMutability": "view",
      "type": "function"
    },
    {
      "inputs": [
        {
          "internalType": "address[]",
          "name": "owners",
          "type": "address[]"
        },
        {
          "internalType": "uint256[]",
          "name": "ids",
          "type": "uint256[]"
        }
      ],
      "name": "balanceOfBatch",
      "outputs": [
        {
          "internalType": "uint256[]",
          "name": "balances",
          "type": "uint256[]"
        }
      ],
      "stateMutability": "view",
      "type": "function"
    },
    {
      "inputs": [
        {
          "internalType": "uint256[]",
          "name": "tokenIds_",
          "type": "uint256[]"
        },
        {
          "internalType": "uint256[]",
          "name": "amounts_",
          "type": "uint256[]"
        }
      ],
      "name": "batchRedeem",
      "outputs": [],
      "stateMutability": "nonpayable",
      "type": "function"
    },
    {
      "inputs": [
        {
          "internalType": "contract ERC20[]",
          "name": "tokens_",
          "type": "address[]"
        },
        {
          "internalType": "address",
          "name": "to_",
          "type": "address"
        }
      ],
      "name": "claimFees",
      "outputs": [],
      "stateMutability": "nonpayable",
      "type": "function"
    },
    {
      "inputs": [
        {
          "internalType": "contract ERC20",
          "name": "underlying_",
          "type": "address"
        },
        {
          "internalType": "uint48",
          "name": "expiry_",
          "type": "uint48"
        },
        {
          "internalType": "uint256",
          "name": "amount_",
          "type": "uint256"
        }
      ],
      "name": "create",
      "outputs": [
        {
          "internalType": "uint256",
          "name": "",
          "type": "uint256"
        },
        {
          "internalType": "uint256",
          "name": "",
          "type": "uint256"
        }
      ],
      "stateMutability": "nonpayable",
      "type": "function"
    },
    {
      "inputs": [],
      "name": "createFeeDiscount",
      "outputs": [
        {
          "internalType": "uint48",
          "name": "",
          "type": "uint48"
        }
      ],
      "stateMutability": "view",
      "type": "function"
    },
    {
      "inputs": [
        {
          "internalType": "contract ERC20",
          "name": "underlying_",
          "type": "address"
        },
        {
          "internalType": "uint48",
          "name": "expiry_",
          "type": "uint48"
        }
      ],
      "name": "deploy",
      "outputs": [
        {
          "internalType": "uint256",
          "name": "",
          "type": "uint256"
        }
      ],
      "stateMutability": "nonpayable",
      "type": "function"
    },
    {
      "inputs": [
        {
          "internalType": "address",
          "name": "referrer_",
          "type": "address"
        }
      ],
      "name": "getFee",
      "outputs": [
        {
          "internalType": "uint48",
          "name": "",
          "type": "uint48"
        }
      ],
      "stateMutability": "view",
      "type": "function"
    },
    {
      "inputs": [
        {
          "internalType": "contract ERC20",
          "name": "underlying_",
          "type": "address"
        },
        {
          "internalType": "uint48",
          "name": "expiry_",
          "type": "uint48"
        }
      ],
      "name": "getTokenId",
      "outputs": [
        {
          "internalType": "uint256",
          "name": "",
          "type": "uint256"
        }
      ],
      "stateMutability": "pure",
      "type": "function"
    },
    {
      "inputs": [
        {
          "internalType": "uint256",
          "name": "tokenId_",
          "type": "uint256"
        }
      ],
      "name": "getTokenNameAndSymbol",
      "outputs": [
        {
          "internalType": "string",
          "name": "",
          "type": "string"
        },
        {
          "internalType": "string",
          "name": "",
          "type": "string"
        }
      ],
      "stateMutability": "view",
      "type": "function"
    },
    {
      "inputs": [
        {
          "internalType": "address",
          "name": "",
          "type": "address"
        },
        {
          "internalType": "address",
          "name": "",
          "type": "address"
        }
      ],
      "name": "isApprovedForAll",
      "outputs": [
        {
          "internalType": "bool",
          "name": "",
          "type": "bool"
        }
      ],
      "stateMutability": "view",
      "type": "function"
    },
    {
      "inputs": [],
      "name": "owner",
      "outputs": [
        {
          "internalType": "address",
          "name": "",
          "type": "address"
        }
      ],
      "stateMutability": "view",
      "type": "function"
    },
    {
      "inputs": [],
      "name": "protocolFee",
      "outputs": [
        {
          "internalType": "uint48",
          "name": "",
          "type": "uint48"
        }
      ],
      "stateMutability": "view",
      "type": "function"
    },
    {
      "inputs": [
        {
          "internalType": "address",
          "name": "recipient_",
          "type": "address"
        },
        {
          "internalType": "address",
          "name": "referrer_",
          "type": "address"
        },
        {
          "internalType": "uint256",
          "name": "id_",
          "type": "uint256"
        },
        {
          "internalType": "uint256",
          "name": "amount_",
          "type": "uint256"
        },
        {
          "internalType": "uint256",
          "name": "minAmountOut_",
          "type": "uint256"
        }
      ],
      "name": "purchase",
      "outputs": [
        {
          "internalType": "uint256",
          "name": "",
          "type": "uint256"
        },
        {
          "internalType": "uint48",
          "name": "",
          "type": "uint48"
        }
      ],
      "stateMutability": "nonpayable",
      "type": "function"
    },
    {
      "inputs": [
        {
          "internalType": "uint256",
          "name": "tokenId_",
          "type": "uint256"
        },
        {
          "internalType": "uint256",
          "name": "amount_",
          "type": "uint256"
        }
      ],
      "name": "redeem",
      "outputs": [],
      "stateMutability": "nonpayable",
      "type": "function"
    },
    {
      "inputs": [
        {
          "internalType": "address",
          "name": "",
          "type": "address"
        }
      ],
      "name": "referrerFees",
      "outputs": [
        {
          "internalType": "uint48",
          "name": "",
          "type": "uint48"
        }
      ],
      "stateMutability": "view",
      "type": "function"
    },
    {
      "inputs": [
        {
          "internalType": "address",
          "name": "",
          "type": "address"
        },
        {
          "internalType": "contract ERC20",
          "name": "",
          "type": "address"
        }
      ],
      "name": "rewards",
      "outputs": [
        {
          "internalType": "uint256",
          "name": "",
          "type": "uint256"
        }
      ],
      "stateMutability": "view",
      "type": "function"
    },
    {
      "inputs": [
        {
          "internalType": "address",
          "name": "from",
          "type": "address"
        },
        {
          "internalType": "address",
          "name": "to",
          "type": "address"
        },
        {
          "internalType": "uint256[]",
          "name": "ids",
          "type": "uint256[]"
        },
        {
          "internalType": "uint256[]",
          "name": "amounts",
          "type": "uint256[]"
        },
        {
          "internalType": "bytes",
          "name": "data",
          "type": "bytes"
        }
      ],
      "name": "safeBatchTransferFrom",
      "outputs": [],
      "stateMutability": "nonpayable",
      "type": "function"
    },
    {
      "inputs": [
        {
          "internalType": "address",
          "name": "from",
          "type": "address"
        },
        {
          "internalType": "address",
          "name": "to",
          "type": "address"
        },
        {
          "internalType": "uint256",
          "name": "id",
          "type": "uint256"
        },
        {
          "internalType": "uint256",
          "name": "amount",
          "type": "uint256"
        },
        {
          "internalType": "bytes",
          "name": "data",
          "type": "bytes"
        }
      ],
      "name": "safeTransferFrom",
      "outputs": [],
      "stateMutability": "nonpayable",
      "type": "function"
    },
    {
      "inputs": [
        {
          "internalType": "address",
          "name": "operator",
          "type": "address"
        },
        {
          "internalType": "bool",
          "name": "approved",
          "type": "bool"
        }
      ],
      "name": "setApprovalForAll",
      "outputs": [],
      "stateMutability": "nonpayable",
      "type": "function"
    },
    {
      "inputs": [
        {
          "internalType": "contract Authority",
          "name": "newAuthority",
          "type": "address"
        }
      ],
      "name": "setAuthority",
      "outputs": [],
      "stateMutability": "nonpayable",
      "type": "function"
    },
    {
      "inputs": [
        {
          "internalType": "address",
          "name": "newOwner",
          "type": "address"
        }
      ],
      "name": "setOwner",
      "outputs": [],
      "stateMutability": "nonpayable",
      "type": "function"
    },
    {
      "inputs": [
        {
          "internalType": "uint48",
          "name": "fee_",
          "type": "uint48"
        }
      ],
      "name": "setProtocolFee",
      "outputs": [],
      "stateMutability": "nonpayable",
      "type": "function"
    },
    {
      "inputs": [
        {
          "internalType": "uint48",
          "name": "fee_",
          "type": "uint48"
        }
      ],
      "name": "setReferrerFee",
      "outputs": [],
      "stateMutability": "nonpayable",
      "type": "function"
    },
    {
      "inputs": [
        {
          "internalType": "bytes4",
          "name": "interfaceId",
          "type": "bytes4"
        }
      ],
      "name": "supportsInterface",
      "outputs": [
        {
          "internalType": "bool",
          "name": "",
          "type": "bool"
        }
      ],
      "stateMutability": "view",
      "type": "function"
    },
    {
      "inputs": [
        {
          "internalType": "uint256",
          "name": "",
          "type": "uint256"
        }
      ],
      "name": "tokenMetadata",
      "outputs": [
        {
          "internalType": "bool",
          "name": "active",
          "type": "bool"
        },
        {
          "internalType": "contract ERC20",
          "name": "payoutToken",
          "type": "address"
        },
        {
          "internalType": "uint48",
          "name": "expiry",
          "type": "uint48"
        },
        {
          "internalType": "uint256",
          "name": "supply",
          "type": "uint256"
        }
      ],
      "stateMutability": "view",
      "type": "function"
    }
  ],
  "bytecode": {
    "object": "0x60c060405260016002553480156200001657600080fd5b50604051620038f2380380620038f283398101604081905262000039916200011d565b600080546001600160a01b03199081166001600160a01b0385811691821784556001805490931690851617909155604051869286928692869284928492909133917f8292fce18fa69edf4db7b94ea2e58241df0ae57f97e0a6c9b29067028bf92d769190a36040516001600160a01b0382169033907fa3396fd7f6e0a21b50e5089d2da70d5ac0a3bbbd1f617a93f134b7638998019890600090a35050506001600160a01b03928316608052501660a05250506004805465ffffffffffff1916905550620001859050565b6001600160a01b03811681146200011a57600080fd5b50565b600080600080608085870312156200013457600080fd5b8451620001418162000104565b6020860151909450620001548162000104565b6040860151909350620001678162000104565b60608601519092506200017a8162000104565b939692955090935050565b60805160a051613739620001b960003960008181610c440152611d45015260008181610e3401526113d201526137396000f3fe608060405234801561001057600080fd5b50600436106101c35760003560e01c806392593277116100f9578063c23135dd11610097578063e70b9e2711610071578063e70b9e27146104c9578063e985e9c5146104f4578063e9dc30f314610522578063f242432a1461053557600080fd5b8063c23135dd14610484578063c6e38a4b146104ac578063ccf288c6146104bf57600080fd5b8063b1e55529116100d3578063b1e5552914610423578063b7314ef914610436578063b88c91481461045e578063bf7e214f1461047157600080fd5b806392593277146103eb578063a22cb465146103fe578063b0e21e8a1461041157600080fd5b806335312c85116101665780636de5b4cd116101405780636de5b4cd1461036b5780637a9e5e4b1461039a5780637cbc2373146103ad5780638da5cb5b146103c057600080fd5b806335312c85146102a75780634e1273f4146102c85780636914db60146102e857600080fd5b80630d4dfc21116101a25780630d4dfc211461025957806313af40351461026e5780632eb2c2d6146102815780632f6fa94e1461029457600080fd5b8062fdd58e146101c857806301ffc9a71461020657806306692a3714610229575b600080fd5b6101f36101d63660046128ef565b600660209081526000928352604080842090915290825290205481565b6040519081526020015b60405180910390f35b610219610214366004612931565b610548565b60405190151581526020016101fd565b60045461024290600160301b900465ffffffffffff1681565b60405165ffffffffffff90911681526020016101fd565b61026c610267366004612962565b61059a565b005b61026c61027c36600461297f565b6105f2565b61026c61028f366004612aeb565b610693565b61026c6102a2366004612b99565b610943565b6102ba6102b5366004612c45565b6109bd565b6040516101fd929190612cb6565b6102db6102d6366004612ce4565b610a38565b6040516101fd9190612de1565b6103346102f6366004612c45565b6008602052600090815260409020805460019091015460ff82169161010081046001600160a01b031691600160a81b90910465ffffffffffff169084565b6040805194151585526001600160a01b03909316602085015265ffffffffffff9091169183019190915260608201526080016101fd565b61037e610379366004612df4565b610b66565b6040805192835265ffffffffffff9091166020830152016101fd565b61026c6103a836600461297f565b610f12565b61026c6103bb366004612e45565b610ffc565b6000546103d3906001600160a01b031681565b6040516001600160a01b0390911681526020016101fd565b6101f36103f9366004612e67565b611035565b61026c61040c366004612eae565b6110a1565b6004546102429065ffffffffffff1681565b61026c610431366004612962565b61110d565b610449610444366004612edc565b61117e565b604080519283526020830191909152016101fd565b61024261046c36600461297f565b611476565b6001546103d3906001600160a01b031681565b61024261049236600461297f565b60036020526000908152604090205465ffffffffffff1681565b6101f36104ba366004612e67565b6114a7565b610242620186a081565b6101f36104d7366004612f1d565b600560209081526000928352604080842090915290825290205481565b610219610502366004612f1d565b600760209081526000928352604080842090915290825290205460ff1681565b61026c610530366004612f97565b61150b565b61026c610543366004613003565b611594565b60006301ffc9a760e01b6001600160e01b0319831614806105795750636cdb3d1360e11b6001600160e01b03198316145b8061059457506303a24d0760e21b6001600160e01b03198316145b92915050565b61c3508165ffffffffffff1611156105c55760405163e94b8f2760e01b815260040160405180910390fd5b336000908152600360205260409020805465ffffffffffff191665ffffffffffff92909216919091179055565b610608336000356001600160e01b03191661178f565b6106485760405162461bcd60e51b815260206004820152600c60248201526b15539055551213d49256915160a21b60448201526064015b60405180910390fd5b600080546001600160a01b0319166001600160a01b0383169081178255604051909133917f8292fce18fa69edf4db7b94ea2e58241df0ae57f97e0a6c9b29067028bf92d769190a350565b8251825181146106d75760405162461bcd60e51b815260206004820152600f60248201526e0988a9c8ea890be9a92a69a82a8869608b1b604482015260640161063f565b336001600160a01b038716148061071157506001600160a01b038616600090815260076020908152604080832033845290915290205460ff165b61074e5760405162461bcd60e51b815260206004820152600e60248201526d1393d517d055551213d49256915160921b604482015260640161063f565b60008060005b8381101561081f5786818151811061076e5761076e61306c565b6020026020010151925085818151811061078a5761078a61306c565b6020026020010151915081600660008b6001600160a01b03166001600160a01b03168152602001908152602001600020600085815260200190815260200160002060008282546107da9190613098565b90915550506001600160a01b0388166000908152600660209081526040808320868452909152812080548492906108129084906130af565b9091555050600101610754565b50866001600160a01b0316886001600160a01b0316336001600160a01b03167f4a39dc06d4c0dbc64b70af90fd698a233a518aa5d07e595d983b8c0526c8f7fb898960405161086f9291906130c7565b60405180910390a46001600160a01b0387163b156109105760405163bc197c8160e01b808252906001600160a01b0389169063bc197c81906108bd9033908d908c908c908c906004016130ec565b6020604051808303816000875af11580156108dc573d6000803e3d6000fd5b505050506040513d601f19601f82011682018060405250810190610900919061314a565b6001600160e01b0319161461091d565b6001600160a01b03871615155b6109395760405162461bcd60e51b815260040161063f90613167565b5050505050505050565b815160005b818110156109b75760008482815181106109645761096461306c565b6020908102919091018101513360009081526005835260408082206001600160a01b038416808452945281208054919055909250906109a4908683611839565b5050806109b090613191565b9050610948565b50505050565b60008181526008602090815260408083208151608081018352815460ff81161515825261010081046001600160a01b0316948201859052600160a81b900465ffffffffffff16928101839052600190910154606080830191909152938493919290918291610a2b919061193f565b9097909650945050505050565b81518151606091908114610a805760405162461bcd60e51b815260206004820152600f60248201526e0988a9c8ea890be9a92a69a82a8869608b1b604482015260640161063f565b8067ffffffffffffffff811115610a9957610a9961299c565b604051908082528060200260200182016040528015610ac2578160200160208202803683370190505b50915060005b81811015610b5e5760066000868381518110610ae657610ae661306c565b60200260200101516001600160a01b03166001600160a01b031681526020019081526020016000206000858381518110610b2257610b2261306c565b6020026020010151815260200190815260200160002054838281518110610b4b57610b4b61306c565b6020908102919091010152600101610ac8565b505092915050565b600080600254600114610b8b5760405162461bcd60e51b815260040161063f906131aa565b600280556001600160a01b0386166000908152600360205260408120548190819081908190610bc7908a9065ffffffffffff16620186a0611c89565b6001600160a01b038c1660009081526003602052604081205460045492935090918391610c1691610c039165ffffffffffff90811691166131ce565b8c9065ffffffffffff16620186a0611c89565b610c209190613098565b6040516329023ca160e11b8152600481018d90529091506000906001600160a01b037f00000000000000000000000000000000000000000000000000000000000000001690635204794290602401602060405180830381865afa158015610c8b573d6000803e3d6000fd5b505050506040513d601f19601f82011682018060405250810190610caf91906131f8565b604051632b3155c360e21b8152600481018e90529091506000906001600160a01b0383169063acc5570c9060240160c060405180830381865afa158015610cfa573d6000803e3d6000fd5b505050506040513d601f19601f82011682018060405250810190610d1e9190613215565b50919b50995097509091506000905083610d38868f613098565b610d429190613098565b9050826001600160a01b031663e007fa978f838f6040518463ffffffff1660e01b8152600401610d85939291909283526020830191909152604082015260600190565b6020604051808303816000875af1158015610da4573d6000803e3d6000fd5b505050506040513d601f19601f82011682018060405250810190610dc89190613292565b955050505081600560008e6001600160a01b03166001600160a01b031681526020019081526020016000206000876001600160a01b03166001600160a01b031681526020019081526020016000206000828254610e2591906130af565b90915550506001600160a01b037f00000000000000000000000000000000000000000000000000000000000000008116600090815260056020908152604080832093891683529290529081208054839290610e819084906130af565b90915550610e9c90508b8b85610e9785876130af565b611d3d565b6000610eaa8e858988612235565b90508c6001600160a01b03168c7f3ae5efadaccde413bdfcb3a4626babecd844c502ee4c2c9b340f28cd9d5527328d87604051610ef1929190918252602082015260400190565b60405180910390a36001600255929d929c50919a5050505050505050505050565b6000546001600160a01b0316331480610fa7575060015460405163b700961360e01b81526001600160a01b039091169063b700961390610f6690339030906001600160e01b031960003516906004016132ab565b602060405180830381865afa158015610f83573d6000803e3d6000fd5b505050506040513d601f19601f82011682018060405250810190610fa791906132d8565b610fb057600080fd5b600180546001600160a01b0319166001600160a01b03831690811790915560405133907fa3396fd7f6e0a21b50e5089d2da70d5ac0a3bbbd1f617a93f134b7638998019890600090a350565b60025460011461101e5760405162461bcd60e51b815260040161063f906131aa565b6002805561102c82826122bf565b50506001600255565b60008083611046620151808561330b565b60405160200161108192919060609290921b6bffffffffffffffffffffffff1916825260d01b6001600160d01b0319166014820152601a0190565b60408051808303601f190181529190528051602090910120949350505050565b3360008181526007602090815260408083206001600160a01b03871680855290835292819020805460ff191686151590811790915590519081529192917f17307eab39ab6107e8899845ad3d59bd9653f200f220920489ca2b5937696c31910160405180910390a35050565b611123336000356001600160e01b03191661178f565b61115e5760405162461bcd60e51b815260206004820152600c60248201526b15539055551213d49256915160a21b604482015260640161063f565b6004805465ffffffffffff191665ffffffffffff92909216919091179055565b6000806002546001146111a35760405162461bcd60e51b815260040161063f906131aa565b6002805560006111b38686611035565b60008181526008602052604090205490915060ff166111fe5760405163cb66c9db60e01b81526001600160a01b038716600482015265ffffffffffff8616602482015260440161063f565b6040516370a0823160e01b81523060048201526000906001600160a01b038816906370a0823190602401602060405180830381865afa158015611245573d6000803e3d6000fd5b505050506040513d601f19601f820116820180604052508101906112699190613292565b6040516323b872dd60e01b8152336004820152306024820152604481018790529091506001600160a01b038816906323b872dd906064016020604051808303816000875af11580156112bf573d6000803e3d6000fd5b505050506040513d601f19601f820116820180604052508101906112e391906132d8565b506112ee85826130af565b6040516370a0823160e01b81523060048201526001600160a01b038916906370a0823190602401602060405180830381865afa158015611332573d6000803e3d6000fd5b505050506040513d601f19601f820116820180604052508101906113569190613292565b1015611375576040516334d5114960e21b815260040160405180910390fd5b60045465ffffffffffff600160301b8204811691161115611455576004546000906113c8906113b59065ffffffffffff600160301b820481169116613330565b879065ffffffffffff16620186a0611c89565b6001600160a01b037f000000000000000000000000000000000000000000000000000000000000000081166000908152600560209081526040808320938d168352929052908120805492935083929091906114249084906130af565b9091555061143e90503384611439848a613098565b612371565b826114498288613098565b94509450505050611467565b611460338387612371565b5091508290505b60016002559094909350915050565b6001600160a01b0381166000908152600360205260408120546004546105949165ffffffffffff90811691166131ce565b60006002546001146114cb5760405162461bcd60e51b815260040161063f906131aa565b6002805560006114db8484611035565b60008181526008602052604090205490915060ff166114ff576114ff8185856123b7565b60016002559392505050565b60025460011461152d5760405162461bcd60e51b815260040161063f906131aa565b600280558260005b81811015611587576115778686838181106115525761155261306c565b9050602002013585858481811061156b5761156b61306c565b905060200201356122bf565b61158081613191565b9050611535565b5050600160025550505050565b336001600160a01b03861614806115ce57506001600160a01b038516600090815260076020908152604080832033845290915290205460ff165b61160b5760405162461bcd60e51b815260206004820152600e60248201526d1393d517d055551213d49256915160921b604482015260640161063f565b6001600160a01b03851660009081526006602090815260408083208684529091528120805484929061163e908490613098565b90915550506001600160a01b0384166000908152600660209081526040808320868452909152812080548492906116769084906130af565b909155505060408051848152602081018490526001600160a01b03808716929088169133917fc3d58168c5ae7397731d063d5bbf3d657854427343f4c083240f7aacaa2d0f62910160405180910390a46001600160a01b0384163b1561175f5760405163f23a6e6160e01b808252906001600160a01b0386169063f23a6e619061170c9033908a90899089908990600401613357565b6020604051808303816000875af115801561172b573d6000803e3d6000fd5b505050506040513d601f19601f8201168201806040525081019061174f919061314a565b6001600160e01b0319161461176c565b6001600160a01b03841615155b6117885760405162461bcd60e51b815260040161063f90613167565b5050505050565b6001546000906001600160a01b03168015801590611819575060405163b700961360e01b81526001600160a01b0382169063b7009613906117d8908790309088906004016132ab565b602060405180830381865afa1580156117f5573d6000803e3d6000fd5b505050506040513d601f19601f8201168201806040525081019061181991906132d8565b8061183157506000546001600160a01b038581169116145b949350505050565b604080516001600160a01b038481166024830152604480830185905283518084039091018152606490920183526020820180516001600160e01b031663a9059cbb60e01b1790529151600092839290871691611895919061339c565b6000604051808303816000865af19150503d80600081146118d2576040519150601f19603f3d011682016040523d82523d6000602084013e6118d7565b606091505b509150915081801561190157508051158061190157508080602001905181019061190191906132d8565b6117885760405162461bcd60e51b815260206004820152600f60248201526e1514905394d1915497d19052531151608a1b604482015260640161063f565b606080600080808061195462015180886133b8565b905060006119658262010bd96133cc565b6119729062253d8c6133cc565b9050600062023ab161198583600461340d565b61198f9190613492565b905060046119a08262023ab161340d565b6119ab9060036133cc565b6119b59190613492565b6119bf90836134c0565b9150600062164b096119d28460016133cc565b6119de90610fa061340d565b6119e89190613492565b905060046119f8826105b561340d565b611a029190613492565b611a0c90846134c0565b611a1790601f6133cc565b9250600061098f611a2985605061340d565b611a339190613492565b905060006050611a458361098f61340d565b611a4f9190613492565b611a5990866134c0565b9050611a66600b83613492565b9450611a7385600c61340d565b611a7e8360026133cc565b611a8891906134c0565b91508483611a976031876134c0565b611aa290606461340d565b611aac91906133cc565b611ab691906133cc565b9850909650945060009350611ada9250611ad5915060649050866134ff565b61248a565b90506000600a8410611af457611aef8461248a565b611b1d565b611afd8461248a565b604051602001611b0d9190613513565b6040516020818303038152906040525b90506000600a8410611b3757611b328461248a565b611b60565b611b408461248a565b604051602001611b509190613513565b6040516020818303038152906040525b9050896001600160a01b03166306fdde036040518163ffffffff1660e01b8152600401600060405180830381865afa158015611ba0573d6000803e3d6000fd5b505050506040513d6000823e601f3d908101601f19168201604052611bc8919081019061353c565b818385604051602001611bde94939291906135aa565b6040516020818303038152906040529750896001600160a01b03166395d89b416040518163ffffffff1660e01b8152600401600060405180830381865afa158015611c2d573d6000803e3d6000fd5b505050506040513d6000823e601f3d908101601f19168201604052611c55919081019061353c565b818385604051602001611c6b9493929190613627565b60405160208183030381529060405296505050505050509250929050565b6000808060001985870985870292508281108382030391505080600003611cc25760008411611cb757600080fd5b508290049050611d36565b808411611cce57600080fd5b600084868809851960019081018716968790049682860381900495909211909303600082900391909104909201919091029190911760038402600290811880860282030280860282030280860282030280860282030280860282030280860290910302029150505b9392505050565b6000806000807f00000000000000000000000000000000000000000000000000000000000000006001600160a01b03166352047942896040518263ffffffff1660e01b8152600401611d9191815260200190565b602060405180830381865afa158015611dae573d6000803e3d6000fd5b505050506040513d601f19601f82011682018060405250810190611dd291906131f8565b6001600160a01b031663acc5570c896040518263ffffffff1660e01b8152600401611dff91815260200190565b60c060405180830381865afa158015611e1c573d6000803e3d6000fd5b505050506040513d601f19601f82011682018060405250810190611e409190613215565b5050935093509350935060008588611e589190613098565b6040516370a0823160e01b81523060048201529091506000906001600160a01b038416906370a0823190602401602060405180830381865afa158015611ea2573d6000803e3d6000fd5b505050506040513d601f19601f82011682018060405250810190611ec69190613292565b9050611edd6001600160a01b03841633308c6125b6565b611ee789826130af565b6040516370a0823160e01b81523060048201526001600160a01b038516906370a0823190602401602060405180830381865afa158015611f2b573d6000803e3d6000fd5b505050506040513d601f19601f82011682018060405250810190611f4f9190613292565b1015611f6e576040516334d5114960e21b815260040160405180910390fd5b6001600160a01b0385161561210057611f916001600160a01b0384168684611839565b6040516370a0823160e01b81523060048201526000906001600160a01b038616906370a0823190602401602060405180830381865afa158015611fd8573d6000803e3d6000fd5b505050506040513d601f19601f82011682018060405250810190611ffc9190613292565b6040516312e779df60e21b8152600481018d905260248101859052604481018b90529091506001600160a01b03871690634b9de77c90606401600060405180830381600087803b15801561204f57600080fd5b505af1158015612063573d6000803e3d6000fd5b50505050888161207391906130af565b6040516370a0823160e01b81523060048201526001600160a01b038716906370a0823190602401602060405180830381865afa1580156120b7573d6000803e3d6000fd5b505050506040513d601f19601f820116820180604052508101906120db9190613292565b10156120fa57604051637152badd60e11b815260040160405180910390fd5b50612229565b6040516370a0823160e01b81523060048201526000906001600160a01b038616906370a0823190602401602060405180830381865afa158015612147573d6000803e3d6000fd5b505050506040513d601f19601f8201168201806040525081019061216b9190613292565b90506121826001600160a01b03861688308c6125b6565b61218c89826130af565b6040516370a0823160e01b81523060048201526001600160a01b038716906370a0823190602401602060405180830381865afa1580156121d0573d6000803e3d6000fd5b505050506040513d601f19601f820116820180604052508101906121f49190613292565b1015612213576040516334d5114960e21b815260040160405180910390fd5b6122276001600160a01b0385168885611839565b505b50505050505050505050565b600065ffffffffffff8216156122ab57620151808061225442856131ce565b61225e919061330b565b6122689190613691565b905060006122768483611035565b60008181526008602052604090205490915060ff1661229a5761229a8185846123b7565b6122a5868287612371565b50611831565b6118316001600160a01b0384168686611839565b6000828152600860209081526040918290208251608081018452815460ff81161515825261010081046001600160a01b031693820193909352600160a81b90920465ffffffffffff1692820183905260010154606082015290421015612348576040808201519051634fb1e97360e01b815265ffffffffffff909116600482015260240161063f565b6123533384846126d1565b602081015161236c906001600160a01b03163384611839565b505050565b61238c838383604051806020016040528060008152506126fd565b600082815260086020526040812060010180548392906123ad9084906130af565b9091555050505050565b6040805160808101825260018082526001600160a01b03858116602080850182815265ffffffffffff888116878901818152600060608a018181528e825260088752908b902099518a54955192516001600160a81b0319909616901515610100600160a81b0319161761010092909816919091029690961765ffffffffffff60a81b1916600160a81b93909216929092021786559251949093019390935592518681527fd5a20d99fad8d4fec2eae3eb7d21c0bebeaecce7cf87b698ddba05071e7bde27910160405180910390a3505050565b6060816000036124b15750506040805180820190915260018152600360fc1b602082015290565b8160005b81156124db57806124c581613191565b91506124d49050600a836133b8565b91506124b5565b60008167ffffffffffffffff8111156124f6576124f661299c565b6040519080825280601f01601f191660200182016040528015612520576020820181803683370190505b509050815b85156125ad57612536600182613098565b90506000612545600a886133b8565b61255090600a6136bf565b61255a9088613098565b6125659060306136de565b905060008160f81b9050808484815181106125825761258261306c565b60200101906001600160f81b031916908160001a9053506125a4600a896133b8565b97505050612525565b50949350505050565b604080516001600160a01b0385811660248301528481166044830152606480830185905283518084039091018152608490920183526020820180516001600160e01b03166323b872dd60e01b179052915160009283929088169161261a919061339c565b6000604051808303816000865af19150503d8060008114612657576040519150601f19603f3d011682016040523d82523d6000602084013e61265c565b606091505b509150915081801561268657508051158061268657508080602001905181019061268691906132d8565b6126c95760405162461bcd60e51b81526020600482015260146024820152731514905394d1915497d19493d357d1905253115160621b604482015260640161063f565b505050505050565b6126dc838383612841565b600082815260086020526040812060010180548392906123ad908490613098565b6001600160a01b0384166000908152600660209081526040808320868452909152812080548492906127309084906130af565b909155505060408051848152602081018490526001600160a01b0386169160009133917fc3d58168c5ae7397731d063d5bbf3d657854427343f4c083240f7aacaa2d0f62910160405180910390a46001600160a01b0384163b156128185760405163f23a6e6160e01b808252906001600160a01b0386169063f23a6e61906127c5903390600090899089908990600401613357565b6020604051808303816000875af11580156127e4573d6000803e3d6000fd5b505050506040513d601f19601f82011682018060405250810190612808919061314a565b6001600160e01b03191614612825565b6001600160a01b03841615155b6109b75760405162461bcd60e51b815260040161063f90613167565b6001600160a01b038316600090815260066020908152604080832085845290915281208054839290612874908490613098565b909155505060408051838152602081018390526000916001600160a01b0386169133917fc3d58168c5ae7397731d063d5bbf3d657854427343f4c083240f7aacaa2d0f62910160405180910390a4505050565b6001600160a01b03811681146128dc57600080fd5b50565b80356128ea816128c7565b919050565b6000806040838503121561290257600080fd5b823561290d816128c7565b946020939093013593505050565b6001600160e01b0319811681146128dc57600080fd5b60006020828403121561294357600080fd5b8135611d368161291b565b65ffffffffffff811681146128dc57600080fd5b60006020828403121561297457600080fd5b8135611d368161294e565b60006020828403121561299157600080fd5b8135611d36816128c7565b634e487b7160e01b600052604160045260246000fd5b604051601f8201601f1916810167ffffffffffffffff811182821017156129db576129db61299c565b604052919050565b600067ffffffffffffffff8211156129fd576129fd61299c565b5060051b60200190565b600082601f830112612a1857600080fd5b81356020612a2d612a28836129e3565b6129b2565b82815260059290921b84018101918181019086841115612a4c57600080fd5b8286015b84811015612a675780358352918301918301612a50565b509695505050505050565b600067ffffffffffffffff821115612a8c57612a8c61299c565b50601f01601f191660200190565b600082601f830112612aab57600080fd5b8135612ab9612a2882612a72565b818152846020838601011115612ace57600080fd5b816020850160208301376000918101602001919091529392505050565b600080600080600060a08688031215612b0357600080fd5b8535612b0e816128c7565b94506020860135612b1e816128c7565b9350604086013567ffffffffffffffff80821115612b3b57600080fd5b612b4789838a01612a07565b94506060880135915080821115612b5d57600080fd5b612b6989838a01612a07565b93506080880135915080821115612b7f57600080fd5b50612b8c88828901612a9a565b9150509295509295909350565b60008060408385031215612bac57600080fd5b823567ffffffffffffffff811115612bc357600080fd5b8301601f81018513612bd457600080fd5b80356020612be4612a28836129e3565b82815260059290921b83018101918181019088841115612c0357600080fd5b938201935b83851015612c2a578435612c1b816128c7565b82529382019390820190612c08565b9550612c3990508682016128df565b93505050509250929050565b600060208284031215612c5757600080fd5b5035919050565b60005b83811015612c79578181015183820152602001612c61565b838111156109b75750506000910152565b60008151808452612ca2816020860160208601612c5e565b601f01601f19169290920160200192915050565b604081526000612cc96040830185612c8a565b8281036020840152612cdb8185612c8a565b95945050505050565b60008060408385031215612cf757600080fd5b823567ffffffffffffffff80821115612d0f57600080fd5b818501915085601f830112612d2357600080fd5b81356020612d33612a28836129e3565b82815260059290921b84018101918181019089841115612d5257600080fd5b948201945b83861015612d79578535612d6a816128c7565b82529482019490820190612d57565b96505086013592505080821115612d8f57600080fd5b50612d9c85828601612a07565b9150509250929050565b600081518084526020808501945080840160005b83811015612dd657815187529582019590820190600101612dba565b509495945050505050565b602081526000611d366020830184612da6565b600080600080600060a08688031215612e0c57600080fd5b8535612e17816128c7565b94506020860135612e27816128c7565b94979496505050506040830135926060810135926080909101359150565b60008060408385031215612e5857600080fd5b50508035926020909101359150565b60008060408385031215612e7a57600080fd5b8235612e85816128c7565b91506020830135612e958161294e565b809150509250929050565b80151581146128dc57600080fd5b60008060408385031215612ec157600080fd5b8235612ecc816128c7565b91506020830135612e9581612ea0565b600080600060608486031215612ef157600080fd5b8335612efc816128c7565b92506020840135612f0c8161294e565b929592945050506040919091013590565b60008060408385031215612f3057600080fd5b8235612f3b816128c7565b91506020830135612e95816128c7565b60008083601f840112612f5d57600080fd5b50813567ffffffffffffffff811115612f7557600080fd5b6020830191508360208260051b8501011115612f9057600080fd5b9250929050565b60008060008060408587031215612fad57600080fd5b843567ffffffffffffffff80821115612fc557600080fd5b612fd188838901612f4b565b90965094506020870135915080821115612fea57600080fd5b50612ff787828801612f4b565b95989497509550505050565b600080600080600060a0868803121561301b57600080fd5b8535613026816128c7565b94506020860135613036816128c7565b93506040860135925060608601359150608086013567ffffffffffffffff81111561306057600080fd5b612b8c88828901612a9a565b634e487b7160e01b600052603260045260246000fd5b634e487b7160e01b600052601160045260246000fd5b6000828210156130aa576130aa613082565b500390565b600082198211156130c2576130c2613082565b500190565b6040815260006130da6040830185612da6565b8281036020840152612cdb8185612da6565b6001600160a01b0386811682528516602082015260a06040820181905260009061311890830186612da6565b828103606084015261312a8186612da6565b9050828103608084015261313e8185612c8a565b98975050505050505050565b60006020828403121561315c57600080fd5b8151611d368161291b565b60208082526010908201526f155394d0519157d49150d2541251539560821b604082015260600190565b6000600182016131a3576131a3613082565b5060010190565b6020808252600a90820152695245454e5452414e435960b01b604082015260600190565b600065ffffffffffff8083168185168083038211156131ef576131ef613082565b01949350505050565b60006020828403121561320a57600080fd5b8151611d36816128c7565b60008060008060008060c0878903121561322e57600080fd5b8651613239816128c7565b602088015190965061324a816128c7565b604088015190955061325b816128c7565b606088015190945061326c816128c7565b608088015190935061327d8161294e565b8092505060a087015190509295509295509295565b6000602082840312156132a457600080fd5b5051919050565b6001600160a01b0393841681529190921660208201526001600160e01b0319909116604082015260600190565b6000602082840312156132ea57600080fd5b8151611d3681612ea0565b634e487b7160e01b600052601260045260246000fd5b600065ffffffffffff80841680613324576133246132f5565b92169190910492915050565b600065ffffffffffff8381169083168181101561334f5761334f613082565b039392505050565b6001600160a01b03868116825285166020820152604081018490526060810183905260a06080820181905260009061339190830184612c8a565b979650505050505050565b600082516133ae818460208701612c5e565b9190910192915050565b6000826133c7576133c76132f5565b500490565b600080821280156001600160ff1b03849003851316156133ee576133ee613082565b600160ff1b839003841281161561340757613407613082565b50500190565b60006001600160ff1b038184138284138082168684048611161561343357613433613082565b600160ff1b600087128281168783058912161561345257613452613082565b6000871292508782058712848416161561346e5761346e613082565b8785058712818416161561348457613484613082565b505050929093029392505050565b6000826134a1576134a16132f5565b600160ff1b8214600019841416156134bb576134bb613082565b500590565b60008083128015600160ff1b8501841216156134de576134de613082565b6001600160ff1b03840183138116156134f9576134f9613082565b50500390565b60008261350e5761350e6132f5565b500690565b600360fc1b81526000825161352f816001850160208701612c5e565b9190910160010192915050565b60006020828403121561354e57600080fd5b815167ffffffffffffffff81111561356557600080fd5b8201601f8101841361357657600080fd5b8051613584612a2882612a72565b81815285602083850101111561359957600080fd5b612cdb826020830160208601612c5e565b600085516135bc818460208a01612c5e565b600160fd1b90830190815285516135da816001840160208a01612c5e565b808201915050602d60f81b80600183015285516135fe816002850160208a01612c5e565b60029201918201528351613619816003840160208801612c5e565b016003019695505050505050565b60008551613639818460208a01612c5e565b602d60f81b9083019081528551613657816001840160208a01612c5e565b855191019061366d816001840160208901612c5e565b8451910190613683816001840160208801612c5e565b016001019695505050505050565b600065ffffffffffff808316818516818304811182151516156136b6576136b6613082565b02949350505050565b60008160001904831182151516156136d9576136d9613082565b500290565b600060ff821660ff84168060ff038211156136fb576136fb613082565b01939250505056fea2646970667358221220af22c0be67bcfb9d23b9518e82f556bb23813e69c5bbe23a2f7b638146ef062f64736f6c634300080f0033",
    "linkReferences": {}
  },
  "methodIdentifiers": {
    "FEE_DECIMALS()": "ccf288c6",
    "authority()": "bf7e214f",
    "balanceOf(address,uint256)": "00fdd58e",
    "balanceOfBatch(address[],uint256[])": "4e1273f4",
    "batchRedeem(uint256[],uint256[])": "e9dc30f3",
    "claimFees(address[],address)": "2f6fa94e",
    "create(address,uint48,uint256)": "b7314ef9",
    "createFeeDiscount()": "06692a37",
    "deploy(address,uint48)": "c6e38a4b",
    "getFee(address)": "b88c9148",
    "getTokenId(address,uint48)": "92593277",
    "getTokenNameAndSymbol(uint256)": "35312c85",
    "isApprovedForAll(address,address)": "e985e9c5",
    "owner()": "8da5cb5b",
    "protocolFee()": "b0e21e8a",
    "purchase(address,address,uint256,uint256,uint256)": "6de5b4cd",
    "redeem(uint256,uint256)": "7cbc2373",
    "referrerFees(address)": "c23135dd",
    "rewards(address,address)": "e70b9e27",
    "safeBatchTransferFrom(address,address,uint256[],uint256[],bytes)": "2eb2c2d6",
    "safeTransferFrom(address,address,uint256,uint256,bytes)": "f242432a",
    "setApprovalForAll(address,bool)": "a22cb465",
    "setAuthority(address)": "7a9e5e4b",
    "setOwner(address)": "13af4035",
    "setProtocolFee(uint48)": "b1e55529",
    "setReferrerFee(uint48)": "0d4dfc21",
    "supportsInterface(bytes4)": "01ffc9a7",
    "tokenMetadata(uint256)": "6914db60"
  },
  "id": 42
}