{
  "abi": [
    {
      "inputs": [
        {
          "internalType": "uint256",
          "name": "userNum",
          "type": "uint256"
        }
      ],
      "name": "create",
      "outputs": [
        {
          "internalType": "address[]",
          "name": "",
          "type": "address[]"
        }
      ],
      "stateMutability": "nonpayable",
      "type": "function"
    },
    {
      "inputs": [],
      "name": "next",
      "outputs": [
        {
          "internalType": "address payable",
          "name": "",
          "type": "address"
        }
      ],
      "stateMutability": "nonpayable",
      "type": "function"
    }
  ],
  "bytecode": {
    "object": "0x737109709ecfa91a80626ff3989d68f67f5b1dd12d60805264757365727360d81b60c052600560a05260c56040527f39b41f4ff9d03853a3e5e26ffad8712de4330b640064cfa05d0a29978dea11c660005534801561005d57600080fd5b506080516102da610079600039600061014801526102da6000f3fe608060405234801561001057600080fd5b50600436106100365760003560e01c80634c8fe5261461003b578063780900dc1461007d575b600080fd5b600080546040805160208082018490528251808303820181528284019384905280519101209093556001600160a01b0390911690526060015b60405180910390f35b61009061008b3660046101eb565b61009d565b6040516100749190610204565b606060008267ffffffffffffffff8111156100ba576100ba610251565b6040519080825280602002602001820160405280156100e3578160200160208202803683370190505b50905060005b838110156101e457600080546040805160208082018490528251808303820181529183019092528051910120825560405163c88a5e6d60e01b81526001600160a01b03808316600483015268056bc75e2d6310000060248301529192507f00000000000000000000000000000000000000000000000000000000000000009091169063c88a5e6d90604401600060405180830381600087803b15801561018e57600080fd5b505af11580156101a2573d6000803e3d6000fd5b50505050808383815181106101b9576101b9610267565b6001600160a01b039092166020928302919091019091015250806101dc8161027d565b9150506100e9565b5092915050565b6000602082840312156101fd57600080fd5b5035919050565b6020808252825182820181905260009190848201906040850190845b818110156102455783516001600160a01b031683529284019291840191600101610220565b50909695505050505050565b634e487b7160e01b600052604160045260246000fd5b634e487b7160e01b600052603260045260246000fd5b60006001820161029d57634e487b7160e01b600052601160045260246000fd5b506001019056fea26469706673582212206c1875c95ef1b3d901bea3e6195abf1f97b82496b77ef65c3b568a65da9952b264736f6c634300080f0033",
    "linkReferences": {}
  },
  "methodIdentifiers": {
    "create(uint256)": "780900dc",
    "next()": "4c8fe526"
  },
  "id": 39
}