{
  "abi": [
    {
      "inputs": [
        {
          "internalType": "contract Kernel",
          "name": "kernel_",
          "type": "address"
        },
        {
          "internalType": "uint48",
          "name": "observationFrequency_",
          "type": "uint48"
        }
      ],
      "stateMutability": "nonpayable",
      "type": "constructor"
    },
    {
      "inputs": [
        {
          "internalType": "address",
          "name": "caller_",
          "type": "address"
        }
      ],
      "name": "KernelAdapter_OnlyKernel",
      "type": "error"
    },
    {
      "inputs": [],
      "name": "Price_CustomError",
      "type": "error"
    },
    {
      "inputs": [],
      "name": "INIT",
      "outputs": [],
      "stateMutability": "nonpayable",
      "type": "function"
    },
    {
      "inputs": [],
      "name": "KEYCODE",
      "outputs": [
        {
          "internalType": "Keycode",
          "name": "",
          "type": "bytes5"
        }
      ],
      "stateMutability": "pure",
      "type": "function"
    },
    {
      "inputs": [],
      "name": "VERSION",
      "outputs": [
        {
          "internalType": "uint8",
          "name": "major",
          "type": "uint8"
        },
        {
          "internalType": "uint8",
          "name": "minor",
          "type": "uint8"
        }
      ],
      "stateMutability": "pure",
      "type": "function"
    },
    {
      "inputs": [
        {
          "internalType": "contract Kernel",
          "name": "newKernel_",
          "type": "address"
        }
      ],
      "name": "changeKernel",
      "outputs": [],
      "stateMutability": "nonpayable",
      "type": "function"
    },
    {
      "inputs": [
        {
          "internalType": "uint48",
          "name": "movingAverageDuration_",
          "type": "uint48"
        }
      ],
      "name": "changeMovingAverageDuration",
      "outputs": [],
      "stateMutability": "nonpayable",
      "type": "function"
    },
    {
      "inputs": [
        {
          "internalType": "uint48",
          "name": "observationFrequency_",
          "type": "uint48"
        }
      ],
      "name": "changeObservationFrequency",
      "outputs": [],
      "stateMutability": "nonpayable",
      "type": "function"
    },
    {
      "inputs": [],
      "name": "currentPrice",
      "outputs": [
        {
          "internalType": "uint256",
          "name": "",
          "type": "uint256"
        }
      ],
      "stateMutability": "view",
      "type": "function"
    },
    {
      "inputs": [],
      "name": "decimals",
      "outputs": [
        {
          "internalType": "uint8",
          "name": "",
          "type": "uint8"
        }
      ],
      "stateMutability": "view",
      "type": "function"
    },
    {
      "inputs": [],
      "name": "getCurrentPrice",
      "outputs": [
        {
          "internalType": "uint256",
          "name": "",
          "type": "uint256"
        }
      ],
      "stateMutability": "view",
      "type": "function"
    },
    {
      "inputs": [],
      "name": "getLastPrice",
      "outputs": [
        {
          "internalType": "uint256",
          "name": "",
          "type": "uint256"
        }
      ],
      "stateMutability": "view",
      "type": "function"
    },
    {
      "inputs": [],
      "name": "getMovingAverage",
      "outputs": [
        {
          "internalType": "uint256",
          "name": "",
          "type": "uint256"
        }
      ],
      "stateMutability": "view",
      "type": "function"
    },
    {
      "inputs": [
        {
          "internalType": "uint256[]",
          "name": "startObservations_",
          "type": "uint256[]"
        },
        {
          "internalType": "uint48",
          "name": "lastObservationTime_",
          "type": "uint48"
        }
      ],
      "name": "initialize",
      "outputs": [],
      "stateMutability": "nonpayable",
      "type": "function"
    },
    {
      "inputs": [],
      "name": "kernel",
      "outputs": [
        {
          "internalType": "contract Kernel",
          "name": "",
          "type": "address"
        }
      ],
      "stateMutability": "view",
      "type": "function"
    },
    {
      "inputs": [],
      "name": "lastPrice",
      "outputs": [
        {
          "internalType": "uint256",
          "name": "",
          "type": "uint256"
        }
      ],
      "stateMutability": "view",
      "type": "function"
    },
    {
      "inputs": [],
      "name": "movingAverage",
      "outputs": [
        {
          "internalType": "uint256",
          "name": "",
          "type": "uint256"
        }
      ],
      "stateMutability": "view",
      "type": "function"
    },
    {
      "inputs": [],
      "name": "observationFrequency",
      "outputs": [
        {
          "internalType": "uint48",
          "name": "",
          "type": "uint48"
        }
      ],
      "stateMutability": "view",
      "type": "function"
    },
    {
      "inputs": [],
      "name": "result",
      "outputs": [
        {
          "internalType": "bool",
          "name": "",
          "type": "bool"
        }
      ],
      "stateMutability": "view",
      "type": "function"
    },
    {
      "inputs": [
        {
          "internalType": "uint256",
          "name": "currentPrice_",
          "type": "uint256"
        }
      ],
      "name": "setCurrentPrice",
      "outputs": [],
      "stateMutability": "nonpayable",
      "type": "function"
    },
    {
      "inputs": [
        {
          "internalType": "uint8",
          "name": "decimals_",
          "type": "uint8"
        }
      ],
      "name": "setDecimals",
      "outputs": [],
      "stateMutability": "nonpayable",
      "type": "function"
    },
    {
      "inputs": [
        {
          "internalType": "uint256",
          "name": "lastPrice_",
          "type": "uint256"
        }
      ],
      "name": "setLastPrice",
      "outputs": [],
      "stateMutability": "nonpayable",
      "type": "function"
    },
    {
      "inputs": [
        {
          "internalType": "uint256",
          "name": "movingAverage_",
          "type": "uint256"
        }
      ],
      "name": "setMovingAverage",
      "outputs": [],
      "stateMutability": "nonpayable",
      "type": "function"
    },
    {
      "inputs": [
        {
          "internalType": "bool",
          "name": "result_",
          "type": "bool"
        }
      ],
      "name": "setResult",
      "outputs": [],
      "stateMutability": "nonpayable",
      "type": "function"
    },
    {
      "inputs": [],
      "name": "updateMovingAverage",
      "outputs": [],
      "stateMutability": "view",
      "type": "function"
    }
  ],
  "bytecode": {
    "object": "0x608060405234801561001057600080fd5b506040516106cc3803806106cc83398101604081905261002f91610080565b600080546001600160a01b039093166001600160a01b0319909316929092179091556004805465ffffffffffff909216620100000267ffffffffffffff0019909216919091176101001790556100d1565b6000806040838503121561009357600080fd5b82516001600160a01b03811681146100aa57600080fd5b602084015190925065ffffffffffff811681146100c657600080fd5b809150509250929050565b6105ec806100e06000396000f3fe608060405234801561001057600080fd5b506004361061014d5760003560e01c80637d4dce76116100c3578063d4aae0c41161007c578063d4aae0c4146102e1578063d8cf24fd1461030c578063ea64391414610314578063eb91d37e1461031c578063f4b4dc2e14610324578063ffa1ad741461034c57600080fd5b80637d4dce761461026f57806386db7df0146102a55780638a157337146102ad578063902a35b9146102be5780639d1b464a146102d0578063b5e71305146102d957600080fd5b80633ccec9c4116101155780633ccec9c4146101cb5780634657b36c146101d457806365372147146101e75780636cb56dbc146102095780637321f1001461021c5780637a1395aa1461024b57600080fd5b8063053f14da1461015257806318b200711461016e5780631ae7ec2e146101835780632c19abb914610199578063313ce567146101ac575b600080fd5b61015b60025481565b6040519081526020015b60405180910390f35b61018161017c36600461040c565b600355565b005b60405164505249434560d81b8152602001610165565b6101816101a736600461040c565b600255565b6004546101b99060ff1681565b60405160ff9091168152602001610165565b61015b60015481565b6101816101e2366004610425565b610361565b6004546101f990610100900460ff1681565b6040519015158152602001610165565b61018161021736600461040c565b600155565b6004546102349062010000900465ffffffffffff1681565b60405165ffffffffffff9091168152602001610165565b610181610259366004610455565b6004805460ff191660ff92909216919091179055565b61018161027d366004610493565b6004805465ffffffffffff909216620100000267ffffffffffff000019909216919091179055565b6101816103b5565b6101816102bb366004610493565b50565b6101816102cc3660046104c4565b5050565b61015b60035481565b60015461015b565b6000546102f4906001600160a01b031681565b6040516001600160a01b039091168152602001610165565b60025461015b565b6101816103df565b60035461015b565b610181610332366004610594565b600480549115156101000261ff0019909216919091179055565b60408051600181526000602082015201610165565b6000546001600160a01b031633146103935760405163053e900f60e21b81523360048201526024015b60405180910390fd5b600080546001600160a01b0319166001600160a01b0392909216919091179055565b600454610100900460ff166103dd57604051632cd2cbf760e01b815260040160405180910390fd5b565b6000546001600160a01b031633146103dd5760405163053e900f60e21b815233600482015260240161038a565b60006020828403121561041e57600080fd5b5035919050565b60006020828403121561043757600080fd5b81356001600160a01b038116811461044e57600080fd5b9392505050565b60006020828403121561046757600080fd5b813560ff8116811461044e57600080fd5b803565ffffffffffff8116811461048e57600080fd5b919050565b6000602082840312156104a557600080fd5b61044e82610478565b634e487b7160e01b600052604160045260246000fd5b600080604083850312156104d757600080fd5b823567ffffffffffffffff808211156104ef57600080fd5b818501915085601f83011261050357600080fd5b8135602082821115610517576105176104ae565b8160051b604051601f19603f8301168101818110868211171561053c5761053c6104ae565b60405292835281830193508481018201928984111561055a57600080fd5b948201945b838610156105785785358552948201949382019361055f565b96506105879050878201610478565b9450505050509250929050565b6000602082840312156105a657600080fd5b8135801515811461044e57600080fdfea264697066735822122093ef11ce5d116e5943ee1c265c4a087eb183a8ae79e2891c5b6e0be8de840d0c64736f6c634300080f0033",
    "linkReferences": {}
  },
  "methodIdentifiers": {
    "INIT()": "ea643914",
    "KEYCODE()": "1ae7ec2e",
    "VERSION()": "ffa1ad74",
    "changeKernel(address)": "4657b36c",
    "changeMovingAverageDuration(uint48)": "8a157337",
    "changeObservationFrequency(uint48)": "7d4dce76",
    "currentPrice()": "9d1b464a",
    "decimals()": "313ce567",
    "getCurrentPrice()": "eb91d37e",
    "getLastPrice()": "d8cf24fd",
    "getMovingAverage()": "b5e71305",
    "initialize(uint256[],uint48)": "902a35b9",
    "kernel()": "d4aae0c4",
    "lastPrice()": "053f14da",
    "movingAverage()": "3ccec9c4",
    "observationFrequency()": "7321f100",
    "result()": "65372147",
    "setCurrentPrice(uint256)": "18b20071",
    "setDecimals(uint8)": "7a1395aa",
    "setLastPrice(uint256)": "2c19abb9",
    "setMovingAverage(uint256)": "6cb56dbc",
    "setResult(bool)": "f4b4dc2e",
    "updateMovingAverage()": "86db7df0"
  },
  "id": 58
}