{
  "abi": [
    {
      "inputs": [
        {
          "internalType": "contract Kernel",
          "name": "kernel_",
          "type": "address"
        },
        {
          "internalType": "address",
          "name": "ohm_",
          "type": "address"
        }
      ],
      "stateMutability": "nonpayable",
      "type": "constructor"
    },
    {
      "inputs": [
        {
          "internalType": "address",
          "name": "caller_",
          "type": "address"
        }
      ],
      "name": "KernelAdapter_OnlyKernel",
      "type": "error"
    },
    {
      "inputs": [
        {
          "internalType": "address",
          "name": "policy_",
          "type": "address"
        }
      ],
      "name": "Module_PolicyNotPermitted",
      "type": "error"
    },
    {
      "inputs": [],
      "name": "INIT",
      "outputs": [],
      "stateMutability": "nonpayable",
      "type": "function"
    },
    {
      "inputs": [],
      "name": "KEYCODE",
      "outputs": [
        {
          "internalType": "Keycode",
          "name": "",
          "type": "bytes5"
        }
      ],
      "stateMutability": "pure",
      "type": "function"
    },
    {
      "inputs": [],
      "name": "VERSION",
      "outputs": [
        {
          "internalType": "uint8",
          "name": "major",
          "type": "uint8"
        },
        {
          "internalType": "uint8",
          "name": "minor",
          "type": "uint8"
        }
      ],
      "stateMutability": "pure",
      "type": "function"
    },
    {
      "inputs": [
        {
          "internalType": "address",
          "name": "from_",
          "type": "address"
        },
        {
          "internalType": "uint256",
          "name": "amount_",
          "type": "uint256"
        }
      ],
      "name": "burnOhm",
      "outputs": [],
      "stateMutability": "nonpayable",
      "type": "function"
    },
    {
      "inputs": [
        {
          "internalType": "contract Kernel",
          "name": "newKernel_",
          "type": "address"
        }
      ],
      "name": "changeKernel",
      "outputs": [],
      "stateMutability": "nonpayable",
      "type": "function"
    },
    {
      "inputs": [],
      "name": "kernel",
      "outputs": [
        {
          "internalType": "contract Kernel",
          "name": "",
          "type": "address"
        }
      ],
      "stateMutability": "view",
      "type": "function"
    },
    {
      "inputs": [
        {
          "internalType": "address",
          "name": "to_",
          "type": "address"
        },
        {
          "internalType": "uint256",
          "name": "amount_",
          "type": "uint256"
        }
      ],
      "name": "mintOhm",
      "outputs": [],
      "stateMutability": "nonpayable",
      "type": "function"
    },
    {
      "inputs": [],
      "name": "ohm",
      "outputs": [
        {
          "internalType": "contract OlympusERC20Token",
          "name": "",
          "type": "address"
        }
      ],
      "stateMutability": "view",
      "type": "function"
    }
  ],
  "bytecode": {
    "object": "0x60a060405234801561001057600080fd5b506040516105c03803806105c083398101604081905261002f9161006c565b600080546001600160a01b0319166001600160a01b03938416179055166080526100a6565b6001600160a01b038116811461006957600080fd5b50565b6000806040838503121561007f57600080fd5b825161008a81610054565b602084015190925061009b81610054565b809150509250929050565b6080516104f26100ce60003960008181609201528181610223015261039f01526104f26000f3fe608060405234801561001057600080fd5b50600436106100885760003560e01c8063aaf0ad5a1161005b578063aaf0ad5a1461010f578063d4aae0c414610122578063ea64391414610135578063ffa1ad741461013d57600080fd5b806302b1d2391461008d5780631ae7ec2e146100d15780633a56e307146100e75780634657b36c146100fc575b600080fd5b6100b47f000000000000000000000000000000000000000000000000000000000000000081565b6040516001600160a01b0390911681526020015b60405180910390f35b6040516426a4a72a2960d91b81526020016100c8565b6100fa6100f5366004610415565b610152565b005b6100fa61010a366004610441565b610284565b6100fa61011d366004610415565b6102d3565b6000546100b4906001600160a01b031681565b6100fa6103ce565b604080516001815260006020820152016100c8565b6000546001600160a01b031663f166d9eb6426a4a72a2960d91b336000356001600160e01b0319166040518463ffffffff1660e01b815260040161019893929190610465565b602060405180830381865afa1580156101b5573d6000803e3d6000fd5b505050506040513d601f19601f820116820180604052508101906101d9919061049a565b6101fd576040516311bf00c960e01b81523360048201526024015b60405180910390fd5b6040516340c10f1960e01b81526001600160a01b038381166004830152602482018390527f000000000000000000000000000000000000000000000000000000000000000016906340c10f19906044015b600060405180830381600087803b15801561026857600080fd5b505af115801561027c573d6000803e3d6000fd5b505050505050565b6000546001600160a01b031633146102b15760405163053e900f60e21b81523360048201526024016101f4565b600080546001600160a01b0319166001600160a01b0392909216919091179055565b6000546001600160a01b031663f166d9eb6426a4a72a2960d91b336000356001600160e01b0319166040518463ffffffff1660e01b815260040161031993929190610465565b602060405180830381865afa158015610336573d6000803e3d6000fd5b505050506040513d601f19601f8201168201806040525081019061035a919061049a565b610379576040516311bf00c960e01b81523360048201526024016101f4565b60405163079cc67960e41b81526001600160a01b038381166004830152602482018390527f000000000000000000000000000000000000000000000000000000000000000016906379cc67909060440161024e565b6000546001600160a01b031633146103fb5760405163053e900f60e21b81523360048201526024016101f4565b565b6001600160a01b038116811461041257600080fd5b50565b6000806040838503121561042857600080fd5b8235610433816103fd565b946020939093013593505050565b60006020828403121561045357600080fd5b813561045e816103fd565b9392505050565b6001600160d81b03199390931683526001600160a01b039190911660208301526001600160e01b031916604082015260600190565b6000602082840312156104ac57600080fd5b8151801515811461045e57600080fdfea2646970667358221220803f62790f6914a43ae399724da75c8f08d5dc8a70b6f7282a528d03651878b264736f6c634300080f0033",
    "linkReferences": {}
  },
  "methodIdentifiers": {
    "INIT()": "ea643914",
    "KEYCODE()": "1ae7ec2e",
    "VERSION()": "ffa1ad74",
    "burnOhm(address,uint256)": "aaf0ad5a",
    "changeKernel(address)": "4657b36c",
    "kernel()": "d4aae0c4",
    "mintOhm(address,uint256)": "3a56e307",
    "ohm()": "02b1d239"
  },
  "id": 22
}